:020000040000fa
:020000040800f2
:10000000f0ff1120f510000c731b000ce320000c16
:100010003326000c3128000c3328000c00000000af
:100020000000000000000000000000003728000c65
:100030003f24000c000000003728000c3728000c7b
:100040003728000c3728000c3728000c3728000c04
:100050003728000c3728000c3728000c3728000cf4
:100060003728000c3728000c3728000c3728000ce4
:100070003728000c3728000c3728000c6923000ca7
:100080006923000c6923000c6923000c3728000c3d
:100090003728000c3728000c3728000c3728000cb4
:1000a0003728000c3728000c2d25000c0925000ce2
:1000b0003728000c3728000c3728000c3728000c94
:1000c0003728000c3728000c3728000c3728000c84
:1000d0003728000c3728000c3728000cb924000cf6
:1000e0009124000c6924000c4124000c3728000cda
:1000f0003728000c3728000c3728000c3728000c54
:100100003728000c3728000c3728000c3728000c43
:100110003728000c3728000c3728000c250f000c5e
:10012000250f000c250f000c250f000c250f000ccf
:10013000250f000c250f000c3728000c3728000c69
:100140003728000c3728000c3728000c3728000c03
:100150003728000c3728000c3728000c3728000cf3
:100160003728000c3728000c3728000c3728000ce3
:100170003728000c3728000c3728000c3728000cd3
:1003600000000000000000003728000c3728000cb7
:100370003728000c3728000c3728000c3728000cd1
:100380003728000c3728000c3728000c3728000cc1
:100390003728000c3728000c3728000c3728000cb1
:1003a0003728000c3728000c3728000c3728000ca1
:0803b0003728000c3728000c6f
:020000040000fa
:020000040a00f0
:040000000100fefffe
:020000040000fa
:020000040a00f0
:04002000ffffffffe0
:020000040000fa
:020000040a00f0
:0400400000000000bc
:020000040000fa
:020000040a00f0
:04004400ffffffffbc
:020000040000fa
:020000040a00f0
:0400480001000000b3
:020000040000fa
:020000040a00f0
:04004c00410400006b
:020000040000fa
:020000040a00f0
:04005400ffff0000aa
:020000040000fa
:020000040a00f0
:040058007000000034
:020000040000fa
:020000040a00f0
:04005c00020000009e
:020000040000fa
:020000040a00f0
:04006000000000009c
:020000040000fa
:020000040a00f0
:040064000202000094
:020000040000fa
:020000040a00f0
:04008000ffffffff80
:020000040000fa
:020000040a00f0
:0400a000ffffffff60
:020000040000fa
:020000040a00f0
:04200000000000c01c
:020000040000fa
:020000040a00f0
:042004000100feffda
:020000040000fa
:020000040a00f0
:04200800ffffffffd8
:020000040000fa
:020000040a00f0
:04208000ffffffff60
:020000040000fa
:020000040a00f0
:04208400ffffffff5c
:020000040000fa
:020000040a00f0
:04208800ffffffff58
:020000040000fa
:020000040a00f0
:04208c00ffffffff54
:020000040000fa
:020000040a00f0
:04209000ffffffff50
:020000040000fa
:020000040a00f0
:04209400ffffffff4c
:020000040000fa
:020000040a00f0
:04209800ffffffff48
:020000040000fa
:020000040a00f0
:04209c00ffffffff44
:020000040000fa
:020000040a00f0
:0420a000ffffffff40
:020000040000fa
:020000040a00f0
:0420a400ffffffff3c
:020000040000fa
:020000040a00f0
:0420a800ffffffff38
:020000040000fa
:020000040a00f0
:0420ac00ffffffff34
:020000040000fa
:020000040a00f0
:0420b000ffffffff30
:020000040000fa
:020000040a00f0
:0420b400ffffffff2c
:020000040000fa
:020000040a00f0
:0420b800ffffffff28
:020000040000fa
:020000040a00f0
:0420bc00ffffffff24
:020000040000fa
:020000040a00f0
:0420c000ffffffff20
:020000040000fa
:020000040a00f0
:0420c400ffffffff1c
:020000040000fa
:020000040a00f0
:0420c800ffffffff18
:020000040000fa
:020000040a00f0
:0420cc00ffffffff14
:020000040000fa
:020000040a00f0
:0420d000ffffffff10
:020000040000fa
:020000040a00f0
:0420d400ffffffff0c
:020000040000fa
:020000040a00f0
:0420d800ffffffff08
:020000040000fa
:020000040a00f0
:0420dc00ffffffff04
:020000040000fa
:020000040a00f0
:0420e00006070000ef
:020000040000fa
:020000040a00f0
:0420e40004cf0f0016
:020000040000fa
:020000040a00f0
:0420e80006f70401f2
:020000040000fa
:020000040a00f0
:0420ec00863a000030
:020000040000fa
:020000040a00f0
:0420f000ff030000ea
:020000040000fa
:020000040a00f0
:0420f4003f000000a9
:020000040000fa
:020000040a00f0
:0420f800bf00000025
:020000040000fa
:020000040a00f0
:0420fc00ffffffffe4
:020000040000fa
:020000040a00f0
:04210000ffffffffdf
:020000040000fa
:020000040a00f0
:04211000ffffffffcf
:020000040000fa
:020000040a00f0
:04211400ffffffffcb
:020000040000fa
:020000040a00f0
:04211800ffffffffc7
:020000040000fa
:020000040a00f0
:04211c00ffffffffc3
:020000040000fa
:020000040a00f0
:04212000ffffffffbf
:020000040000fa
:020000040a00f0
:048000000000ffff7e
:020000040000fa
:020000040a00f0
:04802000ffffffff60
:020000040000fa
:020000040a00f0
:0480400044000000f8
:020000040000fa
:020000040a00f0
:04804400ffffffff3c
:020000040000fa
:020000040a00f0
:048048000100000033
:020000040000fa
:020000040a00f0
:04804c0041040000eb
:020000040000fa
:020000040a00f0
:04805400ffff00002a
:020000040000fa
:020000040a00f0
:0480580070000000b4
:020000040000fa
:020000040a00f0
:04805c00020000001e
:020000040000fa
:020000040a00f0
:04806000000000001c
:020000040000fa
:020000040a00f0
:048064000202000014
:020000040000fa
:020000040a00f0
:04808000ffffffff00
:020000040000fa
:020000040a00f0
:0480a000ffffffffe0
:020000040000fa
:020000040a00f0
:04a00000000000c09c
:020000040000fa
:020000040a00f0
:04a004000000ffff5a
:020000040000fa
:020000040a00f0
:04a00800ffffffff58
:020000040000fa
:020000040a00f0
:04a08000ffffffffe0
:020000040000fa
:020000040a00f0
:04a08400ffffffffdc
:020000040000fa
:020000040a00f0
:04a08800ffffffffd8
:020000040000fa
:020000040a00f0
:04a08c00ffffffffd4
:020000040000fa
:020000040a00f0
:04a09000ffffffffd0
:020000040000fa
:020000040a00f0
:04a09400ffffffffcc
:020000040000fa
:020000040a00f0
:04a09800ffffffffc8
:020000040000fa
:020000040a00f0
:04a09c00ffffffffc4
:020000040000fa
:020000040a00f0
:04a0a000ffffffffc0
:020000040000fa
:020000040a00f0
:04a0a400ffffffffbc
:020000040000fa
:020000040a00f0
:04a0a800ffffffffb8
:020000040000fa
:020000040a00f0
:04a0ac00ffffffffb4
:020000040000fa
:020000040a00f0
:04a0b000ffffffffb0
:020000040000fa
:020000040a00f0
:04a0b400ffffffffac
:020000040000fa
:020000040a00f0
:04a0b800ffffffffa8
:020000040000fa
:020000040a00f0
:04a0bc00ffffffffa4
:020000040000fa
:020000040a00f0
:04a0c000ffffffffa0
:020000040000fa
:020000040a00f0
:04a0c400ffffffff9c
:020000040000fa
:020000040a00f0
:04a0c800ffffffff98
:020000040000fa
:020000040a00f0
:04a0cc00ffffffff94
:020000040000fa
:020000040a00f0
:04a0d000ffffffff90
:020000040000fa
:020000040a00f0
:04a0d400ffffffff8c
:020000040000fa
:020000040a00f0
:04a0d800ffffffff88
:020000040000fa
:020000040a00f0
:04a0dc00ffffffff84
:020000040000fa
:020000040a00f0
:04a0e000060700006f
:020000040000fa
:020000040a00f0
:04a0e40004cf0f0096
:020000040000fa
:020000040a00f0
:04a0e80006f7040172
:020000040000fa
:020000040a00f0
:04a0ec00863a0000b0
:020000040000fa
:020000040a00f0
:04a0f000ff0300006a
:020000040000fa
:020000040a00f0
:04a0f4003f00000029
:020000040000fa
:020000040a00f0
:04a0f800bf000000a5
:020000040000fa
:020000040a00f0
:04a0fc00ffffffff64
:020000040000fa
:020000040a00f0
:04a10000ffffffff5f
:020000040000fa
:020000040a00f0
:04a11000ffffffff4f
:020000040000fa
:020000040a00f0
:04a11400ffffffff4b
:020000040000fa
:020000040a00f0
:04a11800ffffffff47
:020000040000fa
:020000040a00f0
:04a11c00ffffffff43
:020000040000fa
:020000040a00f0
:04a12000ffffffff3f
:020000040000fa
:020000040c00ee
:10000000f8b500bff8bc08bc9e4670474d21000cf7
:10001000f8b500bff8bc08bc9e4670472921000c0b
:020000040000fa
:020000040c00ee
:08002000480c00000100000083
:020000040000fa
:020000040c00ee
:10002800b00502202800000000000000080402209b
:10003800c000000000000000d80502200c000000ed
:1000480000000000840502202c00000000000000d1
:100058000206022002000000000000000006022044
:100068000200000000000000040602200500000055
:1000780000000000d004022064000000000000001e
:100088000906022001000000010000000100000034
:10009800f0050220040000000000000034050220e2
:1000a80050000000000000000c0602206c00000058
:1000b800010000001806022014060220180602207b
:1000c80000000000250000000800022000040000d5
:1000d8000000000000000000000000000000000018
:1000e8000000000000000000000000000000000008
:1000f8002528000c0000000000000000000000009f
:1001080000000000a91c000c000000000000000016
:1001180000000000000000000000000000000000d7
:10012800000002200804000000000000d806022099
:100138002000000001000000010000000300000092
:1001480000000000000000000000000000000000a7
:1001580000000000c8040220c804022008000000b3
:1001680000000000f4050220080000000000000064
:100178007806022060000000010000000100000075
:100188000300000000000000000000000000000064
:100198000000000000000000c51d000c0000000069
:1001a80000000000000000000d28000c3d28000c95
:1001b8000000000000000000000000000000000037
:1001c8000000000000000000000000000000000027
:1001d800000000000000000000000000f8060220f7
:1001e800040000000100000001000000fc050220de
:1001f8000400000000000000e40502200c000000dc
:100208000000000000000000b8030000010000002a
:10021800f0ff1120f510000c731b000ce320000cfc
:100228003326000c3128000c3328000c0000000095
:100238000000000000000000000000003728000c4b
:100248003f24000c000000003728000c3728000c61
:100258003728000c3728000c3728000c3728000cea
:100268003728000c3728000c3728000c3728000cda
:100278003728000c3728000c3728000c3728000cca
:100288003728000c3728000c3728000c6923000c8d
:100298006923000c6923000c6923000c3728000c23
:1002a8003728000c3728000c3728000c3728000c9a
:1002b8003728000c3728000c2d25000c0925000cc8
:1002c8003728000c3728000c3728000c3728000c7a
:1002d8003728000c3728000c3728000c3728000c6a
:1002e8003728000c3728000c3728000cb924000cdc
:1002f8009124000c6924000c4124000c3728000cc0
:100308003728000c3728000c3728000c3728000c39
:100318003728000c3728000c3728000c3728000c29
:100328003728000c3728000c3728000c250f000c44
:10033800250f000c250f000c250f000c250f000cb5
:10034800250f000c250f000c3728000c3728000c4f
:100358003728000c3728000c3728000c3728000ce9
:100368003728000c3728000c3728000c3728000cd9
:100378003728000c3728000c3728000c3728000cc9
:100388003728000c3728000c3728000c3728000cb9
:1005780000000000000000003728000c3728000c9d
:100588003728000c3728000c3728000c3728000cb7
:100598003728000c3728000c3728000c3728000ca7
:1005a8003728000c3728000c3728000c3728000c97
:1005b8003728000c3728000c3728000c3728000c87
:1005c8003728000c3728000c00000000000000004d
:020000040000fa
:020000040c00ee
:1005d80080b59cb06422002103a802f0b5f8002081
:1005e80001f034fd0021c14802f0e8f80022c049ba
:1005f800104601f0d5ff0021be4802f0d9f80022cc
:10060800bd49082001f036fe0022bc49072001f050
:1006180031fe02f00bf8ba4e06f01f0706f164052a
:100628003d44a7e0b74b1b781bb1b74b1b78002b99
:100638003cd1b64b1b78002b00f09c80b34b0022ba
:100648001a70b34b1b78002b66d0012b6cd0022b91
:1006580072d0032b78d0002002f03af8ac4b1a780d
:1006680002eb820203acab4b03eb8202aa492046a1
:1006780001f0ceff224604f01f03bff34f8fa749b6
:1006880064321a44c1f868422034131b002bf9dc89
:10069800bff34f8fbff36f8f03a801f0d3ff03465b
:1006a8009f4a03a9002001f0cbfa63e00024954b90
:1006b8001c70954b1c709b4b4ff48052c3f81c2147
:1006c800dff8788298f80000914b1a7802eb8202e2
:1006d800904b03eb82029449304401f099ff88f86b
:1006e80000403146bff34f8f33468c48643139445c
:1006f800c0f868322033ca1a002af9dcbff34f8fda
:10070800bff36f8f304601f09dff0346844a3146a0
:10071800002001f095fa8ce77d4b01221a704ff406
:10072800806001f0dfff96e7794b02221a704ff4e0
:10073800006001f0d7ff8ee7754b03221a704ff463
:10074800805001f0cfff86e7714b00221a704ff4fa
:10075800007001f0c7ff7ee76a4b00221a7002237f
:100768000093724b012272494f2001f035fd714b05
:100778001b784bb9704b1b78002b3ff453af614b80
:100788001b78002bf3d0e7e76a4b00221a705f4b07
:100798001b78002b3fd1654a1178537843ea01232f
:1007a80043f3c8131bb207ee103abaeeef7b634c63
:1007b8002078bdeec77b17ee103a1bb203ebc303dc
:1007c8005f4981fb0321da17c2eb61022032d2b202
:1007d8005c49304401f01cff00232370514b4ff457
:1007e8008052c3f81c21bff34f8f33464b49c1f8e1
:1007f80068322033ea1a002af9dcbff34f8fbff3bf
:100808006f8f304601f01eff0346454a31460020ef
:1008180001f016faaee700203c4b187001f058ffc3
:100828003b4b1b7843b1012b1fd0022b32d0032b3b
:1008380045d001f0fbfed6e7354b01221a7034464d
:10084800dff804c1bce80f000fc4bce80f000fc4f8
:100858009ce8030044f8040b24f8021b090c2170df
:100868004ff4806001f03effe3e7294b02221a7043
:100878003446dff8d8c0bce80f000fc4bce80f004e
:100888000fc49ce8030084e803004ff4006001f003
:1008980029ffcee71e4b03221a703446dff8b0c09a
:1008a800bce80f000fc4bce80f000fc49ce80300ad
:1008b80084e803004ff4805001f014ffb9e7144bab
:1008c80000221a703446dff88cc0bce80f000fc451
:1008d800bce80f000fc49ce8030044f8040b217027
:1008e8004ff4007001f0fefea3e700bf2927000cbb
:1008f8001527000c0127000cdd27000c8d19000cb2
:10090800d004022005060220090602200306022060
:10091800080602201c1f000c1c12000c00ed00e051
:1009280028200046000084440012000c0006022023
:1009380004060220060602200706022002060220fc
:10094800676666664412000c5c12000c8412000c88
:08095800ac12000cd412000cdb
:020000040000fa
:020000040c00ee
:100960002de9f041aeb006461546059100270599e0
:100970000b78002b00f0fa8000244ff0ff33cde914
:1009800009430eab0c9380230b940d930b5d0bb1bd
:10099000252b26d134b12246304601f003fc059bbd
:1009a00023440593059b1a78252a40f0d78003f14c
:1009b0000108cdf81480059803782b2b1ad025d880
:1009c000202b1bd0232b1dd02a2b27d001f066fb18
:1009d0000b90059b1a78303a092a2ed801330593db
:1009e000f7e70134d2e7099b43f001030130099393
:1009f0000590e0e7099b43f00403f7e7099b43f008
:100a00000803f3e7099b43f01003efe72d2bead02f
:100a1000302bd9d1099b43f00203e7e72b681a1d5d
:100a20001b682a600130002b05900b9305da099aa8
:100a30005b4282f0010209920b93099bda0744bfe3
:100a400023f002030993059b1a782e2a0dd1002268
:100a5000581c0a9205905a782a2a25d10233059308
:100a60002b681a1d1b682a600a9305a801f07cfbfd
:100a7000059b0390187801f098fe6928039979d0b6
:100a800032dc632800f0cb8019dc252800f0d98007
:100a9000612853d000234ff0ff32cdf81480099322
:100aa0000b930a920093d4e001f0f8fa0a90059ba8
:100ab0001a78303a092ad8d801330593f7e7642821
:100ac00058d06728e6dc2a4606a801f079fc002801
:100ad00000f0a180059b5a1c05921b7806aa09a963
:100ae000304601f09dfe38e0702873d015dc6e288a
:100af00000f08c806f28cdd12b46002206a800f094
:100b000047fd002800f08780059b06aa013309a94c
:100b10003046059301f082fe1fe075283ad0782810
:100b200048d07328b6d1802975d1059b2a68013336
:100b30000593131d2b60126800237de02a4606a84a
:100b400001f03efc002866d0059b5a1c05921b78dc
:100b500006aa09a9304601f063fe04443c44a742ba
:100b60007add3e4b4f221a604ff0ff3738462eb0e9
:100b7000bde8f0812b46012206a800f009fd0028ff
:100b800049d0059b06aa013309a93046059300f018
:100b900055fde2e72b46002206a800f0f9fc0028ec
:100ba00039d0059b06aa013309a93046059301f007
:100bb00035fed2e72b46002206a800f0e9fc50b330
:100bc000059b5a1c05921b7806aa09a9304601f01c
:100bd00027fec2e72b460022f02106a800f0d8fc31
:100be000c8b1059b01330593dde9062313430bd1ff
:100bf0001b4801f02bfd099b009319490b9b0246f2
:100c0000304600f03ffea8e77823dde72b463a198f
:100c100006a800f0f9fe059b013305939ee78029a5
:100c2000f9d1059b013305932b681a1d1b682a60b7
:100c30008df8183006aa012309a9304601f0f0f812
:100c40008be78029e7d1059b01330593099b00932e
:100c50000b9b04490122d3e7274688e6f8050220ca
:080c6000f427000cfa27000c38
:020000040000fa
:020000040c00ee
:100c68002de9f04f099f154604468e461e46002b77
:100c780040f0cc808a42b2fa82fc4cd9bcf1000f19
:100c88000bd0ccf1200801fa0cfe20fa08f802fa81
:100c98000cf548ea0e0e00fa0cf44fea15491ffa53
:100ca80085f8befbf9fa210c09fb1ae30afb08fbdd
:100cb80041ea03439b452ad9eb180af1ff3004d2d5
:100cc8009b4502d9aaf102002b44a3eb0b03a4b263
:100cd800b3fbf9f209fb123302fb08f844ea0344b8
:100ce800a04516d92c1902f1ff3303d2a04501d92a
:100cf800931e2c44a4eb080443ea004027b124facd
:100d08000cf400233c607b603146bde8f08f504610
:100d1800dbe71346eee702b9ffdebcf1000f2ed188
:100d28008b1a01264fea154eaab2b3fbfef8210c26
:100d38000efb183308fb02f941ea0343994561d9d0
:100d4800eb1808f1ff3004d2994502d9a8f1020046
:100d58002b44a3eb0903a4b2b3fbfef10efb113342
:100d68004a4344ea0344a2424ed92c1901f1ff3305
:100d780003d2a24201d98b1e2c44a41abce7ccf1a1
:100d8800200e02fa0cf521fa0ef901fa0cf320fafa
:100d98000efe4eea03034fea154800fa0cf4b9fbbd
:100da800f8f11ffa85fe08fb1192180c01fb0ef6ec
:100db80040ea0242964221d9aa1801f1ff3003d233
:100dc800964201d9881e2a44921b9bb2b2fbf8f9bd
:100dd80008fb192209fb0efe43ea02439e450fd980
:100de800eb1809f1ff3604d29e4502d9a9f1020693
:100df8002b44a3eb0e0346ea004693e70846e3e7d5
:100e08004e46f6e74046a4e70b46b6e78b4206d9be
:100e1800002f7ed00026c7e90001304674e7b3faf8
:100e280083fcbcf1000f0fd18b4201d3824209d859
:100e3800841a61eb030e0120002f6dd0c7e9004e24
:100e4800002661e76046f7e7ccf1200e03fa0cf3c1
:100e580022fa0ef521fa0ef41d4301fa0cf320fada
:100e68000ef10b434fea154a00fa0cf6b4fbfaf9f7
:100e78001ffa85f80afb19401c0c09fb08f144ea23
:100e88000044a14202fa0cf23fd92c1909f1ff30b3
:100e980004d2a14202d9a9f102002c44641a9bb2df
:100ea800b4fbfaf90afb194409fb08f843ea0441c0
:100eb80088452cd9691809f1ff3304d2884502d92d
:100ec800a9f10203294443ea0040a1eb0801a0fb71
:100ed80002894945c2464c4602d306d1464504d24a
:100ee800b8eb020a69eb05040138afb1b6eb0a03a7
:100ef80061eb040606fa0efe23fa0cf34eea03032e
:100f080026fa0cf6c7e900369ae74846c6e74b4684
:0c0f1800d9e73e463846f7e63e46f5e6cf
:020000040000fa
:020000040c00ee
:100f24004ff08c439b7d002b00f0df8010b56f4b9e
:100f34009c6a4ff08c435b8b13f0020f16d06b4b03
:100f4400ff2283f82020022283f82120674b93f8a4
:100f540020305bb2b3f1ff3f00f09280634b93f813
:100f640020305bb2062b00f0a68010bd4ff08c43fe
:100f74005b8b13f0010f07d05c4bff2283f820201a
:100f8400022283f82120e1e74ff08c435b8b13f0be
:100f9400040f07d0554bff2283f82020012283f849
:100fa4002120d3e7514b93f820305bb2032b45d07b
:100fb400042b10d0022bc9d14c4b1b692bb14b4bca
:100fc4009888002100f0f8ffc0e7484b9888012179
:100fd40000f0f2ffbae7454a936912699a420cd0cd
:100fe400424a9268d15c4ff08c429162591cd36999
:100ff400002bfcd13d4b9961a8e73c4b5b697bb16d
:101004003a4b9b885b0043f001034ff08c425362e0
:10101400d369002bfcd1354b032283f8202095e7bc
:101024004ff08c42536843f440335360d369002b30
:10103400fcd12e4b062283f8202087e72b4bd9695d
:101044005b69013b8b420dd04ff08c42d369002b7e
:10105400fcd14ff08c43986a244bda685054013128
:10106400d96173e74ff08c42536843f4e023536033
:10107400d369002bfcd11d4b062283f82020e3e723
:101084001a4b002283f820204ff08c42536843f41b
:1010940040335360d369002bfcd14ff08c439b2227
:1010a4001a76124b5b6a002b3ff45faf0f4b5b6aff
:1010b4002046984759e70d4b002283f8202083f8f7
:1010c40021204ff08c439b221a761a46538b03f04f
:1010d4003003102bfad1054b5b6a002b3ff445af6c
:1010e400024b5b6a204698473fe77047840502201d
:020000040000fa
:020000040c00ee
:1010f40008b53b4b98473b4b9847eff3108172b6ca
:10110400394ad2f8883043f47003c2f88830bff308
:101114004f8fbff36f8f01b962b6bff34f8fbff329
:101124006f8f314c0723c4f89032c4f89432bff364
:101134004f8fbff36f8f01f085f82c4b23f07f03a3
:10114400a3602b4b9847636913f4003f12d1bff39c
:101154004f8fbff36f8f0022c4f85022bff34f8f1d
:10116400bff36f8f626942f400326261bff34f8f45
:10117400bff36f8f1c4b5b6913f4803f29d11a4b6b
:101184000022c3f88420bff34f8fd3f88030c3f319
:10119400c906c3f34e335a0143f6e075124802ea16
:1011a4000504334644ea8371c0f86012013bb3f18d
:1011b400ff3ff7d1203a12f1200ff0d1bff34f8f48
:1011c400094a536943f480335361bff34f8fbff32c
:1011d4006f8f084b9847084b9847fff7fbf9fee7da
:1011e4003528000c3528000c00ed00e0000000005c
:0c11f400691d000c3528000c3528000c8b
:020000040000fa
:020000040c00ee
:10120000546f67676c696e67204c45442061742099
:1012100025732072617465200d0a00004c4544203e
:10122000546f67676c696e672072617465206973bb
:10123000206368616e67656420746f2025730d0af2
:101240000000000054656d706572617475726520f0
:101250003d202530326420460d0a000053616d7038
:101260006c696e672054656d706572617475726526
:101270002065766572792031207365636f6e642016
:101280000d0a000053616d706c696e672054656dc6
:101290007065726174757265206576657279203249
:1012a000207365636f6e6473200d0a0053616d7067
:1012b0006c696e672054656d7065726174757265d6
:1012c0002065766572792034207365636f6e647370
:1012d000200d0a0053616d706c696e672054656d56
:1012e00070657261747572652065766572792035f6
:0c12f0003030206d73200d0a000000bf9c
:020000040000fa
:020000040c00ee
:1012fc0030b43849ca6822f4e0621204120c364b3e
:10130c001343cb60bff35f8f62b6344be02283f89c
:10131c000f234ff40040186083f810234ff48030f3
:10132c00186083f811234ff40030186083f81223ef
:10133c004ff48020186083f81a234ff080641c60ef
:10134c0083f81b234ff00060186083f82723802557
:10135c005d6083f828234ff480755d6083f8292342
:10136c004ff400755d6083f82a234ff480655d604f
:10137c0083f837234ff400055d6083f838234ff072
:10138c0080755d6083f839234ff000755d6083f8dc
:10139c003a235c6083f83b23586083f83c234ff07e
:1013ac008050586083f83d234ff000525a604b6ace
:1013bc0043f480234b624b6943f010034b614b6a3f
:1013cc0043f400334b624b6a43f480334b6230bcc2
:1013dc00704700bf00ed00e00000fa0500e100e0fe
:020000040000fa
:020000040c00ee
:1013ec002d4b01221a612d4ad36943f48023d3611a
:1013fc00d36813f4806ffbd0294b0c229a64e12242
:10140c005a640022da661a46936f13f0400ffbd130
:10141c00234b8322da64196c40f602220a431a64c5
:10142c001a46136913f0807ffbd01e4b02221a61ff
:10143c001a46936813f0010ffbd01b4b1b4a1a6220
:10144c001a46536813f0040ffbd1174b184a5a6213
:10145c001a46536813f0080ffbd1134b4122c3f803
:10146c0094201a46d2f8943013f0400ffad00e4b59
:10147c004122c3f8d4201a46d2f8d43013f0400fce
:10148c00fad0094b4122c3f8d8201a46d2f8d830ea
:10149c0013f0400ffad070470020044400000244bf
:1014ac00000004440020054400000544060101002e
:0414bc000601020023
:020000040000fa
:020000040c00ee
:1014c00010b582b000230193009300eb800212015b
:1014d0002b4b13445a6e01921b6e019a43f4c023a6
:1014e00013400093009b03f001039b00009a12f04d
:1014f000020f18bf43f00803009a12f0040f18bf40
:1015000043f01003009a12f0080f18bf43f00103d4
:10151000009a12f0100f18bf43f02003009a12f047
:10152000200f18bf43f04003009a12f4c02f18bfd9
:1015300043f002030199134a0a4032b100eb400222
:10154000114901eb820200211172019c00eb800124
:1015500009010e4a545000eb400292000a498a5891
:101560005bb152b10c464200111804eb810149688d
:101570001044800022581846904702b010bd00bfaa
:10158000000085442a000600cc0502206400854442
:020000040000fa
:020000040c00ee
:10159000882910b536d012dc812943d003dc80299c
:1015a00040d0002010bd82290ed08429f9d11968bd
:1015b00002b30a1d1a60b1f90020d3171ee0a0295a
:1015c0002bd00bdc9029ecd11968073121f00701f1
:1015d00001f108021a60d1e900230fe0c02901d00f
:1015e000f029ded11a68111d196013680360002309
:1015f000436005e00a1d1a600a880023c0e9002341
:101600000120cfe7196822b10a1d1a6091f9002064
:10161000d3e70a1d1a600a78efe71a68111d1960ee
:101620001268cae719681ab10a1d1a600a68c4e785
:0c1630000c1d1c600b68c0e90032e1e7f3
:020000040000fa
:020000040c00ee
:10163c002de9f041d2e900230c4686b007465fea5b
:10164c00d37820684968a5680590e66841d0524275
:10165c0063eb4303002908db20f002000590b8f18e
:10166c00000f02d1059948072ad5691e05a80290da
:10167c000a20cde90010204600f0fef9b8f1000f69
:10168c0002d1059b59071fd5b8f1000f00f1ff30af
:10169c0014bf2d232b2333542269059b0093013a4d
:1016ac002b46121a3118384600f0e6f87b68db0539
:1016bc0003d563689842b8bf184606b0bde8f08100
:1016cc000807d2d42946d1e71a07e5d501382023db
:0816dc00e1e70029c0dac5e7cf
:020000040000fa
:020000040c00ee
:1016e4004ff08942137843f001031370536813f0e9
:1016f400010ffbd14ff089414ff01043cb61092317
:101704000b624ff4c0730b6300224a630b61164be8
:1017140010221a721a7583f8202083f82c2083f87b
:10172400382083f8442083f85020072083f85c0095
:10173400082083f8680083f8742083f8802083f8f5
:101744008c2083f8982083f8a42083f8b02083f8b1
:10175400bc200b7843f002030b700a46536813f065
:0c176400020ffbd1704700bf08040220f8
:020000040000fa
:020000040c00ee
:101770002de9ff41836946690093f61acde90161bd
:1017800004461746039216444ff002086d4642463f
:101790002946206800f03efeb04209d1d4e9023269
:1017a000c4e905331a44a262384604b0bde8f081aa
:1017b00000280dda6268002342f01002b8f1020f2f
:1017c000a362c4e90533626015d06b68ff1aebe7ca
:1017d0006b68984288bf0835a6eb000688bfc01a20
:1017e0002b6803442b606b68a3eb000088bf08f1f3
:0a17f000ff386860cbe71f46d6e71c
:020000040000fa
:020000040c00ee
:0217fa00704736
:020000040000fa
:020000040c00ee
:1017fc0010b4204b012283f8482083f84920332071
:10180c0083f834004ff40011c3f88010002183f8e2
:10181c00d51083f8d82083f8ba1083f8bc104ff495
:10182c008054c3f8004183f8402183f8412183f8a8
:10183c00442183f8472183f84c1183f8572183f80e
:10184c003001032083f83201302083f8330183f810
:10185c00361183f83b1183f8422283f8492283f82e
:10186c004a2283f8311283f8340283f835125df87a
:08187c00044b70470000844496
:020000040000fa
:020000040c00ee
:101884002de9ff471d460c9b13f0010906468a46c5
:10189400144601d195420bd822465146304600f0f9
:1018a4007ffca54204d82546284604b0bde8f0874d
:1018b4002f1b102f3a464ff0200128bf10226846f4
:1018c400b84600f043ff00bfb8f10f0f11d83b0931
:1018d4006ff00f0202fb03726946304600f060fcb1
:1018e400b9f1000fe0d122465146304600f058fcd1
:1018f400dae710226946304600f052fca8f11008dd
:04190400e2e700bf57
:020000040000fa
:020000040c00ee
:10190800f0b51f4c2568a446002d36d00022294684
:1019180016461346d1f800e00f6986450ad132b160
:10192800176101f110031846f0bd3946f2e7ccf80b
:101938000070f6e705d9ebb11c68a6453cbf164612
:101948000b460a46002ff0d1002becd019461f6930
:1019580051f8102b121a102a05d918600844103aa9
:101968000761026007469d420cbfccf800703761e2
:101978000b46d8e716460b46e3e72b46d3e700bfee
:04198800fc05022038
:020000040000fa
:020000040c00ee
:10198c0070b5194b1b78bbb9174b01221a70174e47
:10199c003446174d0fcd0fc40fcd0fc40fcd0fc450
:1019ac002b6824f8023b1b0c2370304600f048fed9
:1019bc00c0b2104b187070bd0b4b00221a700b4e3e
:1019cc0034460d4d0fcd0fc40fcd0fc40fcd0fc42a
:1019dc0095e8070003c42270304600f031fec0b217
:1019ec00044b1870e7e700bf07060220d004022062
:0c19fc00741b000c02060220a81b000c4b
:020000040000fa
:020000040c00ee
:101a0800842910b523d00cdc812903d0822913d076
:101a180080290bd119680c1d1c600b6803601a60c3
:101a280013e0902921d003dc882917d0002010bdad
:101a3800a029efd0c029ece719680c1d1c600b68c1
:101a48000360d1171046c3e900010120efe71968c8
:101a58000c1d1c600b6803601a80f6e719680c1de2
:101a68001c600b6803601a70efe719680c1d1c6096
:0c1a780009680160d317c1e90023e6e70c
:020000040000fa
:020000040c00ee
:101a84002de9f84f04460c9f6668d4f80cb024691d
:101a940010463a68013c002502f0020a0b9a0bf842
:101aa4000450002e1946b8bf0126012390464fea80
:101ab400e279002c03dcd3b12046bde8f88f50ea6c
:101ac400010209d1721b002a06dc0a9a521b002a61
:101ad400f1ddbaf1000feed042464b4600f0fcfbbc
:101ae400013c134630320bf804200135e1e73b6832
:081af40023f010033b60dfe763
:020000040000fa
:020000040c00ee
:101afc00f8b5846a05460f46164654b1ab6a6a6956
:101b0c009b1ab3420bd2324639462846fff72afebf
:101b1c00f8bd00f0a1fd0028f0d02046f8e7002e1b
:101b2c00f1d095f93430002b1bdbdbb23446621e4e
:101b3c00b95c994212d1224639462846fff712fe6b
:101b4c00a042e5d32744341b22463946686900f08d
:101b5c004ffd6b691c446c613046d9e71446002a72
:061b6c00e5d13446f0e76c
:020000040000fa
:020000040c00ee
:021b7200fee78c
:020000040000fa
:020000040c00ee
:101b74002a2a2a2a2a2a2a2a2a2a2a2a2a2050725d
:101b8400696e74696e672054656d706572617475f1
:101b94007265202a2a2a2a2a2a2a2a2a2a2a2a2a28
:101ba4000d0a00002a2a2a2a2a2a2a2a2a2a2a2a22
:101bb4002a205072696e74696e6720546f67676c6f
:101bc400696e67204c45442072617465202a2a2a74
:101bd4002a2a2a2a2a2a2a2a2a2a0d0a000000bf87
:020000040000fa
:020000040c00ee
:101be4004ff08c4301221a601a46d369002bfcd1b2
:101bf4004ff08c434ff480725a601a46d369002b1d
:101c0400fcd14ff08c43ff22da600c4a1a601a466a
:101c1400d369002bfcd14ff08c4310225a831a460f
:101c2400d369002bfcd1064b002283f8212083f8d2
:101c340020204ff08c439b229a75704716041000a5
:041c440084050220f1
:020000040000fa
:020000040c00ee
:101c480070b400eb4005144c04eb8504247af4b915
:101c5800114c04eb850401252572104c85002e18c3
:101c680004eb0616b166f266b26f92b242ea03421c
:101c7800b267336d43f001033365736d13f47f0f5f
:101c880008d1336d43f480333365012000e0002030
:101c980070bc70470120fbe7cc050220000085449a
:020000040000fa
:020000040c00ee
:101ca8007fb5c36800911546002b18bf013a019211
:101cb80082680446cde902230e460222694600687e
:101cc80000f08ffb002808dc00f0180383f00802fe
:101cd80063681343636005460fe0019a8242fad2b3
:101ce800a368e363801ae268184420642ab15a1c86
:101cf800e2632e441b7806f8013c284604b070bd08
:020000040000fa
:020000040c00ee
:101d080037b5154d2b68044673b100f01bfc0190e4
:101d180001a800f0d2fc0f30019920f00f0000f06c
:101d2800b5fc60b100232b60002c08bf01240f34e0
:101d380034f00f0405d1094b0c221a60204603b079
:101d480030bd042c38bf04242046fff7d9fd0028f5
:101d5800f5d040f8044cf2e7f8060220f805022016
:020000040000fa
:020000040c00ee
:101d68000e4a38b5002313600d4a0e4c13600e4a14
:101d78000e4d13600e4a13600e4a13600e4a5362ea
:101d880013610123936000f004fd00f051fdac42a3
:101d980000d338bd54f8043b9847f8e7f40502200f
:101da800400502200c00000c3c0502201000000c2d
:0c1db800340502203805022044050220fa
:020000040000fa
:020000040c00ee
:101dc40038b50d46044608b9002038bd43689b0663
:101dd40007d5d0e905239a4216d80023c4e9053370
:101de400a362d4e90f13994204d20122c91a2068cc
:101df40000f01afd0023c4e90f33002de4d020685d
:101e0400bde8384000f003bd0022c36a114698477c
:0c1e14006369002be1d14ff0ff30d6e7ee
:020000040000fa
:020000040c00ee
:101e20002de9ff41134dd1f80080af88adf80c705b
:101e300006462868029002aca8798df80e00002aa8
:101e400018bf1446d1e901571a461bb9204600f0c5
:101e5000fdfb0246002d02dbaa4228bf2a46cdf830
:101e600000803b4621463046fff70cfd04b0bde83c
:081e7000f08100bf0428000c02
:020000040000fa
:020000040c00ee
:101e7800134b01221a801a46136913f0010ffbd184
:101e88000f4b48f280121a801a46136913f4004f58
:101e9800fbd10b4b4ff400721a621a46136913f008
:101ea800200ffbd1064b00225a621a46136913f021
:101eb800400ffbd1024b4ff480725a81704700bf2c
:041ec80000200744ab
:020000040000fa
:020000040c00ee
:101ecc0010b370b506460d4600f0eaf9d5b1002402
:101edc000e4a137e13f0040ffbd0538b13f0070f35
:101eec000bd1536803f00703012b936a14bf3355ce
:101efc0026f814300134a542ebd1a54214bf0020c2
:101f0c00012070bd2c46f8e70020704700200046e9
:020000040000fa
:020000040c00ee
:101f1c00353030206d696c6c695365636f6e64731a
:101f2c000000000031205365636f6e6400000000f8
:101f3c00000000000000000032205365636f6e64e7
:101f4c007300000000000000000000003420536506
:101f5c00636f6e647300000000000000000000005e
:020000040000fa
:020000040c00ee
:101f6c0030b589b015464ff0ff32019202f20312e0
:101f7c00029200b96846cde9030151b14c1e00290b
:101f8c00059408da094b4f221a604ff0ff3009b064
:101f9c0030bd0c46f3e700220270cde906001a466c
:101fac00294601a800f016fbf1e700bff805022056
:020000040000fa
:020000040c00ee
:101fbc00114b00229a61da614ff08c439b221a7606
:101fcc005a6822f480225a601a46d369002bfcd13d
:101fdc0069b1094b032283f8202041ea40014ff0fc
:101fec008c4359621a46d369002bfcd17047024bc3
:0c1ffc00042283f82020f0e78405022076
:020000040000fa
:020000040c00ee
:10200800022a70b5044616461d461ad043689b0638
:1020180017d441b9002d08bf4ff4806505f10800b9
:10202800fff76efe01466368012e43f020036360ec
:10203800c4e9021514bfff230a2384f83430024b85
:0c204800e362002070bd00bffd1a000c18
:020000040000fa
:020000040c00ee
:1020540008b50f4b1b680021186800f094fb0d4b6a
:102064001b680021186800f08efbfff7c5fbfff723
:10207400bbf900f0cdf8fff7b3fdfff7bcfb00f0b0
:102084005bf9fff72dfbfff7f5fefff735f908bd08
:0820940010060220f4060220f0
:020000040000fa
:020000040c00ee
:10209c0010b50278202a034600f10100f9d0a2f114
:1020ac0009010429f5d92b2a07d02d2a11d1012198
:1020bc000133013b00200a2403e00021f8e76043d0
:1020cc00801a13f8012f303a092af8d901b9404285
:0620dc0010bd0021ede73c
:020000040000fa
:020000040c00ee
:0220e200fee717
:020000040000fa
:020000040c00ee
:1020e400d0b110b40446c9b1084421460c4a644234
:1020f400137e13f0010ffbd0536803f00703012b89
:1021040014bf0b7834f81130936201318142efd15e
:1021140001205df8044b7047002070470120f8e768
:042124000020004651
:020000040000fa
:020000040c00ee
:1021280010b5054c227832b9044b13b10448aff30b
:1021380000800123237010bdb005022000000000bc
:102148000000000008b5034b1bb103490348aff377
:10215800008008bd00000000b40502200000000057
:020000040000fa
:020000040c00ee
:1021680030b50d4a002300bf12f8134024b902eb22
:1021780043035b78184630bd01680d78a54209bf56
:1021880002eb430301335b78013114bfdbb201601a
:0c2198000a2be9d9eee700bfac26000cd2
:020000040000fa
:020000040c00ee
:1021a40038b5436813f4807f0446154611d003699b
:1021b4009a4228bf1d465db12a46406900f01cfac8
:1021c400636922692b44551b0022636125611a70df
:0c21d40038bddb06fcd400f04ffaf9e740
:020000040000fa
:020000040c00ee
:1021e00010b50b4c94f8204064b20cb1002010bd27
:1021f000074ca080e360029b6361a1602261002123
:10220000a170217084f82110fff7d8fe0120eee7bd
:04221000840502201f
:020000040000fa
:020000040c00ee
:102214000a4b0b4a1a604ff6da429a814ff4403265
:102224005a601a46d369002bfcd1044a136843f060
:1022340002031360d369002bfcd1704700200046d1
:042244000401304021
:020000040000fa
:020000040c00ee
:1022480070b50a480a4d4ff6ff76016811b9436820
:1022580003b970bd83684268334000f10c0455f837
:1022680023302046984704eb8000eee72800000c56
:042278003c27000cf3
:020000040000fa
:020000040c00ee
:10227c0030b400eb4004094b03eb84031b7adbb254
:10228c00834201d030bc7047044b44002518ad008c
:10229c005951204403eb80035a60f3e708040220f1
:020000040000fa
:020000040c00ee
:1022ac000a4b5b8b13f0070f0ed0084b80221a766b
:1022bc0007225a831b7e13f0040f05d0034b9a6a36
:1022cc001a7e12f0040ffad1704700bf00200046ae
:020000040000fa
:020000040c00ee
:1022dc0053b94ab9002908bf00281cbf4ff0ff3181
:1022ec004ff0ff3000f09abaadf1080c6de904ce56
:1022fc00fef7b4fcddf804e0dde9022304b070471e
:020000040000fa
:020000040c00ee
:10230c00064b1a680ab9064a1a60064a116809b9d6
:10231c00054911601a68054b1a607047ec050220dc
:10232c0000070220e805022000090220e405022033
:020000040000fa
:020000040c00ee
:10233c00074b00221a605a601a72064b064a5a65fd
:10234c0001229a6708221a6602221a60704700bf9f
:0c235c00cc0502200000854403000800ae
:020000040000fa
:020000040c00ee
:1023680008b5084b9a8992b207494a604cf2ff3285
:102378009a819b890b6823b10b46486889681b685a
:0c238800984708bd00200744d80502203b
:020000040000fa
:020000040c00ee
:1023940010b5084c23680bb9fff7b6ff064922684d
:1023a40009681044814234bf4ff0ff322060104668
:0c23b40010bd00bfe4050220e805022077
:020000040000fa
:020000040c00ee
:1023c000802910db812901dd83290cd113680733b3
:1023d00023f0070303f108011160d3e90023c0e9ea
:0a23e0000023012070470020704721
:020000040000fa
:020000040c00ee
:1023ea002de9f0410024804617460e462546bd4297
:1023fa0002db2046bde8f081726856f8081b4046a9
:0a240a0000f0aff801350444f1e7db
:020000040000fa
:020000040c00ee
:102414002de9f0410024804617460e462546bd426c
:1024240002db2046bde8f081726856f8081b40467e
:0a24340000f0c6f801350444f1e79a
:020000040000fa
:020000040c00ee
:02243e00fee7b7
:020000040000fa
:020000040c00ee
:1024400000b583b000230193064b1b6a0193019be7
:1024500013f0010f02d103b05df804fb0020fff779
:082460002ff8f8e700008544a5
:020000040000fa
:020000040c00ee
:1024680000b583b000230193064bdb690193019b00
:1024780013f0010f02d103b05df804fb0020fff751
:082488001bf8f8e70000854491
:020000040000fa
:020000040c00ee
:1024900000b583b000230193064b9b690193019b18
:1024a00013f0010f02d103b05df804fb0020fff729
:0824b00007f8f8e7000085447d
:020000040000fa
:020000040c00ee
:1024b80000b583b000230193064b5b690193019b30
:1024c80013f0010f02d103b05df804fb0020fef702
:0824d800f3fff8e70000854462
:020000040000fa
:020000040c00ee
:1024e00090f948305a1e1343426880f8483012f081
:1024f00004031bbf42f010024260c0e90f334ff0eb
:08250000ff3008bf18467047c8
:020000040000fa
:020000040c00ee
:1025080008b54ff089434ff480725a615b69044bf8
:102518001b6e1bb1024b586e1b6e984708bd00bf5f
:042528000804022081
:020000040000fa
:020000040c00ee
:10252c0008b54ff0894380225a615b69034b5b6da0
:10253c001bb1024b986d5b6d984708bd08040220d7
:020000040000fa
:020000040c00ee
:10254c0010b5054c22680ab9fff7dafe034b186880
:10255c002368c01a10bd00bfe4050220e805022064
:020000040000fa
:020000040c00ee
:10256c0058b952b138b50c46012529462046fff71b
:0e257c00a7fc0028f9d0012038bd00207047d0
:020000040000fa
:020000040c00ee
:10258a0010b50023934206d113f0030018bf0120af
:0e259a0000eb930010bdc45ccc540133f2e79b
:020000040000fa
:020000040c00ee
:1025a80030b4054b44002518ad005951044403ebe1
:0c25b80084035a6030bc7047cc05022040
:020000040000fa
:020000040c00ee
:1025c40038b50d461446012801d0204638bd2146b1
:0c25d4002846fff785fd0028f9d0f6e747
:020000040000fa
:020000040c00ee
:1025e00013b50446019201aafef7baf9636813f025
:0c25f000100f18bf4ff0ff3002b010bdfc
:020000040000fa
:020000040c00ee
:1025fc005ab110b40a44431e11f8014b03f8014fb1
:0c260c009142f9d15df8044b7047704713
:020000040000fa
:020000040c00ee
:102618000eb403b503aa52f8041b019200f0e0f8c7
:0a26280002b05df804eb03b0704748
:020000040000fa
:020000040c00ee
:02263200fee7c1
:020000040000fa
:020000040c00ee
:10263400044a138843f002031380136913f0020f52
:08264400fbd1704700200744a0
:020000040000fa
:020000040c00ee
:10264c0003783bb1034600bf13f8012f002afbd1de
:08265c00181a70471846704778
:020000040000fa
:020000040c00ee
:1026640010b50446fff73aff28b9a368e268c4e945
:0826740005331344a36210bdfd
:020000040000fa
:020000040c00ee
:10267c0010b4c46a1cb123465df8044b18470068bb
:08268c005df8044bfff798bf55
:020000040000fa
:020000040c00ee
:10269400044a136823b91060036101600120704784
:0826a40000207047fc05022034
:020000040000fa
:020000040c00ee
:1026ac0068076c094c836a9074a07ac000806888b3
:0626bc0000846c82008125
:020000040000fa
:020000040c00ee
:1026c2000068002808b501da002008bdfff761fea6
:0626d200431cfad1f8e7f9
:020000040000fa
:020000040c00ee
:1026d800034b98611a46136913f0080ffbd1704732
:0426e8000020074483
:020000040000fa
:020000040c00ee
:1026ec00034b18621a46136913f0200ffbd1704785
:0426fc00002007446f
:020000040000fa
:020000040c00ee
:1027000010f4807f02d0024b01221a70704700bf84
:042710000506022098
:020000040000fa
:020000040c00ee
:10271400012800d07047024b01221a70fae700bf6b
:042724000906022080
:020000040000fa
:020000040c00ee
:1027280008b500f051f810b9014b01221a7008bd24
:04273800060602206f
:020000040000fa
:020000040c00ee
:10273c007927000c8b25000c1928000c1928000c8b
:04274c001928000c3c
:020000040000fa
:020000040c00ee
:1027500032b1c9b20244034603f8011b9342fbd1d4
:04276000704700bfff
:020000040000fa
:020000040c00ee
:1027640008b500f049f8024b1860586008bd00bf76
:04277400c804022073
:020000040000fa
:020000040c00ee
:102778000a440023914201d10020704701f8013b2f
:02278800f8e770
:020000040000fa
:020000040c00ee
:10278a0000294ff480630cbf02220022fff737bcf6
:020000040000fa
:020000040c00ee
:10279a0008b5fff7e2ff00f04bf800f049f808bd72
:020000040000fa
:020000040c00ee
:0e27aa00a0f14103192b98bf40f020007047aa
:020000040000fa
:020000040c00ee
:0c27b800014b186099607047d8050220a2
:020000040000fa
:020000040c00ee
:0c27c400014b58629962704784050220a6
:020000040000fa
:020000040c00ee
:0c27d000014b93f82100704784050220a3
:020000040000fa
:020000040c00ee
:0c27dc00014b01221a7070470306022016
:020000040000fa
:020000040c00ee
:0c27e80013460a466ff00041fff7bcbb2f
:020000040000fa
:020000040c00ee
:0827f400286e696c2900250024
:020000040000fa
:020000040c00ee
:0827fc00004870477806022036
:020000040000fa
:020000040c00ee
:07280400286e756c6c2900c1
:020000040000fa
:020000040c00ee
:06280c000068fff7d9bed1
:020000040000fa
:020000040c00ee
:062812004ff0ff3070479b
:020000040000fa
:020000040c00ee
:0428180000207047e5
:020000040000fa
:020000040c00ee
:04281c0000207047e1
:020000040000fa
:020000040c00ee
:0428200000207047dd
:020000040000fa
:020000040c00ee
:0428240000207047d9
:020000040000fa
:020000040c00ee
:04282800704700bf36
:020000040000fa
:020000040c00ee
:04282c0000207047d1
:020000040000fa
:020000040c00ee
:02283000fee7c1
:020000040000fa
:020000040c00ee
:02283200fee7bf
:020000040000fa
:020000040c00ee
:022834007047eb
:020000040000fa
:020000040c00ee
:02283600fee7bb
:020000040000fa
:020000040c00ee
:022838007047e7
:020000040000fa
:020000040c00ee
:02283a007047e5
:020000040000fa
:020000040c00ee
:02283c007047e3
:00000001FF
