:020000040000fa
:020000040800f2
:10000000f0ff11207543000c3964000c3f64000cb4
:100010004b64000c5164000c5764000c000000009d
:10002000000000000000000000000000573d000c30
:100030004564000c00000000573d000c573d000ccb
:10004000573d000c573d000c573d000c573d000c30
:10005000573d000c573d000c573d000c573d000c20
:10006000573d000c573d000c573d000c573d000c10
:10007000573d000c573d000c573d000c573d000c00
:10008000573d000c573d000c573d000c573d000cf0
:10009000573d000c573d000c573d000c573d000ce0
:1000a000573d000c573d000c573d000c573d000cd0
:1000b000573d000c573d000c573d000c573d000cc0
:1000c000573d000c573d000c573d000c573d000cb0
:1000d000573d000c573d000c573d000c2553000cbc
:1000e000dd52000c9552000c4d52000c573d000c97
:1000f000573d000c573d000c573d000c573d000c80
:10010000573d000c573d000c573d000c573d000c6f
:10011000573d000c573d000c573d000c4512000c9c
:100120004512000c4512000c4512000c4512000c43
:100130004512000c4512000c8131000c8131000c7d
:100140008131000c8131000c8131000c8131000cb7
:100150008131000c573d000c573d000c573d000c01
:10016000573d000c573d000c573d000c573d000c0f
:10017000573d000c573d000c573d000c573d000cff
:10018000573d000c573d000c573d000c573d000cef
:10019000573d000c573d000c573d000c573d000cdf
:1001a000573d000c573d000c573d000c573d000ccf
:1001b000573d000c573d000c573d000c573d000cbf
:1001c000573d000c573d000c573d000c573d000caf
:1001d000573d000c573d000c573d000c573d000c9f
:1001e000573d000c573d000c573d000c573d000c8f
:1001f000573d000c573d000c573d000c573d000c7f
:10020000573d000c573d000c573d000c573d000c6e
:10021000573d000c573d000c573d000c573d000c5e
:10022000573d000c573d000c573d000c573d000c4e
:10023000573d000c9555000c573d000c573d000ce8
:10024000573d000c573d000c573d000c573d000c2e
:10025000573d000c573d000c573d000c573d000c1e
:10026000573d000c573d000c573d000c573d000c0e
:10027000573d000c573d000c573d000c573d000cfe
:10028000573d000c573d000c573d000c573d000cee
:10029000573d000c573d000c573d000c573d000cde
:1002a000573d000c573d000c573d000c573d000cce
:1002b000573d000c573d000c573d000c573d000cbe
:1002c000573d000c573d000c573d000c573d000cae
:1002d000573d000c573d000c573d000c573d000c9e
:1002e000573d000c573d000c573d000c573d000c8e
:1002f000573d000c573d000c573d000c573d000c7e
:10030000573d000c573d000c573d000c573d000c6d
:10031000573d000c573d000c573d000c573d000c5d
:10032000573d000c573d000c573d000c573d000c4d
:10033000573d000c573d000c573d000c573d000c3d
:10034000573d000c573d000c573d000c573d000c2d
:10035000573d000c573d000c573d000c573d000c1d
:100360000000000000000000573d000c573d000c4d
:10037000573d000c573d000c573d000c573d000cfd
:10038000573d000c573d000c573d000c573d000ced
:10039000573d000c573d000c573d000c573d000cdd
:1003a000573d000c573d000c573d000c573d000ccd
:0803b000573d000c573d000c05
:020000040000fa
:020000040a00f0
:040000000100fefffe
:020000040000fa
:020000040a00f0
:04002000ffffffffe0
:020000040000fa
:020000040a00f0
:0400400000000000bc
:020000040000fa
:020000040a00f0
:04004400ffffffffbc
:020000040000fa
:020000040a00f0
:0400480001000000b3
:020000040000fa
:020000040a00f0
:04004c00410400006b
:020000040000fa
:020000040a00f0
:04005400ffff0000aa
:020000040000fa
:020000040a00f0
:040058007000000034
:020000040000fa
:020000040a00f0
:04005c00020000009e
:020000040000fa
:020000040a00f0
:04006000000000009c
:020000040000fa
:020000040a00f0
:040064000202000094
:020000040000fa
:020000040a00f0
:04008000ffffffff80
:020000040000fa
:020000040a00f0
:0400a000ffffffff60
:020000040000fa
:020000040a00f0
:04200000000000c01c
:020000040000fa
:020000040a00f0
:042004000100feffda
:020000040000fa
:020000040a00f0
:04200800ffffffffd8
:020000040000fa
:020000040a00f0
:04208000ffffffff60
:020000040000fa
:020000040a00f0
:04208400ffffffff5c
:020000040000fa
:020000040a00f0
:04208800ffffffff58
:020000040000fa
:020000040a00f0
:04208c00ffffffff54
:020000040000fa
:020000040a00f0
:04209000ffffffff50
:020000040000fa
:020000040a00f0
:04209400ffffffff4c
:020000040000fa
:020000040a00f0
:04209800ffffffff48
:020000040000fa
:020000040a00f0
:04209c00ffffffff44
:020000040000fa
:020000040a00f0
:0420a000ffffffff40
:020000040000fa
:020000040a00f0
:0420a400ffffffff3c
:020000040000fa
:020000040a00f0
:0420a800ffffffff38
:020000040000fa
:020000040a00f0
:0420ac00ffffffff34
:020000040000fa
:020000040a00f0
:0420b000ffffffff30
:020000040000fa
:020000040a00f0
:0420b400ffffffff2c
:020000040000fa
:020000040a00f0
:0420b800ffffffff28
:020000040000fa
:020000040a00f0
:0420bc00ffffffff24
:020000040000fa
:020000040a00f0
:0420c000ffffffff20
:020000040000fa
:020000040a00f0
:0420c400ffffffff1c
:020000040000fa
:020000040a00f0
:0420c800ffffffff18
:020000040000fa
:020000040a00f0
:0420cc00ffffffff14
:020000040000fa
:020000040a00f0
:0420d000ffffffff10
:020000040000fa
:020000040a00f0
:0420d400ffffffff0c
:020000040000fa
:020000040a00f0
:0420d800ffffffff08
:020000040000fa
:020000040a00f0
:0420dc00ffffffff04
:020000040000fa
:020000040a00f0
:0420e00006070000ef
:020000040000fa
:020000040a00f0
:0420e40004cf0f0016
:020000040000fa
:020000040a00f0
:0420e80006f70401f2
:020000040000fa
:020000040a00f0
:0420ec00863a000030
:020000040000fa
:020000040a00f0
:0420f000ff030000ea
:020000040000fa
:020000040a00f0
:0420f4003f000000a9
:020000040000fa
:020000040a00f0
:0420f800bf00000025
:020000040000fa
:020000040a00f0
:0420fc00ffffffffe4
:020000040000fa
:020000040a00f0
:04210000ffffffffdf
:020000040000fa
:020000040a00f0
:04211000ffffffffcf
:020000040000fa
:020000040a00f0
:04211400ffffffffcb
:020000040000fa
:020000040a00f0
:04211800ffffffffc7
:020000040000fa
:020000040a00f0
:04211c00ffffffffc3
:020000040000fa
:020000040a00f0
:04212000ffffffffbf
:020000040000fa
:020000040a00f0
:048000000000ffff7e
:020000040000fa
:020000040a00f0
:04802000ffffffff60
:020000040000fa
:020000040a00f0
:0480400044000000f8
:020000040000fa
:020000040a00f0
:04804400ffffffff3c
:020000040000fa
:020000040a00f0
:048048000100000033
:020000040000fa
:020000040a00f0
:04804c0041040000eb
:020000040000fa
:020000040a00f0
:04805400ffff00002a
:020000040000fa
:020000040a00f0
:0480580070000000b4
:020000040000fa
:020000040a00f0
:04805c00020000001e
:020000040000fa
:020000040a00f0
:04806000000000001c
:020000040000fa
:020000040a00f0
:048064000202000014
:020000040000fa
:020000040a00f0
:04808000ffffffff00
:020000040000fa
:020000040a00f0
:0480a000ffffffffe0
:020000040000fa
:020000040a00f0
:04a00000000000c09c
:020000040000fa
:020000040a00f0
:04a004000000ffff5a
:020000040000fa
:020000040a00f0
:04a00800ffffffff58
:020000040000fa
:020000040a00f0
:04a08000ffffffffe0
:020000040000fa
:020000040a00f0
:04a08400ffffffffdc
:020000040000fa
:020000040a00f0
:04a08800ffffffffd8
:020000040000fa
:020000040a00f0
:04a08c00ffffffffd4
:020000040000fa
:020000040a00f0
:04a09000ffffffffd0
:020000040000fa
:020000040a00f0
:04a09400ffffffffcc
:020000040000fa
:020000040a00f0
:04a09800ffffffffc8
:020000040000fa
:020000040a00f0
:04a09c00ffffffffc4
:020000040000fa
:020000040a00f0
:04a0a000ffffffffc0
:020000040000fa
:020000040a00f0
:04a0a400ffffffffbc
:020000040000fa
:020000040a00f0
:04a0a800ffffffffb8
:020000040000fa
:020000040a00f0
:04a0ac00ffffffffb4
:020000040000fa
:020000040a00f0
:04a0b000ffffffffb0
:020000040000fa
:020000040a00f0
:04a0b400ffffffffac
:020000040000fa
:020000040a00f0
:04a0b800ffffffffa8
:020000040000fa
:020000040a00f0
:04a0bc00ffffffffa4
:020000040000fa
:020000040a00f0
:04a0c000ffffffffa0
:020000040000fa
:020000040a00f0
:04a0c400ffffffff9c
:020000040000fa
:020000040a00f0
:04a0c800ffffffff98
:020000040000fa
:020000040a00f0
:04a0cc00ffffffff94
:020000040000fa
:020000040a00f0
:04a0d000ffffffff90
:020000040000fa
:020000040a00f0
:04a0d400ffffffff8c
:020000040000fa
:020000040a00f0
:04a0d800ffffffff88
:020000040000fa
:020000040a00f0
:04a0dc00ffffffff84
:020000040000fa
:020000040a00f0
:04a0e000060700006f
:020000040000fa
:020000040a00f0
:04a0e40004cf0f0096
:020000040000fa
:020000040a00f0
:04a0e80006f7040172
:020000040000fa
:020000040a00f0
:04a0ec00863a0000b0
:020000040000fa
:020000040a00f0
:04a0f000ff0300006a
:020000040000fa
:020000040a00f0
:04a0f4003f00000029
:020000040000fa
:020000040a00f0
:04a0f800bf000000a5
:020000040000fa
:020000040a00f0
:04a0fc00ffffffff64
:020000040000fa
:020000040a00f0
:04a10000ffffffff5f
:020000040000fa
:020000040a00f0
:04a11000ffffffff4f
:020000040000fa
:020000040a00f0
:04a11400ffffffff4b
:020000040000fa
:020000040a00f0
:04a11800ffffffff47
:020000040000fa
:020000040a00f0
:04a11c00ffffffff43
:020000040000fa
:020000040a00f0
:04a12000ffffffff3f
:020000040000fa
:020000040c00ee
:10000000f8b500bff8bc08bc9e4670475157000cbd
:10001000f8b500bff8bc08bc9e4670472d57000cd1
:020000040000fa
:020000040c00ee
:08002000680f00000100000060
:020000040000fa
:020000040c00ee
:100028006c0402201c0000000000000050030220a5
:100038003c000000000000000402022060000000f4
:1000480000000000880402201800000000000000e2
:10005800200402202c000000000000008c03022075
:100068003000000000000000ac040220080000007e
:1000780000000000c0030220300000000000000063
:1000880064010220a000000000000000bc0402205f
:10009800020000000100000001000000f00302203f
:1000a8003000000000000000b4000220b000000092
:1000b800000000004c0402202000000000000000a6
:1000c80000000220b400000000000000a00402208c
:1000d8000c00000000000000080302204800000097
:1000e800000000006402022054000000000000002c
:1000f800bc0302200400000000000000b802022037
:100108005000000000000000b404022008000000b5
:100118000000000000000000b8030000010000001b
:10012800f0ff11207543000c3964000c3f64000c8b
:100138004b64000c5164000c5764000c0000000074
:10014800000000000000000000000000573d000c07
:100158004564000c00000000573d000c573d000ca2
:10016800573d000c573d000c573d000c573d000c07
:10017800573d000c573d000c573d000c573d000cf7
:10018800573d000c573d000c573d000c573d000ce7
:10019800573d000c573d000c573d000c573d000cd7
:1001a800573d000c573d000c573d000c573d000cc7
:1001b800573d000c573d000c573d000c573d000cb7
:1001c800573d000c573d000c573d000c573d000ca7
:1001d800573d000c573d000c573d000c573d000c97
:1001e800573d000c573d000c573d000c573d000c87
:1001f800573d000c573d000c573d000c2553000c93
:10020800dd52000c9552000c4d52000c573d000c6d
:10021800573d000c573d000c573d000c573d000c56
:10022800573d000c573d000c573d000c573d000c46
:10023800573d000c573d000c573d000c4512000c73
:100248004512000c4512000c4512000c4512000c1a
:100258004512000c4512000c8131000c8131000c54
:100268008131000c8131000c8131000c8131000c8e
:100278008131000c573d000c573d000c573d000cd8
:10028800573d000c573d000c573d000c573d000ce6
:10029800573d000c573d000c573d000c573d000cd6
:1002a800573d000c573d000c573d000c573d000cc6
:1002b800573d000c573d000c573d000c573d000cb6
:1002c800573d000c573d000c573d000c573d000ca6
:1002d800573d000c573d000c573d000c573d000c96
:1002e800573d000c573d000c573d000c573d000c86
:1002f800573d000c573d000c573d000c573d000c76
:10030800573d000c573d000c573d000c573d000c65
:10031800573d000c573d000c573d000c573d000c55
:10032800573d000c573d000c573d000c573d000c45
:10033800573d000c573d000c573d000c573d000c35
:10034800573d000c573d000c573d000c573d000c25
:10035800573d000c9555000c573d000c573d000cbf
:10036800573d000c573d000c573d000c573d000c05
:10037800573d000c573d000c573d000c573d000cf5
:10038800573d000c573d000c573d000c573d000ce5
:10039800573d000c573d000c573d000c573d000cd5
:1003a800573d000c573d000c573d000c573d000cc5
:1003b800573d000c573d000c573d000c573d000cb5
:1003c800573d000c573d000c573d000c573d000ca5
:1003d800573d000c573d000c573d000c573d000c95
:1003e800573d000c573d000c573d000c573d000c85
:1003f800573d000c573d000c573d000c573d000c75
:10040800573d000c573d000c573d000c573d000c64
:10041800573d000c573d000c573d000c573d000c54
:10042800573d000c573d000c573d000c573d000c44
:10043800573d000c573d000c573d000c573d000c34
:10044800573d000c573d000c573d000c573d000c24
:10045800573d000c573d000c573d000c573d000c14
:10046800573d000c573d000c573d000c573d000c04
:10047800573d000c573d000c573d000c573d000cf4
:100488000000000000000000573d000c573d000c24
:10049800573d000c573d000c573d000c573d000cd4
:1004a800573d000c573d000c573d000c573d000cc4
:1004b800573d000c573d000c573d000c573d000cb4
:1004c800573d000c573d000c573d000c573d000ca4
:1004d800573d000c573d000c0000000000000000d4
:020000040000fa
:020000040c00ee
:1004e8002de9f04f2ded0a8b1d4692ed008bd1e9d9
:1004f8000073b5eec08b8bb0f1ee10fa02930b6966
:100508000690d1f808800593cc6806d4790731d4d1
:1005180017f0080630d0202302e02d23b1ee488bd7
:10052800237008f1ff39012618ee903adff868b316
:1005380018ee100a23f000414ff0000a594508bf91
:1005480050451bd1413d192d04eb060094bfce49ff
:10055800ce4905f05bffcd4805f08efe00970246b8
:1005680043462146069803f041fe0bb0bdec0a8bca
:10057800bde8f08f2b23d3e7c146d5e78b45a5f11e
:10058800410308bf8245039309d2192b04eb0600e7
:1005980094bfbf49bf4905f039ffbe48dce73022a8
:1005a800a255b5ee408b039ab7ee009b1a2a06f1c6
:1005b800010334bf58227822f1ee10fae25406f112
:1005c8000206a9f102094ff0000a40f0e180b0eefe
:1005d80049bbb0ee48cb029b9feda5ab002bb8bf43
:1005e80018234ff0000b00bf8cee0b0b079302f0a3
:1005f800e7ff0bf101030493029b00ee4bcb002baa
:100608002bee0abb079b04dab5ee40cbf1ee10faed
:1006180004d05b4500f3e08001330493b2ee007b25
:100628002bee077bb4eec7cbf1ee10fa00f1d780c2
:10063800b4ee47cbf1ee10fa09d1bdeec00b9fed39
:100648008e6b10ee103a13f0010f06fe077b38eea2
:10065800078b18ee903a23f000418f4b18ee100ae2
:100668000022994208bf90423ff46caf4ff0000b54
:10067800354659465b4605980538a8422a461fd98b
:1006880088ee090bcde90831079202f099fffdeedb
:10069800c07bb0ee40bb17ee900adde9072309994d
:1006a800002840f09f80002b00f09c800bf1010b8c
:1006b800049a0bee498b01339a4229ee0a9bdad150
:1006c800d9b9bbf1000f00f0e980029b002b40f381
:1006d800e580fa0700f1e28063192e221a700beb0d
:1006e80005022244302100bf03f8011f9a42fbd1c2
:1006f8005d446fea0b0b0135d944059b059900222f
:100708006019013b92450270c1f1020ee254bcbf70
:10071800caf1000a01220a21baf1000f40f09580bf
:100728000eeb030cbcf1010f00f08f80002a03f1df
:10073800ff3114bf2d222b226254039a023b1a2a3e
:1007480004eb030134bf502270229d420a7001da83
:1007580005f05cfe07f00303022b12d1a9f1020990
:10076800b9f1000f0ddd204605f086fd04eb090305
:10077800b04277da4a463021a01905f0dbfd4ff088
:1007880000082046e8e600bf0af1010ab0ee479be0
:1007980039ee097bb4eec78bf1ee10faf4d5b6ee5c
:1007a800007bb0ee475b9fed366b00bfb4eec98ba4
:1007b800f1ee10fa7ff50baf29ee074bb5ee404b83
:1007c800f1ee10fa04bf29ee069b28ee068b29eeff
:1007d800059b0af1ff3ae9e7ddf810b004e79fed61
:1007e800267b34e731b92bb12e21a154013509f10b
:1007f800ff39012104eb0b0204eb050c2a444ff0ee
:10080800300e01e00cf801eb9445fbd105eb0b022f
:10081800039d0928d4bf30305730192da9eb0b0997
:100828000cd840f02005613d192d07d8cde90812f4
:10083800079305f0d1fddde90812079ba054551c6c
:1008480009f1ff394ff0000b32e7bafbf1fc013b2d
:1008580001fb1caa0af1300a04f803a009f1ff39c8
:10086800e24659e7225c1a54013881e7aff3008069
:10087800000000000000b03f000000000000000081
:1008880000000000000050439663000c9a63000cbf
:100898009e63000ca263000c0000f07ffb067ff54e
:0c08a8002caf2e236355013527e700bf5d
:020000040000fa
:020000040c00ee
:0408b4000020704769
:020000040000fa
:020000040c00ee
:1008b8002de9f04f2ded0a8b92ed00ab8fb0b5ee20
:1008c800c0ab04938b680393f1ee10fa0b690690a2
:1008d8008a46d1e900750793cc6806d47a0732d4e2
:1008e80017f0080631d0202302e02d23b1ee4aabe1
:1008f8002370039b012603f1ff3b1aee903adff8c1
:1009080064931aee100a23f000414ff0000849459d
:1009180008bf40451cd1049b413b192b94bfcc49cf
:10092800cc49a01905f072fd204605f0a5fc0097fa
:100938000246039b0698214603f058fc0fb0bdec15
:100948000a8bbde8f08f2b23d2e7ddf80cb0d4e793
:10095800894508bf804508d2049b413b192b04eb0d
:10096800060094bfbc49bd49dce7b5ee40abf1eeeb
:1009780010fab2ee04cbb7ee009b4ff0000819d185
:10098800049805f022fd002dc0b2c0f26f816728df
:100998002ed1002d08bf012518f1040f02dba84550
:1009a800c0f246814ff0650934e000bf08f1010844
:1009b800b0ee479b29ee0c7bb4eeca7bf1ee10fa41
:1009c800f4dd0023a64a9fed9e7b0be0904505daf7
:1009d80023b92aee07ab29ee079b012308f1ff385c
:1009e80089ee0c9bb4eec9abf1ee10faeed4c7e772
:1009f8008146b9f1660f05f101050bd1b8f1000f79
:100a080003dab7ee009b4ff00008672818bf45448b
:100a18004ff066090023b0ee498bb0ee4abb00bf29
:100a28008bee080b0893059002f0cafd089b90ee28
:100a380008bbfdeec07b01339d4217ee902ab1ee54
:100a48004bbb88ee0c8b0598ead1b1ee047b28eeff
:100a5800078bb4eec8bbf1ee10fa73d4b4ee48bb02
:100a6800f1ee10fa05d19fed786b12f0010f06fe3a
:100a7800088b3aee088b29ee0cabb4eec8abf1ee5e
:100a880010fa62d8b9f1660f08f101085fd1013593
:100a980041464b1b00220a93354605920a9b994210
:100aa80040f08280059b002b00f0ab80601900228b
:100ab800b9f1650f02702dd1079b0799013b90454d
:100ac800e254c1f1030ebcbfc8f1000801220a219b
:100ad800b8f1000f40f09b800eeb030cbcf1000f47
:100ae80000f39580002a03f1ff3114bf2d222b2239
:100af8006254049a023b413a192a04eb030198bf55
:100b08004ff045099d4281f80090abf1020b01dae4
:100b180005f07cfc07f00303022b7ff405afbbf163
:100b2800000f7ff701af204605f0a6fb04eb0b038f
:100b3800864279dd5a463021a01905f0fbfb0023d7
:100b48000393f1e69fed408b93e7b0ee49abb9f123
:100b5800650f14bf414600219be7059b5bb900293f
:100b680009da089b4ff02e0c04f803c00123013565
:100b78000bf1ff3b059304eb020c6319ac444ff0f7
:100b8800300e01e003f801eb9c45fbd1099b02eb19
:100b9800050cabeb020b30330cf1010504f80c30fb
:100ba8000bf1ff3b002224e0daf810300895053bf2
:100bb800ab427ff677af88ee0a0bcde90c200b919c
:100bc80002f0fefcfdeec07bdde90b1217ee903a59
:100bd800092ba8bf092317ee90ca099307f0100341
:100be80053ea0c030d98b8d16728b6d10029c2daa8
:100bf80001329aee008b0139b1ee488b8aee0cabcc
:100c08004ce7fb0642bf2e23635501354ee7b8fb80
:100c1800f1fc013b01fb1c8808f1300804f8038053
:100c28000bf1ff3be04653e7225c1a5401387fe79b
:100c3800b8f1000fbff6ecae4ff06609d9e600bf79
:100c48000000000000005043000000000000000009
:100c5800a663000caa63000cae63000cb263000c20
:100c6800d4feffff0000f07f062595e66728fbd03d
:080c780081460625bde600bf20
:020000040000fa
:020000040c00ee
:100c80002de9f041aeb006461546059100270599bd
:100c90000b78002b00f0fa8000244ff0ff33cde9f1
:100ca00009430eab0c9380230b940d930b5d0bb19a
:100cb000252b26d134b12246304605f05ff9059b3d
:100cc00023440593059b1a78252a40f0d78003f129
:100cd0000108cdf81480059803782b2b1ad025d85d
:100ce000202b1bd0232b1dd02a2b27d004f085fbd3
:100cf0000b90059b1a78303a092a2ed801330593b8
:100d0000f7e70134d2e7099b43f00103013009936f
:100d10000590e0e7099b43f00403f7e7099b43f0e4
:100d20000803f3e7099b43f01003efe72d2bead00c
:100d3000302bd9d1099b43f00203e7e72b681a1d3a
:100d40001b682a600130002b05900b9305da099a85
:100d50005b4282f0010209920b93099bda0744bfc0
:100d600023f002030993059b1a782e2a0dd1002245
:100d7000581c0a9205905a782a2a25d102330593e5
:100d80002b681a1d1b682a600a9305a804f0e6fd6b
:100d9000059b0390187805f01cfb6928039979d00e
:100da00032dc632800f0cb8019dc252800f0d980e4
:100db000612853d000234ff0ff32cdf814800993ff
:100dc0000b930a920093d4e004f017fb0a90059b62
:100dd0001a78303a092ad8d801330593f7e76428fe
:100de00058d06728e6dc2a4606a805f04df800280a
:100df00000f0a180059b5a1c05921b7806aa09a940
:100e00003046fff759fd38e0702873d015dc6e28a6
:100e100000f08c806f28cdd12b46002206a802f06e
:100e2000f7fd002800f08780059b06aa013309a979
:100e30003046059303f00afc1fe075283ad0782865
:100e400048d07328b6d1802975d1059b2a68013313
:100e50000593131d2b60126800237de02a4606a827
:100e600005f012f8002866d0059b5a1c05921b78e5
:100e700006aa09a93046fff737fb04443c44a742c1
:100e80007add3e4b4f221a604ff0ff3738462eb0c6
:100e9000bde8f0812b46012206a802f0b9fd00282a
:100ea00049d0059b06aa013309a93046059302f0f3
:100eb000adfee2e72b46002206a802f0a9fd0028bd
:100ec00039d0059b06aa013309a93046059304f0e1
:100ed000f4f8d2e72b46002206a802f099fd50b3a1
:100ee000059b5a1c05921b7806aa09a9304601f0f9
:100ef0003bfdc2e72b460022f02106a802f088fd48
:100f0000c8b1059b01330593dde9062313430bd1db
:100f10001b4805f0b5f9099b009319490b9b024644
:100f2000304603f067f9a8e77823dde72b463a1946
:100f300006a803f05dfa059b013305939ee780291f
:100f4000f9d1059b013305932b681a1d1b682a6094
:100f50008df8183006aa012309a9304604f056f886
:100f60008be78029e7d1059b01330593099b00930b
:100f70000b9b04490122d3e7274688e6b8040220e8
:080f80002864000c2e64000c33
:020000040000fa
:020000040c00ee
:100f88002de9f04f099f154604468e461e46002b54
:100f980040f0cc808a42b2fa82fc4cd9bcf1000ff6
:100fa8000bd0ccf1200801fa0cfe20fa08f802fa5e
:100fb8000cf548ea0e0e00fa0cf44fea15491ffa30
:100fc80085f8befbf9fa210c09fb1ae30afb08fbba
:100fd80041ea03439b452ad9eb180af1ff3004d2b2
:100fe8009b4502d9aaf102002b44a3eb0b03a4b240
:100ff800b3fbf9f209fb123302fb08f844ea034495
:10100800a04516d92c1902f1ff3303d2a04501d906
:10101800931e2c44a4eb080443ea004027b124faa9
:101028000cf400233c607b603146bde8f08f5046ed
:10103800dbe71346eee702b9ffdebcf1000f2ed165
:101048008b1a01264fea154eaab2b3fbfef8210c03
:101058000efb183308fb02f941ea0343994561d9ad
:10106800eb1808f1ff3004d2994502d9a8f1020023
:101078002b44a3eb0903a4b2b3fbfef10efb11331f
:101088004a4344ea0344a2424ed92c1901f1ff33e2
:1010980003d2a24201d98b1e2c44a41abce7ccf17e
:1010a800200e02fa0cf521fa0ef901fa0cf320fad7
:1010b8000efe4eea03034fea154800fa0cf4b9fb9a
:1010c800f8f11ffa85fe08fb1192180c01fb0ef6c9
:1010d80040ea0242964221d9aa1801f1ff3003d210
:1010e800964201d9881e2a44921b9bb2b2fbf8f99a
:1010f80008fb192209fb0efe43ea02439e450fd95d
:10110800eb1809f1ff3604d29e4502d9a9f102066f
:101118002b44a3eb0e0346ea004693e70846e3e7b1
:101128004e46f6e74046a4e70b46b6e78b4206d99b
:10113800002f7ed00026c7e90001304674e7b3fad5
:1011480083fcbcf1000f0fd18b4201d3824209d836
:10115800841a61eb030e0120002f6dd0c7e9004e01
:10116800002661e76046f7e7ccf1200e03fa0cf39e
:1011780022fa0ef521fa0ef41d4301fa0cf320fab7
:101188000ef10b434fea154a00fa0cf6b4fbfaf9d4
:101198001ffa85f80afb19401c0c09fb08f144ea00
:1011a8000044a14202fa0cf23fd92c1909f1ff3090
:1011b80004d2a14202d9a9f102002c44641a9bb2bc
:1011c800b4fbfaf90afb194409fb08f843ea04419d
:1011d80088452cd9691809f1ff3304d2884502d90a
:1011e800a9f10203294443ea0040a1eb0801a0fb4e
:1011f80002894945c2464c4602d306d1464504d227
:10120800b8eb020a69eb05040138afb1b6eb0a0383
:1012180061eb040606fa0efe23fa0cf34eea03030a
:1012280026fa0cf6c7e900369ae74846c6e74b4661
:0c123800d9e73e463846f7e63e46f5e6ac
:020000040000fa
:020000040c00ee
:1012440080b584b000af4ff08c439b7ddbb2002ba4
:1012540000f02281924b9b6afb604ff08c435b8bc6
:101264009bb203f00203022b08d18d4bff2283f8bb
:1012740020208b4b022283f82120c3e04ff08c43c3
:101284005b8b9bb203f00103012b08d1844bff223b
:1012940083f82020824b022283f82120b2e04ff011
:1012a4008c435b8b9bb203f00403042b08d17c4b6f
:1012b400ff2283f820207a4b012283f82120a1e029
:1012c400774b93f820305bb2042b00f29a8001a292
:1012d40052f823f00714000c0714000ced12000c54
:1012e400a513000c1513000c6d4b1b69002b07d0c4
:1012f4006b4b9b889bb20021184603f001fe81e0f2
:10130400674b9b889bb20121184603f0f9fd79e0f5
:10131400634b9b69bb60624b1b69ba689a422ad1d2
:101324005f4b5b69002b13d05d4b9b889bb25b00ca
:101334004ff08c4243f00103536200bf4ff08c43e3
:10134400db69002bfad1564b032283f8202059e0a5
:101354004ff08c435b684ff08c4243f4403353604e
:1013640000bf4ff08c43db69002bfad14c4b0622b3
:1013740083f8202046e04a4b9a68bb6813441a78e5
:101384004ff08c439a62bb680133bb6000bf4ff0df
:101394008c43db69002bfad1414abb68936131e08d
:1013a4003f4bdb697b603e4b5b69013b7a689a4249
:1013b40011d14ff08c435b684ff08c4243f4e0232f
:1013c400536000bf4ff08c43db69002bfad1344be0
:1013d400062283f8202000bf4ff08c43db69002bea
:1013e400fad14ff08c43996a2d4bda687b68134429
:1013f400cab21a707b6801337b60294a7b68d36167
:1014040000e000bf264b93f820305bb2b3f1ff3ffe
:101414001ed1234b002283f820204ff08c435b68bd
:101424004ff08c4243f44033536000bf4ff08c4381
:10143400db69002bfad14ff08c439b221a76184bb0
:101444005b6a002b28d0164b5b6af868984723e048
:10145400134b93f820305bb2062b1dd1104b0022a6
:1014640083f820200e4b002283f821204ff08c4378
:101474009b221a7600bf4ff08c435b8b9bb203f028
:101484003003102bf7d1064b5b6a002b04d0044bbe
:101494005b6af868984700bf00bf1037bd4680bd3f
:0414a40020040220fe
:020000040000fa
:020000040c00ee
:1014a800b0b58ab002aff8607a603b600b467b81ca
:1014b8000023bb6100237b6100233b610023fb7792
:1014c800bb6b002b00f00281bb6b4ff0ff321a6040
:1014d800f86802f03dfcb861bb69002b00f0f880a9
:1014e80097f83c30012b07d17b6b002b00f0f28082
:1014f8003b6b002b22d1ede097f83c30022b03d058
:1015080097f83c30082b07d13b68002b00f0e480ab
:101518007b68002b11d1dfe03b68002b00f0de80f8
:101528007b68002b00f0da807b6b002b00f0d68004
:101538003b6b002b00f0d28000e000bfbb691a684b
:1015480013461b019b1a9b00674a13447b61786909
:1015580001f0acfb034683f00103dbb2002b40f043
:10156800bf80b86902f08ef838613b69002b03d15f
:10157800786901f073feb4e03b697a895a803b6967
:101588003a6b5a603b697a6b9a603b697a68da60b1
:101598003b693a681a613b69fa689a613b690022bb
:1015a80083f824203b6901221a773b6900225a7587
:1015b8003b6997f83c201a753b691a6abb6b1a603d
:1015c8003969786903f014fc0346002b7ad07b69eb
:1015d8005a69bb695b699a420bd07b69db685b69b6
:1015e800ba691432002110469847bb695a697b6969
:1015f8005a613b6902221a7797f83c30012b12d1c5
:101608007b69db681b683a6950883a6951683a69ae
:1016180092689847034683f00103dbb2002b31d070
:101628000123fb772ee097f83c30022b12d17b691f
:10163800db685b683a6950883a69d1683a69126927
:101648009847034683f00103dbb2002b1ad001232d
:10165800fb7717e07b69db689c683b6958883b69c6
:10166800d9683b691a693b695d683b699b68009367
:101678002b46a047034683f00103dbb2002b01d0c1
:101688000123fb77fb7f002b1cd0bb6b4ff0ff3295
:101698001a607b69db681b69984703461a463b69f1
:1016a80083f824203b6993f82430dbb2002b03d164
:1016b8003b6901225a7502e03b69ff225a75786935
:1016c80003f0bafe786901f0c9fd0ae000bf08e03e
:1016d80000bf06e000bf04e000bf02e000bf00e07a
:0c16e80000bf2037bd46b0bd50030220fb
:020000040000fa
:020000040c00ee
:1016f40080b58eb000af03460a46fb8013467b716b
:1017040000233b630023fb62fb88002b02d04ff0d5
:10171400ff33c7e0fa8813461b019b1a9b00634af8
:1017240013443b633b6b34337b624ff0ff333b62c8
:101734007b6a1b78012b04d17b6a00221a70012377
:1017440000e00023002b02d14ff0ff33aae03b6bf3
:1017540093f90130022b06d13b6b1b7883f0010314
:10176400dbb2002b0bd03b6b3433fb61fb69002bea
:1017740002d0fb6901221a704ff0ff3392e03b6bf9
:101784009b78002b0bd03b6b3433bb61bb69002bc4
:1017940002d0bb6901221a704ff0ff3382e03b6b29
:1017a4005b68002b10d07b7903f00803002b0bd06f
:1017b4003b6b34337b617b69002b02d07b69012254
:1017c4001a704ff0ff336de000237b635ae07a6bad
:1017d40013465b001344db001a463b6bdb6913447e
:1017e400bb62bb6a5b7983f00103dbb2002b46d09a
:1017f400bb6a01225a717b7903f00803002b02d0e3
:101804003b6b01229a703b6b5b685a1c3b6b5a60c2
:101814003b6b9b8dfa88d1b27a6bd2b2184604f036
:10182400fff90246bb6a1a613b6b9b8d184604f0b4
:101834000dfa03461a463b6b9a853b6b34333b6186
:101844003b69002b02d03b6901221a70fa88bb6afb
:101854001a607b7943f00403dbb2fb62fb6adab201
:10186400bb6a1a713b6b1a69bb6a5a61bb6a002274
:101874009a60bb6a0022da60bb6a1b6912e07b6b68
:1018840001337b633b6b9b687a6b9a429fd13b6bc2
:101894003433fb60fb68002b02d0fb6801221a7012
:1018a4004ff0ff3318463837bd4680bd5003022041
:020000040000fa
:020000040c00ee
:1018b400b0b588b000af786039600023fb770023af
:1018c4003b610023bb6100237b61654b1b7dfb7384
:1018d400634b93f82c30dbb2002b02d1fb7b002b43
:1018e40001d0012300e00023fb73fb7b03f0010321
:1018f400fb73fb7b002b01d0fb7fade07b68002bef
:1019040000f0a9807b681b68002b00f0a4803b6872
:10191400002b02d104f0cafc38607b681b681b01f1
:101924003a689a4204d30023bb6110237b6116e01a
:101934007b681b68db003a689a4204d30223bb61cc
:1019440008237b610be07b681a6813465b00134431
:101954003a689a4203d30423bb6103237b617b6906
:1019640019464ff000027b681b684ff0000403fb2c
:1019740002f501fb04f02844a1fb033402191446c8
:101984004ff000004ff00001210441ea1341180414
:101994003b684ff000041a46234604f029f9034635
:1019a4000c46c3f580333b612e4b1b682d4a23f054
:1019b4000203136000bf2b4bdb69002bfbd1294bc7
:1019c4003a6992b29a817b685b68022b16d1254be7
:1019d4001a68254b1340ba69520392b22149134342
:1019e4000b60204b5b6823f047027b6899687b6837
:1019f400db680b431b4913434b601ae0194b1a680d
:101a0400194b1340ba69520392b21343154a43f077
:101a140080731360134b5a68144b13407a689268ae
:101a24001a437b68db681a437b685b680d49134380
:101a34004b6000bf0b4bdb69002bfbd1094b1b68d0
:101a4400084a43f00203136000bf064bdb69002b16
:101a5400fbd10123fb77fb7f18462037bd46b0bd81
:101a64008c03022000200046ff1ffff0b8dfffffb9
:020000040000fa
:020000040c00ee
:101a740080b586b000af03463960fb8000237b61ec
:101a84003b683b61fb88002b02d04ff0ff33b4e08e
:101a9400fa885c4913465b0013445b010b441b78d2
:101aa400002b02d04ff0ff33a7e0fa8813465b0007
:101ab40013445b01534a13447b617b693d33fb60f0
:101ac400fb68002b01d1002303e0fb6801221a709c
:101ad4000123012b02d04ff0ff338ee07b693c33ae
:101ae400bb60bb68002b01d1002303e0bb6801226b
:101af4001a700123012b02d04ff0ff337de07b6984
:101b040001221a703b691a687b695a607b6900225a
:101b14009a603b695a687b69da603b699a687b69b9
:101b24001a617b6901229a823b69da6a7b699a614c
:101b34003b691b6b1a467b69da617b6900221a6276
:101b44007b6900225a627b69002283f828203b6962
:101b54005a6b7b691a653b69da687b69da623b69af
:101b64001a697b691a633b695a697b695a633b69e1
:101b74009a697b699a633b69da697b691a643b6990
:101b84001a6a7b695a643b695a6a7b699a643b693d
:101b94009a6a7b69da643b699a6b7b69da657b696b
:101ba400db6ab3f1ff3f08d07b69db6adbb27a6999
:101bb4001549184603f0cafc06e07b695b685b695b
:101bc4007a691146114898477b691b6bb3f1ff3f53
:101bd40008d07b691b6bdbb27a690d49184603f0a8
:101be400b5fc06e07b695b681b687a6911460948a5
:101bf40098477b6902229a70fb8818461837bd46bd
:101c040080bd00bf040202208554000cf15f000c6b
:081c1400c954000c6d57000ccf
:020000040000fa
:020000040c00ee
:101c1c0080b584b004af5d4b1b78042b00f2ad8013
:101c2c0001a252f823f000bf491c000cdf1c000c71
:101c3c00071d000c4f1d000c871d000c03210020fc
:101c4c00fff752fd0246514b5a60504b5b68b3f1a3
:101c5c00ff3f3ad04d4b4e4ada604c4b5b684d49d6
:101c6c00184603f0fdfd494b5b6800224a491846b3
:101c7c0002f0c8fd01234ff47a720021474803f0ab
:101c8c00e2f8424b9b68b3f1ff3f1ad002210020cf
:101c9c0000f092f802463d4b9a633c4b9b6bb3f1c0
:101cac00ff3f0ad0394b9b6b00223d49184602f08e
:101cbc0015fe364b03221a7064e0344b04221a7062
:101ccc0060e0324b04221a705ce0304b04221a7034
:101cdc0058e02e4b00221a752c4b5868314b02934e
:101cec0002230193304b00930123304a4f2103f020
:101cfc0081fe264b03221a7044e0244b93f84430a7
:101d0c00dbb2002b3bd0214b002283f84420264829
:101d1c0001f016fd03461a461c4b83f837201b4b6b
:101d2c0093f937301a462249224803f079fd174bb4
:101d3c0093f93730184604f061f8144b03221a70eb
:101d4c001de0124b93f83630dbb2002b07d00f4b53
:101d5c00002283f836200d4b01221a7011e00b4b38
:101d6c0093f83530dbb2002b0bd0084b002283f8f4
:101d7c003520064b02221a7003e000bf02e000bfc0
:101d8c0000e000bf00bfbd4680bd00bf08030220bd
:101d9c00a086010014030220355a000cc55b000c10
:101dac00a556000c180302201d0302201c03022060
:081dbc005062000c1f0302201d
:020000040000fa
:020000040c00ee
:101dc40080b58cb000af03460a46fb8013467b7196
:101dd4000023bb6200237b62fb88002b02d04ff000
:101de400ff33b6e0fa8813465b0013445b015b4a99
:101df4001344bb62bb6a93f90230022b06d1bb6a5f
:101e04001b7883f00103dbb2002b02d04ff0ff33c9
:101e14009fe0bb6a3c33fb614ff0ff33bb61fb695e
:101e24001b78012b04d1fb6900221a70012300e006
:101e34000023002b02d14ff0ff338ae0bb6a5b78aa
:101e4400002b0bd0bb6a3c337b617b69002b02d037
:101e54007b6901221a704ff0ff337ae0bb6a9b68fa
:101e6400002b10d07b7903f00803002b0bd0bb6a46
:101e74003c333b613b69002b02d03b6901221a7061
:101e84004ff0ff3365e00023fb6252e0fb6a1a0166
:101e9400bb6a1b6913447b627b6adb7883f00103b2
:101ea400dbb2002b42d07b6a0122da707b7903f02b
:101eb4000803002b02d0bb6a01225a70bb6a9b68dc
:101ec4005a1cbb6a9a60bb6a9b8afa88d1b2fa6ac6
:101ed400d2b2184603f0d0fe02467b6ada60bb6acf
:101ee4009b8a184603f0defe03461a46bb6a9a82b2
:101ef400bb6a3c33fb60fb68002b02d0fb68012209
:101f04001a707b7943f00403dbb23b623b6adab2ba
:101f14007b6a9a707b6a00225a607b6a00229a600c
:101f24007b6afa881a807b6adb6812e0fb6a0133f9
:101f3400fb62bb6adb68fa6a9a42a7d1bb6a3c338c
:101f4400bb60bb68002b02d0bb6801221a704ff043
:101f5400ff3318463037bd4680bd00bf040202205f
:020000040000fa
:020000040c00ee
:101f640080b584b004af594b1b78052b00f2a880d0
:101f740001a252f823f000bf951f000c1920000c99
:101f84002d20000c6b20000c8f20000cc520000cb1
:101f940003210020fff7acfb02464c4b9a604b4bed
:101fa4009b68b3f1ff3f31d0484b494a5a60474bd5
:101fb4009b684849184603f057fc444b9b68002231
:101fc4004549184602f022fc03210020fff7f8fee1
:101fd40002463e4b5a643d4b5b6cb3f1ff3f11d05c
:101fe4003a4b5b6c00223d49184602f07bfc374bb0
:101ff400586c3b4b01223b4903f0e5ff334b042271
:102004001a7060e0314b05221a705ce02f4b0522f8
:102014001a7058e02d4b93f93f30184601f0f0fb4d
:102024002a4b04221a704ee0284b00221a75274bc3
:10203400022283f84220254b98682b4b02930523f8
:1020440001932a4b00930123294a572103f0d6fc1c
:1020540000bf1e4b93f84230dbb2022bf9d01b4b6e
:1020640003221a702fe0194b93f8403019461f4889
:1020740001f03cfa154b586c194b0122194903f035
:10208400a2ff124b04221a701de0104b93f841304a
:10209400002b07d00d4b002283f841200b4b01226b
:1020a4001a700fe0094b93f85130dbb2002b09d0c2
:1020b400064b002283f85120044b02221a7001e0df
:1020c40000bf00e000bf00bfbd4680bd6402022027
:1020d400801a060068020220e956000c414d000ceb
:1020e400b00202207f020220700202207a02022043
:0420f400780202204c
:020000040000fa
:020000040c00ee
:1020f80080b500af002003f035f9bff35f8f62b6fb
:102108000721272003f000f8272003f0c9fb072147
:10211800282002f0f9ff282003f0c2fb072129201c
:1021280002f0f2ff292003f0bbfb07212a2002f06e
:10213800ebff2a2003f0b4fb0721372002f0e4ff6d
:10214800372003f0adfb0721382002f0ddff3820ef
:1021580003f0a6fb0721392002f0d6ff392003f04f
:102168009ffb07213a2002f0cfff3a2003f098fbab
:1021780007213b2002f0c8ff3b2003f091fb072119
:102188003c2002f0c1ff3c2003f08afb07213d20e0
:1021980002f0baff3d2003f083fb07213e2002f046
:1021a800b3ff3e2003f07cfb07213f2002f0acff89
:1021b8003f2003f075fb0721402002f0a5ff4020d7
:1021c80003f06efb0721412002f09eff412003f03f
:1021d80067fb0721422002f097ff422003f060fbd3
:1021e8000721432002f090ff432003f059fb072109
:1021f800442002f089ff442003f052fb07217d2090
:1022080002f082ff7d2003f04bfb0d4b5b6a0c4a0a
:1022180043f4802353620a4b5b69094a43f0100375
:102228005361074b5b6a064a43f400335362044b1d
:102238005b6a034a43f48033536200bf80bd00bf2a
:0422480000ed00e0c5
:020000040000fa
:020000040c00ee
:10224c0080b588b000aff8607b600b46fb7213461c
:10225c00bb720023fb610023bb61fb681b7883f01e
:10226c000103dbb2002b40f08280fb6893f9023053
:10227c00022b7cd1fb7a1946f86803f022fcb8617a
:10228c00bb69002b75d0bb691b68dbb21901bb693c
:10229c001b681b0adab2394813465b0013445b0116
:1022ac00034410331b680b44fb61fb69da68bb69a0
:1022bc001b689a424bd1bb69ba7a5a76bb695b7e72
:1022cc005bb2b3f1ff3f19d1fb681b6bb3f1ff3f5e
:1022dc0003d0bb6900221a6114e0fb68db6c7968df
:1022ec00184603f061f80246bb69da61fb685b686b
:1022fc00db6898470246bb691a6103e0bb69da6880
:10230c00bb691a61bb691b6a7b61fb7a1946f86869
:10231c0002f0a2fefb695b68002b1dd0fb6893f8f2
:10232c0028300133dab2fb6883f82820fb695b683c
:10233c00fa69926897f90a0079699847fb6893f8eb
:10234c002830013bdab2fb6883f8282004e0fb7ae2
:10235c001946f86802f080fefb7a002b03d1f8686e
:10236c0001f0a4fa06e0f86801f09efc02e000bf60
:10237c0000e000bf2037bd4680bd00bf0402022034
:020000040000fa
:020000040c00ee
:10238c0080b586b000af78607b681b6d7b617b6825
:10239c001b6d04333b6104f00ff80346fb737b6940
:1023ac001b78002b20d07b695b681bb2184603f0ae
:1023bc002ff903461a467b6883f85a207b68db6a40
:1023cc00b3f1ff3f04d17b681b6bb3f1ff3f6bd0c4
:1023dc007b695b681bb2184603f01af903461a4670
:1023ec007b6883f85b205fe03b691b68b3f1ff3fc0
:1023fc000ad03b691b681bb2184603f009f9034667
:10240c001a467b6883f854203b695b68b3f1ff3f45
:10241c000ad03b695b681bb2184603f0f9f8034617
:10242c001a467b6883f855203b699b68b3f1ff3fe4
:10243c000ad03b699b681bb2184603f0e9f80346c7
:10244c001a467b6883f856203b69db68b3f1ff3f83
:10245c000ad03b69db681bb2184603f0d9f8034677
:10246c001a467b6883f857207b68db6ab3f1ff3f21
:10247c000ad03b691b691bb2184603f0c9f8034626
:10248c001a467b6883f858207b681b6bb3f1ff3fbf
:10249c000ad03b695b691bb2184603f0b9f80346d6
:1024ac001a467b6883f85920fb7b184603f074feb0
:0824bc0000bf1837bd4680bdca
:020000040000fa
:020000040c00ee
:1024c400b0b586b002af786039600023bb600123e9
:1024d400fb730123fb73786803f0d0fdb860bb681d
:1024e400002b75d0bb681b7f012b71d1bb689b6926
:1024f400dab213465b001344db001846bb689b69e1
:102504001b0adab2384913461b019b1a9b000b4481
:102514001c331b6803443b607b685a693b685b69f6
:102524009a420bd07b68db685b693a6814320021fd
:10253400104698473b685a697b685a61bb681b7da3
:10254400022b13d0042b21d0012b35d1bb680222de
:102554001a777b68db681b68ba685088ba68516868
:10256400ba68926898470346fb7326e0bb68022268
:102574001a777b68db685b68ba685088ba68d16888
:10258400ba68126998470346fb7316e0bb680222d7
:102594001a777b68db689c68bb685888bb68d96815
:1025a400bb681a69bb685d68bb689b6800932b466f
:1025b400a0470346fb7300e000bffb7b83f00103ed
:1025c400dbb2002b04d0ba683968786801f052fe97
:1025d400fb7b83f00103dbb2002b7ff47aaf00bff7
:0c25e4001037bd46b0bd00bf5003022000
:020000040000fa
:020000040c00ee
:1025f00080b586b000af78607b681b6d7b617b68bf
:102600001b6d04333b6103f0ddfe0346fb737b6906
:102610001b78002b1ed07b695b681ab27b6893f82d
:102620005a301946104603f01afc7b68db6ab3f196
:10263000ff3f04d17b681b6bb3f1ff3f64d07b6924
:102640005b681ab27b6893f85b301946104603f05a
:1026500006fc59e03b691b68b3f1ff3f09d03b69b9
:102660001b681ab27b6893f854301946104603f081
:10267000f6fb3b695b68b3f1ff3f09d03b695b68e0
:102680001ab27b6893f855301946104603f0e7fb01
:102690003b699b68b3f1ff3f09d03b699b681ab265
:1026a0007b6893f856301946104603f0d8fb3b6917
:1026b000db68b3f1ff3f09d03b69db681ab27b6886
:1026c00093f857301946104603f0c9fb7b68db6a64
:1026d000b3f1ff3f09d03b691b691ab27b6893f8dd
:1026e00058301946104603f0bafb7b681b6bb3f1f8
:1026f000ff3f09d03b695b691ab27b6893f8593098
:102700001946104603f0abfbfb7b184603f04afd6d
:0827100000bf1837bd4680bd73
:020000040000fa
:020000040c00ee
:1027180080b489b000afb9607a603b600346fb7350
:102728000023fb77bb68bb617b687b61fa7b404910
:1027380013465b0013449b000b4408331b78dbb241
:1027480083f00103dbb2002b6bd0fa7b38491346c8
:102758005b0013449b000b44083301221a70354870
:10276800fa7bb96913469b0013441b010344683381
:1027780019603048fa7b796913469b0013441b01a2
:1027880003446c3319602b49fa7b13469b001344ae
:102798001b010b4478331b6899b23b681b0425481e
:1027a800fa7b194313469b0013441b0103447833f7
:1027b80019602049fb7b5a1c13469b0013441b01dc
:1027c8000b441a681b48fb7b42f001015a1c134654
:1027d8009b0013441b01034419601649fb7b5a1cd8
:1027e80013469b0013441b010b4404331b681b0c4a
:1027f800dbb2002b13d10f49fb7b5a1c13469b00fd
:1028080013441b010b441a680a48fb7b42f48031cd
:102818005a1c13469b0013441b01034419600123ef
:10282800fb77fb7f18462437bd465df8047b70476d
:08283800880402200000854421
:020000040000fa
:020000040c00ee
:1028400080b588b000af786000233b610023fb6057
:102850000023fb617a6813465b0013449b003f4ae8
:102860001344bb613e497a6813469b0013441b0125
:102870000b4464331b683b6139497a6813469b00fb
:1028800013441b010b4460331b6843f4c0223b69b3
:102890001340fb60fb6803f00103002b03d0fb69ce
:1028a00043f00403fb61fb6803f00203002b03d039
:1028b000fb6943f00803fb61fb6803f00403002b92
:1028c00003d0fb6943f01003fb61fb6803f00803ce
:1028d000002b03d0fb6943f00103fb61fb6803f0ad
:1028e0001003002b03d0fb6943f02003fb61fb685e
:1028f00003f02003002b03d0fb6943f04003fb618e
:10290000fb6803f4c023002b03d0fb6943f00203f0
:10291000fb613a69134b1340002b02d0bb690022c4
:102920001a720f4839697a6813469b0013441b01d9
:10293000034464331960bb691b68002b0ad0fb6930
:10294000002b07d0bb695b687b61bb691b68796939
:10295000f869984700bf2037bd4680bd8804022033
:08296000000085442a00060076
:020000040000fa
:020000040c00ee
:102968002de9f04f0e4649683568d6f80890f768a3
:102978008bb0cde903230029acbf25f00205012166
:1029880015f010030593039b8346d3e900232fd04a
:1029980052ea03002cd0a9f10208346915f00800a6
:1029a80004f1ff3408904ff00000385518bf08f1c3
:1029b800ff388a46012c1ddc059b002b54d1089b4f
:1029c80013b1013c20233b5532690095013a4b462f
:1029d800121b3919584601f009fcdbf80430db05f5
:1029e80003d573689842b8bf18460bb0bde8f08f9e
:1029f800c846d2e752ea030009d1baf1000f06dc53
:102a0800a8eb010050440028d6dda807d4d502f071
:102a18000f000928d4bf00f1300e00f1570e0498ba
:102a2800a0f1410cbcf1190f04f1ff3410d84ef09d
:102a3800200cacf1610cbcf1190f09d87046099152
:102a4800cde9062303f0c8fcdde90623099986468b
:102a5800100940ea03704fea131c07f804e00af172
:102a6800ff3a02466346a5e7039bd3e9000150ea13
:102a78000103a4d03a19049b02f8013c023c30231c
:042a88003b559ce737
:020000040000fa
:020000040c00ee
:102a8c0080b586b000af03463960fb8000237b61c4
:102a9c003b683b61fb88002b02d04ff0ff3374e0a6
:102aac00fa883c4913461b019b1a9b000b441b786c
:102abc00002b02d04ff0ff3367e0fa8813461b015e
:102acc009b1a9b00334a13447b617b693433fb6054
:102adc00fb68002b01d1002303e0fb6801221a7074
:102aec000123012b02d04ff0ff334ee07b693533cd
:102afc00bb60bb68002b01d1002303e0bb68012243
:102b0c001a700123012b02d04ff0ff333de07b699b
:102b1c0001221a703b691a687b69da603b695a6951
:102b2c007b699a613b695a687b69da613b699a688f
:102b3c007b699a603b691b691a467b695a623b69df
:102b4c00da687b691a627b6900229a627b690022cf
:102b5c005a607b6900229a707b6900221a637b6938
:102b6c0001229a853b699a697b691a613b699a696a
:102b7c007b695a617b69db689b697a6911460648f7
:102b8c0098477b6902225a70fb8818461837bd4655
:0c2b9c0080bd00bf50030220313f000c40
:020000040000fa
:020000040c00ee
:102ba80080b489b000aff860b9607a600023fb6137
:102bb800fb6807ee903af8ee677ac7ed067abb68cd
:102bc80007ee903af8ee677ac7ed057a4ff0000302
:102bd8003b61bb685b00fa689a4201d2002357e068
:102be800bb682e4a93421fd8d7ed066ad7ed057aff
:102bf80086eea77ad7ed067adfed296a67eea67a20
:102c0800f2ee046a77eea67a77ee677ac7ed047a71
:102c1800d7ed047afceee77a17ee903afb61bb68d1
:102c2800204a934213d801e0002331e0fb69b3f551
:102c3800ff7f02d9ff23fb6126e0fb69012b02d845
:102c48000123fb6120e0fb695b08fb611ce0fb6979
:102c5800b3f5bf7f03d34ff67f73fb6114e0fb69c5
:102c6800032b03d840f20123fb610de0fb695b00f5
:102c78000d4aa2fb03235b081a02fb690a49a1fb60
:102c880003135b081343fb617b68fa691a6001232d
:102c980018462437bd465df8047b704740420f0054
:0c2ca80095bfd633801a0600abaaaaaa7a
:020000040000fa
:020000040c00ee
:102cb40080b588b000af78607b689b69fb617b68f6
:102cc4009b690433bb617b681b6b002b13d17b684e
:102cd40035333b614ff0ff33fb603b691b78012bbd
:102ce40004d13b6900221a70012300e00023002b69
:102cf40001d1002358e0fb691b78002b0bd0fb6942
:102d04005b681bb2184602f087fc03461a467b68d0
:102d140083f83a2047e003f053fb0346fb75bb6995
:102d24001b68b3f1ff3f0ad0bb691b681bb218468e
:102d340002f072fc03461a467b6883f83620bb69ae
:102d44005b68b3f1ff3f0ad0bb695b681bb21846ee
:102d540002f062fc03461a467b6883f83720bb699d
:102d64009b68b3f1ff3f0ad0bb699b681bb218464e
:102d740002f052fc03461a467b6883f83820bb698c
:102d8400db68b3f1ff3f0ad0bb69db681bb21846ae
:102d940002f042fc03461a467b6883f83920fb7d27
:102da400184603f0fdf9012318462037bd4680bdbf
:020000040000fa
:020000040c00ee
:102db40080b588b000aff860b9607a603b600023ea
:102dc400fb610023bb6100237b613b68002b60d067
:102dd4003b684ff0ff321a607b68002b5bd0bb6806
:102de400002b58d0f86801f055f8b861bb69002b86
:102df40053d0bb691b881a4613465b0013445b011e
:102e0400294a1344fb61f86902f0f8f9034683f098
:102e14000103dbb2002b42d1b86900f091fa78616a
:102e24007b69002b03d1f86902f036fe38e07b6938
:102e3400ba689a607b697a68da607b6900221a61f1
:102e44007b69fa681a607b690022da617b69012276
:102e54001a767b6900225a767b691a6a3b681a6083
:102e640097f828301a467969f86901f005fd034698
:102e7400002b0ad097f82830012b03d1f86900f011
:102e840017ff02e0f86900f015fdf86902f004fe8e
:102e940006e000bf04e000bf02e000bf00e000bfa6
:0c2ea4002037bd4680bd00bf04020220a4
:020000040000fa
:020000040c00ee
:102eb00080b588b000aff860b9607a603b604ff0d1
:102ec000ff33fb6100237b6101f04cfe034683f07e
:102ed0000103dbb2002b01d0fb6958e02e4b93f9c4
:102ee0000030022b50d1bb68002b4dd0ba68fb6874
:102ef0009a4249d3294bbb6142e0bb691b7883f0fe
:102f00000103dbb2002b35d0bb6901221a70bb690b
:102f100000225a70bb6900221a75bb6900225a75db
:102f2000bb6997f828209a70bb69ba685a60bb6978
:102f30007a68da60bb693a681a61ba68fb68d21ac3
:102f4000bb699a60164b1b887a6992b21146184683
:102f500003f072f80246bb69da61114b1b88184610
:102f600002f026ff03461a460d4b1a80bb69db6947
:102f7000fb6109e0bb692033bb617b6901337b6185
:102f8000bb69084a9342b8d302f06afbfb69184652
:102f90002037bd4680bd00bfc0030220640102206f
:082fa000bc040220040202201f
:020000040000fa
:020000040c00ee
:102fa8002de9f00388b000af78604ff000034ff0d0
:102fb8000004c7e90634354bfb60fb685b6a7b613c
:102fc80000233b617b68002b59d07b689b68bb6002
:102fd8007b69002b28d17b68ba689a60fb687a689d
:102fe8005a624de07b699b6819464ff00002d7e9a9
:102ff8000634cd1842eb0406bb684ff00004b44217
:1030080008bfab4214d37b699b684ff00004d7e933
:10301800061211eb030842eb0409c7e906897b692c
:103028003b617b699b697b617b69002bdad100e09e
:1030380000bf3b69002b06d1fb687a685a627b683f
:103048007a699a6106e03b699a697b689a613b698b
:103058007a689a61bb69ba68d21a7b689a607b6899
:103068009b69002b0cd07b689b68bb607b689b6965
:1030780099687b689b69ba688a1a9a6000e000bf01
:103088002037bd46bde8f003704700bfc0030220eb
:020000040000fa
:020000040c00ee
:1030980080b584b000af364b1b7ddbb2002b62d00d
:1030a800334b9b68bb60324b5b68ba689a4234bf4b
:1030b80001230023bb732f4b1b7edbb203f00103fc
:1030c800012b0cbf01230023fb732ae0294b5b680b
:1030d80003f00703012b07d0254b1a68bb6813447c
:1030e8001a78244b9a6207e0214b1a68bb685b0088
:1030f80013441a881f4b9a62bb680133bb601c4b90
:103108005b68ba689a4234bf01230023bb73194b2a
:103118001b7edbb203f00103012b0cbf012300234c
:10312800fb73fb7b002b02d0bb7b002bced1104a5c
:10313800bb6893600e4b5b68ba689a4213d30c4b1a
:1031480000221a750a4b00225a600a4b01221a758e
:10315800074bdb68002b06d0054b1b697b60044bd3
:10316800db687868984700bf1037bd4680bd00bf50
:083178008c0302200020004638
:020000040000fa
:020000040c00ee
:1031800080b582b000af364b9b7ddbb2002b62d0a6
:10319000334b1b7edbb203f08003802b0cbf01237b
:1031a0000023fb712e4b9b7ddbb203f08003802b51
:1031b00004d1fb79002b01d0012300e00023fb7137
:1031c000fb7903f00103fb71fb79002b01d001f0c7
:1031d000c5fe234b1b7edbb203f00103012b0cbfaa
:1031e00001230023fb711e4b9b7ddbb203f0010327
:1031f000012b04d1fb79002b01d0012300e0002337
:10320000fb71fb7903f00103fb71fb79002b01d00b
:10321000fff742ff124b1b7edbb203f00403042bcb
:103220000cbf01230023fb710d4b9b7ddbb203f030
:103230000403042b04d1fb79002b01d0012300e00f
:103240000023fb71fb7903f00103fb71fb79002b79
:1032500001d000f033fc00bf0837bd4680bd00bf81
:043260000020004604
:020000040000fa
:020000040c00ee
:1032640080b586b000af78607b689b697b617b68c2
:103274009b6904333b617b691b78002b0ad07b6913
:103284005b681ab27b6893f83a301946104602f02c
:10329400e4fd43e003f094f80346fb733b691b68c9
:1032a400b3f1ff3f09d03b691b681ab27b6893f8fe
:1032b40036301946104602f0d0fd3b695b68b3f125
:1032c400ff3f09d03b695b681ab27b6893f83730db
:1032d4001946104602f0c1fd3b699b68b3f1ff3ffc
:1032e40009d03b699b681ab27b6893f83830194659
:1032f400104602f0b2fd3b69db68b3f1ff3f09d031
:103304003b69db681ab27b6893f83930194610467a
:1033140002f0a3fdfb7b184602f042ff7b681b6ba7
:10332400002b08d17b683533bb60bb68002b02d00f
:0e333400bb6801221a7000bf1837bd4680bd6d
:020000040000fa
:020000040c00ee
:023342007047d2
:020000040000fa
:020000040c00ee
:10334400b0b586b000af78607b681b881a46134618
:103354005b0013445b012f4a13443b613b69db6907
:10336400fb6000237b614be07a691346db00134466
:103374009b001a46fb6813441b79dbb283f00103fc
:10338400dbb2002b39d07a691346db0013449b006f
:103394001a46fb68134401221a717a691346db004a
:1033a40013449b001a46fb68134400225a613b698c
:1033b400988a7b681b88d9b27b69ddb27a69134627
:1033c400db0013449b001a46fb689c182a4602f053
:1033d40053fc034623623b699b8a184602f062fc55
:1033e40003461a463b699a827a691346db00134402
:1033f4009b001a46fb68134408e07b6901337b6138
:103404003b699b697a699a42aed300231846183700
:08341400bd46b0bd0402022018
:020000040000fa
:020000040c00ee
:10341c0080b586b000af7860396000237b617b6833
:10342c00002b01d1002354e07b681b683b613b6897
:10343c00002b01d1294b3b6007f10c031a4639696b
:10344c003868fff7abfb034683f00103dbb2002bbc
:10345c0001d000233de03b69214a934201d901236d
:10346c007b614ff08c431b684ff08c4223f00203be
:10347c00136000bf4ff08c43db69002bfad14ff087
:10348c008c42fb68d3604ff08c431b6823f0407276
:10349c007b691b0603f040734ff08c4113430b60a8
:1034ac004ff08c431b684ff08c4243f002031360c7
:1034bc0000bf4ff08c43db69002bfad14ff08c43eb
:1034cc0010225a8300bf4ff08c43db69002bfad1da
:1034dc00012318461837bd4680bd00bf80d1f008c7
:0434ec00801a06003c
:020000040000fa
:020000040c00ee
:1034f00080b584b000af78600b46fb702b4bbb608f
:103500002b49b86802f05bfe0346fb73fb78bb7384
:1035100013e0fb7bba68d018bb7b7a6813441b7836
:103520005bb21a46234902f04afe0346dab2fb7b3d
:103530001344fb73bb7b0133bb73bb7b042be8d908
:10354000fb78002b1ad00023bb7313e0fb7bba6817
:10355000d018bb7b7a6813441b785bb21a461549b6
:1035600002f02dfe0346dab2fb7b1344fb73bb7bf8
:103570000133bb73ba7bfb789a42e7d3fb7bba6813
:1035800013440d49184602f01afe0346dab2fb7bdb
:103590001344fb73094b586cfa7b094b034902f047
:1035a00001fd00bf1037bd4680bd00bf8002022074
:1035b0001463000c1c63000c2463000c64020220e2
:0435c000ac02022037
:020000040000fa
:020000040c00ee
:0435c400704700bf8d
:020000040000fa
:020000040c00ee
:1035c80053ec102bc3f30a512de9f04140f2fd7082
:1035d8004e1e86421d4644d8a1f2ff30002835db36
:1035e800332831dc264bc0f120084ff0ff3c03faaa
:1035f80008f2a1f21f412cfa00fc10ee104a4cea26
:10360800020c23fa01f24cea020c23fa00fe04ea47
:103618000c0605ea0e0724ea0c0256ea070425ea16
:103628000e030fd0002a73f100040bda4ff4801553
:1036380005fa08f425fa01f10c43121925fa00f0ed
:1036480040eb030343ec102bbde8f0819fed0a7bb0
:10365800bfee000b002a73f1000327fe000bbde844
:10366800f0810029f0d10a4603f0004343ec102b07
:10367800eae700bfaff30080000000000000000090
:04368800ffff0f0031
:020000040000fa
:020000040c00ee
:10368c00b0b586b000af78607b681a6813461b0132
:10369c009b1a9b00294a13443b613b695b6afb60a4
:1036ac0000237b6140e07b692c2202fb03f3fa6868
:1036bc0013441b7883f00103dbb2002b31d07b6900
:1036cc002c2202fb03f3fa68134401221a707b6963
:1036dc002c2202fb03f3fa68134400229a623b6922
:1036ec00988d7b681b68d9b27b69ddb27b692c2213
:1036fc0002fb03f3fa68d4182a4602f08dfa03464b
:10370c0023623b699b8d184602f09cfa03461a46cd
:10371c003b699a857b692c2202fb03f3fa681344fc
:10372c0008e07b6901337b613b691b6a7a699a42c9
:10373c00b9d3002318461837bd46b0bd500302203c
:020000040000fa
:020000040c00ee
:10374c0080b485b000af78607b681b781b021ab21e
:10375c007b6801331b781bb21343fb81b7f90e3026
:10376c00002b11dbb7f90e30db111bb207ee903ad0
:10377c00b8eee77bb6ee006b27ee067bfdeec77b63
:10378c0017ee903afb8116e0fb895b429bb2fb8102
:10379c00b7f90e30db11fb81b7f90e3007ee903a1a
:1037ac00b8eee77bbeee006b27ee067bfdeec77b2b
:1037bc0017ee903afb81b7f90e3007ee903af8ee1f
:1037cc00e77ab2ee027a27ee877af1ee046ac7ee58
:1037dc00267a9fed087a77ee877afdeee77a17ee78
:1037ec00903afb81fb895bb218461437bd465df8f5
:0837fc00047b7047000000424d
:020000040000fa
:020000040c00ee
:1038040080b586b002af0346fb710023fb73264be1
:1038140093f84020244b1a75fa79234b5a75224b9e
:10382400022283f84220204b9868204b0093022305
:103834001f4a572102f0c8f800bf1b4b93f84230cf
:10384400dbb2022bf9d0184b022283f84220164b2c
:10385400986807f10f02154b00930123572102f0da
:1038640099f800bf104b93f84230dbb2022bf9d029
:103874000d4b93f84230dbb2012be4d00a4b93f8a2
:1038840040300133dab2084b83f84020064b93f8fa
:103894004030042b03d9044b002283f8402000bf9e
:1038a4001037bd4680bd00bf6402022070020220b2
:0438b4007802022074
:020000040000fa
:020000040c00ee
:1038b80080b584b000af78600021786802f003f921
:1038c800f860fb68002b43d0fb681b7e012b41d1bd
:1038d800fb6802221a767b681b6bb3f1ff3f2dd081
:1038e8007b685b685b6a9847b8607b68db6d032b15
:1038f80012d97b681b6b0121184600f0f8fc7b6825
:103908001b6bd8b27b68996bfb689a68fb68db68ad
:103918005b00fef7fdfe1ee07b681b6b002118466e
:1039280000f0e5fc7b681b6bd8b27b68996bfb6881
:103938009a68fb68db68fef7ebfe0ce07b685b6867
:103948005b68fa689068fa68d2681146984702e09e
:0c39580000bf00e000bf1037bd4680bd7e
:020000040000fa
:020000040c00ee
:1039640080b487b000af786039600023fb75002312
:103974003b617b68002b3ed0224b1b7ddbb283f086
:103984000103dbb2002b36d01e4a7b6813601d4a4c
:103994003b6853601b4b01221a751a4b5b68fb6032
:1039a40016e0194b5b6803f00703012b06d07a6815
:1039b4003b6913441a78144b9a6206e03b695b0036
:1039c4007a6813441a88104b9a623b6901333b614d
:1039d4000d4b1b7edbb203f00103012b03d13a69cb
:1039e400fb689a42ddd3074a3b699360064b012288
:1039f4009a750123fb75fb7d18461c37bd465df89f
:0c3a0400047b70478c0302200020004669
:020000040000fa
:020000040c00ee
:103a1000882910b536d012dc812943d003dc8029f7
:103a200040d0002010bd82290ed08429f9d1196818
:103a300002b30a1d1a60b1f90020d3171ee0a029b5
:103a40002bd00bdc9029ecd11968073121f007014c
:103a500001f108021a60d1e900230fe0c02901d06a
:103a6000f029ded11a68111d196013680360002364
:103a7000436005e00a1d1a600a880023c0e900239c
:103a80000120cfe7196822b10a1d1a6091f90020c0
:103a9000d3e70a1d1a600a78efe71a68111d19604a
:103aa0001268cae719681ab10a1d1a600a68c4e7e1
:0c3ab0000c1d1c600b68c0e90032e1e74f
:020000040000fa
:020000040c00ee
:103abc0080b584b000af264b93f82c30dbb2002bd2
:103acc0042d0234bdb69fb60214b1b6afa689a429c
:103adc003ad91f4b9b6abb601e4b9b6afb801c4bed
:103aec001b6a3b601b4b5b6803f00703012b07d081
:103afc00174b9a693b681344fa88d2b21a7006e0e5
:103b0c00134b9a693b685b001344fa881a803b6834
:103b1c0001333b600e4a3b6813620d4bdb693a681c
:103b2c009a4211d10a4b002283f82c20084b002218
:103b3c00da61084b84221a75054b5b6a002b03d0a3
:103b4c00034b5b6ab868984700bf1037bd4680bd11
:083b5c008c030220002000464a
:020000040000fa
:020000040c00ee
:103b640080b584b000af264bbb6000237b60bb688c
:103b74005b6a7b607b68002b08d07b689b68002baa
:103b840004d07b689b685a1e7b689a6000f0ecfa4c
:103b94000023fb732de0fb7b1a4a5b0113441533ae
:103ba4001b78dbb2002b21d0fb7b164a5b0113444c
:103bb400153300221a70fb7b124a5b011344023353
:103bc4001b78012b12d1fa7bfb7b0e4952010a446c
:103bd400043212680b495b010b4408331a60fb7b07
:103be4005b01084a13441846fff7dcf9fb7b0133f9
:103bf400fb73fb7b042bced900bf1037bd4680bdc1
:083c0400c0030220640102204c
:020000040000fa
:020000040c00ee
:103c0c002de9f041d2e900230c4686b007465fea65
:103c1c00d37820684968a5680590e66841d052427f
:103c2c0063eb4303002908db20f002000590b8f198
:103c3c00000f02d1059948072ad5691e05a80290e4
:103c4c000a20cde90010204600f084fcb8f1000fea
:103c5c0002d1059b59071fd5b8f1000f00f1ff30b9
:103c6c0014bf2d232b2333542269059b0093013a57
:103c7c002b46121a3118384600f0b6fa7b68db0571
:103c8c0003d563689842b8bf184606b0bde8f0810a
:103c9c000807d2d42946d1e71a07e5d501382023e5
:083cac00e1e70029c0dac5e7d9
:020000040000fa
:020000040c00ee
:103cb40080b584b000af78600121786801f005ff19
:103cc400f860fb68002b3ed0fb681b7e012b3cd1c7
:103cd400fb6802221a767b68db6ab3f1ff3f28d0c7
:103ce4007b68db6d032b12d97b68db6a01211846e4
:103cf40000f0fffa7b68db6ad8b2fb6899687b68de
:103d04005a6bfb68db685b00fef704fd1ee07b6812
:103d1400db6a0021184600f0ecfa7b68db6ad8b253
:103d2400fb6899687b685a6bfb68db68fef7f2fcfa
:103d34000ce07b685b689b69fa689068fa68d268f3
:103d44001146984702e000bf00e000bf1037bd46af
:023d540080bd30
:020000040000fa
:020000040c00ee
:023d5600fee786
:020000040000fa
:020000040c00ee
:103d580080b485b000af78600023bb600023fb60af
:103d68007b68b3f1ff3f3ad07b68002b37d07b6884
:103d78001b0adbb2bb60bb68002b01d000232fe01d
:103d88007b68d9b21948ba6813461b019b1a9b0075
:103d9800034408331b68994201d3002320e07b6861
:103da800dab213465b001344db0018460f49ba68c1
:103db80013461b019b1a9b000b441c331b680344ce
:103dc800fb60fb681b697a689a4206d1fb685b79dd
:103dd80083f00103dbb2002b01d0002300e0fb6875
:103de80018461437bd465df8047b7047500302201f
:020000040000fa
:020000040c00ee
:103df80080b483b000af00237b6000237b601fe0aa
:103e080020497a6813465b0013449b000b44002248
:103e18001a601c497a6813465b0013449b000b44e4
:103e2800043300221a6017497a6813465b0013446a
:103e38009b000b44083300221a707b6801337b60b7
:103e48007b68012bdcd9104b104a5a650e4b0122b6
:103e58009a670d4b08221a660b4b0c4ac3f8a4202c
:103e6800094b0122c3f8c820074b0822c3f8b02029
:103e7800054b02221a6000bf0c37bd465df8047b73
:103e8800704700bf88040220000085440300080032
:020000040000fa
:020000040c00ee
:103e980080b485b000af78600023bb600023fb606e
:103ea8007b68b3f1ff3f36d07b68002b33d07b684b
:103eb8001b0adbb2bb60bb68002b01d000232be0e0
:103ec8007b68d9b21748ba6813465b0013445b0194
:103ed80003440c331b68994201d300231ce07b6820
:103ee800dbb219010f48ba6813465b0013445b0143
:103ef800034410331b680b44fb60fb68db687a687b
:103f08009a4206d1fb68db7883f00103dbb2002b11
:103f180001d0002300e0fb6818461437bd465df861
:083f2800047b70470402022033
:020000040000fa
:020000040c00ee
:103f300080b586b000af78607b687b6100233b6111
:103f40000023fb607b691b7883f00103dbb2002b4d
:103f500032d17b6993f90130022b2dd1786902f0bf
:103f60008ff8f860fb689b69dab213465b00134474
:103f7000db001846fb689b691b0adab2104913463e
:103f80001b019b1a9b000b441c331b6803443b61c1
:103f90003b691a69fb689b699a4205d1fa683969dd
:103fa000786900f069f902e0786901f049fa396945
:103fb0007869fef787fa00e000bf1837bd4680bd7c
:043fc0005003022088
:020000040000fa
:020000040c00ee
:103fc40080b400af204b214a1a601f4b4ff6da42ef
:103fd4009a811d4b4ff440325a6000bf1a4bdb6983
:103fe400002bfbd1184b1b68174a43f002031360e4
:103ff40000bf154bdb69002bfbd1154b00229a61e6
:10400400134b0022da61124b00221a62104b002279
:1040140083f82c200e4b00225a620d4b00221a60aa
:104024000b4b00225a600a4b00229a60084b002274
:104034001a75074b0022da60054b0022da8500bfaf
:10404400bd465df8047b7047002000460401304003
:044054008c030220b7
:020000040000fa
:020000040c00ee
:1040580080b487b000af78601f4bfb60fb685b6a79
:104068007b6100233b61fb685b6a7b6104e07b69e1
:104078003b617b699b697b617b69002b03d07a6913
:104088007b689a42f3d17b69002b1fd07b689b69c0
:10409800002b0ad07b689b68bb607b689b6999682a
:1040a8007b689b69ba680a449a603b69002b05d112
:1040b800fb685b6a9a69fb685a6203e07b689a69e5
:1040c8003b699a617b6800229a6100e000bf1c3757
:0c40d800bd465df8047b7047c003022069
:020000040000fa
:020000040c00ee
:1040e40080b400af4ff08c4301221a6000bf4ff040
:1040f4008c43db69002bfad14ff08c434ff4807270
:104104005a6000bf4ff08c43db69002bfad14ff0ab
:104114008c43af22da604ff08c43114a1a6000bf1f
:104124004ff08c43db69002bfad14ff08c43102203
:104134005a8300bf4ff08c43db69002bfad1094b43
:10414400002283f82120074b002283f820204ff01f
:104154008c439b229a7500bfbd465df8047b704773
:084164001604100020040220e3
:020000040000fa
:020000040c00ee
:10416c0080b582b000af1f4b3b603b685b6a7b60e5
:10417c002ee07b689b68002b2ed17b6801221a7580
:10418c007b6801225a757b689b78002b09d17b6870
:10419c00db68002b05d07b68db69184600f040fc1f
:1041ac0009e07868fff752ff7b689b78002b02d1ff
:1041bc007b6800225a707b68db68002b05d07b681b
:1041cc00db687a681269104698473b685b6a7b60cb
:1041dc007b68002bcdd100e000bf00bf0837bd4687
:0841ec0080bd00bfc0030220ea
:020000040000fa
:020000040c00ee
:1041f4002de9ff471d460c9b13f0010906468a462c
:10420400144601d195420bd822465146304601f05e
:10421400b3fea54204d82546284604b0bde8f0877d
:104224002f1b102f3a464ff0200128bf102268465a
:10423400b84602f081f800bfb8f10f0f11d83b095e
:104244006ff00f0202fb03726946304601f094fee0
:10425400b9f1000fe0d122465146304601f08cfe00
:10426400dae710226946304601f086fea8f110080c
:04427400e2e700bfbe
:020000040000fa
:020000040c00ee
:1042780080b586b000aff860b9607a60fb68db682b
:104288001b69984703461a467b6883f824207b6895
:1042980093f82430dbb2002b03d17b6801225a75d6
:1042a80002e07b68ff225a757b685b7dfb757b6843
:1042b8001b6a3b61f86801f0bff8bb689b68002b7c
:1042c80011d0fb681b6b5a1cfb681a63bb689b68a0
:1042d800ba68d26897f9170039699847fb681b6b69
:0e42e8005a1efb681a6300bf1837bd4680bd22
:020000040000fa
:020000040c00ee
:1042f60080b586b000af78600b46fb707b68dbb29a
:10430600184601f014fcf860fb681b0903f007036c
:104316007b61fb6803f007033b617b69022b03d8d3
:1043260097f903307b6103e097f9033003337b6130
:104336003b69022b03d897f903303b6103e097f9f9
:10434600033003333b61fb6823f077027b69190175
:104356003b690b431343fb607b68dbb2f968184685
:0c43660000f0a1fd00bf1837bd4680bd6f
:020000040000fa
:020000040c00ee
:02437200704792
:020000040000fa
:020000040c00ee
:1043740008b5174b9847174b984701f0e9fd01f032
:104384006bfe01f06ffb144c144b23f07f03a3600e
:10439400134b9847636913f4003f12d1bff34f8f57
:1043a400bff36f8f0022c4f85022bff34f8fbff3c7
:1043b4006f8f626942f400326261bff34f8fbff3c3
:1043c4006f8f084b9847084b984701f0dafffee7d8
:1043d4004333000c4333000c00ed00e00000000008
:0c43e4009d4d000c4333000c4333000cd3
:020000040000fa
:020000040c00ee
:1043f000842910b523d00cdc812903d0822913d065
:1044000080290bd119680c1d1c600b6803601a60b1
:1044100013e0902921d003dc882917d0002010bd9b
:10442000a029efd0c029ece719680c1d1c600b68af
:104430000360d1171046c3e900010120efe71968b6
:104440000c1d1c600b6803601a80f6e719680c1dd0
:104450001c600b6803601a70efe719680c1d1c6084
:0c44600009680160d317c1e90023e6e7fa
:020000040000fa
:020000040c00ee
:10446c0080b584b000af78600023bb600123fb7380
:10447c0000f072fb034683f00103dbb2002b01d08a
:10448c00fb7b26e0786800f08ffdb860bb68002be2
:10449c001cd0bb685b7883f00103dbb2002b13d01c
:1044ac00bb689b68002b03d1bb685a68bb689a60d9
:1044bc00b868fef773fdbb6800221a75bb68002252
:1044cc005a75bb6801225a700023fb7301f0c2f8c5
:0a44dc00fb7b18461037bd4680bd7b
:020000040000fa
:020000040c00ee
:1044e80080b400af1a4bdb69194a43f48023d361c7
:1044f80000bf174bdb6803f48063b3f5806ff8d116
:10450800144b0c229a64134be1225a64114b00227b
:10451800da6600bf0f4b9b6f03f04003402bf9d0c6
:104528000c4b8322da640b4b1a6c0a4940f60223bf
:1045380013430b6400bf074b1b6903f08073b3f18f
:10454800807ff8d100bfbd465df8047b704700bf8f
:084558000000024400000444cd
:020000040000fa
:020000040c00ee
:104560002de9f84f04460c9f6668d4f80cb0246916
:1045700010463a68013c002502f0020a0b9a0bf83b
:104580000450002e1946b8bf0126012390464fea79
:10459000e279002c03dcd3b12046bde8f88f50ea65
:1045a000010209d1721b002a06dc0a9a521b002a5a
:1045b000f1ddbaf1000feed042464b4601f01afb96
:1045c000013c134630320bf804200135e1e73b682b
:0845d00023f010033b60dfe75c
:020000040000fa
:020000040c00ee
:1045d80080b582b000af786000f06ef800f08cfa19
:1045e800fff7ecfcfff77afd01f0e1fefff700fcb6
:1045f80000f0e6fa0f490020fef744fa02460e4b97
:104608001a600e490020fdf731fa02460a4b5a603b
:104618000b49002000f0d0f90246074b9a6001f0e0
:104628003bfd01f01dfefdf763fd00bf0837bd46e9
:1046380080bd00bf3461000ca00402202059000c8a
:044648002064000cde
:020000040000fa
:020000040c00ee
:10464c00f0b50c4649682368a768e56887b000296f
:10465c000593a4bf23f00203059305ab0293082333
:10466c00cde900730646d2e900232046fff772ff1e
:10467c00059bd90642bf00f1ff3030232b54059b1c
:10468c001a0742bf00f1ff3020232b542269059bef
:10469c000093013a3b46121a29183046fff7a4fd45
:1046ac007368db0503d563689842b8bf184607b03a
:0246bc00f0bd4f
:020000040000fa
:020000040c00ee
:1046c00080b400af194b4ff40012c3f88020174b91
:1046d0004ff40012c3f89020144b002283f8d52029
:1046e000124b002283f8ba20104b012283f840219c
:1046f0000e4b012283f841210c4b012283f8442107
:104700000a4b012283f84721084b332283f83021da
:10471000064b032283f83221044b302283f83321e5
:1047200000bfbd465df8047b704700bf00008444b5
:020000040000fa
:020000040c00ee
:1047300080b584b000afb9607a603b600346fb810e
:10474000164b93f820305bb2002b01d0002320e001
:10475000124afb899380114a3b68d3600f4abb69b8
:1047600053610e4abb6893600c4a7b6813610b4a25
:104770003b7f9370094a97f820301370074b002253
:1047800083f821203a7ffb891146184600f0bafbd6
:10479000012318461037bd4680bd00bf200402200b
:020000040000fa
:020000040c00ee
:1047a00080b400af194b002283f82120174b002260
:1047b00083f820204ff08c431b684ff08c4223f08d
:1047c0000203136000bf4ff08c43db69002bfad16a
:1047d0004ff08c431b684ff08c4243f00203136090
:1047e00000bf4ff08c43db69002bfad14ff08c43b4
:1047f00010225a8300bf4ff08c43db69002bfad1a3
:1048000000bfbd465df8047b704700bf2004022056
:020000040000fa
:020000040c00ee
:1048100080b586b000aff860b9607a6000237b6134
:1048200000233b61f868fff797fa78617b69002bfa
:104830001bd07b691a6813461b019b1a9b000e4a0a
:1048400013443b613869fef735fa034683f00103f0
:10485000dbb2002b0bd17b69ba689a607b697a68fe
:10486000da603869fef7fefc02e000bf00e000bf3e
:0c4870001837bd4680bd00bf5003022079
:020000040000fa
:020000040c00ee
:10487c0080b487b000aff860b9601346fb710023b9
:10488c00fb74fb79012b03d1fb6820337b6102e0c5
:10489c00fb6824337b617b691b68002b13d17b691c
:1048ac00ba681a600123fb7411e07b691b685b69b1
:1048bc00002b04d17b691b68ba685a6107e07b69dd
:1048cc001b6814337b617b691b68002bedd1fb7c6f
:0c48dc0018461c37bd465df8047b704791
:020000040000fa
:020000040c00ee
:1048e80080b586b000aff860b9607a6000237b615c
:1048f80000233b61f868fff7cbfa38613b69002b6e
:104908001cd03b691b881a4613465b0013445b01a5
:104918000d4a13447b61786900f06efc034683f00e
:104928000103dbb2002b0bd13b69ba685a603b69c3
:104938007a689a60786901f0adf802e000bf00e09b
:0c49480000bf1837bd4680bd04020220ed
:020000040000fa
:020000040c00ee
:1049540090b585b000af7860164bfb607b68bb6098
:10496400bb681a68fb685a60fb684ff47a72da60b5
:10497400bb68b3f90420fb681a81fa684ff000039e
:104984004ff00004c2e90634fb6800225a62fb6857
:10499400002283f82020fb685b681b68002106481e
:1049a4009847fb685b685b68984700bf1437bd464f
:0c49b40090bd00bfc0030220e54c000cc9
:020000040000fa
:020000040c00ee
:1049c00080b584b000af03463960fb803b68002ba4
:1049d00002d0fb88002b02d04ff0ff331be0104bbe
:1049e000fb60fb68002b01d1002303e0fb68012280
:1049f0001a700123012b02d04ff0ff330be038680f
:104a0000fff7a8ffa0220021064801f097fc064b03
:104a100002221a70044b18461037bd4680bd00bff5
:0c4a2000e803022064010220c003022011
:020000040000fa
:020000040c00ee
:104a2c0080b584b000af78600023bb600123fb73ba
:104a3c0000f092f8034683f00103dbb2002b01d0a7
:104a4c00fb7b1ee0786800f0affab860bb68002b07
:104a5c0014d0bb685b78002b05d0b868fff7f6fa6a
:104a6c00bb6800225a70bb6800221a75bb68002212
:104a7c005a75bb6800221a700023fb7300f0eafd24
:0a4a8c00fb7b18461037bd4680bdc5
:020000040000fa
:020000040c00ee
:104a980080b584b000af786039600023fb737b6811
:104aa800002b1fd0124b93f82c30dbb283f001039c
:104ab800dbb2002b16d000f051fb0d4a7b689361e6
:104ac8000b4a3b68d3610a4b00221a62084b012249
:104ad80083f82c20064b0022da850123fb73054b53
:104ae80084229a75fb7b18461037bd4680bd00bfef
:084af8008c030220002000469f
:020000040000fa
