:020000040000fa
:020000040800f2
:10000000f0ff11208de0070c0b21080c0d21080cce
:100010001121080c1321080c1521080c0000000008
:1000200000000000000000000000000027a8070cee
:100030000f21080c0000000027a8070c27a8070cb8
:1000400027a8070c27a8070c27a8070c27a8070c28
:1000500027a8070c27a8070c27a8070c27a8070c18
:1000600027a8070c27a8070c27a8070c27a8070c08
:1000700027a8070c27a8070c27a8070c27a8070cf8
:1000800027a8070c27a8070c27a8070c27a8070ce8
:1000900027a8070c27a8070c27a8070c27a8070cd8
:1000a00027a8070c27a8070c27a8070c27a8070cc8
:1000b00027a8070c27a8070c27a8070c27a8070cb8
:1000c00027a8070c27a8070c27a8070c27a8070ca8
:1000d00027a8070c27a8070c27a8070c053a070c28
:1000e000dd39070cb539070c8d39070c27a8070c2b
:1000f00027a8070c27a8070c27a8070c27a8070c78
:1001000027a8070c27a8070c27a8070c27a8070c67
:1001100027a8070c27a8070c27a8070c6546070c7b
:100120006546070c6546070c6546070c6546070cd7
:100130006546070c6546070c27a8070c27a8070c7f
:1001400027a8070c27a8070c27a8070c27a8070c27
:1001500027a8070c4d30070c4d30070c4d30070c0d
:100160004d30070c4d30070c4d30070c4d30070c4f
:1001700027a8070c27a8070c27a8070c27a8070cf7
:1001800027a8070c27a8070c27a8070cf9ff060cbf
:10019000f9ff060cf9ff060cf9ff060cf9ff060c37
:1001a000f9ff060cf9ff060c27a8070c27a8070c77
:1001b00027a8070c27a8070c27a8070c27a8070cb7
:1001c00027a8070c27a8070c27a8070c27a8070ca7
:1001d00027a8070c27a8070c27a8070c27a8070c97
:1001e00027a8070c27a8070c27a8070c27a8070c87
:1001f00027a8070c27a8070c27a8070c27a8070c77
:1002000027a8070c27a8070c27a8070c27a8070c66
:1002100027a8070c27a8070c27a8070c27a8070c56
:1002200027a8070c27a8070c27a8070c27a8070c46
:1002300027a8070c27a8070c27a8070c27a8070c36
:1002400027a8070c27a8070c27a8070c27a8070c26
:1002500027a8070c27a8070c27a8070c61e9070c9b
:1002600027a8070c27a8070c27a8070c27a8070c06
:1002700027a8070c27a8070c27a8070c27a8070cf6
:1002800027a8070c27a8070c27a8070c27a8070ce6
:1002900027a8070c27a8070c27a8070c27a8070cd6
:1002a00027a8070c27a8070c27a8070c27a8070cc6
:1002b00027a8070c27a8070c27a8070c27a8070cb6
:1002c00027a8070c27a8070c27a8070c27a8070ca6
:1002d00027a8070c27a8070c27a8070c27a8070c96
:1002e00027a8070c27a8070c27a8070c27a8070c86
:1002f00027a8070c27a8070c27a8070c27a8070c76
:1003000027a8070c27a8070c27a8070c27a8070c65
:1003100027a8070c27a8070c27a8070c27a8070c55
:1003200027a8070c27a8070c27a8070c27a8070c45
:1003300027a8070c27a8070c27a8070c27a8070c35
:1003400027a8070c27a8070c27a8070c27a8070c25
:1003500027a8070c27a8070c27a8070c27a8070c15
:10036000000000000000000027a8070c27a8070cc9
:1003700027a8070c27a8070c27a8070c27a8070cf5
:1003800027a8070c27a8070c27a8070c27a8070ce5
:1003900027a8070c27a8070c27a8070c27a8070cd5
:1003a00027a8070c27a8070c27a8070c27a8070cc5
:0803b00027a8070c27a8070c81
:020000040000fa
:020000040a00f0
:040000000100fefffe
:020000040000fa
:020000040a00f0
:04002000ffffffffe0
:020000040000fa
:020000040a00f0
:0400400000000000bc
:020000040000fa
:020000040a00f0
:04004400ffffffffbc
:020000040000fa
:020000040a00f0
:0400480007000000ad
:020000040000fa
:020000040a00f0
:04004c00c7050000e4
:020000040000fa
:020000040a00f0
:04005400ffff0000aa
:020000040000fa
:020000040a00f0
:040058007000000034
:020000040000fa
:020000040a00f0
:04005c00020000009e
:020000040000fa
:020000040a00f0
:04006000000000009c
:020000040000fa
:020000040a00f0
:040064000202000094
:020000040000fa
:020000040a00f0
:04008000ffffffff80
:020000040000fa
:020000040a00f0
:0400a000ffffffff60
:020000040000fa
:020000040a00f0
:04200000000000c01c
:020000040000fa
:020000040a00f0
:042004000100feffda
:020000040000fa
:020000040a00f0
:04200800ffffffffd8
:020000040000fa
:020000040a00f0
:04208000ffffffff60
:020000040000fa
:020000040a00f0
:04208400ffffffff5c
:020000040000fa
:020000040a00f0
:04208800ffffffff58
:020000040000fa
:020000040a00f0
:04208c00ffffffff54
:020000040000fa
:020000040a00f0
:04209000ffffffff50
:020000040000fa
:020000040a00f0
:04209400ffffffff4c
:020000040000fa
:020000040a00f0
:04209800ffffffff48
:020000040000fa
:020000040a00f0
:04209c00ffffffff44
:020000040000fa
:020000040a00f0
:0420a000ffffffff40
:020000040000fa
:020000040a00f0
:0420a400ffffffff3c
:020000040000fa
:020000040a00f0
:0420a800ffffffff38
:020000040000fa
:020000040a00f0
:0420ac00ffffffff34
:020000040000fa
:020000040a00f0
:0420b000ffffffff30
:020000040000fa
:020000040a00f0
:0420b400ffffffff2c
:020000040000fa
:020000040a00f0
:0420b800ffffffff28
:020000040000fa
:020000040a00f0
:0420bc00ffffffff24
:020000040000fa
:020000040a00f0
:0420c000ffffffff20
:020000040000fa
:020000040a00f0
:0420c400ffffffff1c
:020000040000fa
:020000040a00f0
:0420c800ffffffff18
:020000040000fa
:020000040a00f0
:0420cc00ffffffff14
:020000040000fa
:020000040a00f0
:0420d000ffffffff10
:020000040000fa
:020000040a00f0
:0420d400ffffffff0c
:020000040000fa
:020000040a00f0
:0420d800ffffffff08
:020000040000fa
:020000040a00f0
:0420dc00ffffffff04
:020000040000fa
:020000040a00f0
:0420e00006070000ef
:020000040000fa
:020000040a00f0
:0420e40004cf0f0016
:020000040000fa
:020000040a00f0
:0420e80006f70401f2
:020000040000fa
:020000040a00f0
:0420ec00863a000030
:020000040000fa
:020000040a00f0
:0420f000ff030000ea
:020000040000fa
:020000040a00f0
:0420f4003f000000a9
:020000040000fa
:020000040a00f0
:0420f800bf00000025
:020000040000fa
:020000040a00f0
:0420fc00ffffffffe4
:020000040000fa
:020000040a00f0
:04210000ffffffffdf
:020000040000fa
:020000040a00f0
:04211000ffffffffcf
:020000040000fa
:020000040a00f0
:04211400ffffffffcb
:020000040000fa
:020000040a00f0
:04211800ffffffffc7
:020000040000fa
:020000040a00f0
:04211c00ffffffffc3
:020000040000fa
:020000040a00f0
:04212000ffffffffbf
:020000040000fa
:020000040a00f0
:048000000000ffff7e
:020000040000fa
:020000040a00f0
:04802000ffffffff60
:020000040000fa
:020000040a00f0
:0480400044000000f8
:020000040000fa
:020000040a00f0
:04804400ffffffff3c
:020000040000fa
:020000040a00f0
:04804800070000002d
:020000040000fa
:020000040a00f0
:04804c00c705000064
:020000040000fa
:020000040a00f0
:04805400ffff00002a
:020000040000fa
:020000040a00f0
:0480580070000000b4
:020000040000fa
:020000040a00f0
:04805c00020000001e
:020000040000fa
:020000040a00f0
:04806000000000001c
:020000040000fa
:020000040a00f0
:048064000202000014
:020000040000fa
:020000040a00f0
:04808000ffffffff00
:020000040000fa
:020000040a00f0
:0480a000ffffffffe0
:020000040000fa
:020000040a00f0
:04a00000000000c09c
:020000040000fa
:020000040a00f0
:04a004000000ffff5a
:020000040000fa
:020000040a00f0
:04a00800ffffffff58
:020000040000fa
:020000040a00f0
:04a08000ffffffffe0
:020000040000fa
:020000040a00f0
:04a08400ffffffffdc
:020000040000fa
:020000040a00f0
:04a08800ffffffffd8
:020000040000fa
:020000040a00f0
:04a08c00ffffffffd4
:020000040000fa
:020000040a00f0
:04a09000ffffffffd0
:020000040000fa
:020000040a00f0
:04a09400ffffffffcc
:020000040000fa
:020000040a00f0
:04a09800ffffffffc8
:020000040000fa
:020000040a00f0
:04a09c00ffffffffc4
:020000040000fa
:020000040a00f0
:04a0a000ffffffffc0
:020000040000fa
:020000040a00f0
:04a0a400ffffffffbc
:020000040000fa
:020000040a00f0
:04a0a800ffffffffb8
:020000040000fa
:020000040a00f0
:04a0ac00ffffffffb4
:020000040000fa
:020000040a00f0
:04a0b000ffffffffb0
:020000040000fa
:020000040a00f0
:04a0b400ffffffffac
:020000040000fa
:020000040a00f0
:04a0b800ffffffffa8
:020000040000fa
:020000040a00f0
:04a0bc00ffffffffa4
:020000040000fa
:020000040a00f0
:04a0c000ffffffffa0
:020000040000fa
:020000040a00f0
:04a0c400ffffffff9c
:020000040000fa
:020000040a00f0
:04a0c800ffffffff98
:020000040000fa
:020000040a00f0
:04a0cc00ffffffff94
:020000040000fa
:020000040a00f0
:04a0d000ffffffff90
:020000040000fa
:020000040a00f0
:04a0d400ffffffff8c
:020000040000fa
:020000040a00f0
:04a0d800ffffffff88
:020000040000fa
:020000040a00f0
:04a0dc00ffffffff84
:020000040000fa
:020000040a00f0
:04a0e000060700006f
:020000040000fa
:020000040a00f0
:04a0e40004cf0f0096
:020000040000fa
:020000040a00f0
:04a0e80006f7040172
:020000040000fa
:020000040a00f0
:04a0ec00863a0000b0
:020000040000fa
:020000040a00f0
:04a0f000ff0300006a
:020000040000fa
:020000040a00f0
:04a0f4003f00000029
:020000040000fa
:020000040a00f0
:04a0f800bf000000a5
:020000040000fa
:020000040a00f0
:04a0fc00ffffffff64
:020000040000fa
:020000040a00f0
:04a10000ffffffff5f
:020000040000fa
:020000040a00f0
:04a11000ffffffff4f
:020000040000fa
:020000040a00f0
:04a11400ffffffff4b
:020000040000fa
:020000040a00f0
:04a11800ffffffff47
:020000040000fa
:020000040a00f0
:04a11c00ffffffff43
:020000040000fa
:020000040a00f0
:04a12000ffffffff3f
:020000040000fa
:020000040c00ee
:10000000f8b500bff8bc08bc9e467047a116080ca6
:10001000f8b500bff8bc08bc9e4670477d16080cba
:020000040000fa
:020000040c00ee
:08002000ccb007000100000054
:020000040000fa
:020000040c00ee
:1000280014953174559d359515951495f494f4945b
:10003800f49476add7b579cefbde9ef79ef79ef7a2
:10004800ffffffffffffffffffffffffffffffffb8
:10005800ffffffffffffffffffffffffffffffffa8
:10006800ffffffffffffffffffffffffffffffff98
:10007800ffffffffffffffffffffffffffffffff88
:10008800ffff5de709224e5bcf734e630d53ec4ac9
:10009800ab42ab42ab42ab42ab42cc4aec4aab427e
:1000a8004a321174ffffffffffffffffffffffff53
:1000b800ffffffffffffffffffffffffffffffff48
:1000c800fffff8bdf8bddbde7def7def7def7def57
:1000d8007def7def9defbef7ffffffffffffffff07
:1000e800ffffffffffff9ace092af07b508c308478
:1000f800308c308c308c308c308c308c308c308420
:10010800308410848b3a9384ffffffffffffffffcb
:10011800ffffffffffffffffffffffffffffffffe7
:100128007def8f5b6a3aab4acc4acc4aab426a3a1b
:100138002a2ae921c9210a2aac3a2e53d06b727cab
:10014800d38c527439beffffffffb7b5092a10845c
:100158001084ef7bef7bef7bef7bef7bef7bef7b1d
:10016800ef7b0f8410841084092ab7b5ffffffffc7
:10017800ffffffffffffffffffffffffffffffff87
:10018800fbdeac3aec52508c508c308c30841084ae
:100198001084ef7bcf7bcf73cf73cf73cf73ef7b9d
:1001a800107ccc428b3a1cdfffffffffffff56a5f8
:1001b8002a3210841084ef7bef7bef7bef7bef7ba1
:1001c800ef7bef7bef7bef7b1084ef7b2a329acebd
:1001d800ffffffffffffffffffffffffffffffff27
:1001e8009ad66b324e63308c0f84ef7bef7bef83b4
:1001f8001084108410841084108410841084308437
:100208003084ab426e5bbef7ffffffffffffffffcf
:10021800ffffb3946a3a30841084ef7bef7bef7b67
:10022800ef7bef7bef7bef7bef7bef7b3084cf7354
:100238004a32bbd6ffffffffffffffffffffffffb5
:1002480059c64a32af73308cef7bef7bef7bef7b85
:10025800ef7bef7bef7bef7bef7bef7bef7b10841c
:1002680010842a321174ffffffffffffffffffff1b
:10027800ffffffffffff8f63ec4a308cef7bef7bc4
:10028800ef7bef7bef7bef7bef7bef7bef7bef7b16
:10029800308c8e6b4a323ce7ffffffffffffffff0a
:1002a80056a5092acf733084ef7bef7bef7bef7b7a
:1002b800ef7bef7bef7bef7bef7bef7bef7b1084bc
:1002c80010842932f494ffffffffffffffffffffb9
:1002d800ffffffffffffffffbef7ed4a4d5b308cce
:1002e800ef7bef7bef7bef7bef7bef7bef7bef7bb6
:1002f800ef7bef7b308c2d530d4bffffffffffff94
:100308009384092acf7b3084ef7bef7bef7bef7bf5
:10031800ef7bef7bef7bef7bef7bef7bef7b30843b
:10032800cf73092a56a5ffffffffffffffffffff5f
:10033800ffffffffffffffffffffffff9defac4247
:100348006e63308cef7bef7bef7bef7bef7bef7b9c
:10035800ef7bef7bef7bef83308ccc4a1174ffff90
:10036800527c8b3a10841084ef7bef7bef7bef7b22
:10037800ef7bef7bef7bef7bef7bef7bef7b308cd3
:100388008e6b092ab7b5ffffffffffffffffffffd7
:10039800ffffffffffffffffffffffffffffffff65
:1003a8005ce74a2a8e6b3084ef7bef7bef7bef7b39
:1003b800ef7bef7bef7bef7bef7b1084308c8b4206
:1003c8008b428b42308c1084ef7bef7bef7bef7b93
:1003d800ef7bef7bef7bef7bef7bef7bef7b308c73
:1003e8006e638b3a7aceffffffffffffffffffff31
:1003f800ffffffffffffffffffffffffffffffff05
:10040800ffffffff39c6e921ef7b1084ef7bef7b0d
:10041800ef7bef7bef7bef7bef7bef7bef7b10845a
:10042800ef7b2d5b10841084ef7bef7bef7bef7b02
:10043800ef7bef7bef7bef7bef7bef7b1084308ce8
:100448004d5bcc423ce7ffffffffffffffffffffd5
:10045800ffffffffffffffffffffffffffffffffa4
:10046800ffffffffffffffff56a5293230841084ee
:10047800ef7bef7bef7bef7bef7bef7bef7bef7b24
:10048800ef7b108430841084ef7bef7bef7bef7b76
:10049800ef7bef7bef7bef7bef7bef7b1084308490
:1004a800cc4aed4a7defffffffffffffffffffff95
:1004b800ffffffffffffffffffffffffffffffff44
:1004c800ffffffffffffffffffffffff149d4a3203
:1004d80030841084ef7bef7bef7bef7bef7bef7b50
:1004e800ef7bef7bef7bef7bef7bef7bef7bef7bb4
:1004f800ef7bef7bef7bef7bef7bef7b1084308430
:100508006b3aaf63bef7ffffffffffffffffffff81
:10051800ffffffffffffffffffffffffffffffffe3
:10052800ffffffffffffffffffffffffffffffffd3
:1005380052848b3a30841084ef7bef7bef7bef7b28
:10054800ef7bef7bef7bef7bef7bef7bef7bef7b53
:10055800ef7bef7bef7bef7bef7bef7b10843084cf
:100568004a327284ffffffffffffffffffffffff1d
:10057800ffffffffffffffffffffffffffffffff83
:10058800ffffffffffffffffffffffffffffffff73
:10059800ffffffff2e530d53308cef7bef7bef7b7c
:1005a800ef7bef7bef7bef7bef7bef7bef7bef7bf3
:1005b800ef7bef7bef7bef7bef7bef7b3084ef7b99
:1005c800292af494ffffffffffffffffffffffff54
:1005d800ffffffffffffffffffffffffffffffff23
:1005e800ffffffffffffffffffffffffffffffff13
:1005f800ffffffffffff7defac426e63308cef7ba8
:10060800ef7bef7bef7bef7bef7bef7bef7bef7b92
:10061800ef7bef7bef7bef7bef7bef7b308caf6b80
:10062800e92155a5ffffffffffffffffffffffffca
:10063800ffffffffffffffffffffffffffffffffc2
:10064800ffffffffffffffffffffffffffffffffb2
:10065800ffffffffffffffffffff5ce78b3a8e6b9b
:10066800308cef7bef7bef7bef7bef7bef7bef7be0
:10067800ef7bef7bef7bef7bef7bef7b308c8e6b41
:100688004a3239c6fffffffffffffffffffffffff3
:10069800ffffffffffffffffffffffffffffffff62
:1006a800ffffffffffffffffffffffffffffffff52
:1006b800ffffffffffffffffffffffffffff1bdf46
:1006c8002a2aaf733084ef7bef7bef7bef7bef7be6
:1006d800ef7bef7bef7bef7bef7b1084308c6e63df
:1006e8008b3adbdeffffffffffffffffffffffff90
:1006f800ffffffffffffffffffffffffffffffff02
:10070800fffffffffffffffffffffffffffffffff1
:10071800ffffffffffffffffffffffffffffffffe1
:10072800ffffd7b5e921f07b1084ef7bef7bef7bf0
:10073800ef7bef7bef7bef7bef7b108430840d53f7
:10074800ac3a1ce7ffffffffffffffffffffffffc4
:10075800ffffffffffffffffffffffffffffffffa1
:10076800ffffffffffffffffffffffffffffffff91
:10077800ffffffffffffffffffffffffffffffff81
:10078800fffffffffffff4944a3230841084ef7bb1
:10079800ef7bef7bef7bef7bef7b1084308cab4202
:1007a8002e537defffffffffffffffffffffffff60
:1007b800ffffffffffffffffffffffffffffffff41
:1007c800ffffffffffffffffffffffffffffffff31
:1007d800ffffffffffffffffffffffffffffffff21
:1007e800ffffffffffffffffffffb38c6b3a308473
:1007f8001084ef7bef7bef7bef7b108430848b3aa8
:100808001174ffffffffffffffffffffffffffff69
:10081800ffffffffffffffffffffffffffffffffe0
:10082800ffffffffffffffffffffffffffffffffd0
:10083800ffffffffffffffffffffffffffffffffc0
:10084800ffffffffffffffffffffffffffff117429
:10085800ab42308c0f84ef7bef7b1084f07b4a3205
:100868007284ffffffffffffffffffffffffffff98
:10087800ffffffffffffffffffffffffffffffff80
:10088800ffffffffffffffffffffffffffffffff70
:10089800ffffffffffffffffffffffffffffffff60
:1008a800ffffffffffffffffffffffffffffffff50
:1008b800def7ed4a2d5b308cef7b3084cf73e92176
:1008c800d494ffffffffffffffffffffffffffffc6
:1008d800ffffffffffffffffffffffffffffffff20
:1008e800ffffffffffffffffffffffffffffffff10
:1008f800ffffffffffffffffffffffffffffffff00
:10090800ffffffffffffffffffffffffffffffffef
:10091800ffffffff3ce76b3a8e6b5194af732a32af
:10092800b7b5ffffffffffffffffffffffffffff61
:10093800ffffffffffffffffffffffffffffffffbf
:10094800ffffffffffffffffffffffffffffffffaf
:10095800ffffffffffffffffffffffffffffffff9f
:10096800ffffffffffffffffffffffffffffffff8f
:10097800ffffffffffffffff1bdf8b3a4d5b8b3a4b
:100988009ad6fffffffffffffffffffffffffffffd
:10099800ffffffffffffffffffffffffffffffff5f
:1009a800ffffffffffffffffffffffffffffffff4f
:1009b800ffffffffffffffffffffffffffffffff3f
:1009c800ffffffffffffffffffffffffffffffff2f
:1009d800ffffffffffffffffffffffffbbd6ed4a53
:1009e8001cdfffffffffffffffffffffffffffff12
:1009f800ffffffffffffffffffffffffffffffffff
:100a0800ffffffffffffffffffffffffffffffffee
:100a1800ffffffffffffffffffffffffffffffffde
:100a2800ffffffffffffffffffffffffffffffffce
:100a3800ffffffffffffffffffffffffffffbbd62b
:100a4800ed4a1cdfffffffffffffffffffffffff78
:100a5800ffffffffffffffffffffffffffffffff9e
:100a6800ffffffffffffffffffffffffffffffff8e
:100a7800ffffffffffffffffffffffffffffffff7e
:100a8800ffffffffffffffffffffffffffffffff6e
:100a9800ffffffffffffffffffffffffffff1bdf62
:100aa8008b3a4d5b8b3a9ad6ffffffffffffffffa4
:100ab800ffffffffffffffffffffffffffffffff3e
:100ac800ffffffffffffffffffffffffffffffff2e
:100ad800ffffffffffffffffffffffffffffffff1e
:100ae800ffffffffffffffffffffffffffffffff0e
:100af800ffffffffffffffffffffffffffff3ce7d9
:100b08006b3a8e6b5194af732a32b7b5ffffffff74
:100b1800ffffffffffffffffffffffffffffffffdd
:100b2800ffffffffffffffffffffffffffffffffcd
:100b3800ffffffffffffffffffffffffffffffffbd
:100b4800ffffffffffffffffffffffffffffffffad
:100b5800ffffffffffffffffffffffffffffdef7c6
:100b6800ed4a2d5b308cef7b3084cf73e921d49430
:100b7800ffffffffffffffffffffffffffffffff7d
:100b8800ffffffffffffffffffffffffffffffff6d
:100b9800ffffffffffffffffffffffffffffffff5d
:100ba800ffffffffffffffffffffffffffffffff4d
:100bb800ffffffffffffffffffffffffffffffff3d
:100bc8001174ab42308c0f84ef7bef7b1084f07b89
:100bd8004a327284ffffffffffffffffffffffffa7
:100be800ffffffffffffffffffffffffffffffff0d
:100bf800fffffffffffffffffffffffffffffffffd
:100c0800ffffffffffffffffffffffffffffffffec
:100c1800ffffffffffffffffffffffffffffffffdc
:100c2800b38c6b3a30841084ef7bef7bef7bef7be8
:100c3800108430848b3a1174ffffffffffffffff22
:100c4800ffffffffffffffffffffffffffffffffac
:100c5800ffffffffffffffffffffffffffffffff9c
:100c6800ffffffffffffffffffffffffffffffff8c
:100c7800ffffffffffffffffffffffffffffffff7c
:100c8800f4944a3230841084ef7bef7bef7bef7b68
:100c9800ef7bef7b1084308cab422e537defffff50
:100ca800ffffffffffffffffffffffffffffffff4c
:100cb800ffffffffffffffffffffffffffffffff3c
:100cc800ffffffffffffffffffffffffffffffff2c
:100cd800ffffffffffffffffffffffffffffffff1c
:100ce800d7b5e921f07b1084ef7bef7bef7bef7bbf
:100cf800ef7bef7bef7bef7b108430840d53ac3ab6
:100d08001ce7ffffffffffffffffffffffffffffe6
:100d1800ffffffffffffffffffffffffffffffffdb
:100d2800ffffffffffffffffffffffffffffffffcb
:100d3800ffffffffffffffffffffffffffffffffbb
:100d48001bdf2a2aaf733084ef7bef7bef7bef7bcf
:100d5800ef7bef7bef7bef7bef7bef7b1084308cbf
:100d68006e638b3adbdeffffffffffffffffffff36
:100d7800ffffffffffffffffffffffffffffffff7b
:100d8800ffffffffffffffffffffffffffffffff6b
:100d9800ffffffffffffffffffffffffffffffff5b
:100da8005ce78b3a8e6b308cef7bef7bef7bef7bd6
:100db800ef7bef7bef7bef7bef7bef7bef7bef7bdb
:100dc800ef7b308c8e6b4a3239c6ffffffffffff87
:100dd800ffffffffffffffffffffffffffffffff1b
:100de800ffffffffffffffffffffffffffffffff0b
:100df800fffffffffffffffffffffffffffffffffb
:100e08007defac426e63308cef7bef7bef7bef7b4b
:100e1800ef7bef7bef7bef7bef7bef7bef7bef7b7a
:100e2800ef7bef7bef7b308caf6be92155a5ffffa4
:100e3800ffffffffffffffffffffffffffffffffba
:100e4800ffffffffffffffffffffffffffffffffaa
:100e5800ffffffffffffffffffffffffffffffff9a
:100e6800ffff2e530d53308cef7bef7bef7bef7b37
:100e7800ef7bef7bef7bef7bef7bef7bef7bef7b1a
:100e8800ef7bef7bef7bef7bef7b3084ef7b292ad7
:100e9800f494ffffffffffffffffffffffffffffd0
:100ea800ffffffffffffffffffffffffffffffff4a
:100eb800ffffffffffffffffffffffffffffffff3a
:100ec800ffff52848b3a30841084ef7bef7bef7bfb
:100ed800ef7bef7bef7bef7bef7bef7bef7bef7bba
:100ee800ef7bef7bef7bef7bef7bef7bef7b108480
:100ef80030844a327284ffffffffffffffffffffce
:100f0800ffffffffffffffffffffffffffffffffe9
:100f1800ffffffffffffffffffffffffffffffffd9
:100f2800ffff149d4a3230841084ef7bef7bef7b08
:100f3800ef7bef7bef7bef7bef7bef7bef7bef7b59
:100f4800ef7bef7bef7bef7bef7bef7bef7bef7b49
:100f5800ef7b108430846b3aaf63bef7ffffffff6f
:100f6800ffffffffffffffffffffffffffffffff89
:100f7800ffffffffffffffffffffffffffffffff79
:100f8800ffff56a5293230841084ef7bef7bef7b7f
:100f9800ef7bef7bef7bef7bef7bef7b1084308485
:100fa8001084ef7bef7bef7bef7bef7bef7bef7bbf
:100fb800ef7bef7bef7b10843084cc4aed4a7defea
:100fc800ffffffffffffffffffffffffffffffff29
:100fd800ffffffffffffffffffffffffffffffff19
:100fe800ffff39c6e921ef7b1084ef7bef7bef7bb6
:100ff800ef7bef7bef7bef7bef7bef7b1084ef7b6f
:101008002d5b10841084ef7bef7bef7bef7bef7b16
:10101800ef7bef7bef7bef7bef7b1084308c4d5bbe
:10102800cc423ce7ffffffffffffffffffffffff93
:10103800ffffffffffffffffffffffffffffffffb8
:10104800ffff5ce74a2a8e6b3084ef7bef7bef7bf8
:10105800ef7bef7bef7bef7bef7bef7b1084308cbc
:101068008b428b428b42308c1084ef7bef7bef7b83
:10107800ef7bef7bef7bef7bef7bef7bef7bef7b18
:10108800308c6e638b3a7aceffffffffffffffffc6
:10109800ffffffffffffffffffffffffffffffff58
:1010a800ffff9defac426e63308cef7bef7bef7bf5
:1010b800ef7bef7bef7bef7bef7bef7bef83308c7e
:1010c800cc4a1174ffff527c8b3a10841084ef7b5a
:1010d800ef7bef7bef7bef7bef7bef7bef7bef7bb8
:1010e800ef7bef7b308c8e6b092ab7b5ffffffffd4
:1010f800fffffffffffffffffffffffffffffffff8
:10110800ffffbef7ed4a4d5b308cef7bef7bef7b4b
:10111800ef7bef7bef7bef7bef7bef7bef7b308c25
:101128002d530d4bffffffffffff9384092acf7b51
:101138003084ef7bef7bef7bef7bef7bef7bef7b0d
:10114800ef7bef7bef7bef7b3084cf73092a56a5cb
:10115800ffffffffffffffffffffffffffffffff97
:10116800ffffffff8f63ec4a308cef7bef7bef7b59
:10117800ef7bef7bef7bef7bef7bef7bef7b308cc5
:101188008e6b4a323ce7ffffffffffffffff56a5cc
:10119800092acf733084ef7bef7bef7bef7bef7b0c
:1011a800ef7bef7bef7bef7bef7bef7b1084108493
:1011b8002932f494ffffffffffffffffffffffff50
:1011c800ffffffffb3946a3a30841084ef7bef7b14
:1011d800ef7bef7bef7bef7bef7bef7bef7b30846d
:1011e800cf734a32bbd6ffffffffffffffffffffb2
:1011f800ffff59c64a32af73308cef7bef7bef7b32
:10120800ef7bef7bef7bef7bef7bef7bef7bef7b86
:10121800108410842a321174ffffffffffffffffc5
:10122800ffffffff56a52a3210841084ef7bef7b67
:10123800ef7bef7bef7bef7bef7bef7bef7b10842c
:10124800ef7b2a329aceffffffffffffffffffff72
:10125800ffffffffffff9ad66b324e63308c0f847f
:10126800ef7bef7bef83108410841084108410844c
:101278001084108430843084ab426e5bbef7ffff6d
:10128800ffffffffb7b5092a10841084ef7bef7bbf
:10129800ef7bef7bef7bef7bef7bef7b0f841084a3
:1012a8001084092ab7b5ffffffffffffffffffff0d
:1012b800fffffffffffffffffffffbdeac3aec5233
:1012c800508c508c308c308410841084ef7bcf7b12
:1012d800cf73cf73cf73cf73ef7b107ccc428b3a35
:1012e8001cdfffff9ace092af07b508c3084308cab
:1012f800308c308c308c308c308c308c3084308416
:1013080010848b3a9384ffffffffffffffffffff6f
:10131800ffffffffffffffffffffffffffff7def67
:101328008f5b6a3aab4acc4acc4aab426a3a2a2a21
:10133800e921c9210a2aac3a2e53d06b727cd38c8e
:10134800527439be5de709224e5bcf734e630d536d
:10135800ec4aab42ab42ab42ab42ab42cc4aec4a62
:10136800ab424a321174ffffffffffffffffffff91
:10137800ffffffffffffffffffffffffffffffff75
:10138800fffffffff8bdf8bddbde7def7def7deff2
:101398007def7def7def9defbef7ffffffffffffc6
:1013a800ffffffffffff14953174559d3595159587
:1013b8001495f494f494f49476add7b579cefbde15
:1013c8009ef79ef79ef7ffffffffffffffffffff60
:1013d800ffffffffffffffffffffffffffffffff15
:1013e800ffffffffffffffffffffffffffffffff05
:1013f800fffffffffffffffffffffffffffffffff5
:10140800ffffffffffffffff89504e470d0a1a0a33
:101418000000000d49484452000000490000004502
:10142800080600000006b1cba70000000173524770
:101438004200aece1ce90000000467414d410000a7
:10144800b18f0bfc6105000000097048597300005a
:101458000ec300000ec301c76fa86400001cfb493f
:10146800444154785eed5c07781655d67e27150200
:10147800a9040809bd235541912e82e04f5d2ce057
:101488000a022b228aa2c0e2e25a5805415751e9c2
:10149800761658904e420d2494d0126a420910488c
:1014a800080492905e2015926ffef7dc998f7c09f4
:1014b800c95a7e049effd9f7c9f7cccc9d3b337738
:1014c800ce3df79cf79c7b279a4ee0bff88fb03350
:1014d800b7ffc57fc00325a4228b05759707c0ee0b
:1014e8009be5c829bc6996de7fdcf7e196949b876b
:1014f800faabb7a2d0de11c8cb050af2017b7ba0fc
:10150800aa2bbb90db9cebf0cdcdc69577de84bdd6
:10151800ddfde9d3fb22a4849c3c3458b703b76ea5
:10152800515b340d888f039293802bb1b03b7c00c4
:10153800a70e1d42ab595f021e5e40c3268073256d
:101548002538bbe262cc685e0fef757bdcbcd3bd8f
:10155800c13d1352786a06ba6f0c46ae68472e35fd
:1015680026230dc8ca8076683fbafbf960f79a55fa
:10157800b02b4753be5fb316affb6f85a5594ba081
:101588007215a05a75c0520c17d67dab9e0f3eee51
:10159800d9194e0e0e66ed3f067fa890127272f1b1
:1015a800c58973981b7d05b871dd184aa72380c8c3
:1015b800084c1ffa2c060f1e84360f3d64d606a46d
:1015c80021ce3fadc5adc242fcbd7553cceaf698fd
:1015d80071823817158584b4748cfb7109627debb0
:1015e800033ebe40a5ca4ac33a5472c4133ede98ad
:1015f800f5442738ca50bdcbb8eb42cac82f40e3e0
:1016080075db9159600ea5e46bc09908d885edc7c4
:10161800f6c53fa2578feeb735460c754a7e21eacc
:101628002c5d0f8b888875b585b351bf6b775c7a55
:101638006ab0d2183838626bdfaee855b7369c1df1
:101648004a04f0ddbf96e09f7b0fe2924f1da05e3b
:1016580023d6a3368996dec8c6ee41bdf148ad1a39
:1016680070af4c21de05dc1521c9cb76dfb61761da
:10167800e9d986b6245073685baa2425a07787f633
:1016880098f2ea5874ed58a2152ba32f63f88e7db3
:10169800d0750b2f2ea20ab1091406d25391f7f771
:1016a80009a85ca91296455dc4a86d7b589be744c0
:1016b8003bec29040abd875f4d040dec05275363f5
:1016c8000a6fdec45722b0652b90dd8ecf101be663
:1016d800554d9d4341012ebfd01ff53c3d8ce3dfa6
:1016e80089df2da4780ea57aeb83a801d496dc1c9b
:1016f800e0fc190ea313c0f52c548a8b457e4ab220
:1017080059d3c094d0e3f8ead479e88505000d7080
:101718004568e7ed89fe8d1be0d3232760a1f0cb58
:1017280085b333340aeddcb0fe68e6e96e161a08b4
:10173800da7f007d3ff808a8551b68df11f0a4c0c8
:101748009c589f6dbcfce781a8ebe166d6fcf5f8d8
:101758004d421a1f7208dfc471f8c84b6665025102
:10176800a7e9b6f380b07df8eba897307bda8766f7
:101778004d60e795442cb97805aba36250441bc370
:101788003736cffc0264284a937e4db364388b8683
:1017980051689f776c8bbe1c626d6a7a9b2745499e
:1017a8008bd0e9adc93896cff6fa5168751b5260ef
:1017b8004e3c710b55e9348ebdf82734f3f5316b87
:1017c800578c5f14d290ad7bb03139834acf6ad73a
:1017d80012806c0a87c6578b3a83d8bdbb51af4e6f
:1017e8001db6958d256e51109f479cc58761c7a171
:1017f800cb30fab582b95b90216b6f87179b37c6e0
:101808008a5e9dcd42032934fa3f6ddc84f78eb1a0
:1018180063bd6b02d5f9732517633bab66a7e3e09d
:10182800d081685397f6ad1c942ba4d06b2978828d
:10183800eefa96c6719f4f777d3916381a8a6696e2
:101848009b08a2abae4bc158713829050793d2f05b
:10185800d7034701da87070662b31c9de046c59c9b
:10186800dfbd233ad7f042636fc356e59282ec0b93
:101878008fc08079dfc1d29e9cab6a55d20b17e529
:10188800811faeee85b0e7fbc35934cec41d42ba02
:101898005e5008f76501401a6dca567fb8c7c52063
:1018a80060cd6a3cd1d9e899c2a26284245cc3e0c5
:1018b800a0032894a12697df6b8df92d102d979ff3
:1018c800d2327b3c57dd1d5ff6ee7edb36e5e5e781
:1018d80063eb9e100c0bdc03bd6133c09d467ec9d3
:1018e80037d0f7ed54e7057708c9c243fb1fd7d0b7
:1018f8006d9fc06457477c39633a8a2d3a72a8961f
:101908001e3fac940ab449f76128dd2d880d13bb3e
:10191800e7e880e1757cb0f0c92ea40a64f484dda0
:10192800fca5d0395cb178212c47c36e9b91728796
:101938009bf6cd0ac588f5f7df463a632bef9f374c
:101948001b64502e9210c1bc5809ea268db2ed2da9
:10195800e84994aa2bb09c6ef8f67515219f1a29b0
:101968001c87065841ee5991079417b4bdd7ad5b53
:10197800fc999c4c7ea40fdc31ced942e806b546d2
:1019880075b2c08e75845b31469c723d115f4c7a8e
:101998001bfd393ab6851d06c8d5f4143a2813e557
:1019a8000b69e13236d282f50dbdf1cc8001d0be93
:1019b800a30649f0c90669a7c28d971001b87940f6
:1019c8006fde5a194b2bd7d1a2228da12a0d652380
:1019d800f4768f42936bcf9e34ca14ac8fe4b1abcc
:1019e8001beb7480969a62784b96e98da9f6356b55
:1019f800dd2928117ece0d68278f9b05bc533d7ac3
:101a0800ac3a64e052b7200f9a307a711ac659fe80
:101a1800f80cfee9d57d50a9452bb4aded831b79b3
:101a2800f9384bbbab2074e29fd360b97219764b7f
:101a3800fda1f3de4bda36c1a851a38cf304457936
:101a4800273afb54476842324e9c8e544252301b10
:101a58005879eb0624f186c56c941840f166f32e8c
:101a680053ead2300a4fdfb41661eb56a37dfbf67a
:101a7800aaceacc31198b16a2daa6cf3474e0ef9e1
:101a8800940da47fc44d3fca60f6647a3a1a8587dc
:101a9800212626063b4e45e2e9fdec8cb24212bbfc
:101aa80072fc107c8fec477c7c3c15d982a4cc2c32
:101ab800f86d0836b484f77758bf0285d45eeb50ca
:101ac800b1222b2b0b8f2f59851ee460e999998839
:101ad8004fcbc475d1425ef794696f0d13a261d0e4
:101ae800a041c6b109aac09df0562a4b98e1c36d22
:101af800f0c1ff5eb6849ed3151e1e1ef0f3f3c31d
:101b0800741a41e92938f105ae5ec6d36d5be3f17d
:101b1800c71f87a3a32335bf12bad5f5534369c49a
:101b28008811c63d6c202f22f54efce35de589ac9b
:101b3800bdd7b74d2bb5bd03f2e2674e2901092485
:101b4800bcf1ade6a5b203aa0d3c3f67fe823b049b
:101b58002490f69e9a3016413171082787bb21dc04
:101b68008dcf1696dfa47973554717ef4c45484d2e
:101b78004d55c756942ba4eb92f0e28332255a2f89
:101b88008337dff99bb967c0deda1e11287bc6c927
:101b980026be12e4de646f11b60fd6966c80f6e9a5
:101ba8007cac58bbd62c11e8983f7fbeb95f01e4e6
:101bb80019e508a087075db8d83462da8c196a2b52
:101bc800b05b1908edb5c9888b8b330a38fa4e5cbf
:101bd8008e4744fc35e8722fb92633037e356a18e0
:101be800e745d897a351bd7a75e3d844b942b2887e
:101bf80091a361bb9c43834a68e2cd545701555c6d
:101c0800aaa8ad1555c5d88ac7a00dc3b5f8727b6b
:101c18005150d936d854a642c35fc6bf611c9b68d1
:101c2800d9b2a5b9570ee419925ec9e48f1831fbf1
:101c38006bf8fafaaafdf583fbb0bdc6abdc34b984
:101c48005a42462674d194cc74346b461b47a80e6e
:101c580094326b6a454c0899f7e8678718c7f2de33
:101c6800c949f0f4f4348e4d942ba467e81a61ef57
:101c7800889d2919eaf86fadf910f10684b30cab09
:101c88003258d9adbdd1c823a108080850b6a6500e
:101c9800d4997014a34e94f20f891c2e214178f523
:101ca800c53f9b0506c486550821771cce5fbd3b02
:101cb800551de6d93b61ccb8716adf535cb829245d
:101cc8000978057e5e9ed0167c0e046ea483a587d7
:101cd800b5a2c838af201dca80dcc5da81d24471ec
:101ce800326550ae9046b6a250d8a80257775cb875
:101cf8007811afb76dc1524348564d8962b915dda9
:101d0800fc28d4e46bf071346e673ff039d4315954
:101d1800b990cfb2783f3f050b073d8d0573e7aa11
:101d2800e31c199224b1f5ead553c7e5428c6a4af7
:101d380012ead7a727233218b8ce5a4eaf6b854977
:101d48003b9c6c3ad1c28ed019705bd166f16ae9be
:101d58002df3c804dfc7d94a3d04b73d6309ca1546
:101d680092a70b293a1faa697668d2b021dca51779
:101d7800cd5154a4869e0c1f17e4d0950a3c5dd81b
:101d8800133151686b1a407b12b52a558c61696d05
:101d9800926dd6f1934f3ec1f8f1e3cd23a0daca94
:101da800adbcf12d3469d2c42c2903b956b20774dd
:101db800ef43861843e3caa54b8af85a51cd2484c9
:101dc800eddab451dbf230d083ef4507711b723d79
:101dd800b5b7584cc57f40b94252908417398cf238
:101de800406ac81852bafdb22c771dfdaadaad2494
:101df800e39c8470f6ecd9eab888aeba5dbb766a23
:101e0800df3acc6c85b4fed255bcb5f71076d380da
:101e1800dacf5f829ba2e2bc7da9d48868acf56763
:101e28009c84f38d6ce31c11f38fa9f86ceccbe662
:101e3800111d44363586cf70639b05f25c6df576cf
:101e4800681f7c4a7f62388f99cf0ce409f31972b6
:101e58005f0a48385c1576721a3559915ac5014b94
:101e6800a36221913fe82474e3fe391b19792563a5
:101e7800faa6e9adead5e2106bd0187d060ea2b934
:101e8800d248e2c295813c7e3541194771edb6b022
:101e98000a4bb6cf0586607e78247aaddd0a8bf9c9
:101ea800028252465f3c8f08567e52cec657b152c8
:101eb8001342843e75aa619f0413eab23dd4f8a385
:101ec800c70da2a9ee25f7a687ae5dbbb62a33607b
:101ed8007d869cbf799b59b75813a88cbc5080b29b
:101ee800a8504892a44295aad874f8280ec4c41ad7
:101ef8008d2584a8dd866f1dec8c38a1762d17a260
:101f08009460723844251bf0c8238fa87211a0c0b2
:101f1800458630a11a2f02b3fe6c606bdcabcef99c
:101f2800040d572f46c3edfed024ec48b882fa665c
:101f3800142f587d2116fba22e9847c067fd9f528b
:101f4800db9ba6c310787ff911b465df2239d93637
:101f580001680a898e48e3bb3ce6eda50ed3c4169a
:101f68006567c283a6a22c2a14d2c9d1cfcb1be1a4
:101f780026596cc73a74b5a6903cdd5cd556f0522c
:101f8800f3c6e65e0976490a972ff5eebb24884426
:101f9800cbea7c31bebc75f855080ea7be7dfb9a0e
:101fa800070c15a3cee262e8015c0cdc8c75832873
:101fb80080e8f3d8bb47d2b9065e083d891e2b37a7
:101fc800222131511dabcee07327bd59422b52233c
:101fd8008ec3926e5006c1c4dd0759a744883aedf6
:101fe800e0bfbfffce3890ebc9c4d7af61705f06c2
:101ff800150aa9999787bad0992fe8eb61a648a93d
:10200800ce45dd7a1bfb44d8b56468fd9f318f0c43
:10201800ac3dcbde6d5a320372348924b27a4dcc92
:10202800397d5e1d674af850d68388a6f8d6465b88
:1020380053fbca62d5797ad226cd5055f23e44de9a
:102048002da3d72569f6fd61862f26dcdcdd11e39b
:102058006912c3327060fc39f75494ea8cdba0dd56
:102068004dbf6e0e2fa11fb4793d7af4308e6d509e
:102078006e802be8b82e1047aee7c29bea9a1ab2d8
:10208800134dd6062226894121ed8278bdd664b942
:10209800a712a9c61220d21336f370451e99fa95d5
:1020a800348e6b7a10cdc919551cec38c4396c853f
:1020b80063317277a236167338148b506edb0601c3
:1020c8009b60a661cbc299d554de8af7b4e3af9a78
:1020d800930352b3a8ad62806568cb35b45f767c54
:1020e800618b185d3e4786b4039f2599523bdeda23
:1020f80022cf2bdb31422ca965d3aa57c1c7afbd6c
:102108006a643e482c0ffde929746c6178692beeee
:1021180010d2fca327f1565088e172f940bb2deb91
:10212800501cb61fc7289047bf5daa86ceff0b0874
:10213800af62dca61dde8f958b17e385d51b8d322c
:1021480049c364a4e2cceba3f150c306aa6a2921cf
:10215800692ddb1ac2b116a9717e0b1e555ca8ed5c
:10216800cd70f4d469d54b56d8ca57cae5675b66b3
:10217800ddb7bd4620e5d632db3ab6d7fef1e0f34f
:10218800a97d0f93dbbdf5cacbf8cbdfde2d6983c4
:1021980070290aac4ba3fa38b089c263e16dcc5df3
:1021a800b0d0dcd3f5fcfc7c9dfc42efffdc50bddd
:1021b80051abd666a9ae93cbe8e3274ed6f7878610
:1021c800eab9b9b9666909188ee8377272cca3df23
:1021d80086c8b367f5f8840406e337f50b31316632
:1021e800e9ef83a387976ee7eaae7e0eee9e7a60ec
:1021f800509079a67c0c1b39dadc2bc1ae3d216ae4
:102208005ba14dfa2f4a50cabba533cc5810b0d9a0
:102218003c2a0dffc82895202b0ffe91e7ccbdd294
:10222800c8268b0da707dc1c1d0bfff331088a8d10
:10223800c3aa33e7b1ef9299ba202495b2682f5d0b
:102248007305d81e7d09195925f1d7cf6cc70f1111
:1022580091ea3edb622e61fbc5cb48cd29094acf06
:10226800a4662024f2ac79541af13772b174f316cb
:10227800b59f929b872f428f22bb4c22308bdc6903
:102288006af05eccfcfe47b38403d35693b4ef5692
:10229800316af647da4f8b50ad5a0971bbc920d560
:1022a80079e132685f4e87e5ca25b3d480b678bd38
:1022b800f25ece5bd6a3601d3d8489387ab9fafefa
:1022c8003b8d99dd349b2496cc463cfc1849de773f
:1022d800b0ecde8eafc9bc279f88820bafcfdd6024
:1022e80013b0126f848663d1f1536815b01ca777b9
:1022f800ed84ddb28dd04f1e4329562c73688d9b1b
:10230800e291801538be7103b47fb13db42d0d4ef6
:102318001c41ec9ccfcc4a06244cc1a22f716b57b0
:1023280020d26edc402dffddecc90cdc9cf01738a8
:102338003a3820894a526bd536f298e5c00e3ecb22
:10234800a40ba57992b850972aa504245079189e11
:102358002bbbc4e57cd67592a5bd40e449143eda92
:1023680005d1b12502ac569501ae708f636178c96d
:10237800c9025da669f8b3cc99253d03dd0c941b11
:10238800bb93fb90a1e7b56ac748c886cd138b4eaf
:102398005143e9befb74efae8ed50469c06a8cd395
:1023a8000a30d145c38f8fb5c6609dbc8bf78b882b
:1023b8008c54751c2514498cc7a5368fc2fe2d83f5
:1023c800d0de86a451e4d9fcf9787ae2d9546a744b
:1023d800553738cd5f8a307a6fbfe59b806d1b4ad1
:1023e8000948505a48c2273af7c0d6b80444666428
:1023f8002184176692fb3cbc8a2a7ab3009e246b20
:102408005688fa355fba1676fffe01f9b3de076a19
:10241800d444d3199f1b270917e12f1484f6dc082d
:102428002c5ab8d02c954e16afc6abcddc91b7e47c
:10243800722404628853e5d509aa4ce0f43db5da64
:102448009ca1a9678dbd44e9c9bfbefdf65b7cfdb3
:10245800f5d71833660c02664d57e59eee46605b6d
:102468002491c1aa25c081ddb0b4efc800b7449b50
:10247800dccd783236966116b16eea64b884ed53d5
:10248800dcaf7340102cd2e19bd6951290a0b4908b
:10249800e401a9c91830eb0bb47e7f3a7a4eff0ce1
:1024a8005e13dfc5894bd41012366b9a44d0d23fe5
:1024b80018b8188d42be602532f15d3d3b92a6b733
:1024c800c2b37f3122731526884b8d3e07d7d1e3df
:1024d800a0cd9c0b8d2f2e8dd6fdb93dc161439c9f
:1024e800ce20310c3fa2e6f9f4560f63a1ff26b5c2
:1024f80012eed6a1fdd4c243e42d951167e6b415ba
:102508002ab08b39b431025d4829d9b8be78212a5e
:102518001d0d5543517b6fa63ae7a61996c576421d
:102528002297f5ec24bb208475fd0ae8bf98059036
:10253800d90836de7bc30a647e3a0dbb870d42c4d8
:10254800b89118e1c32090dca1c826e77d2e993107
:10255800518b36f059b189bd108c7ec17c29af6a88
:10256800f02fb689fe2592dfbf0bd31ad746fa1b88
:10257800a30ccd903c139f6131edca4561e4996984
:10258800489bf19eb2576f2666a3ce32aa7cf016fe
:10259800642e5ea43a2efcb44c3511a2491ea553f4
:1025a800ab56dc323553c19c97cb5ff005b49db474
:1025b800318d9b439bb70457330d07209302b68890
:1025c8007e75b80a5716cefec22c298dd24262d427
:1025d8002fea2c497bb951cf9e3d5560ba6cf48bdc
:1025e8006aaedcc7cf4f55d356ef602fb397d62cc2
:1025f80045fa92ef1036ef4b14fe4c154f4a84de25
:10260800f909bcf09a995093fbd1c67dfcf1c7f04b
:10261800e2fd2c93c71a867bea7465170447b22932
:1026280078577754e3f9a867fa2821e8d4a2f7473e
:102638008f2489a540abbae2749411f7494a19c3ab
:10264800c7e095ed21f8ead8294cde138a962b4885
:10265800f628483beb109105a9c29c4d5896ff08f7
:10266800fb20da1a196af26c6ead19092b866e63b3
:1026780084c1766e303ddf1d10ef66055e7a55c762
:10268800231df50f3ef8c02c290186bea477fdd383
:1026980010637fe4389d41abda17e4e5e5a9ed0d59
:1026a800924b8c7d4bb76fdb411d63f4eb3a1a35c7
:1026b80051fb569cbb7459d5419f01ea78cef69dd3
:1026c8003a1eebac272525a963bc345687770db590
:1026d8002f907bd857f356fbeeafbc61b4d1f637d9
:1026e80092bf6787eb13a7bca3eae015debb662d94
:1026f800b56f0b97e746f0dc041dcd5aea595959d6
:1027080066a981419f7da563d8287d4770b059523d
:102718001aa58424201732f74a233b3bdbdcd3f588
:1027280093274f9a7be5233131516d859d5b5fdea1
:1027380016c2d45f79e515bda0a0401d6fd9b2457a
:102748006dad90ebacc8cccc54ccdf8af0f0707d8a
:10275800d5aa55faa64d9bf443870ee9e7ce9dd33b
:102768006988cdb3467d8916ca835c4b7b641e9508
:10277800c6ce9d3bcdbd3b518a27dd6f4853cac6a7
:1027880079f71ac51cb665d78b973afaf9f84968ec
:10279800bdfb437b6a00ec64dd8e096dc80b70ebf2
:1027a8003798c63a1563e61aee5c92f076ac9b4110
:1027b80052e6f0da245526d876ea0cb45efda08df0
:1027c80079136f2f34125af9e4277ffd5bc9a4e609
:1027d800be0307d436ee5a92da0ab43e7c66df416d
:1027e800b0e3b5bbcde49aefbb1fc3a1d7ffc06d63
:1027f800f0f368d4c5e04ab618f4cd62683dfbc270
:1028080063f050f41e6fd007590133e4cdb7d5be3d
:10281800e0b969c664a5b42123c39822d3468c8540
:10282800fd7bb360d76f08ec7c0d7a114fa3ae3dea
:10283800f93f70787a30b46e4f62d88bb4c3264aa9
:102848000969f8b48f51e9c8013cdeb72ff47ac69c
:10285800d48d9a9168d40c5e1d1ec7634b5763f1e3
:10286800f6607cfdc30f389f990dbd794bcc208550
:102878002ff6f0c2937d687489611b02a1d1edca5d
:1028880012e279ebfdb16ddb365ccdbe8eaf8a9c72
:10289800d5a710adfe390fcb57ac50f7ad3fc09858
:1028a800f9d8739a82a517d2833663ef477fc79307
:1028b800741829f47ad72a574571a3a6e83f640803
:1028c8007adb642d05f98585d89c920934698e8f49
:1028d800264e40489ae1b99e5db50101c1256b8b32
:1028e800d61f0845e08e20f81f0d875fddbaaa4c79
:1028f8005ffe03f4cc74e88101b0c81c20d176c116
:102908004f8a2ee0d03ee4076fc3ea9f7f56e582e8
:10291800d27a45a9e65fcfc6b6d7c79029b6c2db3b
:1029280013271a5ee8f07ec4a5a6311ac885167e5c
:102938001893c68ec5993436f0f821ccf99c648d6d
:10294800eedcc14c98e54445422741d3b6d28d47c9
:102958001c41bf7efdc81be99ef705c3b563679c94
:102968008989619853846ca113f44221a1a1486517
:102978008c17b8871e86e8d6ad9bdad670a5672473
:102988007712deb6fa5804be0f3da2163d5851998b
:10299800cfab7195a430250993366c41f1436d1185
:1029a800b87d3b5c646d771d63fe2e47f2f10c9990
:1029b800aa92fd9f4d4a86934c8d99a85bcb074ff1
:1029c800b033ac2892199bf8387c397f815ac360a0
:1029d8008bd242cacc801d55b7e1cbaf51a207b00c
:1029e800333858ad04b3e74b5b16cda6bf3e800124
:1029f800dd8d97b87ee9229c29049df5467a5646d6
:102a08009f5ebd54b9b67f375e6cdd021672219d9c
:102a1800f713445fb840e1b22ecbe63cd1892f587a
:102a2800099e928a4d4a502be8e21212f0f4d70b15
:102a380051ffd537e13868e8ed29a0ca1c229a0869
:102a4800f32ac387d868d021a8722ba6f6a77609df
:102a58005bbf7c1138b807a92929f8f9997eea7370
:102a68000b3bdea7eeeb13d575ddba74819e7ccdea
:102a780020b8265c62a210629333471c05cece9c18
:102a880012b0550dfdd56b6cd62988e1b6c5f8f1a5
:102a9800e3f5808000f3e8dee1c30f3fd467ce9c06
:102aa800a9bff38ee1caadb0e6b52a424a4a8ab94f
:102ab80057829090107dd2a4497a505050294ff9ee
:102ac8004b484b4b53cfb3f5bc8207cabbd9a23c8a
:102ad8002f733720af5bd683da3e4b39a432e7cb6e
:102ae8001592667a36ade8169eeed2195171714884
:102af80061fcd4aa660dc4151523293d030ec26acc
:102b0800cd2be521e5c95a1a230f9407973d6f6d20
:102b1800a86c65cf7a56ea3b38d8c389cc58cedc46
:102b2800a2fd12236d7d39395fb35a35b8d1ce1461
:102b3800d011a4d14e89cd930c815c2353d6b268b1
:102b480042ea4abba47e3ddf5ac82dc8477546fef7
:102b580091b197e0caf76a50c31bf92eae88bd1a27
:102b68008f3e9d3ae2d8b9f34891a1cb184ee310b5
:102b7800b5d82c9ca85093ecdf7e172f0fe88ffe5a
:102b8800f5fcd40bcc58b301e11f4c51e7aacc5b40
:102b98008c4634ac831ad4c1a48e0f63676c1cb600
:102ba800c65cc2d9d40ce4b081f249830f5fa23568
:102bb8001be251c919b1f484d97c5169701eed4ddd
:102bc800650707b8b35cb65e952be15a4e2e32f313
:102bd8000b50c897f5e37da54c0424c2cda790c23d
:102be800e213919a970f5fdab13aeeae78d4b7262e
:102bf8007c18b22432508dcec84201ebb8d1288b54
:102c0800609278af6c0a4f04144f0fd9d4cb132fae
:102c1800b76b89bd89c93899928e7ddc1e78ba1b3d
:102c28003a3d64cc883458b804c36843379c8b4118
:102c3800f4163a9b037b6edb522b2a14520e0da618
:102c4800db53fda077a34196ef3518592f69ea8722
:102c5800817d9e42b5975e61644a634cfea2d7f0bf
:102c6800a52a951f993f10906124b3ba2bff85caf6
:102c7800146c3e0dba2cbdd67707e25106e6c7a202
:102c880063d47730883a03a7e873b7970cd9a2c200
:102c9800415f9537b484ee45d46b2f191ec4d50d0a
:102ca800dfac0f408acc79d1b58aa72afa8804917b
:102cb8003da6d2170ff28fe85eaf36f2f6ee441b50
:102cc8004f3768d1467af7b804d711c7e016bc0564
:102cd8007ae489720524f845cbd8ac4103e44c1852
:102ce800add228d9599968cef14d56068f291fe2e1
:102cf8006b999515836213753f50e0f053939e8c42
:102d0800f0f73fd6135d3f9b83c88debf1de486338
:102d1800fda6ca745288f46aeab822fc2af721335d
:102d2800a1b27e28f531338dfafd1cf4bf7903ff7b
:102d38009e3bc7e03032752dcb04455832ab7a3f05
:102d480021829136981f0c42568d900c4b12cef36f
:102d5800d451146f5c8b4f66ce44b8e4c364858c41
:102d6800a508d1d1d1e6c5e5e3575180d4dc3cd4e0
:102d7800f87195ca0f6934bcb31f6d8dc91d4a1609
:102d88004b45449e41f085184cbd408a2f6c55d860
:102d9800378da75ae3742f21cf555f2cf0b917ce82
:102da8000061fbb179e6478ac5bbcbc73684388357
:102db8006acb3721ebfa7595b797546f56d056b84a
:102dc800dba4a6cbe257f3a4c65dbb23a94153e419
:102dd800b67c18a8e6ad7a6c52f38678ef9196f037
:102de80096956e26267f3c1d3f26a4e3862c9a9056
:102df8000498b20bd263a5f3c6770d924d55131400
:102e0800a408719754c2ae796e16c276ef82875bba
:102e1800c9b76d27d2b3f0f0faed461e3f96c69ab1
:102e2800315aa5cb3178be772f2c5bbad4ac553e3e
:102e38007eb590acd8b87d079effc70cdc6af30856
:102e4800f010b5c9d34bf5dc8e5e9dd0a77ec96264
:102e5800a97d870fe3f8858b98127accf8c858b209
:102e680094322cc51356f448192a927a15a1ca4fe0
:102e780019bc72201e4b8693403e490ddb0bc79848
:102e8800f358f0d1348c1d31dc2827ce67df408b16
:102e98000d41206597f5838617bb72198ded754432
:102ea8009f2d7f6eae3cfc6621d9e2d3efbec7fbf7
:102eb8001b36439735044d5a28bb240bae0ef6eb50
:102ec8008e4e361fdb6552b56b3cfb671475e864a4
:102ed800049f92fb2efb05a5d89162be8c7c1251f3
:102ee800bf11e05da3cc7953802220c98fefdf05a5
:102ef8008dc1ad47ea3564c494b629d5576d53f3ef
:102f08006aeafbdf88a3ca2e69dc5af3eabf15ff19
:102f18002721592133bb7dde9c883d457c111f7ad2
:102f2800bf3a0dd45aa6817e35d1be9203fed1bddb
:102f38002437356bd972bcbf8b3dda9442954f3f2d
:102f480065098d0c4931b24989e8bc670b0e1e3cf6
:102f580008e76f57e0a644f1e29d64cda6ace29580
:102f6800ef562818c9afebf20d9e898c82427c7807
:102f7800220a8b4e4719930dd42a5ca5e690182e89
:102f88005f301fc3879768d7efc15d11922d76ef29
:102f9800db87b1dffe84d85ad418efeac6178ab4a3
:102fa80047cf35a88d1fba768087b94a3631391987
:102fb8008f4f790f576b72884a1da97b2d01f3ea51
:102fc8007861c2a891e8ba69170ec6d1112433f204
:102fd800170fb57b07c2fdd7a165f3e62afc10a43d
:102fe80090a5d75ab915965c6a88e485c4d38686b5
:102ff800605c9f5eeaeb82b2eb367f2feeba90ac54
:103008009078eac5372620f046016e88b19749487e
:103018005777f8386858f16467f4a8eda3824a79bd
:10302800fcf2808d7867cb0e24376f03cd911ad8c8
:10303800a81e360505037b83d1a7615d6c5db78e3d
:10304800b6d9983d96d065cae193581041ef25430b
:103058003686da43d2dbcbdb039b376f2efde5c127
:103068005dc21f26245b449c3c85be63c622553e38
:10307800496fd9ce30bace4e18e9571ddf3cd90575
:103088002ee662ce1b8cc57c3b75413eb5eca7791c
:103098007331ea8561aa5c10189f847e5bf7185e1d
:1030a8005234e6e01e389c3b8d150be661e85086ed
:1030b8001a7f20ee89906cd1aa775f9ccdcd87def0
:1030c800b9874a0b2b81513b8e0eea890e354b7f0f
:1030d800f892c07ab5576e662b69eb12aeaa4c27e8
:1030e800ce9e8277613e624f9f525f4bdd0bdc7351
:1030f800215921c6defd89dec873f3003a74066ad9
:10310800f929efd8cbcb0d13dbb6c0c09d075550be
:103118008db3a70d83cddf07af8dc30c9baf90eeaa
:1031280015ee9b906c9197978f2afdff04c85790d6
:10313800e2f5e43fe02452734e1c8523f98dedda65
:10314800ecfb0211d2838480c040bd6397aee6d108
:1031580083810742931e6c00ff0b7f024f06863661
:1031680065e80000000049454e44ae426082000018
:103178000000000000000000000000000000000047
:103188000000000000000000000000000000000037
:103198000000000000000000000000000000000027
:1031a8000000000000000000000000000000000017
:1031b8000000000000000000000000000000000007
:1031c80000000000000000000000000000000000f7
:1031d80000000000000000000000000000000000e7
:1031e80000000000000000000000000000000000d7
:1031f80000000000000000000000000000000000c7
:1032080000000000000000000000000000000000b6
:1032180000000000000000000000000000000000a6
:103228000000000000000000000000000000000096
:103238000000000000000000000000000000000086
:103248000000000000000000c30029026601200001
:103258000000000000000000000000000000000066
:103268000000000000000000000000000000000056
:103278000000000000000000000000000000000046
:103288000000000000000000000000000000000036
:103298000000000000000000000000000000000026
:1032a8000000000000000000000000000000000016
:1032b8000000000000000000000000000000000006
:1032c80000000000000000000000000000000000f6
:1032d80000000000c3006a020d035204b404b404e1
:1032e8006e03cc02a70141000000000000000000ae
:1032f80000000000000000000000000000000000c6
:1033080000000000000000000000000000000000b5
:1033180000000000000000000000000000000000a5
:103328000000000000000000000000000000000095
:103338000000000000000000000000000000000085
:103348000000000000000000000000000000000075
:103358000000000000000000000000000000000065
:10336800450108020d035204d4041505b40473047e
:103378009304f504f5049304d0034a02c7016200dc
:103388000000000000000000000000000000000035
:103398000000000000000000000000000000000025
:1033a8000000000000000000000000000000000015
:1033b8000000000000000000000000000000000005
:1033c80000000000000000000000000000000000f5
:1033d80000000000000000000000000000000000e5
:1033e8000000000000000000000000002501c801e6
:1033f8008f037304f504d404d504f1034e034a0281
:10340800820045010d038f039304d404f504d4040a
:10341800f1038a022501820000000000000000007c
:103428000000000000000000000000000000000094
:103438000000000000000000000000000000000084
:103448000000000000000000000000000000000074
:103458000000000000000000000000000000000064
:103468000000000000000000000000000000000054
:1034780000000000000041008200e8016f03b4046e
:10348800b404f504930411048f03c701e400410058
:103498004501cc022902820082004501ab02f103fa
:1034a8005204d504d404b404f1038b02e40062008e
:1034b8000000000000000000000000000000000004
:1034c80000000000000000000000000000000000f4
:1034d80000000000000000000000000000000000e4
:1034e80000000000000000000000000000000000d4
:1034f80000000000000000000000000000000000c4
:1035080000000000a3000902b0035204b404f5044b
:1035180093045204ec0286014100a300a7014e0364
:1035280052047304d404b4045204d0034a0225019b
:103538002100e4002902d0039304d404f5047304a1
:103548003204cc0246012000000000000000000008
:103558000000000000000000000000000000000063
:103568000000000000000000000000000000000053
:103578000000000000000000000000000000000043
:103588000000000000000000000000000000000033
:10359800e4006a02d0031104d504d504d50432042a
:1035a800cc02e4008200e400e8018f03f103b404d4
:1035b800b404b404f1038200a701b4049304b4046e
:1035c8005204b0030d032501a30082004902b00391
:1035d800b404d404f5047304d0030d034601410078
:1035e80000000000000000000000000000000000d3
:1035f80000000000000000000000000000000000c3
:1036080000000000000000000000000000000000b2
:103618000000000000000000000000000401ab02f0
:103628002d035204f5041505d404f10329022501dc
:10363800e400c3006a020d033204b4049404930442
:10364800730473049304f10382002902930473043e
:10365800730493049404b404b4046f03cc02860185
:10366800a300250166014e037304f504f504b404b0
:103678008f03ed02a70161000000000000000000b8
:103688000000000000000000000000000000000032
:103698000000000000000000000000000000000022
:1036a8000000000000000000460129022e037304f8
:1036b800f5041505b4046f030902a7016200660149
:1036c800e8010d037304b404b4049304730473048d
:1036d800730473047304730473045204730473044b
:1036e800730473047304730473047304b404b40498
:1036f8009304b0034902c701a3000501e801ac0225
:103708005204d5041505b404d0038b02e8018200e5
:1037180000000000000000000000000000000000a1
:103728000000000000000000000000000000000091
:10373800000020002501c7018f0393041505f50437
:1037480073042d03cc020401c3000401a701af03d5
:103758007304d404b4047304730473047304730407
:103768007304730473047304730473047304730499
:103778007304730473047304730473047304730489
:10378800730473049304d404b4041104cc02040134
:10379800e400820009020d03d003d404f504d50423
:1037a8003204cc026601a300000000000000000003
:1037b80000000000000000000000000000006100a0
:1037c800a30009028f039304f504f5043204af0340
:1037d800490204016200c3006a02d003d404b4049d
:1037e80093047304730473047304730473047304f9
:1037f8007304730473047304730473047304730409
:1038080073047304730473047304730473047304f8
:103818007304730473047304730473049304b40487
:10382800d40452040d0386016200e40086014e03ad
:10383800f1039304f504d4043204cc022501820078
:10384800200000000000000000000000000021002f
:103858004e039304b404d40473046f03c801a30093
:1038680021006601ab0232047304b40493047304a8
:103878007304730473047304730473047304730488
:103888007304730473047304730473047304730478
:103898007304730473047304730473047304730468
:1038a8007304730473047304730473047304730458
:1038b800730473049304b404930473046f03080239
:1038c800a30041004501ab0232049304f5047304dc
:1038d80073048601000000000000000000000000e2
:1038e80000008f03d4043204c8016200a30045011c
:1038f8002e03f1037304b404930473047304730470
:1039080073047304730473047304730473047304f7
:1039180073047304730473047304730473047304e7
:1039280073047304730473047304730473047304d7
:1039380073047304730473047304730473047304c7
:103948007304730473047304730473047304940496
:10395800b4041104d0034a020401820004014e0396
:103968007304f504e80100000000000000000000f6
:10397800000000000d03d4046f038200ab02d003e3
:10398800b404b404930473047304730473047304d5
:103998007304730473047304730473047304730467
:1039a8007304730473047304730473047304730457
:1039b8007304730473047304730473047304730447
:1039c8007304730473047304730473047304730437
:1039d8007304730473047304730473047304730427
:1039e8007304730493049304b40452044e0325012e
:1039f800a7019304b404a701000000000000000020
:103a08000000000000008b02b4043204e4006e03de
:103a1800d40473047304b404b404b404b404730481
:103a28007304730473049404b404b404b4047304f2
:103a38007304b404b404b404b404b404b404b404ff
:103a480073047304b404b404930473047304730414
:103a58007304730473047304b404b404b4049304c3
:103a6800730473047304b404b404b404b404b40451
:103a7800b404b40473045204520473049304f504a4
:103a880086016a02f5041104a3000000000000008a
:103a98000000000000000000a701b40493048200a5
:103aa8008b02d40473045204cc02ab02ab020d03a4
:103ab80053047304730493044e03ab02ab02cc02a9
:103ac8005204f103ab02ab02ab02ab02ab02ab0296
:103ad8000d039304f103ab02ab02d0039304730408
:103ae80073047304730493043204ab02ab02ab0295
:103af800af03930473043204cc02ab02ab02ab02f3
:103b0800ab02ab024e03b40c763d352d730473043f
:103b1800b404e4004a0215058f0300000000000009
:103b28000000000000000000000004019404930459
:103b380082008a02d40493041104210000000000ca
:103b48002000d003940473045204e4000000000031
:103b5800000011044e0300000000000000000000f7
:103b6800000000000d034e0300000000cc02b40466
:103b78007304730473047304b4048b02000000001c
:103b880000004a02d4049304d0030000000000009f
:103b98000000000000002000321c9b761866931479
:103ba80073045204c300ab02f5048f030000000045
:103bb8000000000000000000000000000401940460
:103bc8009304a3008b02d404930411048200000020
:103bd80000000000b003b404b4046f032000000028
:103be8000000410032044e030000000025012902b4
:103bf800c801410000006a026f0300000000cc0207
:103c0800b4047304730473047304b404250100003a
:103c1800200000002902b4049304d00341000000ee
:103c2800250149026601000000006e0b7735353525
:103c380052049304d0030501d003d4042d030000db
:103c48000000000000000000000000000000040167
:103c580093049304e4008b02d404930411048200b7
:103c68000000000000002d03b404b4044e0300005b
:103c780000000000410032044e0300000000ab02c7
:103c8800f5043204820000008a026f03000000007d
:103c9800cc02b4047304730473047304b4044501bc
:103ca8000000c701000024015204b404d0034100fd
:103cb80000008b0236052e03000000004e0393041b
:103cc80052047304b4042e0304015204b4042902f8
:103cd80000000000000000000000000000000000dc
:103ce80004019304b404a7012902b4049304110441
:103cf80082000000410000006601b404b4048b0295
:103d0800000061000000410032044e030000000082
:103d1800ab02f5043204820000006a026f0300005f
:103d28000000cc02b40473047304730493043204d3
:103d3800a30021004a0200002000f003b404d003cd
:103d480041000000ab025705ab02000000004e0323
:103d5800b40473047304b404ac02a3007304b4047d
:103d680066010000000000000000000000000000e4
:103d78000000a3001104b404ab02250173049304ea
:103d8800110482000000c300000082001104b40482
:103d9800c4006200c7010000410032044e03000065
:103da80000004a0232044902210000008b026f031e
:103db80000000000cc02b404730473047304b40458
:103dc8004e0300004100cc0241000000ec02d40484
:103dd800d003410000000401e80162000000040172
:103de8001104930473047304d4048a0282009304b4
:103df80094042501000000000000000000000000fd
:103e08000000000020002d03f5044e038200520438
:103e180094041104820000000401620000002d03d4
:103e2800f1034100a3004a020000410032044e039e
:103e3800000000000000000000000000e400320460
:103e48002e0300000000cc02b4047304730473044e
:103e5800b4048b0200004100f10304010000860154
:103e6800d504d0034100000000000000000000005d
:103e780086015204930473047304d4048b028200f1
:103e880093049404040100000000000000000000f6
:103e98000000000000000000ab0215054e036200a0
:103ea8003204b40411048200000066018701000096
:103eb8002d03cc02000025016a02000041003204f3
:103ec8004e03000000008200e400e4004501d00336
:103ed800f5040d0300000000cc02b404730473045d
:103ee800730473042501000041004e0325010000fe
:103ef8008701f504d003410000006601cc02660189
:103f0800000000000d03b40473047304b4046a02cf
:103f18000401930494040401000000000000000060
:103f280000000000000000000000ab02f504b00330
:103f3800c3001104b404110482000000a701ab02fd
:103f4800000029028b0200006a02ab020000410057
:103f580032044e0300000000ab02d404930493041f
:103f68009304b4042d0300000000ec02b4047304ad
:103f78007304730452048200000000000000000073
:103f8800000025019304f103410000008b0256054f
:103f9800d00300000000ab02b40473047304b4043b
:103fa8002902e801b4045204c30000000000000024
:103fb8000000000000000000000000002902b40416
:103fc8007304c701f103b4041104820000008601e0
:103fd800b00341006200250100006e03cc0200001e
:103fe800410032044e03000000008b02b404730445
:103ff80073047304b4042d0300000000ec02b4043d
:104008009304930493043204820000004100a30047
:104018004100000000008f031104410000008b02e2
:1040280016058f0300000000ab02b4047304730488
:1040380073046601ab02d404d003620000000000e0
:104048000000000000000000000000000000040163
:104058005204d40408026f03b4041104620000007f
:1040680046019304c3000000000082007304ab0201
:104078000000410032044e03000000008b02b4042b
:10408800730473047304b4042d0300000000820059
:10409800e400e400660152044e0300000000290217
:1040a8007304cc0200000000ed021104410000007e
:1040b8006200e4008200000000004e03b4047304b0
:1040c8009304320482000d03f5044e03200000001f
:1040d80000000000000000000000000000000000d8
:1040e80062003204d404c701cc02d4041104610074
:1040f800000045019304c3000000000024011605d8
:104108006a020000210032044e03000000008b0206
:10411800b404730473047304b4040d0300000000b2
:1041280000000000000062005204290200000000a4
:104138006e03f504f103210000008601f10341003c
:104148000000000000000000a300cc025204730429
:1041580073049304110462008f03f504cc02000079
:104168000000000000000000000000000000000047
:10417800000041003204d40486014902d4045204e8
:10418800cc026a022d0373042d038b028a020d03ed
:10419800b404af036a02ab025204f1038a028b0231
:1041a800af0393047304730473049304f0038a0243
:1041b8008b028b028b028b02ec0252044e036a02c2
:1041c800cc02520493045204ed026a02ed02320456
:1041d800ac028b028b028b02ec021104b404730450
:1041e80073047304930411040401d003d5046a0210
:1041f80000000000000000000000000000000000b7
:10420800410045010d03b404f5048601c701f50416
:104218009304d404d504d4049304d404d504d50455
:10422800d4049304b404d504d4049304b404d50486
:10423800d504b40493049304930493049304b4043a
:10424800d504d504d504d504d504d4049304b40402
:10425800d504d404930493049304d404d504d40457
:104268009304d404d504d504d504d404b404930425
:10427800930493049304b404110487015204b4040e
:1042880032040902c3000000000000000000000022
:104298008200cc0232043204f1033204c701250142
:1042a8001104f103f103f103f103f103f103f10345
:1042b800f103f103f103f103f103f103f103f10356
:1042c800f103f103f103f103f103f103f103f10346
:1042d800f103f103f103f103f103f103f103f10336
:1042e800f103f103f103f103f103f103f103f10326
:1042f800f103f103f103f103f103f103f103f10316
:10430800f103f103f103f103f1036e03a701f103d4
:10431800f103f1033204af03a7010000000000001d
:104328002100040146012501040104012501e400de
:10433800e40004010401040104010401040104016e
:10434800040104010401040104010401040104013d
:10435800040104010401040104010401040104012d
:10436800040104010401040104010401040104011d
:10437800040104010401040104010401040104010d
:1043880004010401040104010401040104010401fd
:104398000401040104010401040105010401e4000d
:1043a800250104010401040145014601c300000080
:1043b80000000000610041004100620062006200ec
:1043c80062006100410061006200620062006100f9
:1043d8004100410062006200620062004100410049
:1043e800410041004100410041004100620061007c
:1043f8004100410062006200620062006200410008
:10440800410061006200410041004100410041005b
:104418004100410062004100410041006200620029
:10442800620062004100410041004100410041003a
:1044380062006200620061004100410041004100e9
:104448000000000000000000410020000000000003
:1044580000000000210041000000000000000000f2
:1044680000004100210000000000000000002100c1
:10447800410041004100410041004100210000008d
:1044880000004100000000000000000000000000e3
:1044980000004100000000002100410041004100ef
:1044a8004100410000000000200041000000000021
:1044b8000000000000000000410000002100620030
:1044c80041000000000000000000210062004100df
:1044d80000000000000000002501f103290200008f
:1044e800000000000000cc02b003c3000000000080
:1044f80000006601f1038f03c30000000000000004
:104508004a02f103f1031104110411041104b00368
:10451800e400a300d0034e03610000000000000087
:1045280021000d03f103c3002501d0031104110478
:104538001104110411048f038200e80132048b0274
:104548004100000000000000860152048601c300fb
:10455800d0031104a701000000000902f003f103d1
:10456800660100000000000000006601d4048a0211
:1045780000000000000000004e039304e400000067
:1045880000002100d003f504f5046a0200000000d1
:104598000000cc02d4048f03ed02ed02ed026f039c
:1045a800f5040902a3007304f5044a0200000000a0
:1045b80000000802d5049304c3006a0215058f039e
:1045c8002d032d032d03d003f50425012902f5043d
:1045d800f504cc02820000000000c8015605e8017d
:1045e80000004902f5047304860125019304f504cb
:1045f8004a02000000000000000000006601930469
:10460800cc02a300a300a300a3006f035204e4009c
:10461800000000008701b4042d038f035204c30077
:1046280000000000ac02b4040802620062006200ec
:104638008701f504e801a3005204b404f103620001
:1046480000008200f103b4047304c3004902150595
:104658000401000000000000e801f504040129023b
:10466800b4043204f5046e0382000000c801160584
:10467800e801000000008a02d40473045204d40440
:10468800ab0200000000000000000000000066010e
:1046980073049304b404b404b404b4049404310457
:1046a800e40000006200120493042100a701f5044d
:1046b8000d0300000000ab02b4049304b404930497
:1046c80052049304f504e801a30052047304b404eb
:1046d800cc0200000d03b40452047304c300490261
:1046e800150545010000000000000902f504040159
:1046f8002902d50466010d031505d0038200860141
:104708001605e801000000000000cc02b404b4045f
:104718000d03210000000000000000000000000060
:1047280066017304f1032d034e032e034e03320476
:104738003204e40000000802f5046e034501660136
:1047480032043204a3000000ab02b4046e03cc02ae
:104758003204d404d0036a024100e4009304cc027a
:104768006e035204e80173040d03ab02b404c300e2
:104778004902150525010000000000000802f504a3
:1047880004012902f504e40020002d03f504d003f8
:10479800cc02f504e801000000000000c300520448
:1047a8005204620000000000000000000000000049
:1047b8000000660194046a02000000000000000086
:1047c8004e035204a300c3005204b404b404d40436
:1047d800d404b404d404ec020000ab02b40486018f
:1047e8000000040173043204e4000000e400b4048f
:1047f8004a024501b404b404b404e4004a02b4040f
:10480800c3004a02f504a7018200820082006a02fe
:10481800f50404012902f504250100004100cc0239
:10482800f5049304b404e801000000000000c3008c
:1048380032045204410000000000000000000000a3
:10484800000000008601f504ab0200000000000033
:1048580000006f03b404c300ab0256050d03090240
:104868000902090209021104b404c300ac021605c6
:10487800e801000000006601b404b4044501e40046
:10488800f504ab0241008f033605ec020000cc02b0
:104898001605c30049021605730452045204520453
:1048a8009304f504e4004a0257054501000000009e
:1048b8002100ab02b4043605090200000000000024
:1048c800c3007304940462000000000000000000ac
:1048d800000000000000e400ec0287010000000076
:1048e800000000000902ab02c3008b02ed02a30026
:1048f800000000000000000004012d03660186018d
:104908000d032401000000000000a7012d03290267
:10491800c300ec02a7010000e400ec02a3000000c1
:10492800a7010d038200c300cc02ec02ec02ec02ea
:10493800ec02ec02ab02410066012d03c30000004b
:104948000000000000006a022d034501000000007d
:1049580000008200ab02ac02410000000000000031
:10496800000000000000000000000000000000003f
:10497800000000000000000000000000000000002f
:10498800000000000000000000000000000000001f
:10499800000000000000000000000000000000000f
:1049a80000000000000000000000000000000000ff
:1049b80000000000000000000000000000000000ef
:1049c80000000000000000000000000000000000df
:1049d80000000000000000000000000000000000cf
:1049e80000000000000000000000000000000000bf
:1049f80000000000000000000000620045016601a0
:104a0800660104010000a30066014501450182001a
:104a18002000040125012501e400000041004501b2
:104a28004501460182000000a30000000000a30029
:104a38000000820062000000e40025012501040155
:104a48000000820004012501250182000000000009
:104a580000004100040125012501e4000000e400f4
:104a680061000000620082000000a3000000c30093
:104a78006601250166018200210046016601660182
:104a880045010000000000000000000087016f03de
:104a980029022902870100006a028b0208028f039b
:104aa8006a02c3001104090209022d0341004501ed
:104ab8000d0309020d0309020000ab0221000000ea
:104ac8008b0241000902870182004e032902290254
:104ad800090220000d034e0309022902e400000028
:104ae8000000000086014e0309022902a7012000e8
:104af800b00345010000c70108024100ab020000f5
:104b08002501cc02d0034a02c300e4002d030902a8
:104b18002902e80120000000000000000000c80190
:104b28004a0221004e038b020000ab028f034e03a2
:104b380011044a02c30093044e036e03b00321001c
:104b48004501d0032d03d003090200008f038f0312
:104b58008f038f03210029028701c3006a02000026
:104b68000000000000002e0311042d036e036601ef
:104b7800000000000000860111042d034e03ab0263
:104b88002000f00325010000c70109024100cc0202
:104b980020000000e4002e03000000000401d00300
:104ba8002d0362000000000000000000000000006b
:104bb800c8012d030401ec02d00300008b02e801b8
:104bc8004e03f103a30025017304c701c7014e0377
:104bd80041006601ac0266016601820021004e03b5
:104be800a70186012d0341004902a701a3000d0377
:104bf800e400e400e4000000a701ab028b024e03ce
:104c08004902000000000000c300ab028a026e03e4
:104c1800f103200011042902a3008b02290241009c
:104c2800ed022000000005016f03000000002501cf
:104c38008f034a026601e400000000000000000043
:104c48000000e400ab026a026a02090200004601a1
:104c58000000610029024100a30049020000000091
:104c680086014100c400c3000000000000002100cc
:104c7800a70100000000660121004501e400410091
:104c88008b028a028b024a02210066014a0229022b
:104c98006a022501000000000000a3004a02290260
:104ca8006a02290200002902ab026a02ab0204016f
:104cb8002100a70100000000a300e8010000000097
:104cc80082008a0229028a022902210000000000cb
:104cd80000000000000000000000000000000000cc
:104ce80000000000000000000000000000000000bc
:104cf80000000000000000000000000000000000ac
:104d0800000000000000000000000000000000009b
:104d1800000000000000000000000000000000008b
:104d2800000000000000000000000000000000007b
:104d3800000000000000000000000000000000006b
:104d4800000000000000000000000000000000005b
:104d5800000000000000000000000000000000004b
:104d680000000000000000000000c3004a024902e1
:104d78004902290229024a026a0249022902290231
:104d880029022902290229022902290229022902c3
:104d980029022902290229022902290229022902b3
:104da80029022902290229022902290229022902a3
:104db8002902290229022902290229022902290293
:104dc8002902290229022902290229022902290283
:104dd8002902290229022902290229024a026a0211
:104de80029022902290229024a0209024100000077
:104df800000000000000000000000000c300870160
:104e08008701660166018601250182006601660147
:104e18006601660166016601660166016601660152
:104e28006601660166016601660166016601660142
:104e38006601660166016601660166016601660132
:104e48006601660166016601660166016601660122
:104e58006601660166016601660166016601660112
:104e68006601660166016601660166018601040144
:104e7800c3006601660166016601a701660141007b
:104e880000000000000000000000000000004100d9
:104e980025016e037304320452042e0362008f034b
:104ea800730452043204110411041104110411048e
:104eb8001104110411041104110411041104110442
:104ec8001104110411041104110411041104110432
:104ed8001104110411041104110411041104110422
:104ee8001104110411041104110411041104110412
