:020000040000fa
:020000040040ba
:10000000f8ff4720f1264000bf2e4000c52e4000db
:10001000d12e4000d72e4000dd2e40000000000011
:100020000000000000000000000000004f2d400014
:10003000cb2e4000000000004f2d40004f2d40000f
:100040004f2d40004f2d40004f2d40004f2d4000c0
:100050004f2d40004f2d40004f2d40004f2d4000b0
:100060004f2d400000000000fd0c40004f2d4000cf
:100070004f2d40004f2d40004f2d40004f2d400090
:100080004f2d40004f2d40004f2d400005064000f1
:100090004f2d40004f2d40004f2d4000d1244000f7
:1000a0004f2d40004f2d40004f2d40004f2d400060
:1000b0004f2d40004f2d40004f2d40004f2d400050
:1000c0004f2d40004f2d40004f2d40004f2d400040
:1000d0004f2d40004f2d40004f2d40004f2d400030
:1000e0004f2d40004f2d40004f2d40004f2d400020
:1000f0004f2d40004f2d40004f2d40004f2d400010
:100100004f2d40004f2d40004f2d40004f2d4000ff
:100110004f2d40004f2d4000000000000000000067
:100120004f2d40004f2d40007d1140004f2d4000cd
:100130004f2d40004f2d4000000000004f2d40008b
:100140004f2d40004f2d40004f2d40004f2d4000bf
:100150004f2d40004f2d40004f2d40004f2d4000af
:080160004f2d40004f2d40001f
:020000040000fa
:020000040040ba
:10016800f8b500bff8bc08bc9e467047752d400026
:10017800f8b500bff8bc08bc9e467047512d40003a
:020000040000fa
:020000040040ba
:08018800e81c0000010000006a
:020000040000fa
:020000040040ba
:1001900080b400af134b80221a60124b28221a60e1
:1001a000104b1b6903f07c520e494bf2c0131343f2
:1001b0000b610c4b4ff080721a600a4b07229a6257
:1001c000084b4ff440725a62064b04221a60064be9
:1001d00000225a77044b00221a7700bfbd465df813
:1001e000047b704700800140d800402080b400affd
:1001f0000e4b02221a770e4b5b680d4a43f4805374
:1002000053600a4b1b69012b03d1094b03221a606f
:1002100002e0074b01221a6062b6054b03225a62c4
:1002200000bfbd465df8047b704700bfd80040208a
:100230000080014080b584b000af03460a46fb80d1
:1002400013467b714ef66023fb60fb887f2b0dd934
:10025000fb881b0a1b0403f4fe033c4a43f480732f
:100260005360fb88394adbb2d36005e0fb881b048e
:10027000364a03f4fe035360354b00225a61344b77
:1002800000229a617b7983f00103dbb2002b53d00b
:100290002f4bdb68012b3fd12d4b1b69002b13d15a
:1002a0002b4b04221a772a4b5b681a78274b5a6328
:1002b000274b5b690133264a5361244b02221a60a3
:1002c000224b01225a6237e072b6214b5b681a78e2
:1002d0001e4b5a631e4b5b6901331d4a536100bfbd
:1002e0001a4b1b6a03f00503002bf9d10be0fb68e6
:1002f000002b05d1164b02225a7762b6002321e06b
:10030000fb68013bfb60114b1b6a03f00403002bed
:10031000edd001237b710fe00d4b03221a770c4bbc
:100320005b681a78094b5a63094b5b690133084ac9
:100330005361064b05225a627b79002b01d0fff7ef
:1003400055ff012318461037bd4680bd008001408f
:10035000d800402080b483b000af786039607b68fb
:10036000002b05d0054a7b681362044a3b68536240
:1003700000bf0c37bd465df8047b7047d8004020b5
:1003800080b400af064b1b7f5bb2002b01d1002372
:1003900000e001231846bd465df8047b704700bfae
:1003a000d800402080b400af094b00225a77084b98
:1003b00000221a77074b07229a62064b08221a601e
:1003c000044b04221a6000bfbd465df8047b7047f1
:1003d000d80040200080014080b584b000af0346c3
:1003e000b9607a60fb81174b1b7f5bb2002b01d099
:1003f000002323e0144b1b6a03f04073b3f1407fea
:1004000004d0104b02225a77002317e00d4afb89d3
:1004100013800c4abb6893600a4a7b681361094bde
:1004200000225a60074b0022da60064b00225a77fe
:10043000fb8901211846fff7fdfe034618461037d9
:10044000bd4680bdd80040200080014080b584b00a
:1004500000af0346b9607a60fb81174b1b7f5bb22c
:10046000002b01d0002323e0144b1b6a03f04073e0
:10047000b3f1407f04d0104b02225a77002317e0db
:100480000d4afb8913800c4b00229a600a4b002214
:100490001a61094abb685360074a7b68d360064b00
:1004a00000225a77fb8900211846fff7c3fe034656
:1004b00018461037bd4680bdd8004020008001405e
:1004c00080b584b000afb9607a603b600346fb81c1
:1004d000174b1b7f5bb2002b01d0002323e0154b91
:1004e0001b6a03f04073b3f1407f04d0104b02222b
:1004f0005a77002317e00e4afb8913800c4a3b68a9
:1005000093600b4abb691361094abb685360084a90
:100510007b68d360064b00225a77fb89002118467e
:10052000fff788fe034618461037bd4680bd00bf62
:10053000d80040200080014080b483b000af002389
:10054000fb71064b5b7ffb71044b00225a77fb79f2
:1005500018460c37bd465df8047b7047d800402034
:1005600080b487b000af786039600023fb747b688b
:10057000002b01d1002339e07b681b68fb60fb681e
:100580001d4a934201d9002330e03b68002b01d182
:100590001a4b3b60fb685b003a68b2fbf3f3033b2a
:1005a0007b6105e0fb7c0133fb747b695b087b614d
:1005b0007b69ff2b02d9fb7c062bf3d97b69ff2bd0
:1005c00001d9002312e00e4b1b6903f07c527b69ba
:1005d000dbb21a437b691b029bb21a43fb7c1b04f0
:1005e00003f4e023064913430b61012318461c372b
:1005f000bd465df8047b704700093d0080d1f008de
:100600000080014080b586b000af9c4b5b6a3b61c7
:100610009b4b1b6afb60fb6803f48073002b05d0c7
:10062000964bff221a77954b01225a77fb6803f00d
:100630000103002b08d0924b08221a60904b042231
:100640001a608f4b07229a62fb6803f40073002b39
:1006500002d08a4b01221a77884b5b7fdbb2002bda
:1006600040f0c780854b1b7f5bb2013b032b00f240
:10067000c28001a252f823f08906400073074000af
:10068000b1064000e10740007c4bdb68002b07d03f
:100690007a4b1b889bb200211846fff7cbfdb1e0d7
:1006a000764b1b889bb201211846fff7c3fda9e0da
:1006b000fb6803f00403002b00f09f806f4b5b6925
:1006c0007b616e4bdb68013b7a699a420cbf012368
:1006d0000023fb72694b1b69002b13d0fb7a002ba4
:1006e00010d072b6664b04229a62644b5a687b69da
:1006f00013441a78624b5a637b6901337b61fff7bd
:1007000075fd2fe05d4bdb68013b7a699a421fd192
:100710005a4b5a687b6913441a78594b5a637b6960
:1007200001337b61564b02221a60554b04229a62b8
:10073000534b1b6afb60fb6803f00103002b03d0e3
:100740004e4b05221a770de04c4b04221a7709e034
:100750004a4b5a687b6913441a78494b5a637b6940
:1007600001337b61454a7b695361454b1b6afb60e2
:1007700043e0fb6803f00203002b40d03f4b9b6932
:100780007b603e4b1b69023b7a689a4202d13c4b2c
:1007900002221a603a4b196b384b9a687b681344f3
:1007a000cab21a707b6801337b60344b1b697a686c
:1007b0009a4211d1324b02229a62314b1b6afb6082
:1007c000fb6803f00103002b03d02c4b05221a77a2
:1007d00002e02a4b04221a77284a7b6893610ee0d4
:1007e000fb6803f00103002b0bd0244b05221a7782
:1007f00007e000bf06e000bf04e000bf02e000bf6a
:1008000000e000bf1d4b1b7f5bb2b3f1ff3f13d174
:100810001a4b00221a771a4b07229a62184b0822a9
:100820001a60174b04221a60144b1b6a002b03d06a
:10083000124b1b6a38699847104b1b7f5bb2052b24
:1008400017d10e4b00225a770c4b00221a770c4b13
:1008500007229a620a4b08221a60094b04221a6086
:10086000064b1b6a002b04d0044b1b6a386998475f
:1008700000bf00bf1837bd4680bd00bfd800402074
:0408800000800140b3
:020000040000fa
:020000040040ba
:1008840080b483b000af764b0022c3f81421754bbb
:1008940000221a67734b40225a67724b58225a60df
:1008a400704b6ff058021a606e4b4ff0ff325a656e
:1008b4006c4b6ff002021a666a4b02225a66694b4d
:1008c4004ff0ff32c3f89020664b4ff0ff32c3f86d
:1008d400a020644b00221a61624b4ff0ff325a6130
:1008e400604b00229a635f4b0222c3f8b0205d4b39
:1008f4000222c3f8d4205b4bdb6c5a4b0022c3f8b2
:100904001821594b4ff0ff321a60574b4ff0ff320a
:100914005a65554b4ff0ff321a66534b4ff0ff3276
:10092400c3f89020504b4ff0ff32c3f8a0204e4b39
:1009340000221a614c4b4ff0ff325a614a4b00229d
:100944009a63494b0022c3f81821484b4ff0ff32f9
:100954001a60464b4ff0ff325a65444b4ff0ff325a
:100964001a66424b4ff0ff32c3f890203f4b4ff0d2
:10097400ff32c3f8a0203d4b00221a613b4b4ff0dd
:10098400ff325a61394b00229a63384b0022c3f874
:100994001821374b4ff0ff321a60354b4ff0ff32be
:1009a4005a65334b4ff0ff321a66314b4ff0ff322a
:1009b400c3f890202e4b4ff0ff32c3f8a0202c4bed
:1009c4004ff400021a612a4b6ff400025a61284b5b
:1009d4004ff400029a63264b0022c3f81821254bda
:1009e4004ff0ff321a60234b4ff0ff325a65214b10
:1009f4004ff0ff321a661f4b4ff0ff32c3f89020be
:100a04001c4b4ff0ff32c3f8a0201a4b00221a618e
:100a1400184b4ff0ff325a61164b00229a63154b64
:100a24000022c3f81821144b01221a6000237b60b2
:100a34000ce011497a6813465b0013449b000b4495
:100a4400043300221a607b6801337b607b68002bcf
:100a5400efd000bf0c37bd465df8047b704700bf84
:100a640000800840000e0e4000100e4000120e40a0
:100a740000140e4000160e402c01402080b483b0b8
:100a840000af78607b68db6b18460c37bd465df8b9
:100a9400047b704780b485b000aff860b9607a60b9
:100aa400fb689a6bbb68db4302ea0301ba687b68a4
:100ab4001a40fb680a439a6300bf1437bd465df8c9
:100ac400047b704780b483b000af78607b689b6b15
:100ad40018460c37bd465df8047b704780b483b07c
:100ae40000af786039607b683a681a6300bf0c37de
:100af400bd465df8047b704780b483b000af786076
:100b040039607b683a685a6300bf0c37bd465df8ac
:100b1400047b704780b483b000af786039607b6831
:100b2400996b7b683a684a409a6300bf0c37bd46ac
:100b34005df8047b704780b483b000af786039609f
:100b44007b683a685a6100bf0c37bd465df8047b88
:100b5400704780b483b000af786039607b683a68ce
:100b64001a6100bf0c37bd465df8047b704780b442
:100b740083b000af786039607b683a681a6400bf5c
:100b84000c37bd465df8047b704780b483b000af7a
:100b9400786039607b683a685a6400bf0c37bd4698
:100ba4005df8047b704780b487b000aff860b9602b
:100bb4007a60fb68dbb25b09bb75bb7d1b4ad35c07
:100bc400fb7523e0fa7d1a4913465b0013449b002e
:100bd4000b441b68fa689a4215d1fa7d14491346ee
:100be4005b0013449b000b440433ba681a60fa7d1b
:100bf4000f4913465b0013449b000b4408337a6887
:100c04001a6001230be0fb7d0133fb75bb7d0133cf
:100c1400064ad35cdbb2fa7d9a42d3d3002318464a
:100c24001c37bd465df8047b704700bf5801402067
:100c34002c01402080b588b000af78607b68db6c05
:100c4400bb617b689b6cba691340bb617a68274bb4
:100c540013445b0a7b61264a7b6913441b78dbb22d
:100c6400fb6136e02349fa6913465b0013449b0099
:100c74000b441b683b611f49fa6913465b0013442c
:100c84009b000b4404331b68002b1fd03b6903f00b
:100c94001f03ba6922fa03f303f00103002b15d0f2
:100ca4001449fa6913465b0013449b000b44083350
:100cb4001b68fb600f49fa6913465b0013449b00f1
:100cc4000b4404331b68f96838699847fb6901339e
:100cd400fb617b690133064ad35cdbb21a46fb69cc
:100ce4009342bfd300bf2037bd4680bd00f2f1bfa1
:100cf400580140202c01402080b500af0248fff786
:0c0d040099ff00bf80bd00bf000e0e4034
:020000040000fa
:020000040040ba
:100d100080b400af034b044a1a6000bfbd465df8c3
:100d2000047b7047000c0e400006000480b586b0be
:100d300000aff860b9607a607b687b61ba687969f6
:100d4000f86802f0ddf8012318461837bd4680bd6b
:100d500080b489b000af7860214b5b6903f48033c5
:100d6000002b22d07b68bb614ff400537b617b6911
:100d7000002b1addbb6903f01f027b6913443b6142
:100d8000bb69fb60bff34f8f154afb68c2f85c324a
:100d9000fb682033fb603b69203b3b613b69002bd8
:100da000f2dcbff34f8fbff36f8f7b68a3f5800337
:100db0005b0afb83fb8b43f002039bb21b02094ad5
:100dc0001a400949094b13434b60094b00221a6032
:100dd000012318462437bd465df8047b704700bfe9
:100de00000ed00e000ffff00000c0e400700005a7d
:100df0004801402080b489b000af786039603b681a
:100e0000a3f580035b0a7b830023fb6111e07b8bee
:100e100003f500535a02fb6913441a467b681b68aa
:100e200013607b6804337b60bff35f8ffb6904331f
:100e3000fb61fb69b3f5007fe9d3bff34f8fbff3cd
:100e40006f8f184b5b6903f48033002b22d03b6813
:100e50007b614ff400733b613b69002b1add7b69ba
:100e600003f01f023b691344fb607b69bb60bff367
:100e70004f8f0c4abb68c2f86832bb682033bb6036
:100e8000fb68203bfb60fb68002bf2dcbff34f8f5d
:100e9000bff36f8f012318462437bd465df8047bee
:100ea000704700bf00ed00e080b485b000af78600f
:100eb0007b68a3f580035b0afb81bff34f8fbff311
:100ec0006f8ffb891b02084a1a400849084b1343dd
:100ed0004b60084b00221a60012318461437bd46a8
:100ee0005df8047b704700bf00ffff00000c0e4060
:100ef0000100005a4801402080b489b000af7860fa
:100f000039603b68a3f580035b0a7b830023fb61a8
:100f100011e07b8b03f500535a02fb6913441a4618
:100f20007b681b6813607b6804337b60bff35f8f53
:100f3000fb690433fb61fb69b3f5007fe9d3bff3c1
:100f40004f8fbff36f8f1d4b5b6903f48033002b12
:100f500022d03b687b614ff400733b613b69002bff
:100f60001add7b6903f01f023b691344fb607b6958
:100f7000bb60bff34f8f114abb68c2f86832bb68d1
:100f80002033bb60fb68203bfb60fb68002bf2dc7e
:100f9000bff34f8fbff36f8f7b8b1b02084a1a4042
:100fa0000849094b13434b60084b00221a60012388
:100fb00018462437bd465df8047b704700ed00e01d
:100fc00000ffff00000c0e400100005a48014020c5
:100fd00080b489b000af786039603b68a3f58003c6
:100fe0005b0a7b830023fb610ce03a68fb691344d6
:100ff0001a467b681b6813607b6804337b60fb695f
:101000000433fb61fb690f2befd91d4b5b6903f4c4
:101010008033002b21d03b687b6110233b613b690f
:10102000002b1add7b6903f01f023b691344fb6050
:101030007b69bb60bff34f8f114abb68c2f868324f
:10104000bb682033bb60fb68203bfb60fb68002b68
:10105000f2dcbff34f8fbff36f8f7b8b1b02094a0c
:101060001a400949094b13434b60094b00221a608f
:10107000012318462437bd465df8047b704700bf46
:1010800000ed00e000ffff00000c0e400100005ae0
:101090004801402080b485b000af78607b68a3f53c
:1010a00080035b0afb81fb891b02074a1a40074940
:1010b000074b13434b60074b00221a6000bf1437e5
:1010c000bd465df8047b704700ffff00000c0e403a
:1010d0000800005a4801402080b485b000af786015
:1010e0007b68a3f580035b0afb81fb891b02074a2f
:1010f0001a400749074b13434b60074b00221a6005
:1011000000bf1437bd465df8047b704700ffff0049
:10111000000c0e400900005a4801402080b400af86
:101120000a4b9a680a4b1b681343094a1360084b21
:101130001b6803f00103002b0cbf01230023dbb26b
:101140001846bd465df8047b704700bf000c0e409a
:101150004801402080b400af064b9a68064b1b68dc
:101160001343054a1360044b1b681846bd465df8df
:0c117000047b7047000c0e40480140203a
:020000040000fa
:020000040040ba
:10117c0080b584b000af0023fb605de0324afb68b1
:10118c001b0113441b78fb722f4afb681b01134491
:10119c0008331b687b60fb7a002b4ad02b4b5a69b7
:1011ac00fb6822fa03f303f00103002b41d0274a1a
:1011bc00fb689b0113445c331b683b603b6803f08a
:1011cc007003002b18d0204afb681b0113440c330e
:1011dc0000221a701c4afb681b01134404331b6861
:1011ec00002b26d0184afb681b01134404331b68e0
:1011fc007968022098471ce03b6803f00103002b40
:10120c0017d0114afb681b0113440c3300221a70cf
:10121c000d4afb681b01134404331b68002b08d0d8
:10122c00094afb681b01134404331b6879680120cd
:10123c009847fb680133fb60fb68002b9ed000bf16
:10124c001037bd4680bd00bf1c0140200080074008
:10125c0080b483b000af0023fb710023fb711de051
:10126c00fb79194a1b01134400221a70fb79164aa8
:10127c001b011344043300221a60fb79124a1b0130
:10128c001344083300221a60fb790f4a1b011344e4
:10129c000c3300221a70fb790133fb71fb79002ba4
:1012ac00ded00a4b0a4a9a67084b71221a65074b23
:1012bc000122da60044b01221a7000bf0c37bd46c4
:1012cc005df8047b704700bf1c0140200080074084
:1012dc001140011680b485b000af0346b9607a6046
:1012ec00fb73fb7b094a1b0113440433ba681a6075
:1012fc00fb7b064a1b01134408337a681a6000bf53
:10130c001437bd465df8047b704700bf1c014020bc
:10131c0080b489b000afb9607a603b600346fb7360
:10132c0000233b610023fb77bb68bb617b687b615f
:10133c00fb7b254a1b0113440c331b78dbb283f077
:10134c000103dbb2002b08d1204b5a6afb7b22fa3b
:10135c0003f303f00103002b2fd11c4afb7b9b01f1
:10136c0013445c331b683b613b69fb7b164a1b01d6
:10137c0013440c3301221a701449fb7bba699b018c
:10138c000b4460331a601149fb7b7a699b010b4457
:10139c0064331a600d49fb7b3a6822f07f429b0153
:1013ac000b4470331a60bff35f8ffb7b074a01213c
:1013bc0001fa03f3d3610123fb77fb7f1846243733
:1013cc00bd465df8047b70471c014020008007403f
:1013dc0080b483b000af0346fb71fb790e4a1b014e
:1013ec0013440c331b78dbb2002b0ad00b4b5a6a1c
:1013fc00fb7922fa03f303f00103002b01d0012344
:10140c0000e0002303f00103dbb218460c37bd46a5
:10141c005df8047b704700bf1c0140200080074032
:10142c0080b485b000af0346fb710023fb730e4afa
:10143c00fb799b0113445c331b68bb60bb6803f0f6
:10144c007003002b02d00223fb7306e0bb6803f091
:10145c000103002b01d00123fb73fb7b18461437cf
:10146c00bd465df8047b70470080074080b483b0b4
:10147c0000af0346fb71fb79084a012101fa03f323
:10148c001362fb79064a1b0113440c3300221a70b9
:10149c0000bf0c37bd465df8047b704700800740e9
:1014ac001c01402080b483b000af0346fb71064a98
:1014bc00fb799b01134478331b6818460c37bd46e7
:1014cc005df8047b704700bf0080074080b483b098
:1014dc0000af03463960fb71fb79094a012101fa1f
:1014ec0003f31362064afb799b01134478333a6881
:1014fc001a60012318460c37bd465df8047b704713
:10150c000080074080b483b000af03460a46fb71ed
:10151c001346bb80fb79094a012101fa03f31362dc
:10152c000649fb79ba889b010b4474331a6000bfdf
:10153c000c37bd465df8047b704700bf0080074048
:10154c0080b483b000af0346fb71fb79054a0121df
:10155c0001fa03f3136300bf0c37bd465df8047b3f
:10156c00704700bf0080074080b483b000af0346d3
:10157c00fb71fb79054a012101fa03f3536300bfa8
:10158c000c37bd465df8047b704700bf00800740f8
:020000040000fa
:020000040040ba
:10159c0080b582b000af78607b685a09074b134462
:1015ac0058027b6803f01f03012202fa03f3194669
:1015bc00fff7d9fa00bf0837bd4680bd07072000ea
:1015cc0080b485b000af78607b681b781b021ab2c0
:1015dc007b6801331b781bb21343fb81b7f90e30c8
:1015ec00db111bb207ee903ab8eee77bb6ee006b60
:1015fc0027ee067bfdeec77b17ee903afb81b7f921
:10160c000e201346db001344084a82fb03125210cf
:10161c00db17d31a9bb220339bb2fb81fb89dbb265
:10162c0018461437bd465df8047b704767666666de
:10163c0080b483b000af78603960044b01221a701b
:10164c0000bf0c37bd465df8047b7047010040209d
:10165c0080b483b000af78603960044b01221a70fb
:10166c0000bf0c37bd465df8047b7047000040207e
:10167c0080b582b000af7860fef758ff0346002bb0
:10168c0002d1034b01221a7000bf0837bd4680bd42
:10169c000300402080b483b000af03463960fb7177
:1016ac00fb79012b02d1044b01221a7000bf0c37bd
:1016bc00bd465df8047b70470200402080b586b0c3
:1016cc0002af002001f0f6fa00215f48fef73cfe65
:1016dc0000225e490020fff7fdfd00215c4800f070
:1016ec00ddfe00225b490120fff759fa0120fff7cc
:1016fc004fff00f089fe584b1b78dbb2002b0ad051
:10170c00554b00221a7002230093544b012254496a
:10171c004f20fef7cffe534b1b78dbb2002bead0e9
:10172c00504b00221a70504b1b78dbb283f0010334
:10173c00dbb2002b15d04948fff742ff03461a468f
:10174c004a4b1a70494b1b78dbb21a464849494838
:10175c0001f0ecfb484b9b6b474a83f4000393630b
:10176c0045e0414b00221a70444b1b78dbb2002b36
:10177c000bd1424b01221a7041493e4801f0d6fb75
:10178c004ff47a7000f061fe31e03c4b1b78dbb219
:10179c00012b0bd1394b02221a703a49354801f012
:1017ac00c5fb4ff4fa6000f050fe20e0334b1b7881
:1017bc00dbb2022b0bd1314b03221a7032492d486c
:1017cc0001f0b4fb4ff47a6000f03ffe0fe02b4bbe
:1017dc001b78dbb2032b0ad1284b00221a702b4941
:1017ec00244801f0a3fb4ff4fa7000f02efe214bbd
:1017fc00fb606423bb60bb68002b1addfb6803f045
:10180c001f02bb6813447b60fb683b60bff34f8fc8
:10181c001f4a3b68c2f868323b6820333b607b68e8
:10182c00203b7b607b68002bf2dcbff34f8fbff358
:10183c006f8f104801f088fb0346164a0d490020b3
:10184c00fff766fd57e700bf7d164000a11640006c
:10185c005d1640003d16400000004020080040206e
:10186c0005004020030040200100402004004020df
:10187c00902840002000402000140e40840040209e
:10188c00a8284000d0284000f8284000202940001b
:08189c0000ed00e01c0a0e4003
:020000040000fa
:020000040040ba
:1018a4002de9f041aeb0064615460591002705998d
:1018b4000b78002b00f0fa8000244ff0ff33cde9c1
:1018c40009430eab0c9380230b940d930b5d0bb16a
:1018d400252b26d134b12246304601f0dafa059b95
:1018e40023440593059b1a78252a40f0d78003f1f9
:1018f4000108cdf81480059803782b2b1ad025d82d
:10190400202b1bd0232b1dd02a2b27d001f0faf932
:101914000b90059b1a78303a092a2ed80133059387
:10192400f7e70134d2e7099b43f00103013009933f
:101934000590e0e7099b43f00403f7e7099b43f0b4
:101944000803f3e7099b43f01003efe72d2bead0dc
:10195400302bd9d1099b43f00203e7e72b681a1d0a
:101964001b682a600130002b05900b9305da099a55
:101974005b4282f0010209920b93099bda0744bf90
:1019840023f002030993059b1a782e2a0dd1002215
:10199400581c0a9205905a782a2a25d102330593b5
:1019a4002b681a1d1b682a600a9305a801f0eef93a
:1019b400059b0390187801f009fb6928039979d0f5
:1019c40032dc632800f0cb8019dc252800f0d980b4
:1019d400612853d000234ff0ff32cdf814800993cf
:1019e4000b930a920093d4e001f08cf90a90059bc2
:1019f4001a78303a092ad8d801330593f7e76428ce
:101a040058d06728e6dc2a4606a801f02dfa0028fb
:101a140000f0a180059b5a1c05921b7806aa09a90f
:101a2400304601f0edfa38e0702873d015dc6e28ea
:101a340000f08c806f28cdd12b46002206a800f040
:101a440081ff002800f08780059b06aa013309a9bd
:101a54003046059301f0d2fa1fe075283ad0782871
:101a640048d07328b6d1802975d1059b2a680133e3
:101a74000593131d2b60126800237de02a4606a8f7
:101a840001f0f2f9002866d0059b5a1c05921b78d8
:101a940006aa09a9304601f0b3fa04443c44a7421b
:101aa4007add3e4b4f221a604ff0ff3738462eb096
:101ab400bde8f0812b46012206a800f043ff002870
:101ac40049d0059b06aa013309a93046059300f0c5
:101ad4008fffe2e72b46002206a800f033ff002820
:101ae40039d0059b06aa013309a93046059301f0b4
:101af40085fad2e72b46002206a800f023ff50b354
:101b0400059b5a1c05921b7806aa09a9304601f0c8
:101b140077fac2e72b460022f02106a800f012ff54
:101b2400c8b1059b01330593dde9062313430bd1ab
:101b34001b4801f00dfa099b009319490b9b0246bf
:101b4400304600f0a9ffa8e77823dde72b463a19d1
:101b540006a800f0e3ff059b013305939ee7802967
:101b6400f9d1059b013305932b681a1d1b682a6064
:101b74008df8183006aa012309a9304601f042fa6b
:101b84008be78029e7d1059b01330593099b0093db
:101b94000b9b04490122d3e7274688e654014020e1
:081ba400f42f4000fa2f40006d
:020000040000fa
:020000040040ba
:101bac0080b483b000af0023fb710a4b4ff48072fa
:101bbc001a6002e0074b9b69fb71064b5b6903f0f3
:101bcc000103012bf6d000bf0c37bd465df8047b3a
:101bdc00704700bf000a0e4080b400af094b4ff4b1
:101bec0086721a60074b50221a60064b4ff4006243
:101bfc005a60044b51221a6200bfbd465df8047b4b
:101c0c00704700bf000a0e4080b582b000af0023c1
:101c1c007b60084b5b693b603b6803f0e0037b60d7
:101c2c007b68002b01d0fff7bbff7b681846083799
:101c3c00bd4680bd000a0e4080b487b000af78600e
:101c4c0039600023fb7500233b617b68002b24d09b
:101c5c007b681b68fb603b68002b01d1124b3b601f
:101c6c00fb681b013a68b2fbf3f33b613b69b3f5cc
:101c7c00803f12d20d4b5b68bb60bb6823f4606382
:101c8c00bb607b685a680949bb6813434b60074ac1
:101c9c003b699bb213620123fb75fb7d18461c3715
:101cac00bd465df8047b704780d1f008000a0e40f9
:101cbc0080b588b000af786039600023fb770023d3
:101ccc003b610023bb617b687b617b69002b27d068
:101cdc00fff79afff86017e0144b5b6903f0e00321
:101cec003b613b69002b14d1104b5b6903f0010382
:101cfc00012b09d10d4b99697b695a1c7a61cab2c7
:101d0c001a70bb690133bb613a68bb699a42e3d86c
:101d1c0000e000bf3a68bb699a4201d10123fb770e
:101d2c00fb7f18462037bd4680bd00bf000a0e4021
:101d3c0080b487b000af786039600023fb75002356
:101d4c003b617b68fb60fb68002b15d00ee00e4bf3
:101d5c005b6903f00203022b08d1fb685a1cfa6082
:101d6c001a78094bda613b6901333b613a683b698c
:101d7c009a42ecd80123fb75fb7d18461c37bd46f7
:101d8c005df8047b704700bf000a0e4080b483b03e
:101d9c0000af054b9b69dbb27b607b6818460c3748
:101dac00bd465df8047b7047000a0e4080b483b0da
:101dbc0000af786000bf084b5b6903f00203002b97
:101dcc00f9d07b68044adbb2d36100bf0c37bd4647
:101ddc005df8047b704700bf000a0e4080b483b0ee
:101dec0000af0023fb71074b5b6903f00203022b6e
:101dfc0001d10123fb71fb7918460c37bd465df808
:101e0c00047b7047000a0e4080b483b000af0023ff
:101e1c00fb71074b5b6903f00103012b01d101231b
:101e2c00fb71fb7918460c37bd465df8047b704797
:101e3c00000a0e4080b483b000af0023fb71084b46
:101e4c005b6903f40073b3f5007f01d10123fb71cf
:101e5c00fb7918460c37bd465df8047b704700bf14
:041e6c00000a0e401a
:020000040000fa
:020000040040ba
:101e70002de9f04f099f154604468e461e46002b5d
:101e800040f0cc808a42b2fa82fc4cd9bcf1000fff
:101e90000bd0ccf1200801fa0cfe20fa08f802fa67
:101ea0000cf548ea0e0e00fa0cf44fea15491ffa39
:101eb00085f8befbf9fa210c09fb1ae30afb08fbc3
:101ec00041ea03439b452ad9eb180af1ff3004d2bb
:101ed0009b4502d9aaf102002b44a3eb0b03a4b249
:101ee000b3fbf9f209fb123302fb08f844ea03449e
:101ef000a04516d92c1902f1ff3303d2a04501d910
:101f0000931e2c44a4eb080443ea004027b124fab2
:101f10000cf400233c607b603146bde8f08f5046f6
:101f2000dbe71346eee702b9ffdebcf1000f2ed16e
:101f30008b1a01264fea154eaab2b3fbfef8210c0c
:101f40000efb183308fb02f941ea0343994561d9b6
:101f5000eb1808f1ff3004d2994502d9a8f102002c
:101f60002b44a3eb0903a4b2b3fbfef10efb113328
:101f70004a4344ea0344a2424ed92c1901f1ff33eb
:101f800003d2a24201d98b1e2c44a41abce7ccf187
:101f9000200e02fa0cf521fa0ef901fa0cf320fae0
:101fa0000efe4eea03034fea154800fa0cf4b9fba3
:101fb000f8f11ffa85fe08fb1192180c01fb0ef6d2
:101fc00040ea0242964221d9aa1801f1ff3003d219
:101fd000964201d9881e2a44921b9bb2b2fbf8f9a3
:101fe00008fb192209fb0efe43ea02439e450fd966
:101ff000eb1809f1ff3604d29e4502d9a9f1020679
:102000002b44a3eb0e0346ea004693e70846e3e7ba
:102010004e46f6e74046a4e70b46b6e78b4206d9a4
:10202000002f7ed00026c7e90001304674e7b3fade
:1020300083fcbcf1000f0fd18b4201d3824209d83f
:10204000841a61eb030e0120002f6dd0c7e9004e0a
:10205000002661e76046f7e7ccf1200e03fa0cf3a7
:1020600022fa0ef521fa0ef41d4301fa0cf320fac0
:102070000ef10b434fea154a00fa0cf6b4fbfaf9dd
:102080001ffa85f80afb19401c0c09fb08f144ea09
:102090000044a14202fa0cf23fd92c1909f1ff3099
:1020a00004d2a14202d9a9f102002c44641a9bb2c5
:1020b000b4fbfaf90afb194409fb08f843ea0441a6
:1020c00088452cd9691809f1ff3304d2884502d913
:1020d000a9f10203294443ea0040a1eb0801a0fb57
:1020e00002894945c2464c4602d306d1464504d230
:1020f000b8eb020a69eb05040138afb1b6eb0a038d
:1021000061eb040606fa0efe23fa0cf34eea030313
:1021100026fa0cf6c7e900369ae74846c6e74b466a
:0c212000d9e73e463846f7e63e46f5e6b5
:020000040000fa
:020000040040ba
:10212c0080b485b000af78607b6803f00703fb6078
:10213c000b4bdb68bb60ba684ff6ff031340bb6008
:10214c00fb681a02bb681a43064b1343bb60044a74
:10215c00bb68d36000bf1437bd465df8047b704785
:10216c0000ed00e00000fa0580b483b000af034638
:10217c00fb7197f90730002b0bdbfb7903f01f0287
:10218c00074997f907305b09012000fa02f241f880
:10219c00232000bf0c37bd465df8047b704700bfa1
:1021ac0000e100e080b483b000af0346fb7197f907
:1021bc000730002b0ddb0a4a97f907305b0952f800
:1021cc002320fb7903f01f0322fa03f303f001032e
:1021dc0000e0002318460c37bd465df8047b7047c1
:1021ec0000e100e080b483b000af0346fb7197f9c7
:1021fc000730002b10dbfb7903f01f02094997f91c
:10220c0007305b09012000fa02f2203341f8232049
:10221c00bff34f8fbff36f8f00bf0c37bd465df818
:10222c00047b704700e100e080b483b000af03464c
:10223c003960fb7197f90730002b0adb3b68dab287
:10224c000c4997f907305201d2b20b4483f80023a2
:10225c000ae03b68dab20849fb7903f00f03043b50
:10226c005201d2b20b441a7600bf0c37bd465df852
:10227c00047b704700e100e000ed00e080b500afaa
:10228c000020fff74dffbff35f8f62b607210a20d6
:10229c00fff7caff0a20fff767ff07211320fff79c
:1022ac00c3ff1320fff760ff07211720fff7bcffc8
:1022bc001720fff759ff07213a20fff7b5ff3a2007
:1022cc00fff752ff0c4b5b6a0b4a43f480235362bb
:1022dc00094b5b69084a43f010035361064b5b6a78
:1022ec00054a43f400335362034b5b6a024a43f4de
:1022fc008033536200bf80bd00ed00e080b400afbe
:10230c00bff35f8f62b600bfbd465df8047b7047bc
:10231c0080b483b000afeff310833b603b68002bbd
:10232c000cbf01230023fb7172b6bff35f8ffb79e7
:10233c0018460c37bd465df8047b704780b483b0fb
:10234c0000af0346fb71fb79002b03d0bff35f8f0b
:10235c0062b602e072b6bff35f8f00bf0c37bd46aa
:10236c005df8047b704780b584b000af0346fb7109
:10237c00fff7ceff0346fb7397f907301846fff7bc
:10238c0011ff0346002b14bf01230023bb7397f9e5
:10239c0007301846fff726fffb7b1846fff7ceffea
:1023ac00bb7b18461037bd4680bd80b582b000aff0
:1023bc0003460a46fb711346bb71bb79002b05d053
:1023cc0097f907301846fff7cffe00bf00bf08375c
:0423dc00bd4680bdbd
:020000040000fa
:020000040040ba
:1023e00080b400af094b4ff440425a60074b4ff4a2
:1023f000fa72da61054b10225a62054b00221a600c
:1024000000bfbd465df8047b704700bf00c00040c0
:102410003801402080b400af034b05221a6000bf92
:10242000bd465df8047b704700c0004080b400af3b
:10243000034b02221a6000bfbd465df8047b704763
:1024400000c0004080b400af4ff47a731846bd4618
:102450005df8047b704780b483b000af0346fb8017
:10246000044afb88d36100bf0c37bd465df8047b8e
:10247000704700bf00c0004080b400af034bdb6971
:102480009bb21846bd465df8047b704700c0004013
:1024900080b400af034b1b699bb21846bd465df884
:1024a000047b704700c0004080b483b000af786008
:1024b0003960064a7b681360044a3b68536000bf7a
:1024c0000c37bd465df8047b704700bf38014020e3
:1024d00080b582b000af0c4b1b6a03f014037b6025
:1024e0000a4b5b683b60094b1b68002b07d07b687d
:1024f000002b04d0054b1b6839687868984700bfeb
:102500000837bd4680bd00bf00c0004038014020f4
:020000040000fa
:020000040040ba
:1025100080b400af074b084a9a6200bf054b9b6e20
:1025200003f00203022bf9d100bfbd465df8047b26
:10253000704700bf00060e40013f182080b400af76
:10254000174b1b6b164a23f07003136300bf144b29
:102550009b6e03f00803082bf9d1114b1b6b23f47e
:1025600040730f4a43f48073136300bf0c4b9b6ea0
:1025700003f00803082bf9d1094b1b6b23f003036d
:10258000074a43f00203136300bf054b9b6e03f041
:102590000803082bf9d100bfbd465df8047b7047e6
:1025a00000060e4080b400af0d4b4ff482425a60db
:1025b0000b4b00221a640a4b4ff4f8729a65084bd1
:1025c0004ff482421a6000bf054b9b6e03f48243b6
:1025d000b3f5824ff8d100bfbd465df8047b70476c
:1025e00000060e4080b500affff792fffff7a6ff91
:1025f000fff7d8ff044b054a1a61034b4ff0806286
:10260000c3f8002100bf80bd00060e40001d8b00f6
:020000040000fa
:020000040040ba
:10261000bff34f8fbff36f8f084bd3f8902222f098
:102620000102c3f89022d3f8942222f00102c3f8e9
:102630009422bff34f8fbff36f8f704700ed00e020
:10264000184b194a5a601a46936813f0010ffbd0d1
:10265000144bdb68154a1360c3f3c113834220d0c7
:1026600000f00203002b14bf0b220c22104b13436b
:102670000c4a5360936813f0010ffbd000f0010087
:10268000002814bf0b220c220a4b1a600a4b13437a
:10269000044a5360936813f0010ffbd0074b084abc
:1026a0001a607047000c0e400d00005a4001402097
:1026b0000008005a440140200007005a00180e404c
:1026c000010000a5eff3108172b6074ad2f88830f6
:1026d00043f47003c2f88830bff34f8fbff36f8f9e
:1026e00001b962b6704700bf00ed00e0704700bf5f
:020000040000fa
:020000040040ba
:1026f00008b5304b9847304b9847fff7e3ff002071
:10270000fff79efffff784ff00f07cfb2b4c2c4b68
:1027100023f07f03a3602b4b9847636913f4003fba
:1027200012d1bff34f8fbff36f8f0022c4f8502236
:10273000bff34f8fbff36f8f626942f40032626163
:10274000bff34f8fbff36f8f1c4b5b6913f4803f58
:1027500029d11a4b0022c3f88420bff34f8fd3f83e
:102760008030c3f3c905c3f34e335a0143f6e07614
:10277000124802ea06042b4644ea8371c0f860124c
:10278000013bb3f1ff3ff7d1203a12f1200ff0d116
:10279000bff34f8f094a536943f480335361bff34a
:1027a0004f8fbff36f8f084b9847084b9847fef742
:1027b0008bfffee7ed264000ed26400000ed00e037
:1027c00000004000152c4000ed264000ed264000a2
:020000040000fa
:020000040040ba
:1027d0006001402004000000010000000000000033
:1027e000000140201c0000000000000048014020c3
:1027f0000400000000000000580140200600000016
:102800000100000000010101010100002c01402035
:102810001400000000000000d80040202800000044
:10282000000000001c01402010000000000000001b
:10283000400140200800000000000000000040208f
:1028400085000000000000004c0140200400000052
:102850000000000088004020500000000000000040
:1028600050014020080000000000000064014020ea
:102870000400000001000000000000000000000053
:102880000000000066666666666666666666666680
:020000040000fa
:020000040040ba
:1028900054656d7065726174757265203d202530d8
:1028a000326420460d0a000053616d706c696e67da
:1028b0002054656d7065726174757265206576650a
:1028c00072792031207365636f6e64200d0a0000f9
:1028d00053616d706c696e672054656d70657261cf
:1028e0007475726520657665727920322073656330
:1028f0006f6e6473200d0a0053616d706c696e67b2
:102900002054656d706572617475726520657665b9
:1029100072792034207365636f6e6473200d0a0032
:1029200053616d706c696e672054656d706572617e
:102930007475726520657665727920353030206d4a
:0829400073200d0a000000bf26
:020000040000fa
:020000040040ba
:10294800882910b536d012dc812943d003dc8029d0
:1029580040d0002010bd82290ed08429f9d11968f1
:1029680002b30a1d1a60b1f90020d3171ee0a0298e
:102978002bd00bdc9029ecd11968073121f0070125
:1029880001f108021a60d1e900230fe0c02901d043
:10299800f029ded11a68111d19601368036000233d
:1029a800436005e00a1d1a600a880023c0e9002375
:1029b8000120cfe7196822b10a1d1a6091f9002099
:1029c800d3e70a1d1a600a78efe71a68111d196023
:1029d8001268cae719681ab10a1d1a600a68c4e7ba
:0c29e8000c1d1c600b68c0e90032e1e728
:020000040000fa
:020000040040ba
:1029f4002de9f041d2e900230c4686b007465fea90
:102a0400d37820684968a5680590e66841d05242a9
:102a140063eb4303002908db20f002000590b8f1c2
:102a2400000f02d1059948072ad5691e05a802900e
:102a34000a20cde90010204600f0aef8b8f1000fee
:102a440002d1059b59071fd5b8f1000f00f1ff30e3
:102a540014bf2d232b2333542269059b0093013a81
:102a64002b46121a3118384600f016f87b68db053d
:102a740003d563689842b8bf184606b0bde8f08134
:102a84000807d2d42946d1e71a07e5d5013820230f
:082a9400e1e70029c0dac5e703
:020000040000fa
:020000040040ba
:102a9c002de9ff471d460c9b13f0010906468a469b
:102aac00144601d195420bd822465146304600f0cf
:102abc00ecf9a54204d82546284604b0bde8f087b9
:102acc002f1b102f3a464ff0200128bf10226846ca
:102adc00b84600f05bfa00bfb8f10f0f11d83b09f4
:102aec006ff00f0202fb03726946304600f0cdf91d
:102afc00b9f1000fe0d122465146304600f0c5f93d
:102b0c00dae710226946304600f0bff9a8f1100848
:042b1c00e2e700bf2d
:020000040000fa
:020000040040ba
:102b2000842910b523d00cdc812903d0822913d04d
:102b300080290bd119680c1d1c600b6803601a609a
:102b400013e0902921d003dc882917d0002010bd84
:102b5000a029efd0c029ece719680c1d1c600b6898
:102b60000360d1171046c3e900010120efe719689f
:102b70000c1d1c600b6803601a80f6e719680c1db9
:102b80001c600b6803601a70efe719680c1d1c606d
:0c2b900009680160d317c1e90023e6e7e3
:020000040000fa
:020000040040ba
:102b9c002de9f84f04460c9f6668d4f80cb02469f4
:102bac0010463a68013c002502f0020a0b9a0bf819
:102bbc000450002e1946b8bf0126012390464fea57
:102bcc00e279002c03dcd3b12046bde8f88f50ea43
:102bdc00010209d1721b002a06dc0a9a521b002a38
:102bec00f1ddbaf1000feed042464b4600f020f971
:102bfc00013c134630320bf804200135e1e73b6809
:082c0c0023f010033b60dfe739
:020000040000fa
:020000040040ba
:102c14000e4a38b5002313600d4a0e4c13600e4a59
:102c24000e4d13600e4a13600e4a13600e4a53622f
:102c340013610123936000f0a2f900f0a0f9ac4203
:102c440000d338bd54f8043b9847f8e750014020be
:102c5400940040207401400090004020780140001e
:0c2c6400880040208c0040209800402098
:020000040000fa
:020000040040ba
:102c700030b589b015464ff0ff32019202f20312cf
:102c8000029200b96846cde9030151b14c1e0029fa
:102c9000059408da094b4f221a604ff0ff3009b053
:102ca00030bd0c46f3e700220270cde906001a465b
:102cb000294601a800f032f9f1e700bf5401402095
:020000040000fa
:020000040040ba
:102cc00080b582b000af7860fef722f8fff78afc8b
:102cd000fdf7d8fdfef7c2fafef784ff084b4ff46c
:102ce00000425a60074b4ff400425a60fdf750fa19
:102cf000fff776fbfff7c8fa00bf0837bd4680bd77
:082d000000190e4050180e40ae
:020000040000fa
:020000040040ba
:102d080010b50278202a034600f10100f9d0a2f19b
:102d180009010429f5d92b2a07d02d2a11d101211f
:102d28000133013b00200a2403e00021f8e7604357
:102d3800801a13f8012f303a092af8d901b940420c
:062d480010bd0021ede7c3
:020000040000fa
:020000040040ba
:022d4e00fee79e
:020000040000fa
:020000040040ba
:102d500010b5054c227832b9044b13b10448aff3d7
:102d600000800123237010bd0001402000000000fe
:102d70000000000008b5034b1bb103490348aff343
:102d8000008008bd00000000040140200000000099
:020000040000fa
:020000040040ba
:102d900030b50d4a002300bf12f8134024b902ebee
:102da00043035b78184630bd01680d78a54209bf22
:102db00002eb430301335b78013114bfdbb20160e6
:0c2dc0000a2be9d9eee700bf6c2f4000a1
:020000040000fa
:020000040040ba
:102dcc0080b485b000aff860b9607a604ff0ff3323
:102ddc0018461437bd465df8047b704780b485b047
:102dec0000aff860b9607a604ff0ff3318461437c3
:082dfc00bd465df8047b704741
:020000040000fa
:020000040040ba
:102e040070b50b480b4d4ff6ff76016821b9436846
:102e140013b900f09cf870bd83684268334000f138
:102e24000c0455f823302046984704eb8000ece767
:082e3400d0274000842f40006c
:020000040000fa
:020000040040ba
:102e3c0053b94ab9002908bf00281cbf4ff0ff3115
:102e4c004ff0ff3000f0deb8adf1080c6de904cea8
:102e5c00fff708f8ddf804e0dde9022304b0704761
:020000040000fa
:020000040040ba
:102e6c00802910db812901dd83290cd113680733fc
:102e7c0023f0070303f108011160d3e90023c0e933
:0a2e8c00002301207047002070476a
:020000040000fa
:020000040040ba
:102e960038b50569954228bf154604465db12a46f0
:102ea600406900f02af8636922692b44551b002209
:082eb600636125611a7038bd4b
:020000040000fa
:020000040040ba
:102ebe0080b400affee780b400affee780b400af91
:102ece00fee780b400affee780b400affee780b44b
:042ede0000affee75c
:020000040000fa
:020000040040ba
:102ee20010b50023934206d113f0030018bf01204e
:0e2ef20000eb930010bdc45ccc540133f2e73a
:020000040000fa
:020000040040ba
:102f00005ab110b40a44431e11f8014b03f8014fa3
:0c2f10009142f9d15df8044b7047704706
:020000040000fa
:020000040040ba
:102f1c0013b50446019201aafef7befc636813f0d8
:0c2f2c00100f18bf4ff0ff3002b010bdb6
:020000040000fa
:020000040040ba
:102f38000eb403b503aa52f8041b019200f04bf833
:0a2f480002b05df804eb03b070471f
:020000040000fa
:020000040040ba
:022f52007047c6
:020000040000fa
:020000040040ba
:102f540003783bb1034600bf13f8012f002afbd1cd
:082f6400181a70471846704767
:020000040000fa
:020000040040ba
:102f6c0068076c094c836a9074a07ac000806888ea
:062f7c0000846c8200815c
:020000040000fa
:020000040040ba
:022f8200704796
:020000040000fa
:020000040040ba
:102f8400bf2f4000e32e4000fd2f4000fd2f4000e6
:042f9400fd2f4000cd
:020000040000fa
:020000040040ba
:102f980032b1c9b20244034603f8011b9342fbd184
:042fa800704700bfaf
:020000040000fa
:020000040040ba
:102fac0008b5fff721fdfff7c9fcbde80840fff7a6
:022fbc00b1bda5
:020000040000fa
:020000040040ba
:102fbe000a440023914201d10020704701f8013be1
:022fce00f8e722
:020000040000fa
:020000040040ba
:0e2fd000a0f14103192b98bf40f0200070477c
:020000040000fa
:020000040040ba
:0c2fde0013460a466ff00041fff743bea7
:020000040000fa
:020000040040ba
:0a2fea0080b483b000af7860fee70a
:020000040000fa
:020000040040ba
:082ff400286e696c290025001c
:020000040000fa
:020000040040ba
:042ffc0000207047fa
:020000040000fa
:020000040040ba
:0430000000207047f5
:020000040000fa
:020000040040ba
:0430040000207047f1
:020000040000fa
:020000040040ba
:0430080000207047ed
:020000040000fa
:020000040040ba
:04300c00fff7e0bf2b
:020000040000fa
:020000040040ba
:04301000704700bf46
:020000040000fa
:02000004d0002a
:0400000002000000fa
:00000001FF
