:020000040000fa
:020000040040ba
:10000000f8ff47208d264000572f40005d2f40000d
:10001000692f40006f2f4000752f40000000000046
:100020000000000000000000000000002b2b40003a
:10003000632f4000000000002b2b40002b2b4000c2
:100040002b2b40002b2b40002b2b40002b2b400058
:100050002b2b40002b2b40002b2b40002b2b400048
:100060002b2b400000000000a51140002b2b40006e
:100070002b2b40002b2b40002b2b40002b2b400028
:100080002b2b40002b2b40002b2b4000090640005f
:100090002b2b40002b2b40002b2b400045254000f4
:1000a0002b2b40002b2b40002b2b40002b2b4000f8
:1000b0002b2b40002b2b40002b2b40002b2b4000e8
:1000c0002b2b40002b2b40002b2b40002b2b4000d8
:1000d0002b2b40002b2b40002b2b40002b2b4000c8
:1000e0002b2b40002b2b40002b2b40002b2b4000b8
:1000f0002b2b40002b2b40002b2b40002b2b4000a8
:100100002b2b40002b2b40002b2b40002b2b400097
:100110002b2b40002b2b40000000000000000000b3
:100120002b2b40002b2b4000b91140002b2b400003
:100130002b2b40002b2b4000000000002b2b4000fd
:100140002b2b40002b2b40002b2b40002b2b400057
:100150002b2b40002b2b40002b2b40002b2b400047
:080160002b2b40002b2b40006b
:020000040000fa
:020000040040ba
:10016800f8b500bff8bc08bc9e467047f12d4000aa
:10017800f8b500bff8bc08bc9e467047cd2d4000be
:020000040000fa
:020000040040ba
:080188002c2000000100000022
:020000040000fa
:020000040040ba
:1001900080b400af134b80221a60124b28221a60e1
:1001a000104b1b6903f07c520e494bf2c0131343f2
:1001b0000b610c4b4ff080721a600a4b07229a6257
:1001c000084b4ff440725a62064b04221a60064be9
:1001d00000225a77044b00221a7700bfbd465df813
:1001e000047b704700800140d800402080b400affd
:1001f0000e4b02221a770e4b5b680d4a43f4805374
:1002000053600a4b1b69012b03d1094b03221a606f
:1002100002e0074b01221a6062b600bf044b0322c2
:100220005a6200bfbd465df8047b7047d80040208d
:100230000080014080b584b000af03460a46fb80d1
:1002400013467b714ef66023fb60fb887f2b0dd934
:10025000fb881b0a1b0403f4fe033d4a43f480732e
:100260005360fb883a4adbb2d36005e0fb881b048d
:10027000374a03f4fe035360364b00225a61354b74
:1002800000229a617b7983f00103dbb2002b55d009
:10029000304bdb68012b41d12e4b1b69002b13d156
:1002a0002c4b04221a772b4b5b681a78284b5a6325
:1002b000284b5b690133274a5361254b02221a60a0
:1002c000234b01225a6239e072b600bf214b5b68b2
:1002d0001a781f4b5a631f4b5b6901331d4a5361e8
:1002e00000bf1b4b1b6a03f00503002bf9d10ce088
:1002f000fb68002b06d1174b02225a7762b600bf6b
:10030000002321e0fb68013bfb60114b1b6a03f0fb
:100310000403002becd001237b710fe00d4b032273
:100320001a770c4b5b681a78094b5a63094b5b6967
:100330000133084a5361064b05225a627b79002b30
:1003400001d0fff753ff012318461037bd4680bd8b
:1003500000800140d800402080b483b000af7860b6
:1003600039607b68002b05d0054a7b681362044a1c
:100370003b68536200bf0c37bd465df8047b704795
:10038000d800402080b400af064b1b7f5bb2002b2f
:1003900001d1002300e001231846bd465df8047b2f
:1003a000704700bfd800402080b400af094b002246
:1003b0005a77084b00221a77074b07229a62064b9e
:1003c00008221a60044b04221a6000bfbd465df883
:1003d000047b7047d80040200080014080b584b085
:1003e00000af0346b9607a60fb81174b1b7f5bb29d
:1003f000002b01d0002323e0144b1b6a03f0407351
:10040000b3f1407f04d0104b02225a77002317e04b
:100410000d4afb8913800c4abb6893600a4a7b68cb
:100420001361094b00225a60074b0022da60064b29
:1004300000225a77fb8901211846fff7fbfe03468d
:1004400018461037bd4680bdd800402000800140ce
:1004500080b584b000af0346b9607a60fb81174b6a
:100460001b7f5bb2002b01d0002323e0144b1b6adf
:1004700003f04073b3f1407f04d0104b02225a774f
:10048000002317e00d4afb8913800c4b00229a6071
:100490000a4b00221a61094abb685360074a7b680d
:1004a000d360064b00225a77fb8900211846fff7dc
:1004b000c1fe034618461037bd4680bdd800402017
:1004c0000080014080b584b000afb9607a603b60c5
:1004d0000346fb81174b1b7f5bb2002b01d000232f
:1004e00023e0154b1b6a03f04073b3f1407f04d047
:1004f000104b02225a77002317e00e4afb89138023
:100500000c4a3b6893600b4abb691361094abb689c
:100510005360084a7b68d360064b00225a77fb89f8
:1005200000211846fff786fe034618461037bd46e1
:1005300080bd00bfd80040200080014080b483b05f
:1005400000af0023fb71064b5b7ffb71044b002265
:100550005a77fb7918460c37bd465df8047b704727
:10056000d800402080b487b000af786039600023a5
:10057000fb747b68002b01d1002339e07b681b688a
:10058000fb60fb681d4a934201d9002330e03b68c1
:10059000002b01d11a4b3b60fb685b003a68b2fb51
:1005a000f3f3033b7b6105e0fb7c0133fb747b6968
:1005b0005b087b617b69ff2b02d9fb7c062bf3d99f
:1005c0007b69ff2b01d9002312e00e4b1b6903f05e
:1005d0007c527b69dbb21a437b691b029bb21a43d4
:1005e000fb7c1b0403f4e023064913430b61012346
:1005f00018461c37bd465df8047b704700093d0076
:1006000080d1f0080080014080b586b000af7d4bfe
:100610005b6a3b617c4b1b6afb60fb6803f4807385
:10062000002b05d0774bff221a77764b01225a77a1
:10063000fb6803f00103002b08d0734b08221a60fb
:10064000714b04221a60704b07229a62fb6803f414
:100650000073002b02d06b4b01221a77694b5b7f32
:10066000dbb2002b40f0d380664b1b7f5bb2013bbb
:10067000032b00f2c18001a252f823f08d06400046
:1006800079074000b5064000e70740005d4bdb6896
:10069000002b07d05b4b1b889bb200211846fff74d
:1006a000c9fdb4e0574b1b889bb201211846fff7e8
:1006b000c1fdace0fb6803f00403002b00f09e805a
:1006c000504b5b697b614f4bdb68013b7a699a4217
:1006d0000cbf01230023fb724a4b1b69002b14d073
:1006e000fb7a002b11d072b600bf474b04229a62ee
:1006f000444b5a687b6913441a78434b5a637b69ad
:1007000001337b61fff772fd2fe03e4bdb68013b5d
:100710007a699a421fd13b4b5a687b6913441a7815
:10072000394b5a637b6901337b61374b02221a6074
:10073000354b04229a62344b1b6afb60fb6803f062
:100740000103002b03d02f4b05221a770de02d4b10
:1007500004221a7709e02b4b5a687b6913441a78f4
:10076000294b5a637b6901337b61264a7b6953615c
:10077000254b1b6afb6041e0fb6803f00203002b82
:100780003ed0204b9b697b601e4b1b69023b7a6805
:100790009a4202d11c4b02221a601b4b196b194b57
:1007a0009a687b681344cab21a707b6801337b6015
:1007b000144b1b697a689a4211d1134b02229a6238
:1007c000114b1b6afb60fb6803f00103002b03d095
:1007d0000c4b05221a7702e00a4b04221a77094ac9
:1007e0007b6893610ce0fb6803f00103002b0dd0e4
:1007f000044b05221a7709e000bf08e000bf06e0bd
:1008000000bf04e0d80040200080014000bf1d4b25
:100810001b7f5bb2b3f1ff3f13d11a4b00221a7753
:10082000194b07229a62184b08221a60164b0422b1
:100830001a60144b1b6a002b03d0124b1b6a3869d9
:100840009847104b1b7f5bb2052b17d10d4b002235
:100850005a770c4b00221a770b4b07229a620a4bed
:1008600008221a60084b04221a60064b1b6a002bf0
:1008700004d0044b1b6a3869984700bf00bf183783
:0c088000bd4680bdd80040200080014033
:020000040000fa
:020000040040ba
:10088c0080b400af034b044a1a6000bfbd465df84c
:10089c00047b7047000c0e400006000480b586b047
:1008ac0000aff860b9607a607b687b61ba6879697f
:1008bc00f86802f099fb012318461837bd4680bd35
:1008cc0080b489b000af7860234b5b6903f480334c
:1008dc00002b26d07b68bb614ff400537b617b6996
:1008ec00002b1dddbb6903f01f027b6913443b61c8
:1008fc00bb69fb60bff34f8f00bf174afb68c2f8a0
:10090c005c32fb682033fb603b69203b3b613b69fd
:10091c00002bf2dcbff34f8f00bfbff36f8f00bf14
:10092c0000bf7b68a3f580035b0afb83fb8b43f062
:10093c0002039bb21b02094a1a400949094b134393
:10094c004b60094b00221a60012318462437bd4620
:10095c005df8047b704700bf00ed00e000ffff0076
:10096c00000c0e400700005a4801402080b489b0aa
:10097c0000af786039603b68a3f580035b0a7b832a
:10098c000023fb6112e07b8b03f500535a02fb69d9
:10099c0013441a467b681b6813607b6804337b60c6
:1009ac00bff35f8f00bffb690433fb61fb69b3f5d9
:1009bc00007fe8d3bff34f8f00bfbff36f8f00bf33
:1009cc00194b5b6903f48033002b26d03b687b61a9
:1009dc004ff400733b613b69002b1ddd7b6903f019
:1009ec001f023b691344fb607b69bb60bff34f8ff5
:1009fc0000bf0d4abb68c2f86832bb682033bb60cd
:100a0c00fb68203bfb60fb68002bf2dcbff34f8fd5
:100a1c0000bfbff36f8f00bf00bf01231846243700
:100a2c00bd465df8047b704700ed00e080b485b0f6
:100a3c0000af78607b68a3f580035b0afb81bff392
:100a4c004f8f00bfbff36f8f00bffb891b02084a9b
:100a5c001a400849084b13434b60084b00221a609c
:100a6c00012318461437bd465df8047b704700bf60
:100a7c0000ffff00000c0e400100005a480140200e
:100a8c0080b489b000af786039603b68a3f580030f
:100a9c005b0a7b830023fb6112e07b8b03f5005325
:100aac005a02fb6913441a467b681b6813607b6807
:100abc0004337b60bff35f8f00bffb690433fb61c2
:100acc00fb69b3f5007fe8d3bff34f8f00bfbff3d3
:100adc006f8f00bf1f4b5b6903f48033002b26d054
:100aec003b687b614ff400733b613b69002b1ddd60
:100afc007b6903f01f023b691344fb607b69bb609d
:100b0c00bff34f8f00bf134abb68c2f86832bb6893
:100b1c002033bb60fb68203bfb60fb68002bf2dce6
:100b2c00bff34f8f00bfbff36f8f00bf00bf7b8b36
:100b3c001b02094a1a400949094b13434b60094be4
:100b4c0000221a60012318462437bd465df8047b49
:100b5c00704700bf00ed00e000ffff00000c0e40ee
:100b6c000100005a4801402080b489b000af786081
:100b7c0039603b68a3f580035b0a7b830023fb6130
:100b8c000ce03a68fb6913441a467b681b681360d7
:100b9c007b6804337b60fb690433fb61fb690f2bbf
:100bac00efd91f4b5b6903f48033002b25d03b68d6
:100bbc007b6110233b613b69002b1ddd7b6903f0de
:100bcc001f023b691344fb607b69bb60bff34f8f13
:100bdc0000bf134abb68c2f86832bb682033bb60e5
:100bec00fb68203bfb60fb68002bf2dcbff34f8ff4
:100bfc0000bfbff36f8f00bf00bf7b8b1b02094a86
:100c0c001a400949094b13434b60094b00221a60e7
:100c1c00012318462437bd465df8047b704700bf9e
:100c2c0000ed00e000ffff00000c0e400100005a38
:100c3c004801402080b485b000af78607b68a3f594
:100c4c0080035b0afb81fb891b02074a1a40074998
:100c5c00074b13434b60074b00221a6000bf14373d
:100c6c00bd465df8047b704700ffff00000c0e4092
:100c7c000800005a4801402080b485b000af78606d
:100c8c007b68a3f580035b0afb81fb891b02074a87
:100c9c001a400749074b13434b60074b00221a605d
:100cac0000bf1437bd465df8047b704700ffff00a2
:100cbc00000c0e400900005a4801402080b400afdf
:100ccc000a4b9a680a4b1b681343094a1360084b7a
:100cdc001b6803f00103002b0cbf01230023dbb2c4
:100cec001846bd465df8047b704700bf000c0e40f3
:100cfc004801402080b400af064b9a68064b1b6835
:100d0c001343054a1360044b1b681846bd465df837
:0c0d1c00047b7047000c0e404801402092
:020000040000fa
:020000040040ba
:100d280080b483b000af764b0022c3f81421754b12
:100d380000221a67734b40225a67724b58225a6036
:100d4800704b6ff058021a606e4b4ff0ff325a65c5
:100d58006c4b6ff002021a666a4b02225a66694ba4
:100d68004ff0ff32c3f89020664b4ff0ff32c3f8c4
:100d7800a020644b00221a61624b4ff0ff325a6187
:100d8800604b00229a635f4b0222c3f8b0205d4b90
:100d98000222c3f8d4205b4bdb6c5a4b0022c3f809
:100da8001821594b4ff0ff321a60574b4ff0ff3262
:100db8005a65554b4ff0ff321a66534b4ff0ff32ce
:100dc800c3f89020504b4ff0ff32c3f8a0204e4b91
:100dd80000221a614c4b4ff0ff325a614a4b0022f5
:100de8009a63494b0022c3f81821484b4ff0ff3251
:100df8001a60464b4ff0ff325a65444b4ff0ff32b2
:100e08001a66424b4ff0ff32c3f890203f4b4ff029
:100e1800ff32c3f8a0203d4b00221a613b4b4ff034
:100e2800ff325a61394b00229a63384b0022c3f8cb
:100e38001821374b4ff0ff321a60354b4ff0ff3215
:100e48005a65334b4ff0ff321a66314b4ff0ff3281
:100e5800c3f890202e4b4ff0ff32c3f8a0202c4b44
:100e68004ff400021a612a4b6ff400025a61284bb2
:100e78004ff400029a63264b0022c3f81821254b31
:100e88004ff0ff321a60234b4ff0ff325a65214b67
:100e98004ff0ff321a661f4b4ff0ff32c3f8902015
:100ea8001c4b4ff0ff32c3f8a0201a4b00221a61e6
:100eb800184b4ff0ff325a61164b00229a63154bbc
:100ec8000022c3f81821144b01221a6000237b600a
:100ed8000ce011497a6813465b0013449b000b44ed
:100ee800043300221a607b6801337b607b68002b27
:100ef800efd000bf00bf0c37bd465df8047b7047dc
:100f080000800840000e0e4000100e4000120e40f7
:100f180000140e4000160e402c01402080b483b00f
:100f280000af78607b68db6b18460c37bd465df810
:100f3800047b704780b485b000aff860b9607a6010
:100f4800fb689a6bbb68db4302ea0301ba687b68fb
:100f58001a40fb680a439a6300bf1437bd465df820
:100f6800047b704780b483b000af78607b689b6b6c
:100f780018460c37bd465df8047b704780b483b0d3
:100f880000af786039607b683a681a6300bf0c3735
:100f9800bd465df8047b704780b483b000af7860cd
:100fa80039607b683a685a6300bf0c37bd465df804
:100fb800047b704780b483b000af786039607b6889
:100fc800996b7b683a684a409a6300bf0c37bd4604
:100fd8005df8047b704780b483b000af78603960f7
:100fe8007b683a685a6100bf0c37bd465df8047be0
:100ff800704780b483b000af786039607b683a6826
:101008001a6100bf0c37bd465df8047b704780b499
:1010180083b000af786039607b683a681a6400bfb3
:101028000c37bd465df8047b704780b483b000afd1
:10103800786039607b683a685a6400bf0c37bd46ef
:101048005df8047b704780b487b000aff860b96082
:101058007a60fb68dbb25b09bb75bb7d1b4ad35c5e
:10106800fb7523e0fa7d1a4913465b0013449b0085
:101078000b441b68fa689a4215d1fa7d1449134645
:101088005b0013449b000b440433ba681a60fa7d72
:101098000f4913465b0013449b000b4408337a68de
:1010a8001a6001230be0fb7d0133fb75bb7d013327
:1010b800064ad35cdbb2fa7d9a42d3d300231846a2
:1010c8001c37bd465df8047b704700bf58014020bf
:1010d8002c01402080b588b000af78607b68db6c5d
:1010e800bb617b689b6cba691340bb617a68284b0b
:1010f80013445b0a7b61274a7b6913441b78dbb284
:10110800fb6136e02449fa6913465b0013449b00ef
:101118000b441b683b612049fa6913465b00134482
:101128009b000b4404331b68002b1fd03b6903f062
:101138001f03ba6922fa03f303f00103002b15d049
:101148001549fa6913465b0013449b000b440833a6
:101158001b68fb601049fa6913465b0013449b0047
:101168000b4404331b68f96838699847fb690133f5
:10117800fb617b690133074ad35cdbb21a46fb6922
:101188009342bfd300bf00bf2037bd4680bd00bf1c
:1011980000f2f1bf580140202c01402080b500af7b
:1011a8000248fff797ff00bf80bd00bf000e0e404a
:020000040000fa
:020000040040ba
:1011b80080b584b000af0023fb605de0324afb6875
:1011c8001b0113441b78fb722f4afb681b01134455
:1011d80008331b687b60fb7a002b4ad02b4b5a697b
:1011e800fb6822fa03f303f00103002b41d0274ade
:1011f800fb689b0113445c331b683b603b6803f04e
:101208007003002b18d0204afb681b0113440c33d1
:1012180000221a701c4afb681b01134404331b6824
:10122800002b26d0184afb681b01134404331b68a3
:101238007968022098471ce03b6803f00103002b03
:1012480017d0114afb681b0113440c3300221a7093
:101258000d4afb681b01134404331b68002b08d09c
:10126800094afb681b01134404331b687968012091
:101278009847fb680133fb60fb68002b9ed000bfda
:1012880000bf1037bd4680bd1c01402000800740cc
:1012980080b483b000af0023fb710023fb711de015
:1012a800fb79194a1b01134400221a70fb79164a6c
:1012b8001b011344043300221a60fb79124a1b01f4
:1012c8001344083300221a60fb790f4a1b011344a8
:1012d8000c3300221a70fb790133fb71fb79002b68
:1012e800ded00a4b0a4a9a67084b71221a65074be7
:1012f8000122da60044b01221a7000bf0c37bd4688
:101308005df8047b704700bf1c0140200080074047
:101318001140011680b485b000af0346b9607a6009
:10132800fb73fb7b094a1b0113440433ba681a6038
:10133800fb7b064a1b01134408337a681a6000bf16
:101348001437bd465df8047b704700bf1c01402080
:1013580080b489b000afb9607a603b600346fb7324
:1013680000233b610023fb77bb68bb617b687b6123
:10137800fb7b264a1b0113440c331b78dbb283f03a
:101388000103dbb2002b08d1214b5a6afb7b22fafe
:1013980003f303f00103002b30d11d4afb7b9b01b3
:1013a80013445c331b683b613b69fb7b174a1b0199
:1013b80013440c3301221a701549fb7bba699b014f
:1013c8000b4460331a601249fb7b7a699b010b441a
:1013d80064331a600e49fb7b3a6822f07f429b0116
:1013e8000b4470331a60bff35f8f00bffb7b084a62
:1013f800012101fa03f3d3610123fb77fb7f184630
:101408002437bd465df8047b704700bf1c014020af
:101418000080074080b483b000af0346fb71fb79be
:101428000e4a1b0113440c331b78dbb2002b0ad085
:101438000b4b5a6afb7922fa03f303f00103002be2
:1014480001d0012300e0002303f00103dbb21846ba
:101458000c37bd465df8047b704700bf1c01402077
:101468000080074080b485b000af0346fb710023bd
:10147800fb730e4afb799b0113445c331b68bb600a
:10148800bb6803f07003002b02d00223fb7306e055
:10149800bb6803f00103002b01d00123fb73fb7b26
:1014a80018461437bd465df8047b70470080074036
:1014b80080b483b000af0346fb71fb79084a012171
:1014c80001fa03f31362fb79064a1b0113440c3338
:1014d80000221a7000bf0c37bd465df8047b7047c8
:1014e800008007401c01402080b483b000af034651
:1014f800fb71064afb799b01134478331b68184635
:101508000c37bd465df8047b704700bf008007407c
:1015180080b483b000af03463960fb71fb79094a98
:10152800012101fa03f31362064afb799b01134474
:1015380078333a681a60012318460c37bd465df8bf
:10154800047b70470080074080b483b000af034637
:101558000a46fb711346bb80fb79094a012101fa4f
:1015680003f313620649fb79ba889b010b44743371
:101578001a6000bf0c37bd465df8047b704700bf9a
:101588000080074080b483b000af0346fb71fb794d
:10159800054a012101fa03f3136300bf0c37bd4666
:1015a8005df8047b704700bf0080074080b483b0bb
:1015b80000af0346fb71fb79054a012101fa03f3e9
:1015c800536300bf0c37bd465df8047b704700bf0e
:0415d8000080074048
:020000040000fa
:020000040040ba
:1015dc002de9f047aeb00746164605914ff00008ce
:1015ec00059d2b78002b00f0e08000244ff0ff339a
:1015fc00cde909430eab0c9380230b940d932b5d1b
:10160c000bb1252b30d134b129462246384625441e
:10161c0001f075fc0595059b1a78252a40f0bc80d5
:10162c0003f10109cdf814904a46002113782b2bb5
:10163c00104602f1010223d02ed8202b24d0232bcc
:10164c0026d001b105902a2b2ed001f095fb059ade
:10165c000b900020114601320b78303b092b79d9c5
:10166c00002830d005912ee00134c8e7099b43f0e7
:10167c00010309930121d9e7099b43f00203f8e721
:10168c00099b43f00403f4e7099b43f00803f0e7dc
:10169c00099b43f01003ece72d2be7d0302bebd05c
:1016ac000029d2d00590d0e733681a1d1b68326030
:1016bc000130002b05900b9305da099a5b4282f0fe
:1016cc00010209920b93099bda0744bf23f0020332
:1016dc000993059b1a782e2a0fd14ff0000acdf8ea
:1016ec0028a05a785d1c2a2a059535d1023305931a
:1016fc0033681a1d1b6832600a9305a801f09cfb25
:10170c00059d0390287801f0b9fc2528039900f079
:10171c00da806138172800f2e080172800f2dd80ab
:10172c00dfe810f02b00db00b6004700a700a70095
:10173c00a700db004700db00db00db00db009e00ca
:10174c0065008300db00db00c700db005600db001c
:10175c00db00740001207de7284601f00dfb5346a9
:10176c000a90294601350a78303a092a03d9002b08
:10177c00c3d00591c1e70123f3e7324606a801f077
:10178c00a9fb002872d06b1c059306aa2b7809a91b
:10179c00384601f08dfc04444444a04540f3a78036
:1017ac00544b4f221a604ff0ff3840462eb0bde824
:1017bc00f0873346012206a801f042f8002855d0e4
:1017cc00013506aa09a93846059501f056f9e2e754
:1017dc003346002206a801f033f8002846d0013524
:1017ec0006aa09a93846059501f060fcd3e73346f3
:1017fc00002206a801f024f8002837d0013506aaeb
:10180c0009a93846059501f051fcc4e7334600227e
:10181c0006a801f015f848b36b1c05932b7806aaa3
:10182c0009a9384601f044fcb5e733460022f02103
:10183c0006a801f005f8c8b1dde9063201351343fd
:10184c0005950bd12c4801f0dbfb099b00932a4931
:10185c000b9b0246384601f063f99ce77823dee7e0
:10186c00334608eb040206a801f0d4f901350595be
:10187c0092e7324606a801f02dfb0028f6d06b1c2f
:10188c00059306aa2b7809a9384601f011fc82e7ca
:10189c008029ebd1336801351a1d1b6832608df835
:1018ac0018300595012306aa09a9384601f002fc57
:1018bc0071e78029dad13268131d33600135126863
:1018cc0005950023f0e78029d0d1099b00930135c1
:1018dc000b9b059509490122bce700234ff0ff3211
:1018ec00cdf8149009930b930a920093f2e7a0465b
:1018fc0076e600bf54014020ac304000b2304000ce
:020000040000fa
:020000040040ba
:10190c0080b582b000af78607b685a09084b1344ed
:10191c005a027b6803f01f03012101fa03f31946f5
:10192c001046fff772fb00bf0837bd4680bd00bff5
:10193c000707200080b485b000af78607b681b7807
:10194c001bb21b021ab27b6801331b781bb2134308
:10195c00fb81b7f90e30db111bb207ee903ab8eef3
:10196c00e77bb6ee006b27ee067bfdeec77b17ee32
:10197c00903afb81b7f90e201346db001344094a59
:10198c0082fb03125210db17d31a9bb220339bb28b
:10199c00fb81fb89dbb218461437bd465df8047b2e
:1019ac00704700bf6766666680b483b000af78602e
:1019bc003960044b01221a7000bf0c37bd465df82c
:1019cc00047b70470100402080b483b000af786086
:1019dc003960044b01221a7000bf0c37bd465df80c
:1019ec00047b70470000402080b582b000af786067
:1019fc00fef79efd0346002b02d1034b01221a7009
:101a0c0000bf0837bd4680bd0300402080b483b0c2
:101a1c0000af03463960fb71fb79012b02d1044bfb
:101a2c0001221a7000bf0c37bd465df8047b70476d
:101a3c000200402080b586b002af002001f078f99a
:101a4c0000216148fef782fc002260490020fff76c
:101a5c005ffc00215e4800f05bfd00225d49012027
:101a6c00fff7effa0120fff74bff00f007fd5a4b91
:101a7c001b78dbb2002b0ad0574b00221a700223c2
:101a8c000093564b012256494f20fef715fd554b3e
:101a9c001b78dbb2002bead0524b00221a70524b4f
:101aac001b78dbb283f00103dbb2002b15d04b4863
:101abc00fff740ff03461a464c4b1a704b4b1b78f2
:101acc00dbb21a464a494b4801f080fa4a4b9b6bf1
:101adc00494a83f40003936345e0434b00221a7098
:101aec00464b1b78dbb2002b0bd1444b01221a70f6
:101afc004349404801f06afa4ff47a7000f0dffc79
:101b0c0031e03e4b1b78dbb2012b0bd13b4b02225d
:101b1c001a703c49374801f059fa4ff4fa6000f05a
:101b2c00cefc20e0354b1b78dbb2022b0bd1334bb8
:101b3c0003221a7034492f4801f048fa4ff47a60a6
:101b4c0000f0bdfc0fe02d4b1b78dbb2032b0ad150
:101b5c002a4b00221a702d49264801f037fa4ff40f
:101b6c00fa7000f0acfc234bfb606423bb60bb68d9
:101b7c00002b1dddfb6803f01f02bb6813447b6068
:101b8c00fb683b60bff34f8f00bf214a3b68c2f834
:101b9c0068323b6820333b607b68203b7b607b6812
:101bac00002bf2dcbff34f8f00bfbff36f8f00bf72
:101bbc0000bf104801f024fa0346164a0d490020d4
:101bcc00fff7c4fb53e700bff5194000191a40009a
:101bdc00d5194000b51940000000402008004020f5
:101bec00050040200300402001004020040040205c
:101bfc00d02940002000402000140e4084004020da
:101c0c00e8294000102a4000382a4000602a400091
:081c1c0000ed00e01c0a0e407f
:020000040000fa
:020000040040ba
:101c240080b485b000af78607b6803f00703fb6085
:101c34000b4bdb68bb60ba684ff6ff031340bb6015
:101c4400fb681a02bb681a43064b1343bb60044a81
:101c5400bb68d36000bf1437bd465df8047b704792
:101c640000ed00e00000fa0580b483b000af034645
:101c7400fb7197f90730002b0bdbfb7903f01f0294
:101c8400074997f907305b09012000fa02f241f88d
:101c9400232000bf0c37bd465df8047b704700bfae
:101ca40000e100e080b483b000af0346fb7197f914
:101cb4000730002b0ddb0a4a97f907305b0952f80d
:101cc4002320fb7903f01f0322fa03f303f001033b
:101cd40000e0002318460c37bd465df8047b7047ce
:101ce40000e100e080b483b000af0346fb7197f9d4
:101cf4000730002b12dbfb7903f01f020a4997f926
:101d040007305b09012000fa02f2203341f8232056
:101d1400bff34f8f00bfbff36f8f00bf00bf0c37ff
:101d2400bd465df8047b704700e100e080b483b0f9
:101d340000af03463960fb7197f90730002b0adbcb
:101d44003b68dab20c4997f907305201d2b20b441e
:101d540083f800230ae03b68dab20849fb7903f010
:101d64000f03043b5201d2b20b441a7600bf0c3766
:101d7400bd465df8047b704700e100e000ed00e043
:101d840080b500af0020fff74bffbff35f8f00bfac
:101d940062b600bf07210a20fff7c8ff0a20fff739
:101da40063ff07211320fff7c1ff1320fff75cff38
:101db40007211720fff7baff1720fff755ff072168
:101dc4003a20fff7b3ff3a20fff74eff0c4b5b6a54
:101dd4000b4a43f480235362094b5b69084a43f07e
:101de40010035361064b5b6a054a43f400335362a4
:101df400034b5b6a024a43f48033536200bf80bde5
:101e040000ed00e080b400afbff35f8f00bf62b6a7
:101e140000bf00bfbd465df8047b704780b483b04b
:101e240000afeff310833b603b68002b0cbf012332
:101e34000023fb7172b600bfbff35f8f00bffb7955
:101e440018460c37bd465df8047b704780b483b0f8
:101e540000af0346fb71fb79002b04d0bff35f8f07
:101e640000bf62b604e072b600bfbff35f8f00bf6d
:101e740000bf0c37bd465df8047b704780b584b065
:101e840000af0346fb71fff7c9ff0346fb7397f9e5
:101e940007301846fff706ff0346002b14bf012343
:101ea4000023bb7397f907301846fff71bfffb7b32
:101eb4001846fff7cbffbb7b18461037bd4680bde5
:101ec40080b582b000af03460a46fb711346bb716e
:101ed400bb79002b05d097f907301846fff7c4feed
:0c1ee40000bf00bf0837bd4680bd00bf36
:020000040000fa
:020000040040ba
:101ef00080b483b000af0023fb710a4b4ff48072b3
:101f00001a6002e0074b9b69fb71064b5b6903f0ab
:101f10000103012bf6d000bf00bf0c37bd465df8b2
:101f2000047b7047000a0e4080b400af094b4ff4a9
:101f300086721a60074b50221a60064b4ff40062fb
:101f40005a60044b51221a6200bfbd465df8047b03
:101f5000704700bf000a0e4080b582b000af00237a
:101f60007b60084b5b693b603b6803f0e0037b6090
:101f70007b68002b01d0fff7bbff7b681846083752
:101f8000bd4680bd000a0e4080b487b000af7860c7
:101f900039600023fb7500233b617b68002b24d054
:101fa0007b681b68fb603b68002b01d1124b3b60d8
:101fb000fb681b013a68b2fbf3f33b613b69b3f585
:101fc000803f12d20d4b5b68bb60bb6823f460633b
:101fd000bb607b685a680949bb6813434b60074a7a
:101fe0003b699bb213620123fb75fb7d18461c37ce
:101ff000bd465df8047b704780d1f008000a0e40b2
:1020000080b588b000af786039600023fb7700238b
:102010003b610023bb617b687b617b69002b27d020
:10202000fff79afff86017e0144b5b6903f0e003d9
:102030003b613b69002b14d1104b5b6903f001033a
:10204000012b09d10d4b99697b695a1c7a61cab27f
:102050001a70bb690133bb613a68bb699a42e3d825
:1020600000e000bf3a68bb699a4201d10123fb77c7
:10207000fb7f18462037bd4680bd00bf000a0e40da
:1020800080b487b000af786039600023fb7500230f
:102090003b617b68fb60fb68002b15d00ee00e4bac
:1020a0005b6903f00203022b08d1fb685a1cfa603b
:1020b0001a78094bda613b6901333b613a683b6945
:1020c0009a42ecd80123fb75fb7d18461c37bd46b0
:1020d0005df8047b704700bf000a0e4080b483b0f7
:1020e00000af054b9b69dbb27b607b6818460c3701
:1020f000bd465df8047b7047000a0e4080b483b093
:1021000000af786000bf084b5b6903f00203002b4f
:10211000f9d07b68044adbb2d36100bf0c37bd46ff
:102120005df8047b704700bf000a0e4080b483b0a6
:1021300000af0023fb71074b5b6903f00203022b26
:1021400001d10123fb71fb7918460c37bd465df8c0
:10215000047b7047000a0e4080b483b000af0023b8
:10216000fb71074b5b6903f00103012b01d10123d4
:10217000fb71fb7918460c37bd465df8047b704750
:10218000000a0e4080b483b000af0023fb71084bff
:102190005b6903f40073b3f5007f01d10123fb7188
:1021a000fb7918460c37bd465df8047b704700bfcd
:0421b000000a0e40d3
:020000040000fa
:020000040040ba
:1021b4002de9f04786468c460846089e1546744627
:1021c4001946002b40f0c2808242b2fa82f245d90d
:1021d4004ab1c2f1200300fa02fc2efa03f395403f
:1021e40043ea0c0c94404fea154ea8b2bcfbfef82f
:1021f400230c0efb18cc08fb00f943ea0c43994569
:1022040028d9eb1808f1ff3704d2994502d9a8f16f
:1022140002072b44a3eb0903a4b2b3fbfefc0efba1
:102224001c330cfb00f044ea0344a04214d92c19db
:102234000cf1ff3304d2a04202d9acf102032c44c6
:10224400241a43ea07401eb1d4400023346073606b
:10225400bde8f0874746dde76346f1e792bb431be1
:1022640001214fea154eafb2b3fbfefc200c0efb6e
:102274001c330cfb07f840ea0343984562d9eb187a
:102284000cf1ff3004d2984502d9acf102002b4482
:10229400a3eb0803a4b2b3fbfefc0efb1c330cfb44
:1022a40007f744ea0344a7424ed92c190cf1ff3333
:1022b40004d2a74202d9acf102032c44e41b43ea42
:1022c4000040c0e7c2f1200320fa03f1954090409a
:1022d4002efa03f303434fea154eafb2b1fbfefcf3
:1022e4000efb1c10190c0cfb07f841ea0041884551
:1022f40004fa02f422d969180cf1ff3004d288459b
:1023040002d9acf102002944a1eb08019bb2b1fb54
:10231400fefc0efb1c110cfb07f743ea01439f4232
:102324000ed9eb180cf1ff3104d29f4202d9acf163
:1023340002012b44db1b41ea004192e76046e3e7dc
:102344006146f7e76046a3e76346b7e7834206d9e9
:1023540016b9002108467be7c6e900e0f9e7b3fabd
:1023640083f78fb9834201d3724508d8beeb0204c8
:1023740060eb030301209c461eb9002168e7384640
:10238400fae7c6e9004cf8e7c7f1200cbb4022fa93
:102394000cf41c432efa0cf120fa0cf3b840014360
:1023a4004fea14490efa07f5b3fbf9f81ffa84fe55
:1023b40009fb18300b0c08fb0efa43ea00439a455c
:1023c40002fa07f240d9e31808f1ff3004d29a4523
:1023d40002d9a8f102002344a3eb0a0389b2b3fb98
:1023e400f9f809fb183308fb0efe41ea03418e4558
:1023f4002cd9611808f1ff3304d28e4502d9a8f113
:102404000203214443ea0040a0fb0298a1eb0e0121
:102414004145ce46434602d306d14d4504d2b9ebdd
:10242400020e68eb04030138002ea6d0b5eb0e02b1
:1024340061eb030101fa0cfc22fa07f34cea0303f3
:10244400f940c6e9003198e74046c5e74346d9e775
:020000040000fa
:020000040040ba
:1024540080b400af094b4ff440425a60074b4ff42d
:10246400fa72da61054b10225a62054b00221a6097
:1024740000bfbd465df8047b704700bf00c000404c
:102484003801402080b400af034b05221a6000bf1e
:10249400bd465df8047b704700c0004080b400afc7
:1024a400034b02221a6000bfbd465df8047b7047ef
:1024b40000c0004080b400af4ff47a731846bd46a4
:1024c4005df8047b704780b483b000af0346fb80a3
:1024d400044afb88d36100bf0c37bd465df8047b1a
:1024e400704700bf00c0004080b400af034bdb69fd
:1024f4009bb21846bd465df8047b704700c000409f
:1025040080b400af034b1b699bb21846bd465df80f
:10251400047b704700c0004080b483b000af786093
:102524003960064a7b681360044a3b68536000bf05
:102534000c37bd465df8047b704700bf380140206e
:1025440080b582b000af0c4b1b6a03f014037b60b0
:102554000a4b5b683b60094b1b68002b07d07b6808
:10256400002b04d0054b1b6839687868984700bf76
:102574000837bd4680bd00bf00c000403801402080
:020000040000fa
:020000040040ba
:1025840080b400af074b084a9a6200bf054b9b6eac
:1025940003f00203022bf9d100bf00bfbd465df872
:1025a400047b704700060e40013f182080b400af42
:1025b400184b1b6b174a23f07003136300bf154bb2
:1025c4009b6e03f00803082bf9d1124b1b6b23f409
:1025d4004073104a43f48073136300bf0d4b9b6e2a
:1025e40003f00803082bf9d10a4b1b6b23f00303f8
:1025f400084a43f00203136300bf064b9b6e03f0cb
:102604000803082bf9d100bf00bfbd465df8047b69
:10261400704700bf00060e4080b400af0e4b4ff46d
:1026240082425a600c4b00221a640b4b4ff4f8722e
:102634009a65094b4ff482421a6000bf064b9b6ea9
:1026440003f48243b3f5824ff8d100bf00bfbd4607
:102654005df8047b704700bf00060e4080b500aff4
:10266400fff78efffff7a2fffff7d6ff044b054ae3
:102674001a61034b4ff08062c3f8002100bf80bd94
:0826840000060e40001d8b0052
:020000040000fa
:020000040040ba
:10268c0008b5314b9847314b984700f0c3f8002000
:10269c0000f080f800f066f800f0eafb2c4c2d4bb3
:1026ac0023f07f03a3602c4b9847636913f4003f1e
:1026bc0012d1bff34f8fbff36f8f0022c4f850229b
:1026cc00bff34f8fbff36f8f626942f400326261c8
:1026dc00bff34f8fbff36f8f1d4b5b6913f4803fbc
:1026ec002bd11b4b0022c3f88420bff34f8fd3f8a0
:1026fc008030c3f3c90ec3f34e334fea431c43f689
:10270c00e07413480cea0401734641ea8372c0f882
:10271c006022013bb3f1ff3ff7d1acf1200c1cf16f
:10272c00200fefd1bff34f8f094a536943f4803325
:10273c005361bff34f8fbff36f8f084b9847084b14
:10274c009847fff777f9fee74928400049284000f1
:10275c0000ed00e000004000912c400049284000b2
:04276c0049284000b8
:020000040000fa
:020000040040ba
:10277000bff34f8fbff36f8f084bd3f8902222f037
:102780000102c3f89022d3f8942222f00102c3f888
:102790009422bff34f8fbff36f8f704700ed00e0bf
:1027a000174b184a5a601a46936813f0010ffbd072
:1027b000134bdb68144a1360c3f3c11383421dd06b
:1027c00010f0020f0cbf0c220b22104b13430c4acb
:1027d0005360936813f0010ffbd000f00100c0f1cb
:1027e0000c000b4b18600b4b0343054a5360936876
:1027f00013f0010ffbd0084b084a1a60704700bf66
:10280000000c0e400d00005a400140200008005a04
:10281000440140200007005a00180e40010000a5a6
:10282000eff3108172b6074ad2f8883043f4700390
:10283000c2f88830bff34f8fbff36f8f01b962b614
:0c284000704700bf00ed00e0704700bfd3
:020000040000fa
:020000040040ba
:10284c00902910b50fdc7f2913dd8039102910d8a1
:10285c00dfe801f02b2b360f110f0f0f200f0f0f8e
:10286c000f0f0f0f3600c02944d0f02942d0a029f9
:10287c0021d000200de019682ab10a1d1a60b1f9a7
:10288c000030da1702e00c1d1c600b88c0e9003226
:10289c00012010bd196822b10a1d1a6091f900308f
:1028ac00efe70c1d1c600b78f0e71968f2b10a1dfc
:1028bc001a600b68e5e71a68111d19601368e0e7e8
:1028cc00196852b1073121f0070101f108021a60b1
:1028dc00d1e90023c0e90023dae7ca1d22f0070280
:1028ec0002f108011960d2e90023f3e70c1d1c600a
:1028fc000b68cbe71a68111d19601368036000237d
:04290c004360c5e778
:020000040000fa
:020000040040ba
:1029100060014020040000000100000000000000f1
:10292000000140201c000000000000004801402081
:1029300004000000000000005801402006000000d4
:102940000100000000010101010100002c014020f4
:102950001400000000000000d80040202800000003
:10296000000000001c0140201000000000000000da
:10297000400140200800000000000000000040204e
:1029800085000000000000004c0140200400000011
:1029900000000000880040205000000000000000ff
:1029a00050014020080000000000000064014020a9
:1029b0000400000001000000000000000000000012
:1029c000000000006666666666666666666666663f
:020000040000fa
:020000040040ba
:1029d00054656d7065726174757265203d20253097
:1029e000326420460d0a000053616d706c696e6799
:1029f0002054656d706572617475726520657665c9
:102a000072792031207365636f6e64200d0a0000b7
:102a100053616d706c696e672054656d706572618d
:102a200074757265206576657279203220736563ee
:102a30006f6e6473200d0a0053616d706c696e6770
:102a40002054656d70657261747572652065766578
:102a500072792034207365636f6e6473200d0a00f1
:102a600053616d706c696e672054656d706572613d
:102a70007475726520657665727920353030206d09
:052a800073200d0a00a7
:020000040000fa
:020000040040ba
:102a86002de9f041d2e900230c4686b005465feaff
:102a9600d378d1e901060968e76805913fd052422b
:102aa60063eb4303002808db21f002010591b8f12e
:102ab600000f02d10599480722d5711e05a802907c
:102ac6000a20cde90010204600f06bf8b8f1000f9f
:102ad6001ad001382d233b542269059b0093013af5
:102ae6003346121a3918284600f01df86b68db05c4
:102af60003d563689842b8bf184606b0bde8f081b2
:102b06000807dad43146d9e7059b590702d50138bb
:102b16002b23e0e71a07dfd501382023dbe700285f
:042b2600c2dac7e761
:020000040000fa
:020000040040ba
:022b2a00fee7c4
:020000040000fa
:020000040040ba
:102b2c002de9ff471d460c9b13f0010806460f4686
:102b3c00144601d195420bd822463946304600f056
:102b4c00def9a54204d82546284604b0bde8f08736
:102b5c00a5eb04094a46102a28bf102220216846fa
:102b6c00ca4600f06ffa00bfbaf10f0f0ed809f089
:102b7c000f026946304600f0c2f9b8f1000fe3d1fc
:102b8c0022463946304600f0baf9dde71022694694
:0c2b9c00304600f0b4f9aaf1100ae5e799
:020000040000fa
:020000040040ba
:102ba8002de9f84f0446dde90a9a6668d4f80c80e6
:102bb80024690c9f013c1946002e4ff00003d7f8fa
:102bc80000b008f804301046b8bf01264d4601236e
:102bd800002c03dcdbb12046bde8f88f50ea010287
:102be80009d1a6eb09022a44002a04dc002df1ddf4
:102bf8001bf0020feed052464feaea7300f054f988
:102c0800013c1346303208f80420013de0e73b68f8
:082c180023f010033b60dee72e
:020000040000fa
:020000040040ba
:102c2000902910b50fdc7f2911dd803910290ed8cd
:102c3000dfe801f00f0f250d170d0d0d1e0d0d0d09
:102c40000d0d0d0d2500a02903d0c02901d00020b5
:102c500006e019680c1d1c600b6803601a600120f7
:102c600010bd19680c1d1c600b6803601a80f6e724
:102c700019680c1d1c600b6803601a70efe7196877
:102c80000c1d1c600b680360d117c3e90021e6e747
:020000040000fa
:020000040040ba
:102c90000e4a38b5002313600d4a0e4c13600e4add
:102ca0000e4d13600e4a13600e4a13600e4a5362b3
:102cb00013610123936000f0c0f900f0bef9ac424b
:102cc00000d338bd54f8043b9847f8e75001402042
:102cd00094004020740140009000402078014000a2
:0c2ce000880040208c004020980040201c
:020000040000fa
:020000040040ba
:102cec0010b54ff0ff3c88b00c4611461a464ff415
:102cfc008173cde901c300b96846cde9030454b131
:102d0c00631e002c059308da084b4f221a604ff013
:102d1c00ff3008b010bd2346f3e70023cde90600d1
:102d2c00037001a800f044f9f3e700bf5401402000
:020000040000fa
:020000040040ba
:102d3c0080b582b000af7860fdf7a2fdfff78afc8a
:102d4c00fdf7ecfffef7a2fafff7e8f8084b4ff49b
:102d5c0000425a60074b4ff400425a60fdf712fada
:102d6c00fff772fbfff708f800bf0837bd4680bdc0
:082d7c0000190e4050180e4032
:020000040000fa
:020000040040ba
:102d84000278202a034600f10100f9d0a2f10901da
:102d94000429f5d92b2a06d02d2a13d10121013378
:102da400013b002006e00021f9e700bf00eb8000b2
:102db400c2eb400013f8012f303a092af6d901b9c1
:082dc400404270470021ebe7db
:020000040000fa
:020000040040ba
:102dcc0010b5054c237833b9044b13b10448aff359
:102ddc0000800123237010bd000140200000000082
:102dec000000000008b5034b1bb103490348aff3c7
:102dfc00008008bd0000000004014020000000001d
:020000040000fa
:020000040040ba
:102e0c0080b485b000aff860b9607a604ff0ff33e2
:102e1c0018461437bd465df8047b704780b485b006
:102e2c0000aff860b9607a604ff0ff331846143782
:082e3c00bd465df8047b704700
:020000040000fa
:020000040040ba
:102e440030b50c4a0146002012f810301bb902ebd1
:102e54004002507830bd0c6825789d4209bf02ebd2
:102e64004003431c5878013414bfd8b20c600a28bc
:082e7400ead9efe72430400029
:020000040000fa
:020000040040ba
:102e7c0038b50a480a4d016821b9436813b900f006
:102e8c00b2f838bd0389426855f8233000f10c04c0
:102e9c002046984704eb8000ede700bf1029400066
:042eac003c30400076
:020000040000fa
:020000040040ba
:102eb00053b94ab9002908bf00281cbf4ff0ff31a1
:102ec0004ff0ff3000f000b9adf1080c6de904ce11
:102ed000fff770f9ddf804e0dde9022304b0704784
:020000040000fa
:020000040040ba
:102ee000812903dc7f2903dc002070478329fbd183
:102ef0001368073323f0070303f108011160d3e9d6
:0a2f00000023c0e900230120704700
:020000040000fa
:020000040040ba
:102f0a0038b503699a4228bf1a460446154652b193
:102f1a00406900f06af8636922692b44521b2261f6
:082f2a00002263611a7038bd3a
:020000040000fa
:020000040040ba
:102f32001e1819181c182c1834182e182b182d1896
:102f4200261828183718031811184018381830187e
:042f5200071800005c
:020000040000fa
:020000040040ba
:102f560080b400affee780b400affee780b400aff8
:102f6600fee780b400affee780b400affee780b4b2
:042f760000affee7c3
:020000040000fa
:020000040040ba
:102f7a001e1819181c182c1834182e182b182d184e
:102f8a002618281837180318111840183818301836
:042f9a000718000014
:020000040000fa
:020000040040ba
:102f9e0010b50023934206d113f0030018bf012091
:0e2fae0000eb930010bdc45ccc540133f2e77d
:020000040000fa
:020000040040ba
:102fbc0013b50446019201aafef70afb636813f0ed
:0c2fcc00100f18bf4ff0ff3002b010bd16
:020000040000fa
:020000040040ba
:102fd8000eb403b503aa52f8041b019200f057f887
:0a2fe80002b05df804eb03b070477f
:020000040000fa
:020000040040ba
:022ff200704726
:020000040000fa
:020000040040ba
:102ff4004ab1431e84460a4411f8010b03f8010f39
:083004009142f9d160467047ca
:020000040000fa
:020000040040ba
:10300c0003783bb1034600bf13f8012f002afbd114
:08301c00181a704718467047ae
:020000040000fa
:020000040040ba
:1030240068076c094c836a9074a07ac00080688831
:0630340000846c820081a3
:020000040000fa
:020000040040ba
:02303a007047dd
:020000040000fa
:020000040040ba
:10303c00773040009f2f4000b5304000b530400045
:04304c00b53040005b
:020000040000fa
:020000040040ba
:1030500032b1c9b20244034603f8011b9a42fbd1c4
:04306000704700bff6
:020000040000fa
:020000040040ba
:1030640008b5fff70efdfff7effbbde80840fff7db
:02307400d5bdc8
:020000040000fa
:020000040040ba
:103076000a440023914201d10020704701f8013b28
:02308600f8e769
:020000040000fa
:020000040040ba
:0e308800a0f14103192b98bf40f020007047c3
:020000040000fa
:020000040040ba
:0c30960013460a466ff00041fff725be0c
:020000040000fa
:020000040040ba
:0a30a20080b483b000af7860fee751
:020000040000fa
:020000040040ba
:0830ac00286e696c2900250063
:020000040000fa
:020000040040ba
:0430b4000020704741
:020000040000fa
:020000040040ba
:0430b800002070473d
:020000040000fa
:020000040040ba
:0430bc000020704739
:020000040000fa
:020000040040ba
:0430c0000020704735
:020000040000fa
:020000040040ba
:0430c400fff7e0bf73
:020000040000fa
:020000040040ba
:0430c800704700bf8e
:020000040000fa
:02000004d0002a
:0400000002000000fa
:00000001FF
