:020000040000fa
:020000040040ba
:10000000f8ff4520592940000155400007554000a0
:1000100013554000195540001f55400000000000d6
:100020000000000000000000000000001d51400022
:100030000d5540000000000051404000794740004d
:1000400057294000572940005729400057294000b0
:1000500057294000572940005729400057294000a0
:10006000ad3e4000000000005729400057294000e5
:100070005729400057294000572940005729400080
:100080005729400057294000572940005507400094
:100090005729400057294000572940005729400060
:1000a0005729400057294000572940005729400050
:1000b0005729400057294000572940005729400040
:1000c0005729400057294000572940005729400030
:1000d0005729400057294000572940005729400020
:1000e0005729400057294000572940005729400010
:1000f0005729400057294000572940005729400000
:1001000057294000572940005729400057294000ef
:10011000572940005729400000000000000000005f
:1001200057294000572940005729400057294000cf
:10013000572940005729400000000000572940007f
:1001400057294000572940005729400057294000af
:10015000572940005729400057294000572940009f
:08016000572940005729400017
:020000040000fa
:020000040040ba
:10016800f8b500bff8bc08bc9e467047e1474000a0
:10017800f8b500bff8bc08bc9e467047bd474000b4
:020000040000fa
:020000040040ba
:0801880010030000010000005b
:020000040000fa
:020000040040ba
:100190002de9f041aeb006461546059100270599b8
:1001a0000b78002b00f0fa8000244ff0ff33cde9ec
:1001b00009430eab0c9380230b940d930b5d0bb195
:1001c000252b26d134b12246304604f07fff059b13
:1001d00023440593059b1a78252a40f0d78003f124
:1001e0000108cdf81480059803782b2b1ad025d858
:1001f000202b1bd0232b1dd02a2b27d004f099fabb
:100200000b90059b1a78303a092a2ed801330593b2
:10021000f7e70134d2e7099b43f00103013009936a
:100220000590e0e7099b43f00403f7e7099b43f0df
:100230000803f3e7099b43f01003efe72d2bead007
:10024000302bd9d1099b43f00203e7e72b681a1d35
:100250001b682a600130002b05900b9305da099a80
:100260005b4282f0010209920b93099bda0744bfbb
:1002700023f002030993059b1a782e2a0dd1002240
:10028000581c0a9205905a782a2a25d102330593e0
:100290002b681a1d1b682a600a9305a804f0a6fba8
:1002a000059b0390187805f00af96928039979d01d
:1002b00032dc632800f0cb8019dc252800f0d980df
:1002c000612853d000234ff0ff32cdf814800993fa
:1002d0000b930a920093d4e004f02bfa0a90059b4a
:1002e0001a78303a092ad8d801330593f7e76428f9
:1002f00058d06728e6dc2a4606a804f06dfe0028e0
:1003000000f0a180059b5a1c05921b7806aa09a93a
:10031000304605f00bf938e0702873d015dc6e28f4
:1003200000f08c806f28cdd12b46002206a802f069
:10033000bdfd002800f08780059b06aa013309a9ae
:100340003046059305f0f0f81fe075283ad078287c
:1003500048d07328b6d1802975d1059b2a6801330e
:100360000593131d2b60126800237de02a4606a822
:1003700004f032fe002866d0059b5a1c05921b78bb
:1003800006aa09a9304605f0d1f804443c44a74226
:100390007add3e4b4f221a604ff0ff3738462eb0c1
:1003a000bde8f0812b46012206a802f07ffd00285f
:1003b00049d0059b06aa013309a93046059302f0ee
:1003c000cbfde2e72b46002206a802f06ffd0028d5
:1003d00039d0059b06aa013309a93046059305f0db
:1003e000a3f8d2e72b46002206a802f05ffd50b327
:1003f000059b5a1c05921b7806aa09a9304605f0f0
:1004000095f8c2e72b460022f02106a802f04efd27
:10041000c8b1059b01330593dde9062313430bd1d6
:100420001b4804f0d3ff099b009319490b9b02461c
:10043000304603f077f9a8e77823dde72b463a1931
:1004400006a803f070fa059b013305939ee7802907
:10045000f9d1059b013305932b681a1d1b682a608f
:100460008df8183006aa012309a9304605f060f876
:100470008be78029e7d1059b01330593099b009306
:100480000b9b04490122d3e7274688e66ca3402052
:08049000f8544000fe54400046
:020000040000fa
:020000040040ba
:100498002de9f04f099f154604468e461e46002b4f
:1004a80040f0cc808a42b2fa82fc4cd9bcf1000ff1
:1004b8000bd0ccf1200801fa0cfe20fa08f802fa59
:1004c8000cf548ea0e0e00fa0cf44fea15491ffa2b
:1004d80085f8befbf9fa210c09fb1ae30afb08fbb5
:1004e80041ea03439b452ad9eb180af1ff3004d2ad
:1004f8009b4502d9aaf102002b44a3eb0b03a4b23b
:10050800b3fbf9f209fb123302fb08f844ea03448f
:10051800a04516d92c1902f1ff3303d2a04501d901
:10052800931e2c44a4eb080443ea004027b124faa4
:100538000cf400233c607b603146bde8f08f5046e8
:10054800dbe71346eee702b9ffdebcf1000f2ed160
:100558008b1a01264fea154eaab2b3fbfef8210cfe
:100568000efb183308fb02f941ea0343994561d9a8
:10057800eb1808f1ff3004d2994502d9a8f102001e
:100588002b44a3eb0903a4b2b3fbfef10efb11331a
:100598004a4344ea0344a2424ed92c1901f1ff33dd
:1005a80003d2a24201d98b1e2c44a41abce7ccf179
:1005b800200e02fa0cf521fa0ef901fa0cf320fad2
:1005c8000efe4eea03034fea154800fa0cf4b9fb95
:1005d800f8f11ffa85fe08fb1192180c01fb0ef6c4
:1005e80040ea0242964221d9aa1801f1ff3003d20b
:1005f800964201d9881e2a44921b9bb2b2fbf8f995
:1006080008fb192209fb0efe43ea02439e450fd957
:10061800eb1809f1ff3604d29e4502d9a9f102066a
:100628002b44a3eb0e0346ea004693e70846e3e7ac
:100638004e46f6e74046a4e70b46b6e78b4206d996
:10064800002f7ed00026c7e90001304674e7b3fad0
:1006580083fcbcf1000f0fd18b4201d3824209d831
:10066800841a61eb030e0120002f6dd0c7e9004efc
:10067800002661e76046f7e7ccf1200e03fa0cf399
:1006880022fa0ef521fa0ef41d4301fa0cf320fab2
:100698000ef10b434fea154a00fa0cf6b4fbfaf9cf
:1006a8001ffa85f80afb19401c0c09fb08f144eafb
:1006b8000044a14202fa0cf23fd92c1909f1ff308b
:1006c80004d2a14202d9a9f102002c44641a9bb2b7
:1006d800b4fbfaf90afb194409fb08f843ea044198
:1006e80088452cd9691809f1ff3304d2884502d905
:1006f800a9f10203294443ea0040a1eb0801a0fb49
:1007080002894945c2464c4602d306d1464504d221
:10071800b8eb020a69eb05040138afb1b6eb0a037e
:1007280061eb040606fa0efe23fa0cf34eea030305
:1007380026fa0cf6c7e900369ae74846c6e74b465c
:0c074800d9e73e463846f7e63e46f5e6a7
:020000040000fa
:020000040040ba
:1007540080b586b000af9c4b5b6a3b619b4b1b6ac8
:10076400fb60fb6803f48073002b05d0964bff22db
:100774001a77954b01225a77fb6803f00103002b8b
:1007840008d0924b08221a60904b04221a608f4bb7
:1007940007229a62fb6803f40073002b02d08a4b91
:1007a40001221a77884b5b7fdbb2002b40f0c780b5
:1007b400854b1b7f5bb2013b032b00f2c28001a27d
:1007c40052f823f0d9074000c30840000108400054
:1007d400310940007c4bdb68002b07d07a4b1b8827
:1007e4009bb20021184601f0b9fcb1e0764b1b889e
:1007f4009bb20121184601f0b1fca9e0fb6803f0ab
:100804000403002b00f09f806f4b5b697b616e4b90
:10081400db68013b7a699a420cbf01230023fb7217
:10082400694b1b69002b13d0fb7a002b10d072b6d6
:10083400664b04229a62644b5a687b6913441a78a3
:10084400624b5a637b6901337b6103f0e1fe2fe065
:100854005d4bdb68013b7a699a421fd15a4b5a6857
:100864007b6913441a78594b5a637b6901337b6162
:10087400564b02221a60554b04229a62534b1b6a50
:10088400fb60fb6803f00103002b03d04e4b0522f1
:100894001a770de04c4b04221a7709e04a4b5a6848
:1008a4007b6913441a78494b5a637b6901337b6132
:1008b400454a7b695361454b1b6afb6043e0fb6817
:1008c40003f00203002b40d03f4b9b697b603e4bff
:1008d4001b69023b7a689a4202d13c4b02221a609d
:1008e4003a4b196b384b9a687b681344cab21a7036
:1008f4007b6801337b60344b1b697a689a4211d15f
:10090400324b02229a62314b1b6afb60fb6803f094
:100914000103002b03d02c4b05221a7702e02a4b4b
:1009240004221a77284a7b6893610ee0fb6803f07f
:100934000103002b0bd0244b05221a7707e000bfdc
:1009440006e000bf04e000bf02e000bf00e000bf1b
:100954001d4b1b7f5bb2b3f1ff3f13d11a4b002237
:100964001a771a4b07229a62184b08221a60174bff
:1009740004221a60144b1b6a002b03d0124b1b6a0f
:1009840038699847104b1b7f5bb2052b17d10e4b70
:1009940000225a770c4b00221a770c4b07229a62da
:1009a4000a4b08221a60094b04221a60064b1b6a80
:1009b400002b04d0044b1b6a3869984700bf00bf62
:1009c4001837bd4680bd00bf28a2402000800140ea
:020000040000fa
:020000040040ba
:1009d40080b588b000af0023fb61764b1b68002b09
:1009e40040f0de80744b1b680133bb61724abb6903
:1009f4001360bb69002b10d1704b1b687b61704b7b
:100a04001b686e4a13606e4a7b6913606d4b1b68ea
:100a140001336c4a136004f059f86b4b1b68ba69d4
:100a24009a42c0f0a880654b1b681b68002b04d158
:100a3400654b4ff0ff321a609de0604b1b68db682a
:100a4400db683b613b695b68fb60ba69fb689a429f
:100a540003d25d4afb6813608de03b695b69bb6050
:100a64003b699b683a69d2689a603b69db683a697a
:100a740092685a60bb685a683b6904339a4203d14e
:100a84003b69da68bb685a603b6900225a61bb68fb
:100a94001b685a1ebb681a603b699b6a002b1ed0f8
:100aa4003b699b6a7b603b69db693a69126a9a60bd
:100ab4003b691b6a3a69d2695a607b685a683b6928
:100ac40018339a4203d13b691a6a7b685a603b69be
:100ad40000229a627b681b685a1e7b681a603b6915
:100ae400db6a01229a40394b1b681343374a13606f
:100af4003b69da6a364913469b0013449b000b4456
:100b040004331b683b603b693a689a603b689a68a7
:100b14003b69da603b689b683a6904325a603b6916
:100b24001a1d3b689a603b69da6a13469b001344ba
:100b34009b00274a1a443b695a613b69da6a244993
:100b440013469b0013449b000b441b683a69d26a0a
:100b5400591c1f4813469b0013449b00034419600f
:100b64003b69da6a1b4b1b68db6a9a427ff65baf10
:100b74000123fb6157e7174b1b68da6a14491346d4
:100b84009b0013449b000b441b68012b01d90123d8
:100b9400fb61114b1b68002b07d00123fb6104e0b0
:100ba4000e4b1b6801330d4a1360fb69184620374e
:100bb400bd4680bd5ca3402038a3402028a340202c
:100bc4002ca340204ca3402054a340203ca340200d
:100bd40000a0402024a3402048a3402044a3402058
:020000040000fa
:020000040040ba
:100be40080b588b000af0023fb610023bb6103f034
:100bf40035ff00233b616d4b1b68013b6b4a13605f
:100c04006a4b1b68002b40f0ca80694b1b68002ba1
:100c140000f0c5808ee0674bdb68db68fb61fb6935
:100c24009b6afb60fb69db69fa69126a9a60fb697b
:100c34001b6afa69d2695a60fb685a68fb691833ff
:100c44009a4203d1fb691a6afb685a60fb69002265
:100c54009a62fb681b685a1efb681a60fb695b6931
:100c6400bb60fb699b68fa69d2689a60fb69db68c0
:100c7400fa6992685a60bb685a68fb6904339a42fd
:100c840003d1fb69da68bb685a60fb6900225a61c8
:100c9400bb681b685a1ebb681a60fb69db6a0122c9
:100ca4009a40454b1b681343434a1360fb69da6a55
:100cb400424913469b0013449b000b4404331b68b6
:100cc4007b60fb697a689a607b689a68fb69da6082
:100cd4007b689b68fa6904325a60fb691a1d7b6859
:100ce4009a60fb69da6a13469b0013449b00334afb
:100cf4001a44fb695a61fb69da6a304913469b005e
:100d040013449b000b441b68fa69d26a591c2b4894
:100d140013469b0013449b0003441960fb69da6a81
:100d2400274b1b68db6a9a4204d9264a3b69012196
:100d340042f823101f4b1b68002b7ff46caffb6938
:100d4400002b01d003f0c2fe1f4b1b687b617b6943
:100d5400002b12d0fff73cfe0346002b04d0194aa7
:100d64003b69012142f823107b69013b7b617b696c
:100d7400002befd1144b00221a60124a3b6952f83f
:100d84002330002b0bd00123bb610d4b1b680f4b91
:100d94004ff080521a60bff34f8fbff36f8f03f091
:100da40001ffbb6918462037bd4680bd5ca34020c7
:100db40034a34020b4a240203ca3402000a0402003
:100dc40024a3402048a3402044a3402004ed00e095
:020000040000fa
:020000040040ba
:100dd40090b58bb002aff8607a603b600b467b81c4
:100de4000023bb6100237b610023fb770023bb77d7
:100df400f86802f0e1fab861bb69002b01d1fb7f0e
:100e0400bbe097f83830012b07d17b6b002b02d065
:100e14003b6b002b20d1fb7fafe097f83830022bdf
:100e240003d097f83830082b07d13b68002b02d049
:100e34007b68002b0fd1fb7f9fe03b68002b08d021
:100e44007b68002b05d07b6b002b02d03b6b002b07
:100e540002d1fb7f91e000bfbb691b687b617b69aa
:100e64002c334ff0ff31184603f0bcfa0346012b34
:100e740040f08280bb6900225a71ba697b695a6268
:100e84007b699a69bb69db689a420bd07b691b69f1
:100e94005b69ba690c32002110469847bb69da686d
:100ea4007b699a6197f83830022b10d0042b1bd041
:100eb400012b29d17b691b691b6878897a6b396b93
:100ec40098470346002b21d00123bb771ee07b69a2
:100ed4001b695b6878893a68796898470346002bf0
:100ee40016d00123bb7713e07b691b699c68788962
:100ef4007b6b00933b6b3a687968a0470346002bf1
:100f040008d00123bb7705e000bf04e000bf02e086
:100f140000bf00e000bfbb7f002b12d07b693433dd
:100f24004ff0ff31184603f033fa0346012b1ed16c
:100f34007b6993f82830dbb2002b18d10123fb77af
:100f440015e07b691b691b69984703461a46bb6910
:100f54005a71bb695b79dbb2002b04d17b69002237
:100f640083f8282003e07b69012283f828207b6929
:100f74002c33184603f0fcfcfb7f18462437bd468f
:020f840090bd1e
:020000040000fa
:020000040040ba
:020f86007047b2
:020000040000fa
:020000040040ba
:100f880080b400af634b0022c3f81421624b0022e7
:100f98001a67614b60225a675f4b78225a605e4b32
:100fa8006ff078021a605c4b4ff0ff325a655a4b6b
:100fb8004ff0ff321a66584b4ff0ff32c3f89020bb
:100fc800554b4ff0ff32c3f8a020534b00221a6153
:100fd800514b4ff0ff325a614f4b00229a634e4bf0
:100fe8000022c3f818214d4b4ff0ff321a604b4bcb
:100ff8004ff0ff325a65494b4ff0ff321a66474ba4
:101008004ff0ff32c3f89020444b4ff0ff32c3f843
:10101800a020424b00221a61404b4ff0ff325a6128
:101028003e4b00229a633d4b0022c3f818213c4beb
:101038004ff0ff321a603a4b4ff0ff325a65384b87
:101048004ff0ff321a66364b4ff0ff32c3f890204c
:10105800334b4ff0ff32c3f8a020314b00221a6106
:101068002f4b4ff0ff325a612d4b00229a632c4bc5
:101078000022c3f818212b4b4ff0ff321a60294b7e
:101088004ff0ff325a65274b4ff0ff321a66254b57
:101098004ff0ff32c3f89020224b4ff0ff32c3f8d5
:1010a800a020204b4ff400021a611e4b6ff400027f
:1010b8005a611c4b4ff400029a631a4b0022c3f882
:1010c8001821194b4ff0ff321a60174b4ff0ff32bf
:1010d8005a65154b4ff0ff321a66134b4ff0ff322b
:1010e800c3f89020104b4ff0ff32c3f8a0200e4bee
:1010f80000221a610c4b4ff0ff325a610a4b002252
:101108009a63094b0022c3f8182100bfbd465df859
:10111800047b704700800840000e0e4000100e400f
:0c11280000120e4000140e4000160e4095
:020000040000fa
:020000040040ba
:1011340080b489b000af78607b68db68db68bb6132
:10114400bb699b6a7b61bb69db69ba69126a9a6095
:10115400bb691b6aba69d2695a607b695a68bb6900
:1011640018339a4203d1bb691a6a7b695a60bb6916
:1011740000229a627b691b685a1e7b691a604b4b7a
:101184001b68002b60d1bb695b693b61bb699b68d1
:10119400ba69d2689a60bb69db68ba6992685a60b6
:1011a4003b695a68bb6904339a4203d1bb69da6864
:1011b4003b695a60bb6900225a613b691b685a1e2d
:1011c4003b691a60bb69db6a01229a40384b1b6891
:1011d4001343374a1360bb69da6a364913469b00e6
:1011e40013449b000b4404331b68fb60bb69fa681f
:1011f4009a60fb689a68bb69da60fb689b68ba69a5
:1012040004325a60bb691a1dfb689a60bb69da6aca
:1012140013469b0013449b00264a1a44bb695a6137
:10122400bb69da6a234913469b0013449b000b44b1
:101234001b68ba69d26a591c1e4813469b001344a2
:101244009b00034419601be01b4b5b68bb60bb69dc
:10125400ba68da61bb689a68bb691a62bb689b6842
:10126400ba6918325a60bb6903f11802bb689a6004
:10127400bb69114a9a62104b1b6801330e4a136012
:10128400bb69da6a0d4b1b68db6a9a4205d90123f4
:10129400fb610b4b01221a6001e00023fb61fb6937
:1012a40018462437bd465df8047b70475ca3402094
:1012b4003ca3402000a04020b4a2402024a340200e
:0412c40048a34020db
:020000040000fa
:020000040040ba
:1012c80080b58ab000af7860396000237b627b68a4
:1012d800fb6100233b6203f0bffbfb699b6bbb61b7
:1012e800bb69002b24d0bb695a1efb699a63fb6952
:1012f8001b68002b04d103f001fd0246fb699a60cc
:10130800fb691b69002b0fd0fb6910331846fff7e8
:101318000dff0346002b07d04c4b4ff080521a604c
:10132800bff34f8fbff36f8f03f03afc012389e0bf
:101338003b68002b03d103f033fc002382e07b6a77
:10134800002b06d107f10c03184603f015fe012304
:101358007b6203f025fc03f079ff03f07dfbfb695a
:1013680093f844305bb2b3f1ff3f03d1fb6900222d
:1013780083f84420fb6993f845305bb2b3f1ff3f33
:1013880003d1fb69002283f8452003f009fc3a46a3
:1013980007f10c031146184602f0ecf80346002b3f
:1013a80032d1f86903f0fefd0346002b26d0fb6915
:1013b8001b68002b09d103f04ffbfb699b6818469b
:1013c80000f062fc386203f0ebfbfb6924333a68f7
:1013d8001146184603f0bafdf86901f05ffefff701
:1013e800fdfb0346002b7ff476af184b4ff080527d
:1013f8001a60bff34f8fbff36f8f6ce7f86901f086
:101408004dfefff7ebfb66e7f86901f047fefff7d3
:10141800e5fbf86903f0c6fd0346002b3ff45baf1c
:101428003b6a002b0dd003f017fbf86903f096fc1c
:101438007861fb699b687969184600f061fd03f0e3
:10144800affb002318462837bd4680bd04ed00e0f9
:020000040000fa
:020000040040ba
:1014580070a240201c00000000000000c0a1402035
:10146800380000000000000064a040205000000088
:101478000000000028a24020280000000000000012
:10148800f8a14020300000000000000008a3402020
:101498000c0000000000000050a2402020000000c6
:1014a8000000000048a140203c00000000000000af
:1014b80000a34020080000000000000014a3402002
:1014c800080000000000000070a340200400000095
:1014d80001000000aaaaaaaa0000402000a000005b
:1014e800000000001ca340200c00000000000000c9
:1014f80000a0402064000000000000008ca24020f2
:10150800280000000000000028a340200800000078
:1015180000000000b4a240202800000000000000e5
:1015280030a340200400000000000000dca240209e
:10153800140000000000000034a340202800000030
:101548000000000074a34020040000000100000017
:10155800040000005ca3402004000000000000001c
:1015680004a140204400000000000000f0a2402038
:10157800100000000000000060a3402004000000ec
:101588000000000084a140203c0000000000000092
:1015980064a340200400000000000000b4a0402024
:1015a800500000000000000068a340200800000070
:1015b800000000000000000000000000666666668b
:020000040000fa
:020000040040ba
:1015c80080b586b000af03460a46fb8013467b71a0
:1015d80000237b610023fb60fb88002b02d04ff0c7
:1015e800ff339ce0fa881346db009b1adb004e4a67
:1015f8001344fb60fb6893f90d30022b06d1fb689e
:101608001b7b83f00103dbb2002b02d04ff0ff33ca
:1016180085e0fb6830334ff0ff31184602f0e0fefa
:101628000346002b02d14ff0ff3378e0fb681b78ac
:10163800002b07d0fb683033184603f097f94ff0ba
:10164800ff336ce0fb685b68002b0cd07b7903f000
:101658000803002b07d0fb683033184603f086f9df
:101668004ff0ff335be000233b6146e03b691a0122
:10167800fb68db6913449b7983f00103dbb2002b21
:1016880038d03b691a01fb68db6913447b617b69cd
:1016980001229a717b69fa681a607b697a791a71f2
:1016a8007b6900225a71fb685a697b69da607b7929
:1016b80003f00803002b02d0fb6801221a70fb68b4
:1016c8005b685a1cfb685a60fb681b8cfa88d1b2ad
:1016d8003a69d2b2184603f089fb02467b699a60e0
:1016e800fb681b8c184603f097fb03461a46fb68f9
:1016f8001a8407e03b6901333b61fb689b683a69e0
:101708009a42b3d1fb683033184603f02ff97b694e
:10171800002b02d07b699b6801e04ff0ff3318462d
:0c1728001837bd4680bd00bfc0a14020a6
:020000040000fa
:020000040040ba
:1017340080b586b000af03460a46fb8013467b7132
:101744000023fb6000237b61fb88002b02d04ff059
:10175400ff3399e0fa8813469b0013441b014c4a5b
:101764001344fb60fb6893f90c30022b02d04ff05a
:10177400ff3389e0fb6828334ff0ff31184602f04d
:1017840031fe0346002b02d14ff0ff337ce0fb68af
:101794005b78002b07d0fb682833184603f0e8f881
:1017a4004ff0ff3370e0fb685b68002b0cd07b7953
:1017b40003f00803002b07d0fb682833184603f016
:1017c400d7f84ff0ff335fe000233b614ae03a690a
:1017d40013469b0013449b001a46fb685b69134441
:1017e4001b7c83f00103dbb2002b38d03a6913462b
:1017f4009b0013449b001a46fb685b6913447b619e
:101804007b6901221a747b69fa681a607b697a79a8
:101814001a717b6900229a607b7903f00803002b1c
:1018240002d0fb6801225a70fb685b685a1cfb6893
:101834005a60fb681b8bfa88d1b23a69d2b2184657
:1018440003f002fb02467b69da60fb681b8b1846d7
:1018540003f010fb03461a46fb681a8307e03b6952
:1018640001333b61fb689b683a699a42afd1fb68dc
:101874002833184603f07cf87b69002b02d07b697f
:10188400db6801e04ff0ff3318461837bd4680bdd2
:0418940064a04020ec
:020000040000fa
:020000040040ba
:1018980080b584b000af03463960fb800023fb604d
:1018a8003b68bb60fb88002b02d04ff0ff3395e00c
:1018b800fa884c4913469b0013441b010b441b78c0
:1018c800002b02d04ff0ff3388e0fa8813469b00c4
:1018d80013441b01434a1344fb60fb6801221a703e
:1018e800bb681a68fb681a61bb689a68fb685a612a
:1018f800bb685a68fb689a60fb6800225a60fb68fc
:101908000022da61fb6800221a62fb6800225a7022
:10191800fb6801221a83bb68da68fb68da63bb6874
:101928001a69fb681a64bb685a69fb685a64bb6821
:101938009a69fb689a64bb68da69fb68da64fb68d1
:101948002833184602f056ff0346002b02d14ff009
:10195800ff3343e0fb682c33184602f04bff034685
:10196800002b02d14ff0ff3338e0fb6830331846c4
:1019780002f040ff0346002b02d14ff0ff332de069
:10198800fb6803f1340000230022002101f05efd12
:101998000346002b02d14ff0ff331fe0fb6803f131
:1019a800380000230022002101f050fd0346002bdf
:1019b80002d14ff0ff3311e0fb681b695b69fa68dd
:1019c800114609489847fb681b691b68fa68114665
:1019d80006489847fb6802221a73fb881846103796
:1019e800bd4680bd64a04020f5504000194140002c
:020000040000fa
:020000040040ba
:1019f80080b58ab000aff860b9607a603b600023b8
:101a08007b62fb683b6203f027f83b6a9a6b3b6a90
:101a1800db6b9a4202d33b68022b29d13a68b9683a
:101a2800386a01f005f8f8613b6a5b6a002b10d050
:101a38003b6a24331846fff779fb0346002b13d083
:101a48003f4b4ff080521a60bff34f8fbff36f8f39
:101a58000ae0fb69002b07d0394b4ff080521a601f
:101a6800bff34f8fbff36f8f03f09af8012363e042
:101a78007b68002b03d103f093f800235ce07b6aba
:101a8800002b06d107f11403184603f075fa012359
:101a98007b6203f085f803f0d9fb02f0ddff3b6ab7
:101aa80093f844305bb2b3f1ff3f03d13b6a0022a5
:101ab80083f844203b6a93f845305bb2b3f1ff3fab
:101ac80003d13b6a002283f8452003f069f83a1de8
:101ad80007f114031146184601f04cfd0346002b8c
:101ae80024d1386a03f052f90346002b18d03b6a18
:101af80010337a681146184603f028fa386a01f05c
:101b0800cdfafff76bf80346002b7ff47caf0c4b44
:101b18004ff080521a60bff34f8fbff36f8f72e799
:101b2800386a01f0bbfafff759f86ce7386a01f038
:101b3800b5fafff753f8002318462837bd4680bd8d
:041b480004ed00e0c8
:020000040000fa
:020000040040ba
:101b4c0080b58ab000aff860b9607a6000237b6220
:101b5c00fb683b6202f07eff3b6a9b6bfb61fb699f
:101b6c00002b1fd0b968386a02f004fdfb695a1ebd
:101b7c003b6a9a633b6a1b69002b0fd03b6a10339c
:101b8c001846fff7d1fa0346002b07d03c4b4ff019
:101b9c0080521a60bff34f8fbff36f8f02f0feffbe
:101bac00012369e07b68002b03d102f0f7ff0023cf
:101bbc0062e07b6a002b06d107f11403184603f090
:101bcc00d9f901237b6202f0e9ff03f03dfb02f03f
:101bdc0041ff3b6a93f844305bb2b3f1ff3f03d152
:101bec003b6a002283f844203b6a93f845305bb291
:101bfc00b3f1ff3f03d13b6a002283f8452002f08a
:101c0c00cdff3a1d07f114031146184601f0b0fc44
:101c1c000346002b23d1386a03f0c2f90346002b8c
:101c2c0017d03b6a24337a681146184603f08cf9b6
:101c3c00386a01f031fafef7cfff0346002b89d149
:101c4c000f4b4ff080521a60bff34f8fbff36f8f63
:101c5c0080e7386a01f020fafef7beff7ae7386aaf
:101c6c0001f01afafef7b8ff386a03f099f9034647
:101c7c00002b3ff46faf002318462837bd4680bdbc
:041c8c0004ed00e083
:020000040000fa
:020000040040ba
:101c900080b586b000af78607b683b6100237b61d4
:101ca0007b68002b00f089803b69da6a454b1b6832
:101cb000db6a9a4278d23b699b69002b06db414b79
:101cc0001b68db6ac3f105023b699a613b6959698c
:101cd0003b69da6a13469b0013449b003a4a13445b
:101ce000994259d13b690433184602f0d1fb0346af
:101cf000002b0ad13b69db6a012202fa03f3da43c3
:101d0000324b1b681340314a13602e4b1b68da6a52
:101d10003b69da623b69db6a01229a402b4b1b6804
:101d200013432a4a13603b69da6a274913469b002a
:101d300013449b000b4404331b68fb603b69fa6847
:101d40009a60fb689a683b69da60fb689b683a694d
:101d500004325a603b691a1dfb689a603b69da6a73
:101d600013469b0013449b00174a1a443b695a616f
:101d70003b69da6a144913469b0013449b000b44e9
:101d80001b683a69d26a591c0f4813469b001344da
:101d90009b000344196004e00a4b1b68da6a3b6944
:101da000da6201237b6108e03b695a6c054b1b68d2
:101db000db6a9a4201d201237b617b69184618379e
:101dc000bd4680bd24a3402000a040203ca340206d
:020000040000fa
:020000040040ba
:101dd00080b584b002af454b1b7883f00103dbb2c2
:101de000002b23d003210020fff7eefb02463f4be0
:101df0005a603e4b5b68b3f1ff3f08d03b4b3c4a17
:101e00009a603a4b5b683b49184602f095fd002109
:101e10000020fff78ffc0246344bda60334bdb685f
:101e2000b3f1ff3f02d0314b01221a70324b1b68d5
:101e30004ff0ff3231491846fff788fe2b4b1b7cd1
:101e4000002b32d1294b93f84220284b5a77274b4d
:101e50005b69dab2254b9a77244b58680223284aeb
:101e6000572102f0d5fe0346002b0dd000bf1f4bbb
:101e70005868fa1d0123572102f0cafe034683f079
:101e80000103dbb2002bf2d1184b93f8423001333f
:101e9000dab2164b83f84220144b93f84230042bed
:101ea00003d9124b002283f84220104b1b7c012bdc
:101eb00017d10e4b00225a770c4b5868052301931b
:101ec000104b009301230e4a572102f0bafe03463d
:101ed000002b06d0054b93f842301946094800f014
:101ee00015fe00bf0837bd4680bd00bf04a14020dd
:101ef000801a06000ca1402060a3402014a14020bd
:081f000021a140201ca140209a
:020000040000fa
:020000040040ba
:101f080080b588b000af786039607b68bb61012319
:101f18007b617b68002b00f08380bb695b6c3a684f
:101f28009a4202d93b68fb6102e0bb695b6cfb61ca
:101f3800bb69db6afa699a4272d0bb699b6c7a69a1
:101f48009a426dd1bb69db6a3b61bb69fa69da62a7
:101f5800bb699b69002b04dbfb69c3f10502bb6904
:101f68009a61bb6959693a6913469b0013449b00ff
:101f78002d4a1344994253d1bb690433184602f0e1
:101f880083fa0346002b0ad1bb69db6a012202faf5
:101f980003f3da43254b1b681340244a1360bb69db
:101fa800db6a01229a40214b1b6813431f4a1360c6
:101fb800bb69da6a1c4913469b0013449b000b4417
:101fc80004331b68fb60bb69fa689a60fb689a680f
:101fd800bb69da60fb689b68ba6904325a60bb69fe
:101fe8001a1dfb689a60bb69da6a13469b001344a2
:101ff8009b000d4a1a44bb695a61bb69da6a0a49ef
:1020080013469b0013449b000b441b68ba69d26ab1
:10201800591c054813469b0013449b000344196050
:1020280000bf2037bd4680bd00a040203ca3402013
:020000040000fa
:020000040040ba
:1020380080b584b000af786002f00efd3f4b1b689e
:1020480001333e4a13603e4b1b68002b09d13c4ac2
:102058007b681360394b1b68012b10d101f0e0fb42
:102068000de0384b1b68002b09d1354b1b68da6a29
:102078007b68db6a9a4202d8314a7b681360324b2c
:102088001b680133304a13607b68db6a01229a407f
:102098002e4b1b6813432d4a13607b68da6a2c4960
:1020a80013469b0013449b000b4404331b68fb60de
:1020b8007b68fa689a60fb689a687b68da60fb68f4
:1020c8009b687a6804325a607b681a1dfb689a60bc
:1020d8007b68da6a13469b0013449b001c4a1a4427
:1020e8007b685a617b68da6a194913469b00134476
:1020f8009b000b441b687a68d26a591c1448134623
:102108009b0013449b000344196002f049fd0d4bea
:102118001b68002b0ed00a4b1b68da6a7b68db6ae7
:102128009a4207d20b4b4ff080521a60bff34f8f81
:10213800bff36f8f00bf1037bd4680bd34a340206a
:1021480024a3402040a3402050a340203ca340208b
:0821580000a0402004ed00e0ae
:020000040000fa
:020000040040ba
:1021600080b584b000af03460a46fb8013467b71fe
:102170004ef66023fb60fb887f2b0dd9fb881b0a82
:102180001b0403f4fe033c4a43f480735360fb8852
:10219000394adbb2d36005e0fb881b04364a03f4fe
:1021a000fe035360354b00225a61344b00229a6182
:1021b0007b7983f00103dbb2002b53d02f4bdb681c
:1021c000012b3fd12d4b1b69002b13d12b4b04222c
:1021d0001a772a4b5b681a78274b5a63274b5b693f
:1021e0000133264a5361244b02221a60224b0122fa
:1021f0005a6237e072b6214b5b681a781e4b5a63fd
:102200001e4b5b6901331d4a536100bf1a4b1b6aa9
:1022100003f00503002bf9d10be0fb68002b05d17f
:10222000164b02225a7762b6002321e0fb68013b7d
:10223000fb60114b1b6a03f00403002bedd001235c
:102240007b710fe00d4b03221a770c4b5b681a78f9
:10225000094b5a63094b5b690133084a5361064bca
:1022600005225a627b79002b01d002f0d3f90123b9
:1022700018461037bd4680bd0080014028a240208e
:020000040000fa
:020000040040ba
:1022800080b584b002af0023bb71384b1b7883f05c
:102290000103dbb2002b23d003210020fff794f9c8
:1022a0000246324b5a60314b5b68b3f1ff3f08d0b6
:1022b0002e4b2f4a9a602d4b5b682e49184602f030
:1022c0003bfb00210020fff735fa0246274bda607e
:1022d000264bdb68b3f1ff3f02d0244b01221a707a
:1022e0004ff47a7002f0def9234b9b6b224a83f4a1
:1022f000000393631d4b5868ba1d022301931f4bc3
:10230000009301234f2102f09cfc0346002b29d0af
:102310001a4800f0c1fc03461a46144b83f83820d3
:10232000124b00221a74114b93f938301a460f4b96
:102330005a61134b186800234ff0ff321149fff721
:102340005bfb0a4b93f938301a460f490f4802f0ed
:10235000b8ff0346fb71054bdb68fa790b49184659
:1023600000f042ff00bf0837bd4680bd84a1402079
:10237000a08601008ca1402000140e409ca14020aa
:1023800060a3402094a14020b45340009ea140206f
:020000040000fa
:020000040040ba
:1023900080b586b000af78607b683b6100237b61cd
:1023a0007b68002b6ed03b699b6c5a1e3b699a641c
:1023b0003b69da6a3b695b6c9a4263d03b699b6c10
:1023c000002b5fd13b690433184602f061f80346e5
:1023d000002b0ad13b69db6a012202fa03f3da43dc
:1023e0002b4b1b6813402a4a13603b695a6c3b69ac
:1023f000da623b69db6ac3f105023b699a613b69ba
:10240000db6a01229a40224b1b681343204a136067
:102410003b69da6a1f4913469b0013449b000b4437
:1024200004331b68fb603b69fa689a60fb689a6832
:102430003b69da60fb689b683a6904325a603b6921
:102440001a1dfb689a603b69da6a13469b001344c5
:102450009b00104a1a443b695a613b69da6a0d498c
:1024600013469b0013449b000b441b683a69d26ad5
:10247000591c084813469b0013449b0003441960f1
:1024800001237b617b6918461837bd4680bd00bfbc
:082490003ca3402000a0402005
:020000040000fa
:020000040040ba
:1024980080b584b000af03463960fb800023fb6041
:1024a8003b68bb60fb88002b02d04ff0ff3368e02d
:1024b800fa8836491346db009b1adb000b440d33c0
:1024c80093f90030022b02d14ff0ff3359e0fa881c
:1024d8001346db009b1adb002c4a1344fb60fb68a5
:1024e80001221a73bb681a68fb681a61bb685a68cc
:1024f800fb68da61bb689a68fb689a60fb6800222f
:102508005a60fb6800225a62fb6801221a84fb6841
:1025180000221a70bb68da68fb685a61bb68da681f
:10252800fb689a61fb683033184602f063f903468a
:10253800002b02d14ff0ff3323e0fb682c33184601
:1025480002f058f90346002b02d14ff0ff3318e090
:10255800fb6803f1340000230022002100f076ff1d
:102568000346002b02d14ff0ff330ae0fb681b69da
:102578009b69fa68114606489847fb6802225a7315
:10258800fb8818461037bd4680bd00bfc0a140205b
:04259800414340007b
:020000040000fa
:020000040040ba
:10259c0080b588b000af78603960374b1b68fb6141
:1025ac00364b1b68bb61364b1b687b61354b1b681c
:1025bc000433184601f066ff0346002b0bd1314b58
:1025cc001b68db6a012202fa03f3da432e4b1b6809
:1025dc0013402d4a13607b68b3f1ff3f24d13b6855
:1025ec00002b21d0294b5b683b61264b1b683a6959
:1025fc009a60244b1b683a699268da60214b1a681e
:10260c003b699b6804325a601e4b1b681a1d3b6960
:10261c009a601c4b1b681d4a5a611c4b1b6801338a
:10262c001a4a136000bf22e0fa697b681344fb600e
:10263c00144b1b68fa685a60fa68fb699a4207d215
:10264c00104b1b6804331946786901f07ffb0ee0d0
:10265c000c4b1b6804331946b86901f077fb0c4b23
:10266c001b68fa689a4202d2094afb68136000bfe1
:10267c002037bd4680bd00bf38a3402028a3402092
:10268c002ca3402024a340203ca34020dca24020cb
:04269c0054a34020e3
:020000040000fa
:020000040040ba
:1026a00080b588b000af344b1b68002b03d0334b90
:1026b00001221a605be0314b00221a60304b1b682c
:1026c0001b6bfb614ff0a533bb612d4b1b681a6878
:1026d0002b4b1b681b6b9a4216d9fb691b68ba69a6
:1026e0009a4211d1fb6904331b68ba699a420bd133
:1026f000fb6908331b68ba699a4205d1fb690c3340
:102700001b68ba699a4209d01d4b1b6834337b6140
:102710001b4b1b687969184602f012fd194b1b68a8
:10272000bb60bb68b3fa83f3fb71fb79c3f11f0392
:102730003b613a6913469b0013449b00124a1344c1
:10274000fb60fb685b685a68fb685a60fb685a6804
:10275000fb6808339a4203d1fb68da68fb685a6069
:10276000fb685b68db68064a1360054b1b6800bfab
:102770002037bd4680bd00bf5ca3402048a3402059
:0c27800024a340203ca3402000a04020e7
:020000040000fa
:020000040040ba
:10278c0080b584b000af786039600123fb607b6852
:10279c00bb60bb68002b5dd0bb68db6b002b59d0da
:1027ac00bb681a6cbb68db6b0021a3fb0223002bfc
:1027bc0000d001210b46002b4cd102f04bf9bb6829
:1027cc001a68bb68db6bb968096c01fb03f31a442c
:1027dc00bb689a60bb6800229a63bb681a68bb68c6
:1027ec005a60bb681a68bb68db6b013bb968096c43
:1027fc0001fb03f31a44bb68da60bb68ff2283f861
:10280c004420bb68ff2283f845203b68002b14d181
:10281c00bb681b69002b1ad0bb6810331846fef737
:10282c0083fc0346002b12d00e4b4ff080521a60e3
:10283c00bff34f8fbff36f8f09e0bb68103318469f
:10284c0002f016f8bb682433184602f011f802f0b7
:10285c00a5f901e00023fb60fb6818461037bd4664
:08286c0080bd00bf04ed00e097
:020000040000fa
:020000040040ba
:1028740080b586b000aff860b9603b601346fb805a
:10288400bb6a186bfb889b001a46a52102f0dcfd8d
:10289400bb6a1a6bf9886ff040430b449b001344e6
:1028a4003b613b6923f007033b61bb68002b1ed0ef
:1028b40000237b6112e0ba687b6913441978ba6a11
:1028c4007b69134434330a461a70ba687b6913442b
:1028d4001b78002b06d07b6901337b617b690f2b4e
:1028e400e9d900e000bfbb6a002283f843203b6ab9
:1028f400042b01d904233b62bb6a3a6ada62bb6add
:102904003a6a5a64bb6a0433184602f0cbfcbb6ac9
:102914001833184602f0c6fcbb6aba6a1a613b6aed
:10292400c3f10502bb6a9a61bb6aba6a5a623a6821
:10293400f968386901f056fb0246bb6a1a607b6a83
:10294400002b02d07b6aba6a1a6000bf1837bd46f2
:0229540080bd44
:020000040000fa
:020000040040ba
:02295600fee79a
:020000040000fa
:020000040040ba
:1029580008b5304b9847304b984702f08bfb002066
:1029680000f09afe02f09af902f0caf82b4c2c4bb0
:1029780023f07f03a3602b4b9847636913f4003f50
:1029880012d1bff34f8fbff36f8f0022c4f85022cc
:10299800bff34f8fbff36f8f626942f400326261f9
:1029a800bff34f8fbff36f8f1c4b5b6913f4803fee
:1029b80029d11a4b0022c3f88420bff34f8fd3f8d4
:1029c8008030c3f3c905c3f34e335a0143f6e076aa
:1029d800124802ea06042b4644ea8371c0f86012e2
:1029e800013bb3f1ff3ff7d1203a12f1200ff0d1ac
:1029f800bff34f8f094a536943f480335361bff3e0
:102a08004f8fbff36f8f084b9847084b984702f0da
:102a180035fdfee7870f4000870f400000ed00e01e
:102a2800000040008d424000870f4000870f4000a3
:020000040000fa
:020000040040ba
:102a380080b586b000aff860b9607a6000237b612a
:102a4800fb689b6b3b61fb681b6c002b0dd1fb6823
:102a58001b68002b4dd1fb689b681846fff794fc58
:102a68007861fb6800229a6043e07b68002b19d1eb
:102a7800fb685868fb681b6c1a46b96802f0f4fbdf
:102a8800fb685a68fb681b6c1a44fb685a60fb6851
:102a98005a68fb689b689a422bd3fb681a68fb68e4
:102aa8005a6026e0fb68d868fb681b6c1a46b96850
:102ab80002f0dafbfb68da68fb681b6c5b421a44bd
:102ac800fb68da60fb68da68fb681b689a4207d221
:102ad800fb689a68fb681b6c5b421a44fb68da6007
:102ae8007b68022b05d13b69002b02d03b69013b77
:102af8003b613b695a1cfb689a637b691846183727
:042b0800bd4680bd89
:020000040000fa
:020000040040ba
:102b0c0080b584b000af78600b46fb702b4bbb607c
:102b1c002b49b86802f0cffb0346fb73fb78bb7301
:102b2c0013e0fb7bba68d018bb7b7a6813441b7824
:102b3c005bb21a46234902f0befb0346dab2fb7bba
:102b4c001344fb73bb7b0133bb73bb7b042be8d9f6
:102b5c00fb78002b1ad00023bb7313e0fb7bba6805
:102b6c00d018bb7b7a6813441b785bb21a461549a4
:102b7c0002f0a1fb0346dab2fb7b1344fb73bb7b75
:102b8c000133bb73ba7bfb789a42e7d3fb7bba6801
:102b9c0013440d49184602f08efb0346dab2fb7b58
:102bac001344fb73094bdb68fa7b0449184600f0ad
:102bbc0015fb00bf1037bd4680bd00bf23a14020d0
:102bcc00245440002c5440003454400004a14020b4
:020000040000fa
:020000040040ba
:102bdc0080b58cb000af786039607b68bb62eff376
:102bec0011824ff0200372b683f31188bff36f8ffd
:102bfc00bff34f8f62b67a613b617b697b62bb6ac4
:102c0c009b6b3b62bb6adb6b3a6a9a4231d2bb6a02
:102c1c0093f84530fb773b6a5a1cbb6a9a6397f969
:102c2c001f30b3f1ff3f12d1bb6a5b6a002b1dd082
:102c3c00bb6a24331846fef777fa0346002b15d0ef
:102c4c003b68002b12d03b6801221a600ee002f0a8
:102c5c007bfbb86197f91f30ba699a4206d9fb7fa2
:102c6c000133dbb25ab2bb6a83f845200123fb6205
:102c7c0001e00023fb627b6afb60fb6883f3118835
:0a2c8c00fb6a18463037bd4680bdd4
:020000040000fa
:020000040040ba
:022c9600704785
:020000040000fa
:020000040040ba
:102c980080b485b000af78607b681b781b021ab2dd
:102ca8007b6801331b781bb21343fb81b7f90e30e5
:102cb800002b11dbb7f90e30db111bb207ee903a8f
:102cc800b8eee77bb6ee006b27ee067bfdeec77b22
:102cd80017ee903afb8116e0fb895b429bb2fb81c1
:102ce800b7f90e30db11fb81b7f90e3007ee903ad9
:102cf800b8eee77bbeee006b27ee067bfdeec77bea
:102d080017ee903afb81b7f90e3007ee903af8eedd
:102d1800e77ab2ee027a27ee877af1ee046ac7ee16
:102d2800267a9fed087a77ee877afdeee77a17ee36
:102d3800903afb81fb895bb218461437bd465df8b3
:082d4800047b7047000000420b
:020000040000fa
:020000040040ba
:102d500080b584b000af78600023fb607b6803f02f
:102d60000703002b11d07b6803f00703c3f10803ae
:102d7000bb60bb68db437a689a4204d87a68bb6858
:102d800013447b6001e000237b6002f063fa194b7f
:102d90001b68002b05d1184b23f007031a46154b6f
:102da0001a607b68002b19d07b68da43134b1b68d1
:102db0009a4213d3114b1a687b68134449f6f77291
:102dc00093420bd80b4b1a680c4b1b681344fb60e7
:102dd0000a4b1a687b681344084a1360fdf702ff28
:102de000fb68002b01d102f0edf9fb6818461037a3
:102df000bd4680bd20a34020070040201ca34020ea
:020000040000fa
:020000040040ba
:102e000080b58ab002af0123fb613b4600221a6005
:102e10005a609a60da6000233b6100237b6111e015
:102e20001f4a7b69134419783a467b6913440a4662
:102e30001a703a467b6913441b78002b06d07b69d5
:102e400001337b617b690e2bead900e000bf3a4673
:102e50007b69134400221a700023bb6115e0114bfb
:102e60003b61bb699b00104a134439460193002320
:102e7000009300238022386901f0f0fbf861fb69c0
:102e8000012b06d1bb690133bb61bb69002be6ddb9
:102e900000e000bffb6918462037bd4680bd00bf7b
:0c2ea000f0544000d54c400058a34020e6
:020000040000fa
:020000040040ba
:102eac00882910b536d012dc812943d003dc802967
:102ebc0040d0002010bd82290ed08429f9d1196888
:102ecc0002b30a1d1a60b1f90020d3171ee0a02925
:102edc002bd00bdc9029ecd11968073121f00701bc
:102eec0001f108021a60d1e900230fe0c02901d0da
:102efc00f029ded11a68111d1960136803600023d4
:102f0c00436005e00a1d1a600a880023c0e900230b
:102f1c000120cfe7196822b10a1d1a6091f900202f
:102f2c00d3e70a1d1a600a78efe71a68111d1960b9
:102f3c001268cae719681ab10a1d1a600a68c4e750
:0c2f4c000c1d1c600b68c0e90032e1e7be
:020000040000fa
:020000040040ba
:102f58002de9f041d2e900230c4686b007465fea26
:102f6800d37820684968a5680590e66841d0524240
:102f780063eb4303002908db20f002000590b8f159
:102f8800000f02d1059948072ad5691e05a80290a5
:102f98000a20cde90010204600f0f0fdb8f1000f3e
:102fa80002d1059b59071fd5b8f1000f00f1ff307a
:102fb80014bf2d232b2333542269059b0093013a18
:102fc8002b46121a3118384600f0a8fb7b68db053f
:102fd80003d563689842b8bf184606b0bde8f081cb
:102fe8000807d2d42946d1e71a07e5d501382023a6
:082ff800e1e70029c0dac5e79a
:020000040000fa
:020000040040ba
:1030000080b487b000af786039600023fb747b68c0
:10301000002b01d1002339e07b681b68fb60fb6853
:103020001d4a934201d9002330e03b68002b01d1b7
:103030001a4b3b60fb685b003a68b2fbf3f3033b5f
:103040007b6105e0fb7c0133fb747b695b087b6182
:103050007b69ff2b02d9fb7c062bf3d97b69ff2b05
:1030600001d9002312e00e4b1b6903f07c527b69ef
:10307000dbb21a437b691b029bb21a43fb7c1b0425
:1030800003f4e023064913430b61012318461c3760
:10309000bd465df8047b704700093d0080d1f00813
:0430a000008001406b
:020000040000fa
:020000040040ba
:1030a40080b584b000af786001f0d8fc7b6893f8f9
:1030b4004530fb7311e07b685b6a002b12d07b68a0
:1030c40024331846fef734f80346002b01d002f0ef
:1030d4004bf9fb7b013bdbb2fb7397f90f30002b01
:1030e400e9dc00e000bf7b68ff2283f8452001f0a3
:1030f40059fd01f0b3fc7b6893f84430bb7311e0d5
:103104007b681b69002b12d07b6810331846fef7ce
:103114000ff80346002b01d002f026f9bb7b013bdc
:10312400dbb2bb7397f90e30002be9dc00e000bf83
:103134007b68ff2283f8442001f034fd00bf103780
:04314400bd4680bd47
:020000040000fa
:020000040040ba
:1031480080b485b000af78600023bb600023fb60cb
:103158007b68b3f1ff3f3ad07b68002b37d07b68a0
:103168001b0adbb2bb60bb68002b01d000232fe039
:103178007b68d9b21948ba6813469b0013441b01ef
:10318800034408331b68994201d3002320e07b687d
:10319800dab213469b0013449b0018460f49ba68dd
:1031a80013469b0013441b010b4414331b68034450
:1031b800fb60fb68db687a689a4206d1fb681b7c77
:1031c80083f00103dbb2002b01d0002300e0fb6891
:1031d80018461437bd465df8047b704764a040204c
:020000040000fa
:020000040040ba
:1031e80080b588b000aff860b9607a600023bb6131
:1031f80000237b610023fb77f868fff7a1ffb86124
:10320800bb69002b35d07b68002b32d0bb68002b04
:103218002fd0bb691b687b617b692c334ff0ff3172
:10322800184601f0ddf80346012b22d1bb690022c4
:103238009a60ba697b691a627b691b699b697968bc
:10324800b86898477b6934334ff0ff31184601f06e
:103258009df80346012b07d17b6993f82430dbb234
:10326800002b01d10123fb777b692c33184601f031
:0c3278007dfbfb7f18462037bd4680bd63
:020000040000fa
:020000040040ba
:1032840080b588b000aff860b9607a600023bb6194
:1032940000237b610023fb77f868fff753ffb861d5
:1032a400bb69002b35d07b68002b32d0bb68002b68
:1032b4002fd0bb691b687b617b6930334ff0ff31d2
:1032c400184601f08ff80346012b22d1bb69002276
:1032d4009a60ba697b69da617b691b695b687968a2
:1032e400b86898477b6938334ff0ff31184601f0ce
:1032f4004ff80346012b07d17b6993f82530dbb2e5
:10330400002b01d10123fb777b693033184601f090
:0c3314002ffbfb7f18462037bd4680bd14
:020000040000fa
:020000040040ba
:1033200080b487b000af786039600023fb7500235c
:103330003b611f4b93f82c30dbb2002b01d00023f4
:103340002fe01b4b1b7ddbb2002b01d0002328e0bc
:103350007b68002b24d07b681b68fb603b68002bdc
:1033600001d1144b3b60fb681b013a68b2fbf3f3dd
:103370003b613b69b3f5803f12d20f4b5b68bb608a
:10338000bb6823f46063bb607b685a680a49bb680a
:1033900013434b60084a3b699bb213620123fb75e0
:1033a000fb7d18461c37bd465df8047b704700bfa7
:0c33b000f8a1402080d1f008000a0e4077
:020000040000fa
:020000040040ba
:1033bc0080b485b000af78600023bb600023fb6055
:1033cc007b68b3f1ff3f36d07b68002b33d07b6832
:1033dc001b0adbb2bb60bb68002b01d000232be0c7
:1033ec007b68d9b21748ba681346db009b1adb001e
:1033fc00034408331b68994201d300231ce07b680b
:10340c00dbb219010f48ba681346db009b1adb00cc
:10341c0003441c331b680b44fb60fb689b687a6895
:10342c009a4206d1fb689b7983f00103dbb2002b37
:10343c0001d0002300e0fb6818461437bd465df848
:08344c00047b7047c0a1402081
:020000040000fa
:020000040040ba
:1034540080b584b000aff8607a603b600b46fb72c5
:10346400fb7a002b02d0012b22d029e03b68012bf0
:103474001cd803220021012000f014fa0246fb6844
:103484001a60fb681b68002b20d03b68012b1dd100
:10349400fb681868002300220021fef7abfa0346fc
:1034a400012b01d1012319e0002317e0002315e0cb
:1034b4003968786801f01ffa0246fb681a6006e072
:1034c400fb6800221a604ff0ff3307e000bffb687f
:1034d4001b68002b01d1002300e00123184610379c
:0434e400bd4680bda4
:020000040000fa
:020000040040ba
:1034e80080b584b000af214b1b7ddbb2002b38d0f8
:1034f8001e4b5b68bb601d4b9b68fb600de01b4b64
:103508001a68fb6813441a78194bdb691146184a84
:103518000b43d361fb680133fb60154b5b6903f018
:103528000203022b03d1ba68fb689a42e7d80f4a14
:10353800fb6893600d4b9b68ba689a4211d80b4b95
:1035480000221a750a4b4ff40072da60074bdb68e9
:10355800002b06d0054b1b697b60044bdb68786841
:10356800984700bf1037bd4680bd00bff8a1402076
:04357800000a0e40f7
:020000040000fa
:020000040040ba
:10357c0080b586b000af7860396001f06bfa1f4bf4
:10358c001b683b617b685b683a69d31afb603b68dc
:10359c001b68b3f1ff3f02d100237b6126e07b68ff
:1035ac001a68174b1b689a420ad07b685b683a69a9
:1035bc009a4205d301237b613b6800221a6015e017
:1035cc003b681b68fa689a420bd23b681a68fb6826
:1035dc00d21a3b681a60786801f0ccfc00237b613e
:1035ec0004e03b6800221a6001237b6101f0d6faeb
:1035fc007b6918461837bd4680bd00bf38a34020f4
:04360c004ca340206b
:020000040000fa
:020000040040ba
:1036100080b584b000af204b93f82c30dbb2002b88
:1036200035d01d4bdb69bb601b4b1b6afb600ae09e
:103630001a4b9969184b9a69fb681344cab21a70fd
:10364000fb680133fb60154b5b6903f00103012b41
:1036500003d1ba68fb689a42ead80f4afb68136242
:103660000d4b1b6aba689a4211d80b4b002283f8a3
:103670002c200a4be122da60074b5b6a002b06d054
:10368000054b9b6a7b60044b5b6a7868984700bf78
:103690001037bd4680bd00bff8a14020000a0e4093
:020000040000fa
:020000040040ba
:1036a000184b194a5a601a46936813f0010ffbd061
:1036b000144bdb68154a1360c3f3c113834220d057
:1036c00000f00203002b14bf0b220c22104b1343fb
:1036d0000c4a5360936813f0010ffbd000f0010017
:1036e000002814bf0b220c220a4b1a600a4b13430a
:1036f000044a5360936813f0010ffbd0074b084a4c
:103700001a607047000c0e400d00005a14a34020b0
:103710000008005a18a340200007005a00180e4065
:04372000010000a5ff
:020000040000fa
:020000040040ba
:103724002de9ff471d460c9b13f0010906468a4606
:10373400144601d195420bd822465146304601f039
:10374400c3fca54204d82546284604b0bde8f0874a
:103754002f1b102f3a464ff0200128bf1022684635
:10376400b84601f071fe00bfb8f10f0f11d83b0944
:103774006ff00f0202fb03726946304601f0a4fcad
:10378400b9f1000fe0d122465146304601f09cfccd
:10379400dae710226946304601f096fca8f11008d9
:0437a400e2e700bf99
:020000040000fa
:020000040040ba
:1037a80080b485b000af786039600023fb737b6814
:1037b800bb60bb68002b28d0174b1b7ddbb283f0a6
:1037c8000103dbb2002b20d0134abb681360124af6
:1037d8003b685360104b00229a600f4b01221a7508
:1037e8000123fb730d4b5b6903f00203022b08d125
:1037f800bb681a78094bda61074b9b680133064aa4
:103808009360064b4ff400729a60fb7b184614379e
:10381800bd465df8047b7047f8a14020000a0e40c1
:020000040000fa
:020000040040ba
:1038280080b582b000af00237b600ce07a68134655
:103838009b0013449b00124a1344184601f01af8df
:103848007b6801337b607b68042befd90d4801f05e
:1038580011f80d4801f00ef80c4801f00bf80c486f
:1038680001f008f80b4801f005f80b4b054a1a60ff
:103878000a4b054a1a6000bf0837bd4680bd00bf25
:1038880000a040208ca24020a0a24020b4a240204a
:10389800c8a24020dca2402028a340202ca340201e
:020000040000fa
:020000040040ba
:1038a80080b58ab002aff860b9601346fb71002397
:1038b800fb61fb68002b2dd00021ba68fb68a3fbd5
:1038c8000223002b00d001210b46002b22d1fb68dc
:1038d800ba6802fb03f313f1490f1bd8fb68ba68f7
:1038e80002fb03f3bb61bb6948331846fff72cfaa8
:1038f800f861fb69002b0dd0fb697b617b6948335c
:103908007b61fa79fb69009313467a69b968f868ac
:0e39180000f0d0fffb6918462037bd4680bd89
:020000040000fa
:020000040040ba
:10392600842910b523d00cdc812903d0822913d039
:1039360080290bd119680c1d1c600b6803601a6086
:1039460013e0902921d003dc882917d0002010bd70
:10395600a029efd0c029ece719680c1d1c600b6884
:103966000360d1171046c3e900010120efe719688b
:103976000c1d1c600b6803601a80f6e719680c1da5
:103986001c600b6803601a70efe719680c1d1c6059
:0c39960009680160d317c1e90023e6e7cf
:020000040000fa
:020000040040ba
:1039a20080b58ab004aff860b9603b601346fb8013
:1039b200fb889b001846fff7caf938613b69002b68
:1039c20013d05420fff7c3f978617b69002b08d02c
:1039d20054220021786901f038fd7b693a691a6343
:1039e20005e0386901f013fd01e000237b617b698a
:1039f200002b0dd0fa88002303937b6902937b6a24
:103a020001933b6a00933b68b968f868fef731ff9f
:0a3a12007b6918461837bd4680bdd9
:020000040000fa
:020000040040ba
:103a1c0080b584b000afb9607a603b600346fb812f
:103a2c00174b1b7f5bb2002b01d0002323e0154bff
:103a3c001b6a03f04073b3f1407f04d0104b022299
:103a4c005a77002317e00e4afb8913800c4a3b6817
:103a5c0093600b4abb691361094abb685360084aff
:103a6c007b68d360064b00225a77fb8900211846ed
:103a7c00fef770fb034618461037bd4680bd00bfed
:083a8c0028a240200080014047
:020000040000fa
:020000040040ba
:103a940080b582b002af134b01930123009300233e
:103aa4004ff480621049114800f0d6fd104b019389
:103ab4000123009300234ff480620e490e4800f066
:103ac400cbfd0e4b01930123009300234ff480623e
:103ad4000b490c4800f0c0fd00f0a8fb00bfbd4638
:103ae40080bd00bf08a340203445400095544000e9
:103af4000ca340204c454000a354400010a3402098
:083b040064454000b15440008b
:020000040000fa
:020000040040ba
:103b0c0080b582b000af194b1b7883f00103dbb298
:103b1c00002b0ed000210020fdf706fe0246134bb1
:103b2c005a60124b5b68b3f1ff3f02d00f4b01227e
:103b3c001a700e4b5b68f91d01221846fff79cfbaf
:103b4c000346002b0ed0094b01221a72fb791a4640
:103b5c00064bda60064b186800234ff0ff3205491c
:103b6c00fdf744ff00bf0837bd4680bdf0a24020e2
:083b7c0060a34020f8a24020e4
:020000040000fa
:020000040040ba
:103b84002de9f84f04460c9f6668d4f80cb02469fc
:103b940010463a68013c002502f0020a0b9a0bf821
:103ba4000450002e1946b8bf0126012390464fea5f
:103bb400e279002c03dcd3b12046bde8f88f50ea4b
:103bc400010209d1721b002a06dc0a9a521b002a40
:103bd400f1ddbaf1000feed042464b4601f0f0f8a9
:103be400013c134630320bf804200135e1e73b6811
:083bf40023f010033b60dfe742
:020000040000fa
:020000040040ba
:103bfc0080b584b000af0346b9607a60fb81174b87
:103c0c001b7f5bb2002b01d0002323e0144b1b6afb
:103c1c0003f04073b3f1407f04d0104b02225a776b
:103c2c00002317e00d4afb8913800c4abb68936094
:103c3c000a4a7b681361094b00225a60074b002229
:103c4c00da60064b00225a77fb8901211846fef7f1
:103c5c0081fa034618461037bd4680bd28a2402085
:043c6c000080014093
:020000040000fa
:020000040040ba
:103c700080b584b000af0346b9607a60fb81174b12
:103c80001b7f5bb2002b01d0002323e0144b1b6a87
:103c900003f04073b3f1407f04d0104b02225a77f7
:103ca000002317e00d4afb8913800c4b00229a6019
:103cb0000a4b00221a61094abb685360074a7b68b5
:103cc000d360064b00225a77fb8900211846fef785
:103cd00047fa034618461037bd4680bd28a240204b
:043ce000008001401f
:020000040000fa
:020000040040ba
:103ce40080b582b000af786001f088fa01f038fa4c
:103cf400fdf748f900f0a0f8114b4ff400425a6068
:103d0400104b4ff400425a6000f062fa0e49002052
:103d1400fef7c0fb02460d4b1a600d490020fdf76b
:103d2400b9fd0246094b5a6001f036fb01f028fb4d
:103d340001f0b6f900f048f800bf0837bd4680bd71
:103d440000190e4050180e407454400000a3402047
:043d54008451400056
:020000040000fa
:020000040040ba
:103d580080b485b000af786039603b681b68bb6091
:103d6800bb68b3f1ff3f03d17b681b69fb600ce0c4
:103d78007b680833fb6002e0fb685b68fb60fb68fc
:103d88005b681b68ba689a42f6d2fb685a683b6857
:103d98005a603b685b683a689a603b68fa689a6060
:103da800fb683a685a603b687a681a617b681b68e6
:103db8005a1c7b681a6000bf1437bd465df8047b47
:023dc800704742
:020000040000fa
:020000040040ba
:023dca00704740
:020000040000fa
:020000040040ba
:103dcc0080b500af002000f0fbfbbff35f8f62b645
:103ddc0007214ff0ff3000f02bfb0721082000f0eb
:103dec0027fb082000f0defd0721132000f020fb4c
:103dfc00132000f0d7fd0d4b5b6a0c4a43f4802373
:103e0c0053620a4b5b69094a43f010035361074b39
:103e1c005b6a064a43f400335362044b5b6a034a01
:103e2c0043f48033536200bf80bd00bf00ed00e05f
:020000040000fa
:020000040040ba
:103e3c0080b400af184b4ff486721a60164b5022a8
:103e4c001a60154b4ff400625a60134b51221a62e0
:103e5c00124b00229a61114b0022da610f4b0022a7
:103e6c001a620e4b002283f82c200c4b00225a6253
:103e7c000a4b00221a60094b00225a60074b0022a1
:103e8c009a60064b00221a75044b0022da6000bfc0
:103e9c00bd465df8047b7047000a0e40f8a1402037
:020000040000fa
:020000040040ba
:103eac0080b582b000af174b5b6903f0e0037b6019
:103ebc007b68002b11d0134be122da60124b0022ed
:103ecc0083f82c20104b5b6a002b06d00e4b9b6aa0
:103edc003b600d4b5b6a386898470a4b5b6903f093
:103eec000103012b01d1fff78dfb064b5b6903f03e
:103efc000203022b01d1fff7f1fa00bf0837bd46d0
:0c3f0c0080bd00bf000a0e40f8a140205c
:020000040000fa
:020000040040ba
:103f180080b400af174b1b6b164a23f07003136372
:103f280000bf144b9b6e03f00803082bf9d1114b0b
:103f38001b6b23f440730f4a43f48073136300bf71
:103f48000c4b9b6e03f00803082bf9d1094b1b6b34
:103f580023f00303074a43f00203136300bf054b32
:103f68009b6e03f00803082bf9d100bfbd465df82e
:083f7800047b704700060e40b7
:020000040000fa
:020000040040ba
:103f800080b586b000af786039600023fb757b6830
:103f90003b613b69002b1dd000f06cfef860104bbc
:103fa00093f82c30dbb283f00103dbb2002b11d08d
:103fb0000b4a3b6993610a4a3b68d361084b002274
:103fc0001a62074b012283f82c200123fb75054b55
:103fd000e1229a60fb7d18461837bd4680bd00bfc0
:083fe000f8a14020000a0e4088
:020000040000fa
:020000040040ba
:103fe80080b485b000aff860b9607a60fb68043bc4
:103ff800fb60fb684ff080721a60fb68043bfb6053
:10400800bb6823f00102fb681a60fb68043bfb6095
:104018000c4afb681a60fb68143bfb607a68fb6813
:104028001a60fb68043bfb60fb686ff002021a60d1
:10403800fb68203bfb60fb6818461437bd465df8fb
:08404800047b7047754b40003a
:020000040000fa
:020000040040ba
:10405000eff30980bff36f8f154b1a681ef0100f36
:1040600008bf20ed108a20e9f04f10602de909000b
:104070004ff0200072b680f31188bff34f8fbff36b
:104080006f8f62b6fef70cfb4ff0000080f31188d3
:1040900009bc19680868b0e8f04f1ef0100f08bf9f
:1040a000b0ec108a80f30988bff36f8f704700006f
:0840b00024a3402000bf00bf63
:020000040000fa
:020000040040ba
:1040b80080b500af124b1b68114a43f47f031360ad
:1040c8000f4b1b680e4a43f07f4313600d4b0022d1
:1040d8001a6000f0ddfc0c4b00221a6001f02af98e
:1040e8000a4b1b68094a43f04043136000f018ff6d
:1040f800fef7d2fa00f03afd0023184680bd00bf53
:1041080020ed00e01ced00e070a3402034ef00e05b
:020000040000fa
:020000040040ba
:1041180080b586b000af78607b687b617b69db69be
:104128003b617b691b695b6a9847f860fb68002bf9
:1041380007d13b6900229a607b69002283f8252019
:104148000ce07b699b6cf968184600f0cbfa0246d4
:104158003b699a607b69012283f825207b693833a3
:0e416800184600f005f800bf1837bd4680bdb0
:020000040000fa
:020000040040ba
:1041780080b584b000af78600023fb607b68002bbb
:1041880003d07b681b68002b01d1002318e07b68f3
:104198001b6807f10c0211461846fef71bfd034683
:1041a800002b0cd0fb68002b07d0074b4ff0805238
:1041b8001a60bff34f8fbff36f8f012300e0002316
:0c41c80018461037bd4680bd04ed00e035
:020000040000fa
:020000040040ba
:1041d40080b400af134b80221a60124b28221a605d
:1041e400104b1b6903f07c520e494bf2c01313436e
:1041f4000b610c4b4ff080721a600a4b07229a62d3
:10420400084b4ff440725a62064b04221a60064b64
:1042140000225a77044b00221a7700bfbd465df88e
:0c422400047b70470080014028a240206d
:020000040000fa
:020000040040ba
:1042300080b582b000affef7e3fd78607b68012bac
:1042400016d14ff0200372b683f31188bff36f8f3e
:10425000bff34f8f62b63b60084b4ff0ff321a60de
:10426000074b01221a60074b00221a60fff724ff58
:10427000054b1b6800bf0837bd4680bd54a34020d6
:0c42800040a3402038a3402074a340203d
:020000040000fa
:020000040040ba
:10428c000e4a38b5002313600d4a0e4c13600e4acb
:10429c000e4d13600e4a13600e4a13600e4a5362a1
:1042ac00136101239360fff78afdfff788fdac4291
:1042bc0000d338bd54f8043b9847f8e768a3402076
:1042cc00c0a0402074014000bca0402078014000f8
:0c42dc00b4a04020b8a04020c4a04020a6
:020000040000fa
:020000040040ba
:1042e80080b582b000af19e000f0b6fb0f4bdb6879
:1042f800db687b607b680433184600f0c5f80c4b1c
:104308001b68013b0a4a13600a4b1b68013b094ab8
:10431800136000f045fc786800f040ff054b1b680f
:10432800002be1d100bf0837bd4680bdc8a24020a0
:0843380034a3402030a3402013
:020000040000fa
:020000040040ba
:1043400080b584b000af78607b68fb600023bb6001
:10435000fb685b6abb60fb681b691b699847034687
:104360001a46bb685a71bb685b79dbb2002b04d17b
:10437000fb68002283f8282003e0fb68012283f811
:104380002820fb6834331846fff7f6fe00bf1037cd
:04439000bd4680bde9
:020000040000fa
:020000040040ba
:1043940080b584b000af786039600023fb607b682f
:1043a400002b03d07b681b68002b01d1002315e090
:1043b4003b68b3f1ff3f03d14ff0ff33fb6001e0f3
:1043c4003b68fb607b681b68f9681846fcf77aff5a
:1043d4000346012b01d1012300e0002318461037c6
:0443e400bd4680bd95
:020000040000fa
:020000040040ba
:1043e80080b584b000af786039600023fb607b68db
:1043f800002b03d07b681b68002b01d1002315e03c
:104408003b68b3f1ff3f03d14ff0ff33fb6001e09e
:104418003b68fb607b681b68f9681846fcf750ff2f
:104428000346012b01d1012300e000231846103771
:04443800bd4680bd40
:020000040000fa
:020000040040ba
:10443c0080b483b000af03463960fb7197f9073045
:10444c00002b0adb3b68dab20c4997f907305201b2
:10445c00d2b20b4483f800230ae03b68dab2084975
:10446c00fb7903f00f03043b5201d2b20b441a76d2
:10447c0000bf0c37bd465df8047b704700e100e0df
:04448c0000ed00e05f
:020000040000fa
:020000040040ba
:1044900080b485b000af78607b681b69fb607b6887
:1044a0005b687a6892689a607b689b687a685268f1
:1044b0005a60fb685b687a689a4203d17b689a68a5
:1044c000fb685a607b6800221a61fb681b685a1ef1
:1044d000fb681a60fb681b6818461437bd465df818
:0444e000047b7047a2
:020000040000fa
:020000040040ba
:1044e40030b589b015464ff0ff32019202f2031243
:1044f400029200b96846cde9030151b14c1e00296e
:10450400059408da094b4f221a604ff0ff3009b0c6
:1045140030bd0c46f3e700220270cde906001a46ce
:10452400294601a800f0b0fef1e700bf6ca34020cb
:020000040000fa
:020000040040ba
:104534004150505f53454e534f525f54485245418a
:10454400445f5461736b73004150505f4545505252
:104554004f4d5f5448524541445f5461736b73003f
:104564004150505f555345525f494e5055545f5426
:0c45740048524541445f5461736b730072
:020000040000fa
:020000040040ba
:1045800080b582b000af786039607b681b6c002b0f
:1045900018d07b68da687b681b6c1a447b68da6029
:1045a0007b68da687b689b689a4203d37b681a68e9
:1045b0007b68da607b68d9687b681b6c1a46386850
:0c45c00000f056fe00bf0837bd4680bd6d
:020000040000fa
:020000040040ba
:1045cc0080b485b000af78607b6803f00703fb60b4
:1045dc000b4bdb68bb60ba684ff6ff031340bb6044
:1045ec00fb681a02bb681a43064b1343bb60044ab0
:1045fc00bb68d36000bf1437bd465df8047b7047c1
:08460c0000ed00e00000fa05da
:020000040000fa
:020000040040ba
:1046140080b400af0e4b02221a770e4b5b680d4a32
:1046240043f4805353600a4b1b69012b03d1094b9c
:1046340003221a6002e0074b01221a6062b6054b9e
:1046440003225a6200bfbd465df8047b704700bf79
:0846540028a240200080014073
:020000040000fa
:020000040040ba
:10465c0080b588b002aff860b9603b601346fb8050
:10466c00fa887b6a01933b6a00933b68b968f868e7
:10467c00fff791f938613b69002b05d03869fdf7dc
:10468c00d5fc01237b6102e04ff0ff337b617b693a
:08469c0018461837bd4680bd29
:020000040000fa
:020000040040ba
:1046a40080b584b000af78600023fb607b68002b8a
:1046b40008d000f0cdfd00217868fdf76dfffcf710
:1046c4008ffaf860fb68002b07d1064b4ff080523d
:1046d4001a60bff34f8fbff36f8f00bf1037bd4613
:0846e40080bd00bf04ed00e001
:020000040000fa
:020000040040ba
:1046ec0080b485b000af786039600023bb600023d4
:1046fc00fb600ee0fb689b007a6813441b683a6809
:10470c009a4203d1fb680133bb6005e0fb680133bf
:10471c00fb60fb68022bedd9bb6818461437bd460d
:06472c005df8047b7047fc
:020000040000fa
:020000040040ba
:1047320010b50278202a034600f10100f9d0a2f157
:1047420009010429f5d92b2a07d02d2a11d10121db
:104752000133013b00200a2403e00021f8e7604313
:10476200801a13f8012f303a092af8d901b94042c8
:0647720010bd0021ede77f
:020000040000fa
:020000040040ba
:1047780080b582b000af4ff0200372b683f3118882
:10478800bff36f8fbff34f8f62b67b60fcf71ef9e4
:104798000346002b03d0064b4ff080521a600023cb
:1047a8003b603b6883f3118800bf0837bd4680bd76
:0447b80004ed00e02c
:020000040000fa
:020000040040ba
:1047bc0010b5054c227832b9044b13b10448aff351
:1047cc0000800123237010bd70a240200000000067
:1047dc000000000008b5034b1bb103490348aff3bd
:1047ec00008008bd0000000074a240200000000002
:020000040000fa
:020000040040ba
:1047fc0080b582b000af78607b68002b01d10023bc
:10480c0012e07b681b68002b01d000230ce0012018
:10481c0000f08afa02467b681a607b681b68002be2
:10482c0001d1002300e0012318460837bd4680bda6
:020000040000fa
:020000040040ba
:10483c0080b400af0c4b93f82c30dbb2002b0cd0b7
:10484c000a4be122da60084b002283f82c20064b3d
:10485c000022da61044b00221a6201231846bd467d
:10486c005df8047b704700bff8a14020000a0e40a1
:020000040000fa
:020000040040ba
:10487c0080b483b000af78607b6803f108027b687a
:10488c005a607b684ff0ff329a607b6803f1080234
:10489c007b68da607b6803f108027b681a617b68cd
:1048ac0000221a6000bf0c37bd465df8047b7047d0
:020000040000fa
:020000040040ba
:1048bc0080b584b000aff860b9607a60fb70bb68fb
:1048cc00002b03d1bb69ba691a6002e0bb697a6834
:1048dc001a60bb69fa68da63bb69ba681a640121a9
:0e48ec00b869fdf74dff00bf1037bd4680bd17
:020000040000fa
:020000040040ba
:1048fa0080b584b000af786039600023fb607b68c4
:10490a00002b0fd03a687b689a420bd8022200210a
:10491a007868fef7c4fff860fb68002b02d0fb68da
:0e492a003a689a63fb6818461037bd4680bd98
:020000040000fa
:020000040040ba
:1049380080b584b000af786039600023fb603b68c5
:10494800002b01d100230de07868fef733fdf860f5
:10495800fb68002b01d1002304e0fb683a68126869
:0c496800da60012318461037bd4680bd00
:020000040000fa
:020000040040ba
:1049740080b582b000af78607b68002b03d07b6881
:104984001b68002b01d100230ce07b68186800230e
:1049940000220021fdf72ef80346012b01d101234b
:0c49a40000e0002318460837bd4680bd27
:020000040000fa
:020000040040ba
:1049b00080b483b000af0346fb7197f90730002b3a
:1049c0000bdbfb7903f01f02074997f907305b09fe
:1049d000012000fa02f241f8232000bf0c37bd4647
:0c49e0005df8047b704700bf00e100e0c0
:020000040000fa
:020000040040ba
:1049ec0030b50d4a002300bf12f8134024b902eb76
:1049fc0043035b78184630bd01680d78a54209bfaa
:104a0c0002eb430301335b78013114bfdbb201606d
:0c4a1c000a2be9d9eee700bfe45340008c
:020000040000fa
:020000040040ba
:104a280080b483b000af0023fb710a4b4ff480724f
:104a38001a6002e0074b9b69fb71064b5b6903f048
:104a48000103012bf6d000bf0c37bd465df8047b8f
:084a5800704700bf000a0e4088
:020000040000fa
:020000040040ba
:104a600080b483b000af4ff0200372b683f3118897
:104a7000bff36f8fbff34f8f62b67b60054b1b6830
:104a80000133044a136000bf0c37bd465df8047b58
:084a9000704700bf70a3402035
:020000040000fa
:020000040040ba
:104a980080b400af084b00221a60084b00221a604d
:104aa800074b084a1a60044b07221a6000bfbd462c
:104ab8005df8047b704700bf10e000e018e000e0fc
:084ac80014e000e0df9304009c
:020000040000fa
:020000040040ba
:104ad00080b400af0a4b1b681b68002b04d1094b44
:104ae0004ff0ff321a6005e0054b1b68db681b685e
:104af000044a136000bfbd465df8047b704700bfe9
:084b000028a3402054a340202b
:020000040000fa
:020000040040ba
:104b080070b50b480b4d4ff6ff76016821b9436825
:104b180013b9fef7bcf870bd83684268334000f1f2
:104b28000c0455f823302046984704eb8000ece746
:084b38005814400038544000fd
:020000040000fa
:020000040040ba
:104b400080b400af094b00225a77084b00221a7735
:104b5000074b07229a62064b08221a60044b042274
:104b60001a6000bfbd465df8047b704728a2402054
:044b70000080014080
:020000040000fa
:020000040040ba
:104b740080b483b000af00233b604ff0200372b6d3
:104b840083f31188bff36f8fbff34f8f62b67b60df
:104b940000bf3b68002bfcd000bf0c37bd465df85e
:044ba400047b7047d7
:020000040000fa
:020000040040ba
:104ba80080b483b000af0a4b1b68013b084a13600e
:104bb800074b1b68002b04d100237b607b6883f3c1
:104bc800118800bf0c37bd465df8047b704700bff5
:044bd80070a3402066
:020000040000fa
:020000040040ba
:104bdc0080b582b000af78607b68002b0ed07b680c
:104bec0000229a607b6800221a607b680022da60df
:104bfc000023002200217868fcf7f8fe00bf08377c
:044c0c00bd4680bd64
:020000040000fa
:020000040040ba
:104c100080b588b004aff8607a603b600b467b815a
:104c200079890223029300230193002300933b68b8
:104c30007a68f868fcf7cef8034618461037bd4688
:024c400080bd35
:020000040000fa
:020000040040ba
:104c420080b588b004aff8607a603b600b467b8128
:104c5200798904230293fb690193bb6900933b6842
:104c62007a68f868fcf7b5f8034618461037bd466f
:024c720080bd03
:020000040000fa
:020000040040ba
:104c740080b582b000af00237b60084b5b693b606a
:104c84003b6803f0e0037b607b68002b01d0fff7f7
:104c9400c9fe7b6818460837bd4680bd000a0e4031
:020000040000fa
:020000040040ba
:104ca400bff34f8fbff36f8f084bd3f8902222f0de
:104cb4000102c3f89022d3f8942222f00102c3f82f
:104cc4009422bff34f8fbff36f8f704700ed00e066
:020000040000fa
:020000040040ba
:104cd40080b582b000af7860fff704fb064b1b6819
:104ce400012bf9d9054b4ff080521a60bff34f8f57
:104cf400bff36f8ff0e700bf00a0402004ed00e099
:020000040000fa
:020000040040ba
:104d040080b483b000af094b1b687b607b68002bc9
:104d140004d07b689b6c5a1c7b689a647b68184639
:104d24000c37bd465df8047b704700bf24a34020c8
:020000040000fa
:020000040040ba
:104d340080b586b000af0346fb7101237b6100237d
:104d44003b61fb791a4639697869fef7abfdf86077
:104d5400f868fff741fffb6818461837bd4680bd69
:020000040000fa
:020000040040ba
:104d640080b485b000af78607b685b6a002b06d0a6
:104d74007b681b6b1b68c3f10503fb6001e0002328
:104d8400fb60fb6818461437bd465df8047b70472a
:020000040000fa
:020000040040ba
:104d940080b584b000af7860fff760fe7b689a6be3
:104da4007b68db6b9a4202d10123fb6001e00023a4
:104db400fb60fff7f7fefb6818461037bd4680bd61
:020000040000fa
:020000040040ba
:104dc40053b94ab9002908bf00281cbf4ff0ff316e
:104dd4004ff0ff3000f0acbbadf1080c6de904ce30
:104de400fbf758fbddf804e0dde9022304b070476b
:020000040000fa
:020000040040ba
:104df40080b483b000af0346fb800b467b7113463f
:104e04003b71fb881a047b791b021a433b791343d9
:0c4e140018460c37bd465df8047b704763
:020000040000fa
:020000040040ba
:104e200080b483b000af0346fb80fb880133fb8076
:104e3000fb884ff6ff72934201d10123fb80fb8870
:0c4e400018460c37bd465df8047b704737
:020000040000fa
:020000040040ba
:104e4c0080b483b000af0346fb800b467b711346e6
:104e5c003b71fb881a047b791b021a433b79134381
:0c4e6c0018460c37bd465df8047b70470b
:020000040000fa
:020000040040ba
:104e780080b483b000af0346fb80fb880133fb801e
:104e8800fb884ff6ff72934201d10123fb80fb8818
:0c4e980018460c37bd465df8047b7047df
:020000040000fa
:020000040040ba
:104ea40080b400af074b084a9a6200bf054b9b6e63
:104eb40003f00203022bf9d100bfbd465df8047b69
:0c4ec400704700bf00060e40013f1820a0
:020000040000fa
:020000040040ba
:104ed00080b483b000af786039607b68002b05d068
:104ee000054a7b681362044a3b68536200bf0c3773
:0c4ef000bd465df8047b704728a24020fe
:020000040000fa
:020000040040ba
:104efc0055504000813f40001d5240000d53400072
:104f0c003d4840002d504000a9374000dd52400084
:0c4f1c00f5524000754c4000213340006d
:020000040000fa
:020000040040ba
:104f280008480068006880f308884ff0000080f3a4
:104f3800148862b661b6bff34f8fbff36f8f00df7f
:0c4f480000bf000008ed00e000bf00bf4b
:020000040000fa
:020000040040ba
:104f540080b582b000af78603960074b1b681833a6
:104f640019467868fef7f6fe01213868fdf714fb50
:0c4f740000bf0837bd4680bd24a34020cc
:020000040000fa
:020000040040ba
:104f800080b483b000af7860064b1a687b681a6003
:104f9000054b1a687b685a6000bf0c37bd465df848
:0c4fa000047b70474ca3402038a3402045
:020000040000fa
:020000040040ba
:104fac0080b584b000af7860fff754fd7b689b6bd5
:104fbc00002b02d10123fb6001e00023fb60fff713
:0c4fcc00edfdfb6818461037bd4680bda7
:020000040000fa
:020000040040ba
:104fd800802910db812901dd83290cd1136807336f
:104fe80023f0070303f108011160d3e90023c0e9a6
:0a4ff80000230120704700207047dd
:020000040000fa
:020000040040ba
:1050040080b483b000af0023fb71064b5b7ffb7160
:10501400044b00225a77fb7918460c37bd465df8dd
:08502400047b704728a2402024
:020000040000fa
:020000040040ba
:10502c0080b483b000af78603960064a7b68d36087
:10503c00044a3b68136100bf0c37bd465df8047b26
:08504c00704700bff8a14020ed
:020000040000fa
:020000040040ba
:1050540080b483b000af78603960064a7b685362dd
:10506400044a3b68936200bf0c37bd465df8047b7d
:08507400704700bff8a14020c5
:020000040000fa
:020000040040ba
:10507c00eff3108172b6074ad2f8883043f470030c
:10508c00c2f88830bff34f8fbff36f8f01b962b690
:08509c00704700bf00ed00e0c9
:020000040000fa
:020000040040ba
:1050a40080b500af064b00221a70002208210320ad
:1050b400fef7f8fb0246034b1a6000bf80bd00bf39
:0850c400f0a2402060a340208f
:020000040000fa
:020000040040ba
:1050cc0038b50569954228bf154604465db12a4698
:1050dc00406900f0c7f8636922692b44551b002214
:0850ec00636125611a7038bdf3
:020000040000fa
:020000040040ba
:1050f40080b584b000af78607b68fb60fb680022f9
:1051040083f82420fb6834331846fff733f800bfd4
:065114001037bd4680bd0e
:020000040000fa
:020000040040ba
:10511c00064b19680868b0e8f04f80f30988bff3b4
:10512c006f8f4ff0000080f31188704724a340204c
:04513c0000bf00bff1
:020000040000fa
:020000040040ba
:1051400080b485b000af786039604ff0200372b64c
:1051500083f31188bff36f8fbff34f8f62b6fb608d
:02516000fee768
:020000040000fa
:020000040040ba
:1051640080b500affff79cfefef7d4fe024b034a66
:105174001a6100bf80bd00bf00060e40001d0b0079
:020000040000fa
:020000040040ba
:10518400fc4e40000300000048a14020fc534000b6
:1051940024534000cc544000d85440000300000085
:020000040000fa
:020000040040ba
:1051a40080b582b000af78607b681b6b184600f056
:1051b4002df9786800f02af900bf0837bd4680bd94
:020000040000fa
:020000040040ba
:1051c40080b483b000af4ff0200372b683f311882c
:0e51d400bff36f8fbff34f8f62b67b60fee7b5
:020000040000fa
:020000040040ba
:1051e20010b50023934206d113f0030018bf01202b
:0e51f20000eb930010bdc45ccc540133f2e717
:020000040000fa
:020000040040ba
:1052000080b400af034b044a1a6000bfbd465df88e
:0c521000047b7047000c0e4000060004f8
:020000040000fa
:020000040040ba
:10521c0080b400af044b93f82c30dbb21846bd467b
:0c522c005df8047b704700bff8a1402033
:020000040000fa
:020000040040ba
:10523800fd3b4000713c40001d3a4000414b40009e
:0c5248000550400001304000d14e4000f5
:020000040000fa
:020000040040ba
:1052540080b400af044b1b680133034a136000bfe2
:0c526400bd465df8047b70475ca3402051
:020000040000fa
:020000040040ba
:105270005ab110b40a44431e11f8014b03f8014f10
:0c5280009142f9d15df8044b7047704773
:020000040000fa
:020000040040ba
:10528c0013b50446019201aafaf77cff636813f088
:0c529c00100f18bf4ff0ff3002b010bd23
:020000040000fa
