:020000040000fa
:020000040040ba
:10000000f8ff472055294000f9544000ff544000b4
:100010000b554000115540001755400000000000ee
:100020000000000000000000000000001951400026
:100030000555400000000000514040007d47400051
:10004000930f4000930f4000930f4000930f400028
:10005000930f4000930f4000930f4000930f400018
:10006000ad3e400000000000930f4000930f4000a1
:10007000930f4000930f4000930f4000930f4000f8
:10008000930f4000930f4000930f40006107400022
:10009000930f4000930f4000930f4000930f4000d8
:1000a000930f4000930f4000930f4000930f4000c8
:1000b000930f4000930f4000930f4000930f4000b8
:1000c000930f4000930f4000930f4000930f4000a8
:1000d000930f4000930f4000930f4000930f400098
:1000e000930f4000930f4000930f4000930f400088
:1000f000930f4000930f4000930f4000930f400078
:10010000930f4000930f4000930f4000930f400067
:10011000930f4000930f400000000000000000001b
:10012000930f4000930f4000930f4000930f400047
:10013000930f4000930f400000000000930f400019
:10014000930f4000930f4000930f4000930f400027
:10015000930f4000930f4000930f4000930f400017
:08016000930f4000930f4000d3
:020000040000fa
:020000040040ba
:10016800f8b500bff8bc08bc9e467047e54740009c
:10017800f8b500bff8bc08bc9e467047c1474000b0
:020000040000fa
:020000040040ba
:08018800380300000100000033
:020000040000fa
:020000040040ba
:100190002de9f047aeb00746164605914ff000082e
:1001a000059d2b78002b00f0e08000244ff0ff33fa
:1001b000cde909430eab0c9380230b940d932b5d7b
:1001c0000bb1252b30d134b129462246384625447f
:1001d00004f07aff0595059b1a78252a40f0bc802b
:1001e00003f10109cdf814904a46002113782b2b16
:1001f000104602f1010223d02ed8202b24d0232b2d
:1002000026d001b105902a2b2ed004f06ffa059a62
:100210000b900020114601320b78303b092b79d925
:10022000002830d005912ee00134c8e7099b43f047
:10023000010309930121d9e7099b43f00203f8e781
:10024000099b43f00403f4e7099b43f00803f0e73c
:10025000099b43f01003ece72d2be7d0302bebd0bc
:100260000029d2d00590d0e733681a1d1b68326090
:100270000130002b05900b9305da099a5b4282f05e
:10028000010209920b93099bda0744bf23f0020392
:100290000993059b1a782e2a0fd14ff0000acdf84a
:1002a00028a05a785d1c2a2a059535d1023305937a
:1002b00033681a1d1b6832600a9305a804f008fc15
:1002c000059d0390287805f0f6f82528039900f09d
:1002d000da806138172800f2e080172800f2dd800c
:1002e000dfe810f02b00db00b6004700a700a700f6
:1002f000a700db004700db00db00db00db009e002b
:1003000065008300db00db00c700db005600db007c
:10031000db00740001207de7284604f0e7f953462e
:100320000a90294601350a78303a092a03d9002b68
:10033000c3d00591c1e70123f3e7324606a804f0d4
:1003400049fe002872d06b1c059306aa2b7809a9d8
:10035000384605f0e7f804444444a04540f3a7803c
:10036000544b4f221a604ff0ff3840462eb0bde884
:10037000f0873346012206a802f02efc002855d053
:10038000013506aa09a93846059502f093fee2e771
:100390003346002206a802f01ffc002846d0013593
:1003a00006aa09a93846059505f0baf8d3e73346f9
:1003b000002206a802f010fc002837d0013506aa5a
:1003c00009a93846059505f0abf8c4e73346002285
:1003d00006a802f001fc48b36b1c05932b7806aa13
:1003e00009a9384605f09ef8b5e733460022f0210a
:1003f00006a802f0f1fbc8b1dde90632013513436e
:1004000005950bd12c4804f0ddff099b00932a4988
:100410000b9b0246384603f04dfa9ce77823dee753
:10042000334608eb040206a803f008fd01350595e4
:1004300092e7324606a804f0cdfd0028f6d06b1cea
:10044000059306aa2b7809a9384605f06bf882e7d0
:100450008029ebd1336801351a1d1b6832608df895
:1004600018300595012306aa09a9384605f05cf85d
:1004700071e78029dad13268131d336001351268c3
:1004800005950023f0e78029d0d1099b0093013521
:100490000b9b059509490122bce700234ff0ff3271
:1004a000cdf8149009930b930a920093f2e7a046bb
:1004b00076e600bf6ca34020f0544000f6544000a4
:020000040000fa
:020000040040ba
:1004c0002de9f04786468c460846089e1546744638
:1004d0001946002b40f0c2808242b2fa82f245d91e
:1004e0004ab1c2f1200300fa02fc2efa03f3954050
:1004f00043ea0c0c94404fea154ea8b2bcfbfef840
:10050000230c0efb18cc08fb00f943ea0c43994579
:1005100028d9eb1808f1ff3704d2994502d9a8f180
:1005200002072b44a3eb0903a4b2b3fbfefc0efbb2
:100530001c330cfb00f044ea0344a04214d92c19ec
:100540000cf1ff3304d2a04202d9acf102032c44d7
:10055000241a43ea07401eb1d4400023346073607c
:10056000bde8f0874746dde76346f1e792bb431bf2
:1005700001214fea154eafb2b3fbfefc200c0efb7f
:100580001c330cfb07f840ea0343984562d9eb188b
:100590000cf1ff3004d2984502d9acf102002b4493
:1005a000a3eb0803a4b2b3fbfefc0efb1c330cfb55
:1005b00007f744ea0344a7424ed92c190cf1ff3344
:1005c00004d2a74202d9acf102032c44e41b43ea53
:1005d0000040c0e7c2f1200320fa03f195409040ab
:1005e0002efa03f303434fea154eafb2b1fbfefc04
:1005f0000efb1c10190c0cfb07f841ea0041884562
:1006000004fa02f422d969180cf1ff3004d28845ab
:1006100002d9acf102002944a1eb08019bb2b1fb65
:10062000fefc0efb1c110cfb07f743ea01439f4243
:100630000ed9eb180cf1ff3104d29f4202d9acf174
:1006400002012b44db1b41ea004192e76046e3e7ed
:100650006146f7e76046a3e76346b7e7834206d9fa
:1006600016b9002108467be7c6e900e0f9e7b3face
:1006700083f78fb9834201d3724508d8beeb0204d9
:1006800060eb030301209c461eb9002168e7384651
:10069000fae7c6e9004cf8e7c7f1200cbb4022faa4
:1006a0000cf41c432efa0cf120fa0cf3b840014371
:1006b0004fea14490efa07f5b3fbf9f81ffa84fe66
:1006c00009fb18300b0c08fb0efa43ea00439a456d
:1006d00002fa07f240d9e31808f1ff3004d29a4534
:1006e00002d9a8f102002344a3eb0a0389b2b3fba9
:1006f000f9f809fb183308fb0efe41ea03418e4569
:100700002cd9611808f1ff3304d28e4502d9a8f123
:100710000203214443ea0040a0fb0298a1eb0e0132
:100720004145ce46434602d306d14d4504d2b9ebee
:10073000020e68eb04030138002ea6d0b5eb0e02c2
:1007400061eb030101fa0cfc22fa07f34cea030304
:10075000f940c6e9003198e74046c5e74346d9e786
:020000040000fa
:020000040040ba
:1007600080b586b000af9c4b5b6a3b619b4b1b6abc
:10077000fb60fb6803f48073002b05d0964bff22cf
:100780001a77954b01225a77fb6803f00103002b7f
:1007900008d0924b08221a60904b04221a608f4bab
:1007a00007229a62fb6803f40073002b02d08a4b85
:1007b00001221a77884b5b7fdbb2002b40f0c780a9
:1007c000854b1b7f5bb2013b032b00f2c28001a271
:1007d00052f823f0e5074000cf0840000d08400024
:1007e0003d0940007c4bdb68002b07d07a4b1b880f
:1007f0009bb20021184601f0b1fcb1e0764b1b889a
:100800009bb20121184601f0a9fca9e0fb6803f0a6
:100810000403002b00f09f806f4b5b697b616e4b84
:10082000db68013b7a699a420cbf01230023fb720b
:10083000694b1b69002b13d0fb7a002b10d072b6ca
:10084000664b04229a62644b5a687b6913441a7897
:10085000624b5a637b6901337b6103f0dbfe2fe05f
:100860005d4bdb68013b7a699a421fd15a4b5a684b
:100870007b6913441a78594b5a637b6901337b6156
:10088000564b02221a60554b04229a62534b1b6a44
:10089000fb60fb6803f00103002b03d04e4b0522e5
:1008a0001a770de04c4b04221a7709e04a4b5a683c
:1008b0007b6913441a78494b5a637b6901337b6126
:1008c000454a7b695361454b1b6afb6043e0fb680b
:1008d00003f00203002b40d03f4b9b697b603e4bf3
:1008e0001b69023b7a689a4202d13c4b02221a6091
:1008f0003a4b196b384b9a687b681344cab21a702a
:100900007b6801337b60344b1b697a689a4211d152
:10091000324b02229a62314b1b6afb60fb6803f088
:100920000103002b03d02c4b05221a7702e02a4b3f
:1009300004221a77284a7b6893610ee0fb6803f073
:100940000103002b0bd0244b05221a7707e000bfd0
:1009500006e000bf04e000bf02e000bf00e000bf0f
:100960001d4b1b7f5bb2b3f1ff3f13d11a4b00222b
:100970001a771a4b07229a62184b08221a60174bf3
:1009800004221a60144b1b6a002b03d0124b1b6a03
:1009900038699847104b1b7f5bb2052b17d10e4b64
:1009a00000225a770c4b00221a770c4b07229a62ce
:1009b0000a4b08221a60094b04221a60064b1b6a74
:1009c000002b04d0044b1b6a3869984700bf00bf56
:1009d0001837bd4680bd00bf28a2402000800140de
:020000040000fa
:020000040040ba
:1009e00080b588b000af0023fb61764b1b68002bfd
:1009f00040f0de80744b1b680133bb61724abb69f7
:100a00001360bb69002b10d1704b1b687b61704b6e
:100a10001b686e4a13606e4a7b6913606d4b1b68de
:100a200001336c4a136004f037f86b4b1b68ba69ea
:100a30009a42c0f0a880654b1b681b68002b04d14c
:100a4000654b4ff0ff321a609de0604b1b68db681e
:100a5000db683b613b695b68fb60ba69fb689a4293
:100a600003d25d4afb6813608de03b695b69bb6044
:100a70003b699b683a69d2689a603b69db683a696e
:100a800092685a60bb685a683b6904339a4203d142
:100a90003b69da68bb685a603b6900225a61bb68ef
:100aa0001b685a1ebb681a603b699b6a002b1ed0ec
:100ab0003b699b6a7b603b69db693a69126a9a60b1
:100ac0003b691b6a3a69d2695a607b685a683b691c
:100ad00018339a4203d13b691a6a7b685a603b69b2
:100ae00000229a627b681b685a1e7b681a603b6909
:100af000db6a01229a40394b1b681343374a136063
:100b00003b69da6a364913469b0013449b000b4449
:100b100004331b683b603b693a689a603b689a689b
:100b20003b69da603b689b683a6904325a603b690a
:100b30001a1d3b689a603b69da6a13469b001344ae
:100b40009b00274a1a443b695a613b69da6a244987
:100b500013469b0013449b000b441b683a69d26afe
:100b6000591c1f4813469b0013449b000344196003
:100b70003b69da6a1b4b1b68db6a9a427ff65baf04
:100b80000123fb6157e7174b1b68da6a14491346c8
:100b90009b0013449b000b441b68012b01d90123cc
:100ba000fb61114b1b68002b07d00123fb6104e0a4
:100bb0000e4b1b6801330d4a1360fb691846203742
:100bc000bd4680bd5ca3402038a3402028a3402020
:100bd0002ca340204ca3402054a340203ca3402001
:100be00000a0402024a3402048a3402044a340204c
:020000040000fa
:020000040040ba
:100bf00080b588b000af0023fb610023bb6103f028
:100c000013ff00233b616d4b1b68013b6b4a136074
:100c10006a4b1b68002b40f0ca80694b1b68002b95
:100c200000f0c5808ee0674bdb68db68fb61fb6929
:100c30009b6afb60fb69db69fa69126a9a60fb696f
:100c40001b6afa69d2695a60fb685a68fb691833f3
:100c50009a4203d1fb691a6afb685a60fb69002259
:100c60009a62fb681b685a1efb681a60fb695b6925
:100c7000bb60fb699b68fa69d2689a60fb69db68b4
:100c8000fa6992685a60bb685a68fb6904339a42f1
:100c900003d1fb69da68bb685a60fb6900225a61bc
:100ca000bb681b685a1ebb681a60fb69db6a0122bd
:100cb0009a40454b1b681343434a1360fb69da6a49
:100cc000424913469b0013449b000b4404331b68aa
:100cd0007b60fb697a689a607b689a68fb69da6076
:100ce0007b689b68fa6904325a60fb691a1d7b684d
:100cf0009a60fb69da6a13469b0013449b00334aef
:100d00001a44fb695a61fb69da6a304913469b0051
:100d100013449b000b441b68fa69d26a591c2b4888
:100d200013469b0013449b0003441960fb69da6a75
:100d3000274b1b68db6a9a4204d9264a3b6901218a
:100d400042f823101f4b1b68002b7ff46caffb692c
:100d5000002b01d003f0a0fe1f4b1b687b617b6959
:100d6000002b12d0fff73cfe0346002b04d0194a9b
:100d70003b69012142f823107b69013b7b617b6960
:100d8000002befd1144b00221a60124a3b6952f833
:100d90002330002b0bd00123bb610d4b1b680f4b85
:100da0004ff080521a60bff34f8fbff36f8f03f085
:100db000dffebb6918462037bd4680bd5ca34020de
:100dc00034a34020b4a240203ca3402000a04020f7
:100dd00024a3402048a3402044a3402004ed00e089
:020000040000fa
:020000040040ba
:100de00090b58bb002aff8607a603b600b467b81b8
:100df0000023bb6100237b610023fb770023bb77cb
:100e0000f86802f0e3fab861bb69002b01d1fb7fff
:100e1000bbe097f83830012b07d17b6b002b02d059
:100e20003b6b002b20d1fb7fafe097f83830022bd3
:100e300003d097f83830082b07d13b68002b02d03d
:100e40007b68002b0fd1fb7f9fe03b68002b08d015
:100e50007b68002b05d07b6b002b02d03b6b002bfb
:100e600002d1fb7f91e000bfbb691b687b617b699e
:100e70002c334ff0ff31184603f0b6fa0346012b2e
:100e800040f08280bb6900225a71ba697b695a625c
:100e90007b699a69bb69db689a420bd07b691b69e5
:100ea0005b69ba690c32002110469847bb69da6861
:100eb0007b699a6197f83830022b10d0042b1bd035
:100ec000012b29d17b691b691b6878897a6b396b87
:100ed00098470346002b21d00123bb771ee07b6996
:100ee0001b695b6878893a68796898470346002be4
:100ef00016d00123bb7713e07b691b699c68788956
:100f00007b6b00933b6b3a687968a0470346002be4
:100f100008d00123bb7705e000bf04e000bf02e07a
:100f200000bf00e000bfbb7f002b12d07b693433d1
:100f30004ff0ff31184603f02dfa0346012b1ed166
:100f40007b6993f82830dbb2002b18d10123fb77a3
:100f500015e07b691b691b69984703461a46bb6904
:100f60005a71bb695b79dbb2002b04d17b6900222b
:100f700083f8282003e07b69012283f828207b691d
:100f80002c33184603f0f8fcfb7f18462437bd4687
:020f900090bd12
:020000040000fa
:020000040040ba
:020f9200fee778
:020000040000fa
:020000040040ba
:100f940080b400af634b0022c3f81421624b0022db
:100fa4001a67614b60225a675f4b78225a605e4b26
:100fb4006ff078021a605c4b4ff0ff325a655a4b5f
:100fc4004ff0ff321a66584b4ff0ff32c3f89020af
:100fd400554b4ff0ff32c3f8a020534b00221a6147
:100fe400514b4ff0ff325a614f4b00229a634e4be4
:100ff4000022c3f818214d4b4ff0ff321a604b4bbf
:101004004ff0ff325a65494b4ff0ff321a66474b97
:101014004ff0ff32c3f89020444b4ff0ff32c3f837
:10102400a020424b00221a61404b4ff0ff325a611c
:101034003e4b00229a633d4b0022c3f818213c4bdf
:101044004ff0ff321a603a4b4ff0ff325a65384b7b
:101054004ff0ff321a66364b4ff0ff32c3f8902040
:10106400334b4ff0ff32c3f8a020314b00221a61fa
:101074002f4b4ff0ff325a612d4b00229a632c4bb9
:101084000022c3f818212b4b4ff0ff321a60294b72
:101094004ff0ff325a65274b4ff0ff321a66254b4b
:1010a4004ff0ff32c3f89020224b4ff0ff32c3f8c9
:1010b400a020204b4ff400021a611e4b6ff4000273
:1010c4005a611c4b4ff400029a631a4b0022c3f876
:1010d4001821194b4ff0ff321a60174b4ff0ff32b3
:1010e4005a65154b4ff0ff321a66134b4ff0ff321f
:1010f400c3f89020104b4ff0ff32c3f8a0200e4be2
:1011040000221a610c4b4ff0ff325a610a4b002245
:101114009a63094b0022c3f8182100bfbd465df84d
:10112400047b704700800840000e0e4000100e4003
:0c11340000120e4000140e4000160e4089
:020000040000fa
:020000040040ba
:1011400080b489b000af78607b68db68db68bb6126
:10115000bb699b6a7b61bb69db69ba69126a9a6089
:10116000bb691b6aba69d2695a607b695a68bb69f4
:1011700018339a4203d1bb691a6a7b695a60bb690a
:1011800000229a627b691b685a1e7b691a604b4b6e
:101190001b68002b60d1bb695b693b61bb699b68c5
:1011a000ba69d2689a60bb69db68ba6992685a60aa
:1011b0003b695a68bb6904339a4203d1bb69da6858
:1011c0003b695a60bb6900225a613b691b685a1e21
:1011d0003b691a60bb69db6a01229a40384b1b6885
:1011e0001343374a1360bb69da6a364913469b00da
:1011f00013449b000b4404331b68fb60bb69fa6813
:101200009a60fb689a68bb69da60fb689b68ba6998
:1012100004325a60bb691a1dfb689a60bb69da6abe
:1012200013469b0013449b00264a1a44bb695a612b
:10123000bb69da6a234913469b0013449b000b44a5
:101240001b68ba69d26a591c1e4813469b00134496
:101250009b00034419601be01b4b5b68bb60bb69d0
:10126000ba68da61bb689a68bb691a62bb689b6836
:10127000ba6918325a60bb6903f11802bb689a60f8
:10128000bb69114a9a62104b1b6801330e4a136006
:10129000bb69da6a0d4b1b68db6a9a4205d90123e8
:1012a000fb610b4b01221a6001e00023fb61fb692b
:1012b00018462437bd465df8047b70475ca3402088
:1012c0003ca3402000a04020b4a2402024a3402002
:0412d00048a34020cf
:020000040000fa
:020000040040ba
:1012d40080b58ab000af7860396000237b627b6898
:1012e400fb6100233b6203f09dfbfb699b6bbb61cd
:1012f400bb69002b24d0bb695a1efb699a63fb6946
:101304001b68002b04d103f0f9fc0246fb699a60c8
:10131400fb691b69002b0fd0fb6910331846fff7dc
:101324000dff0346002b07d04c4b4ff080521a6040
:10133400bff34f8fbff36f8f03f018fc012389e0d5
:101344003b68002b03d103f011fc002382e07b6a8d
:10135400002b06d107f10c03184603f00dfe012300
:101364007b6203f003fc03f071ff03f05bfbfb699a
:1013740093f844305bb2b3f1ff3f03d1fb69002221
:1013840083f84420fb6993f845305bb2b3f1ff3f27
:1013940003d1fb69002283f8452003f0e7fb3a46ba
:1013a40007f10c031146184602f0eef80346002b31
:1013b40032d1f86903f0f6fd0346002b26d0fb6911
:1013c4001b68002b09d103f02dfbfb699b681846b1
:1013d40000f05afc386203f0c9fbfb6924333a6815
:1013e4001146184603f0b2fdf86901f00ffefff74d
:1013f400fdfb0346002b7ff476af184b4ff0805271
:101404001a60bff34f8fbff36f8f6ce7f86901f079
:10141400fdfdfff7ebfb66e7f86901f0f7fdfff769
:10142400e5fbf86903f0befd0346002b3ff45baf18
:101434003b6a002b0dd003f0f5faf86903f08efc3b
:101444007861fb699b687969184600f059fd03f0df
:101454008dfb002318462837bd4680bd04ed00e00f
:020000040000fa
:020000040040ba
:1014640080b586b000af03460a46fb8013467b7105
:1014740000237b610023fb60fb88002b02d04ff02c
:10148400ff339ce0fa881346db009b1adb004e4acc
:101494001344fb60fb6893f90d30022b06d1fb6803
:1014a4001b7b83f00103dbb2002b02d04ff0ff3330
:1014b40085e0fb6830334ff0ff31184602f092ffad
:1014c4000346002b02d14ff0ff3378e0fb681b7812
:1014d400002b07d0fb683033184603f04bfa4ff06b
:1014e400ff336ce0fb685b68002b0cd07b7903f066
:1014f4000803002b07d0fb683033184603f03afa90
:101504004ff0ff335be000233b6146e03b691a0187
:10151400fb68db6913449b7983f00103dbb2002b86
:1015240038d03b691a01fb68db6913447b617b6932
:1015340001229a717b69fa681a607b697a791a7157
:101544007b6900225a71fb685a697b69da607b798e
:1015540003f00803002b02d0fb6801221a70fb6819
:101564005b685a1cfb685a60fb681b8cfa88d1b212
:101574003a69d2b2184603f039fc02467b699a6094
:10158400fb681b8c184603f047fc03461a46fb68ad
:101594001a8407e03b6901333b61fb689b683a6945
:1015a4009a42b3d1fb683033184603f0e3f97b6900
:1015b400002b02d07b699b6801e04ff0ff33184693
:0c15c4001837bd4680bd00bfc0a140200c
:020000040000fa
:020000040040ba
:1015d00080b586b000af03460a46fb8013467b7198
:1015e0000023fb6000237b61fb88002b02d04ff0bf
:1015f000ff3399e0fa8813469b0013441b014c4ac1
:101600001344fb60fb6893f90c30022b02d04ff0bf
:10161000ff3389e0fb6828334ff0ff31184602f0b2
:10162000e3fe0346002b02d14ff0ff337ce0fb6862
:101630005b78002b07d0fb682833184603f09cf931
:101640004ff0ff3370e0fb685b68002b0cd07b79b8
:1016500003f00803002b07d0fb682833184603f07b
:101660008bf94ff0ff335fe000233b614ae03a69ba
:1016700013469b0013449b001a46fb685b691344a6
:101680001b7c83f00103dbb2002b38d03a69134690
:101690009b0013449b001a46fb685b6913447b6103
:1016a0007b6901221a747b69fa681a607b697a790e
:1016b0001a717b6900229a607b7903f00803002b82
:1016c00002d0fb6801225a70fb685b685a1cfb68f9
:1016d0005a60fb681b8bfa88d1b23a69d2b21846bd
:1016e00003f0b2fb02467b69da60fb681b8b18468d
:1016f00003f0c0fb03461a46fb681a8307e03b6908
:1017000001333b61fb689b683a699a42afd1fb6841
:101710002833184603f030f97b69002b02d07b692f
:10172000db6801e04ff0ff3318461837bd4680bd37
:0417300064a0402051
:020000040000fa
:020000040040ba
:1017340080b584b000af03463960fb800023fb60b2
:101744003b68bb60fb88002b02d04ff0ff3395e071
:10175400fa884c4913469b0013441b010b441b7825
:10176400002b02d04ff0ff3388e0fa8813469b0029
:1017740013441b01434a1344fb60fb6801221a70a3
:10178400bb681a68fb681a61bb689a68fb685a618f
:10179400bb685a68fb689a60fb6800225a60fb6861
:1017a4000022da61fb6800221a62fb6800225a7088
:1017b400fb6801221a83bb68da68fb68da63bb68da
:1017c4001a69fb681a64bb685a69fb685a64bb6887
:1017d4009a69fb689a64bb68da69fb68da64fb6837
:1017e4002833184603f00af80346002b02d14ff0c1
:1017f400ff3343e0fb682c33184602f0ffff034637
:10180400002b02d14ff0ff3338e0fb683033184629
:1018140002f0f4ff0346002b02d14ff0ff332de01a
:10182400fb6803f1340000230022002101f018febc
:101834000346002b02d14ff0ff331fe0fb6803f196
:10184400380000230022002101f00afe0346002b89
:1018540002d14ff0ff3311e0fb681b695b69fa6842
:10186400114609489847fb681b691b68fa681146ca
:1018740006489847fb6802221a73fb8818461037fb
:10188400bd4680bd64a04020f15040001941400095
:020000040000fa
:020000040040ba
:1018940070a240201c00000000000000c0a14020f5
:1018a400380000000000000064a040205000000048
:1018b4000000000028a240202800000000000000d2
:1018c400f8a14020300000000000000050a2402099
:1018d400200000000000000048a140203c0000005f
:1018e4000000000000a340201c00000000000000d5
:1018f40070a340200400000001000000aaaaaaaac4
:101904000000402000a00000000000001ca34020b4
:101914000c0000000000000000a040206400000053
:10192400000000008ca240202800000000000000fd
:1019340028a340200800000000000000b4a24020ba
:10194400280000000000000030a340200400000034
:1019540000000000dca24020140000000000000091
:1019640034a34020280000000000000074a340209d
:101974000400000001000000040000005ca34020fb
:10198400040000000000000004a140204400000006
:1019940000000000f0a24020100000000000000041
:1019a40060a34020040000000000000084a1402047
:1019b4003c0000000000000064a34020040000007c
:1019c40000000000b4a0402050000000000000000f
:1019d40068a3402008000000000000000000000090
:1019e400000000006666666666666666666666662b
:020000040000fa
:020000040040ba
:1019f40080b58ab000aff860b9607a603b600023bc
:101a04007b62fb683b6203f00df83b6a9a6b3b6aae
:101a1400db6b9a4202d33b68022b29d13a68b9683e
:101a2400386a01f005f8f8613b6a5b6a002b10d054
:101a34003b6a24331846fff781fb0346002b13d07f
:101a44003f4b4ff080521a60bff34f8fbff36f8f3d
:101a54000ae0fb69002b07d0394b4ff080521a6023
:101a6400bff34f8fbff36f8f03f080f8012363e060
:101a74007b68002b03d103f079f800235ce07b6ad8
:101a8400002b06d107f11403184603f075fa01235d
:101a94007b6203f06bf803f0d9fb02f0c3ff3b6aef
:101aa40093f844305bb2b3f1ff3f03d13b6a0022a9
:101ab40083f844203b6a93f845305bb2b3f1ff3faf
:101ac40003d13b6a002283f8452003f04ff83a1d06
:101ad40007f114031146184601f056fd0346002b86
:101ae40024d1386a03f052f90346002b18d03b6a1c
:101af40010337a681146184603f028fa386a01f060
:101b040085fafff773f80346002b7ff47caf0c4b88
:101b14004ff080521a60bff34f8fbff36f8f72e79d
:101b2400386a01f073fafff761f86ce7386a01f07c
:101b34006dfafff75bf8002318462837bd4680bdd1
:041b440004ed00e0cc
:020000040000fa
:020000040040ba
:101b480080b58ab000aff860b9607a6000237b6224
:101b5800fb683b6202f064ff3b6a9b6bfb61fb69bd
:101b6800002b1fd0b968386a02f006fdfb695a1ebf
:101b78003b6a9a633b6a1b69002b0fd03b6a1033a0
:101b88001846fff7d9fa0346002b07d03c4b4ff015
:101b980080521a60bff34f8fbff36f8f02f0e4ffdc
:101ba800012369e07b68002b03d102f0ddff0023ed
:101bb80062e07b6a002b06d107f11403184603f094
:101bc800d9f901237b6202f0cfff03f03dfb02f05d
:101bd80027ff3b6a93f844305bb2b3f1ff3f03d170
:101be8003b6a002283f844203b6a93f845305bb295
:101bf800b3f1ff3f03d13b6a002283f8452002f08e
:101c0800b3ff3a1d07f114031146184601f0bafc58
:101c18000346002b23d1386a03f0c2f90346002b90
:101c280017d03b6a24337a681146184603f08cf9ba
:101c3800386a01f0e9f9fef7d7ff0346002b89d18e
:101c48000f4b4ff080521a60bff34f8fbff36f8f67
:101c580080e7386a01f0d8f9fef7c6ff7ae7386af4
:101c680001f0d2f9fef7c0ff386a03f099f903468c
:101c7800002b3ff46faf002318462837bd4680bdc0
:041c880004ed00e087
:020000040000fa
:020000040040ba
:101c8c0080b586b000af78607b683b6100237b61d8
:101c9c007b68002b00f089803b69da6a454b1b6836
:101cac00db6a9a4278d23b699b69002b06db414b7d
:101cbc001b68db6ac3f105023b699a613b69596990
:101ccc003b69da6a13469b0013449b003a4a13445f
:101cdc00994259d13b690433184602f0d3fb0346b1
:101cec00002b0ad13b69db6a012202fa03f3da43c7
:101cfc00324b1b681340314a13602e4b1b68da6a57
:101d0c003b69da623b69db6a01229a402b4b1b6808
:101d1c0013432a4a13603b69da6a274913469b002e
:101d2c0013449b000b4404331b68fb603b69fa684b
:101d3c009a60fb689a683b69da60fb689b683a6951
:101d4c0004325a603b691a1dfb689a603b69da6a77
:101d5c0013469b0013449b00174a1a443b695a6173
:101d6c003b69da6a144913469b0013449b000b44ed
:101d7c001b683a69d26a591c0f4813469b001344de
:101d8c009b000344196004e00a4b1b68da6a3b6948
:101d9c00da6201237b6108e03b695a6c054b1b68d6
:101dac00db6a9a4201d201237b617b6918461837a2
:101dbc00bd4680bd24a3402000a040203ca3402071
:020000040000fa
:020000040040ba
:101dcc0080b584b002af454b1b7883f00103dbb2c6
:101ddc00002b23d003210020fff73efb02463f4b94
:101dec005a603e4b5b68b3f1ff3f08d03b4b3c4a1b
:101dfc009a603a4b5b683b49184602f099fd00210a
:101e0c000020fff7dffb0246344bda60334bdb6814
:101e1c00b3f1ff3f02d0314b01221a70324b1b68d9
:101e2c004ff0ff3231491846fff788fe2b4b1b7cd5
:101e3c00002b32d1294b93f84220284b5a77274b51
:101e4c005b69dab2254b9a77244b58680223284aef
:101e5c00572102f0d5fe0346002b0dd000bf1f4bbf
:101e6c005868fa1d0123572102f0cafe034683f07d
:101e7c000103dbb2002bf2d1184b93f84230013343
:101e8c00dab2164b83f84220144b93f84230042bf1
:101e9c0003d9124b002283f84220104b1b7c012be0
:101eac0017d10e4b00225a770c4b5868052301931f
:101ebc00104b009301230e4a572102f0bafe034641
:101ecc00002b06d0054b93f842301946094800f018
:101edc0015fe00bf0837bd4680bd00bf04a14020e1
:101eec00801a06000ca1402060a3402014a14020c1
:081efc0021a140201ca140209f
:020000040000fa
:020000040040ba
:101f040080b588b000af786039607b68bb6101231d
:101f14007b617b68002b00f08380bb695b6c3a6853
:101f24009a4202d93b68fb6102e0bb695b6cfb61ce
:101f3400bb69db6afa699a4272d0bb699b6c7a69a5
:101f44009a426dd1bb69db6a3b61bb69fa69da62ab
:101f5400bb699b69002b04dbfb69c3f10502bb6908
:101f64009a61bb6959693a6913469b0013449b0003
:101f74002d4a1344994253d1bb690433184602f0e5
:101f840085fa0346002b0ad1bb69db6a012202faf7
:101f940003f3da43254b1b681340244a1360bb69df
:101fa400db6a01229a40214b1b6813431f4a1360ca
:101fb400bb69da6a1c4913469b0013449b000b441b
:101fc40004331b68fb60bb69fa689a60fb689a6813
:101fd400bb69da60fb689b68ba6904325a60bb6902
:101fe4001a1dfb689a60bb69da6a13469b001344a6
:101ff4009b000d4a1a44bb695a61bb69da6a0a49f3
:1020040013469b0013449b000b441b68ba69d26ab5
:10201400591c054813469b0013449b000344196054
:1020240000bf2037bd4680bd00a040203ca3402017
:020000040000fa
:020000040040ba
:1020340080b584b000af786002f0f4fc3f4b1b68bd
:1020440001333e4a13603e4b1b68002b09d13c4ac6
:102054007b681360394b1b68012b10d101f0a8fb7e
:102064000de0384b1b68002b09d1354b1b68da6a2d
:102074007b68db6a9a4202d8314a7b681360324b30
:102084001b680133304a13607b68db6a01229a4083
:102094002e4b1b6813432d4a13607b68da6a2c4964
:1020a40013469b0013449b000b4404331b68fb60e2
:1020b4007b68fa689a60fb689a687b68da60fb68f8
:1020c4009b687a6804325a607b681a1dfb689a60c0
:1020d4007b68da6a13469b0013449b001c4a1a442b
:1020e4007b685a617b68da6a194913469b0013447a
:1020f4009b000b441b687a68d26a591c1448134627
:102104009b0013449b000344196002f02ffd0d4b08
:102114001b68002b0ed00a4b1b68da6a7b68db6aeb
:102124009a4207d20b4b4ff080521a60bff34f8f85
:10213400bff36f8f00bf1037bd4680bd34a340206e
:1021440024a3402040a3402050a340203ca340208f
:0821540000a0402004ed00e0b2
:020000040000fa
:020000040040ba
:10215c0080b584b000af03460a46fb8013467b7102
:10216c004ef66023fb60fb887f2b0dd9fb881b0a86
:10217c001b0403f4fe033c4a43f480735360fb8856
:10218c00394adbb2d36005e0fb881b04364a03f402
:10219c00fe035360354b00225a61344b00229a6186
:1021ac007b7983f00103dbb2002b53d02f4bdb6820
:1021bc00012b3fd12d4b1b69002b13d12b4b042230
:1021cc001a772a4b5b681a78274b5a63274b5b6943
:1021dc000133264a5361244b02221a60224b0122fe
:1021ec005a6237e072b6214b5b681a781e4b5a6301
:1021fc001e4b5b6901331d4a536100bf1a4b1b6aae
:10220c0003f00503002bf9d10be0fb68002b05d183
:10221c00164b02225a7762b6002321e0fb68013b81
:10222c00fb60114b1b6a03f00403002bedd0012360
:10223c007b710fe00d4b03221a770c4b5b681a78fd
:10224c00094b5a63094b5b690133084a5361064bce
:10225c0005225a627b79002b01d002f0d5f90123bb
:10226c0018461037bd4680bd0080014028a2402092
:020000040000fa
:020000040040ba
:10227c0080b584b002af0023bb71384b1b7883f060
:10228c000103dbb2002b23d003210020fff7e4f87d
:10229c000246324b5a60314b5b68b3f1ff3f08d0ba
:1022ac002e4b2f4a9a602d4b5b682e49184602f034
:1022bc003ffb00210020fff785f90246274bda602f
:1022cc00264bdb68b3f1ff3f02d0244b01221a707e
:1022dc004ff47a7002f0e0f9234b9b6b224a83f4a3
:1022ec00000393631d4b5868ba1d022301931f4bc7
:1022fc00009301234f2102f09cfc0346002b29d0b4
:10230c001a4800f023fd03461a46144b83f8382074
:10231c00124b00221a74114b93f938301a460f4b9a
:10232c005a61134b186800234ff0ff321149fff725
:10233c005bfb0a4b93f938301a460f490f4802f0f1
:10234c00aaff0346fb71054bdb68fa790b4918466b
:10235c0000f04cff00bf0837bd4680bd84a1402073
:10236c00a08601008ca1402000140e409ca14020ae
:10237c0060a3402094a14020945340009ea1402093
:020000040000fa
:020000040040ba
:10238c0080b586b000af78607b683b6100237b61d1
:10239c007b68002b6ed03b699b6c5a1e3b699a6420
:1023ac003b69da6a3b695b6c9a4263d03b699b6c14
:1023bc00002b5fd13b690433184602f063f80346e7
:1023cc00002b0ad13b69db6a012202fa03f3da43e0
:1023dc002b4b1b6813402a4a13603b695a6c3b69b0
:1023ec00da623b69db6ac3f105023b699a613b69be
:1023fc00db6a01229a40224b1b681343204a13606c
:10240c003b69da6a1f4913469b0013449b000b443b
:10241c0004331b68fb603b69fa689a60fb689a6836
:10242c003b69da60fb689b683a6904325a603b6925
:10243c001a1dfb689a603b69da6a13469b001344c9
:10244c009b00104a1a443b695a613b69da6a0d4990
:10245c0013469b0013449b000b441b683a69d26ad9
:10246c00591c084813469b0013449b0003441960f5
:10247c0001237b617b6918461837bd4680bd00bfc0
:08248c003ca3402000a0402009
:020000040000fa
:020000040040ba
:1024940080b584b000af03463960fb800023fb6045
:1024a4003b68bb60fb88002b02d04ff0ff3368e031
:1024b400fa8836491346db009b1adb000b440d33c4
:1024c40093f90030022b02d14ff0ff3359e0fa8820
:1024d4001346db009b1adb002c4a1344fb60fb68a9
:1024e40001221a73bb681a68fb681a61bb685a68d0
:1024f400fb68da61bb689a68fb689a60fb68002233
:102504005a60fb6800225a62fb6801221a84fb6845
:1025140000221a70bb68da68fb685a61bb68da6823
:10252400fb689a61fb683033184602f067f903468a
:10253400002b02d14ff0ff3323e0fb682c33184605
:1025440002f05cf90346002b02d14ff0ff3318e090
:10255400fb6803f1340000230022002100f080ff17
:102564000346002b02d14ff0ff330ae0fb681b69de
:102574009b69fa68114606489847fb6802225a7319
:10258400fb8818461037bd4680bd00bfc0a140205f
:04259400414340007f
:020000040000fa
:020000040040ba
:1025980080b588b000af78603960374b1b68fb6145
:1025a800364b1b68bb61364b1b687b61354b1b6820
:1025b8000433184601f068ff0346002b0bd1314b5a
:1025c8001b68db6a012202fa03f3da432e4b1b680d
:1025d80013402d4a13607b68b3f1ff3f24d13b6859
:1025e800002b21d0294b5b683b61264b1b683a695d
:1025f8009a60244b1b683a699268da60214b1a6822
:102608003b699b6804325a601e4b1b681a1d3b6964
:102618009a601c4b1b681d4a5a611c4b1b6801338e
:102628001a4a136000bf22e0fa697b681344fb6012
:10263800144b1b68fa685a60fa68fb699a4207d219
:10264800104b1b6804331946786901f049fb0ee00a
:102658000c4b1b6804331946b86901f041fb0c4b5d
:102668001b68fa689a4202d2094afb68136000bfe5
:102678002037bd4680bd00bf38a3402028a3402096
:102688002ca3402024a340203ca34020dca24020cf
:0426980054a34020e7
:020000040000fa
:020000040040ba
:10269c0080b588b000af344b1b68002b03d0334b94
:1026ac0001221a605be0314b00221a60304b1b6830
:1026bc001b6bfb614ff0a533bb612d4b1b681a687c
:1026cc002b4b1b681b6b9a4216d9fb691b68ba69aa
:1026dc009a4211d1fb6904331b68ba699a420bd137
:1026ec00fb6908331b68ba699a4205d1fb690c3344
:1026fc001b68ba699a4209d01d4b1b6834337b6145
:10270c001b4b1b687969184602f012fd194b1b68ac
:10271c00bb60bb68b3fa83f3fb71fb79c3f11f0396
:10272c003b613a6913469b0013449b00124a1344c5
:10273c00fb60fb685b685a68fb685a60fb685a6808
:10274c00fb6808339a4203d1fb68da68fb685a606d
:10275c00fb685b68db68064a1360054b1b6800bfaf
:10276c002037bd4680bd00bf5ca3402048a340205d
:0c277c0024a340203ca3402000a04020eb
:020000040000fa
:020000040040ba
:1027880080b584b000af786039600123fb607b6856
:10279800bb60bb68002b5dd0bb68db6b002b59d0de
:1027a800bb681a6cbb68db6b0021a3fb0223002b00
:1027b80000d001210b46002b4cd102f031f9bb6847
:1027c8001a68bb68db6bb968096c01fb03f31a4430
:1027d800bb689a60bb6800229a63bb681a68bb68ca
:1027e8005a60bb681a68bb68db6b013bb968096c47
:1027f80001fb03f31a44bb68da60bb68ff2283f865
:102808004420bb68ff2283f845203b68002b14d185
:10281800bb681b69002b1ad0bb6810331846fef73b
:102828008bfc0346002b12d00e4b4ff080521a60df
:10283800bff34f8fbff36f8f09e0bb6810331846a3
:1028480002f01af8bb682433184602f015f802f0b3
:102858008bf901e00023fb60fb6818461037bd4682
:0828680080bd00bf04ed00e09b
:020000040000fa
:020000040040ba
:1028700080b586b000aff860b9603b601346fb805e
:10288000bb6a186bfb889b001a46a52102f0dafd93
:10289000bb6a1a6bf9886ff040430b449b001344ea
:1028a0003b613b6923f007033b61bb68002b1ed0f3
:1028b00000237b6112e0ba687b6913441978ba6a15
:1028c0007b69134434330a461a70ba687b6913442f
:1028d0001b78002b06d07b6901337b617b690f2b52
:1028e000e9d900e000bfbb6a002283f843203b6abd
:1028f000042b01d904233b62bb6a3a6ada62bb6ae1
:102900003a6a5a64bb6a0433184602f0bdfcbb6adb
:102910001833184602f0b8fcbb6aba6a1a613b6aff
:10292000c3f10502bb6a9a61bb6aba6a5a623a6825
:10293000f968386901f058fb0246bb6a1a607b6a85
:10294000002b02d07b6aba6a1a6000bf1837bd46f6
:0229500080bd48
:020000040000fa
:020000040040ba
:022952007047cc
:020000040000fa
:020000040040ba
:1029540008b5304b9847304b984702f08bfb00206a
:1029640000f0a4fe02f09af902f034f92b4c2c4b3f
:1029740023f07f03a3602b4b9847636913f4003f54
:1029840012d1bff34f8fbff36f8f0022c4f85022d0
:10299400bff34f8fbff36f8f626942f400326261fd
:1029a400bff34f8fbff36f8f1c4b5b6913f4803ff2
:1029b40029d11a4b0022c3f88420bff34f8fd3f8d8
:1029c4008030c3f3c905c3f34e335a0143f6e076ae
:1029d400124802ea06042b4644ea8371c0f86012e6
:1029e400013bb3f1ff3ff7d1203a12f1200ff0d1b0
:1029f400bff34f8f094a536943f480335361bff3e4
:102a04004f8fbff36f8f084b9847084b984702f0de
:102a140033fdfee7532940005329400000ed00e058
:102a2400000040008d4240005329400053294000db
:020000040000fa
:020000040040ba
:102a340080b586b000aff860b9607a6000237b612e
:102a4400fb689b6b3b61fb681b6c002b0dd1fb6827
:102a54001b68002b4dd1fb689b681846fff794fc5c
:102a64007861fb6800229a6043e07b68002b19d1ef
:102a7400fb685868fb681b6c1a46b96802f094fc42
:102a8400fb685a68fb681b6c1a44fb685a60fb6855
:102a94005a68fb689b689a422bd3fb681a68fb68e8
:102aa4005a6026e0fb68d868fb681b6c1a46b96854
:102ab40002f07afcfb68da68fb681b6c5b421a4420
:102ac400fb68da60fb68da68fb681b689a4207d225
:102ad400fb689a68fb681b6c5b421a44fb68da600b
:102ae4007b68022b05d13b69002b02d03b69013b7b
:102af4003b613b695a1cfb689a637b69184618372b
:042b0400bd4680bd8d
:020000040000fa
:020000040040ba
:102b080080b584b000af78600b46fb702b4bbb6080
:102b18002b49b86802f0c1fb0346fb73fb78bb7313
:102b280013e0fb7bba68d018bb7b7a6813441b7828
:102b38005bb21a46234902f0b0fb0346dab2fb7bcc
:102b48001344fb73bb7b0133bb73bb7b042be8d9fa
:102b5800fb78002b1ad00023bb7313e0fb7bba6809
:102b6800d018bb7b7a6813441b785bb21a461549a8
:102b780002f093fb0346dab2fb7b1344fb73bb7b87
:102b88000133bb73ba7bfb789a42e7d3fb7bba6805
:102b980013440d49184602f080fb0346dab2fb7b6a
:102ba8001344fb73094bdb68fa7b0449184600f0b1
:102bb8001ffb00bf1037bd4680bd00bf23a14020ca
:102bc8001c544000245440002c54400004a14020d0
:020000040000fa
:020000040040ba
:102bd800902910b50fdc7f2913dd8039102910d812
:102be800dfe801f02b2b360f110f0f0f200f0f0fff
:102bf8000f0f0f0f3600c02944d0f02942d0a0296a
:102c080021d000200de019682ab10a1d1a60b1f917
:102c18000030da1702e00c1d1c600b88c0e9003296
:102c2800012010bd196822b10a1d1a6091f90030ff
:102c3800efe70c1d1c600b78f0e71968f2b10a1d6c
:102c48001a600b68e5e71a68111d19601368e0e758
:102c5800196852b1073121f0070101f108021a6021
:102c6800d1e90023c0e90023dae7ca1d22f00702f0
:102c780002f108011960d2e90023f3e70c1d1c607a
:102c88000b68cbe71a68111d1960136803600023ed
:042c98004360c5e7e9
:020000040000fa
:020000040040ba
:102c9c0080b58cb000af786039607b68bb62eff3b5
:102cac0011824ff0200372b683f31188bff36f8f3c
:102cbc00bff34f8f62b67a613b617b697b62bb6a03
:102ccc009b6b3b62bb6adb6b3a6a9a4231d2bb6a42
:102cdc0093f84530fb773b6a5a1cbb6a9a6397f9a9
:102cec001f30b3f1ff3f12d1bb6a5b6a002b1dd0c2
:102cfc00bb6a24331846fef71dfa0346002b15d089
:102d0c003b68002b12d03b6801221a600ee002f0e7
:102d1c000bfbb86197f91f30ba699a4206d9fb7f51
:102d2c000133dbb25ab2bb6a83f845200123fb6244
:102d3c0001e00023fb627b6afb60fb6883f3118874
:0a2d4c00fb6a18463037bd4680bd13
:020000040000fa
:020000040040ba
:022d56007047c4
:020000040000fa
:020000040040ba
:102d580080b485b000af78607b681b781b021ab21c
:102d68007b6801331b781bb21343fb81b7f90e3024
:102d7800002b11dbb7f90e30db111bb207ee903ace
:102d8800b8eee77bb6ee006b27ee067bfdeec77b61
:102d980017ee903afb8116e0fb895b429bb2fb8100
:102da800b7f90e30db11fb81b7f90e3007ee903a18
:102db800b8eee77bbeee006b27ee067bfdeec77b29
:102dc80017ee903afb81b7f90e3007ee903af8ee1d
:102dd800e77ab2ee027a27ee877af1ee046ac7ee56
:102de800267a9fed087a77ee877afdeee77a17ee76
:102df800903afb81fb895bb218461437bd465df8f3
:082e0800047b7047000000424a
:020000040000fa
:020000040040ba
:102e100080b584b000af78600023fb607b6803f06e
:102e20000703002b11d07b6803f00703c3f10803ed
:102e3000bb60bb68db437a689a4204d87a68bb6897
:102e400013447b6001e000237b6002f001fa194b20
:102e50001b68002b05d1184b23f007031a46154bae
:102e60001a607b68002b19d07b68da43134b1b6810
:102e70009a4213d3114b1a687b68134449f6f772d0
:102e800093420bd80b4b1a680c4b1b681344fb6026
:102e90000a4b1a687b681344084a1360fdf7a8fec2
:102ea000fb68002b01d102f08bf9fb681846103744
:102eb000bd4680bd20a34020070040201ca3402029
:020000040000fa
:020000040040ba
:102ec00080b58ab002af0123fb613b4600221a6045
:102ed0005a609a60da6000233b6100237b6111e055
:102ee0001f4a7b69134419783a467b6913440a46a2
:102ef0001a703a467b6913441b78002b06d07b6915
:102f000001337b617b690e2bead900e000bf3a46b2
:102f10007b69134400221a700023bb6115e0114b3a
:102f20003b61bb699b00104a13443946019300235f
:102f3000009300238022386901f090fbf861fb695f
:102f4000012b06d1bb690133bb61bb69002be6ddf8
:102f500000e000bffb6918462037bd4680bd00bfba
:0c2f6000e8544000d14c400058a3402031
:020000040000fa
:020000040040ba
:102f6c0080b487b000af786039600023fb747b6855
:102f7c00002b01d1002339e07b681b68fb60fb68e8
:102f8c001d4a934201d9002330e03b68002b01d14c
:102f9c001a4b3b60fb685b003a68b2fbf3f3033bf4
:102fac007b6105e0fb7c0133fb747b695b087b6117
:102fbc007b69ff2b02d9fb7c062bf3d97b69ff2b9a
:102fcc0001d9002312e00e4b1b6903f07c527b6984
:102fdc00dbb21a437b691b029bb21a43fb7c1b04ba
:102fec0003f4e023064913430b61012318461c37f5
:102ffc00bd465df8047b704700093d0080d1f008a8
:04300c0000800140ff
:020000040000fa
:020000040040ba
:1030100080b584b000af786001f006fd7b6893f85e
:103020004530fb7311e07b685b6a002b12d07b6834
:1030300024331846fef784f80346002b01d002f033
:1030400085f9fb7b013bdbb2fb7397f90f30002b5b
:10305000e9dc00e000bf7b68ff2283f8452001f037
:1030600087fd01f0e1fc7b6893f84430bb7311e00d
:103070007b681b69002b12d07b6810331846fef763
:103080005ff80346002b01d002f060f9bb7b013be7
:10309000dbb2bb7397f90e30002be9dc00e000bf18
:1030a0007b68ff2283f8442001f062fd00bf1037e7
:0430b000bd4680bddc
:020000040000fa
:020000040040ba
:1030b4002de9f041d2e900230c4686b005465feacb
:1030c400d378d1e901060968e76805913fd05242f7
:1030d40063eb4303002808db21f002010591b8f1fa
:1030e400000f02d10599480722d5711e05a8029048
:1030f4000a20cde90010204600f00afdb8f1000fc7
:103104001ad001382d233b542269059b0093013ac0
:103114003346121a3918284600f0cafb6b68db05df
:1031240003d563689842b8bf184606b0bde8f0817d
:103134000807dad43146d9e7059b590702d5013887
:103144002b23e0e71a07dfd501382023dbe700282b
:04315400c2dac7e72d
:020000040000fa
:020000040040ba
:1031580080b485b000af78600023bb600023fb60bb
:103168007b68b3f1ff3f3ad07b68002b37d07b6890
:103178001b0adbb2bb60bb68002b01d000232fe029
:103188007b68d9b21948ba6813469b0013441b01df
:10319800034408331b68994201d3002320e07b686d
:1031a800dab213469b0013449b0018460f49ba68cd
:1031b80013469b0013441b010b4414331b68034440
:1031c800fb60fb68db687a689a4206d1fb681b7c67
:1031d80083f00103dbb2002b01d0002300e0fb6881
:1031e80018461437bd465df8047b704764a040203c
:020000040000fa
:020000040040ba
:1031f80080b588b000aff860b9607a600023bb6121
:1032080000237b610023fb77f868fff7a1ffb86113
:10321800bb69002b35d07b68002b32d0bb68002bf4
:103228002fd0bb691b687b617b692c334ff0ff3162
:10323800184601f0d5f80346012b22d1bb690022bc
:103248009a60ba697b691a627b691b699b697968ac
:10325800b86898477b6934334ff0ff31184601f05e
:1032680095f80346012b07d17b6993f82430dbb22c
:10327800002b01d10123fb777b692c33184601f021
:0c32880077fbfb7f18462037bd4680bd59
:020000040000fa
:020000040040ba
:1032940080b588b000aff860b9607a600023bb6184
:1032a40000237b610023fb77f868fff753ffb861c5
:1032b400bb69002b35d07b68002b32d0bb68002b58
:1032c4002fd0bb691b687b617b6930334ff0ff31c2
:1032d400184601f087f80346012b22d1bb6900226e
:1032e4009a60ba697b69da617b691b695b68796892
:1032f400b86898477b6938334ff0ff31184601f0be
:1033040047f80346012b07d17b6993f82530dbb2dc
:10331400002b01d10123fb777b693033184601f080
:0c33240029fbfb7f18462037bd4680bd0a
:020000040000fa
:020000040040ba
:1033300080b487b000af786039600023fb7500234c
:103340003b611f4b93f82c30dbb2002b01d00023e4
:103350002fe01b4b1b7ddbb2002b01d0002328e0ac
:103360007b68002b24d07b681b68fb603b68002bcc
:1033700001d1144b3b60fb681b013a68b2fbf3f3cd
:103380003b613b69b3f5803f12d20f4b5b68bb607a
:10339000bb6823f46063bb607b685a680a49bb68fa
:1033a00013434b60084a3b699bb213620123fb75d0
:1033b000fb7d18461c37bd465df8047b704700bf97
:0c33c000f8a1402080d1f008000a0e4067
:020000040000fa
:020000040040ba
:1033cc0080b485b000af78600023bb600023fb6045
:1033dc007b68b3f1ff3f36d07b68002b33d07b6822
:1033ec001b0adbb2bb60bb68002b01d000232be0b7
:1033fc007b68d9b21748ba681346db009b1adb000e
:10340c00034408331b68994201d300231ce07b68fa
:10341c00dbb219010f48ba681346db009b1adb00bc
:10342c0003441c331b680b44fb60fb689b687a6885
:10343c009a4206d1fb689b7983f00103dbb2002b27
:10344c0001d0002300e0fb6818461437bd465df838
:08345c00047b7047c0a1402071
:020000040000fa
:020000040040ba
:1034640080b584b000aff8607a603b600b46fb72b5
:10347400fb7a002b02d0012b22d029e03b68012be0
:103484001cd803220021012000f0d2f90246fb6877
:103494001a60fb681b68002b20d03b68012b1dd1f0
:1034a400fb681868002300220021fef7a1fa0346f6
:1034b400012b01d1012319e0002317e0002315e0bb
:1034c4003968786801f019fa0246fb681a6006e068
:1034d400fb6800221a604ff0ff3307e000bffb686f
:1034e4001b68002b01d1002300e00123184610378c
:0434f400bd4680bd94
:020000040000fa
:020000040040ba
:1034f80080b584b000af214b1b7ddbb2002b38d0e8
:103508001e4b5b68bb601d4b9b68fb600de01b4b53
:103518001a68fb6813441a78194bdb691146184a74
:103528000b43d361fb680133fb60154b5b6903f008
:103538000203022b03d1ba68fb689a42e7d80f4a04
:10354800fb6893600d4b9b68ba689a4211d80b4b85
:1035580000221a750a4b4ff40072da60074bdb68d9
:10356800002b06d0054b1b697b60044bdb68786831
:10357800984700bf1037bd4680bd00bff8a1402066
:04358800000a0e40e7
:020000040000fa
:020000040040ba
:10358c0080b586b000af7860396001f047fa1f4b08
:10359c001b683b617b685b683a69d31afb603b68cc
:1035ac001b68b3f1ff3f02d100237b6126e07b68ef
:1035bc001a68174b1b689a420ad07b685b683a6999
:1035cc009a4205d301237b613b6800221a6015e007
:1035dc003b681b68fa689a420bd23b681a68fb6816
:1035ec00d21a3b681a60786801f0c2fc00237b6138
:1035fc0004e03b6800221a6001237b6101f0b2faff
:10360c007b6918461837bd4680bd00bf38a34020e3
:04361c004ca340205b
:020000040000fa
:020000040040ba
:1036200080b584b000af204b93f82c30dbb2002b78
:1036300035d01d4bdb69bb601b4b1b6afb600ae08e
:103640001a4b9969184b9a69fb681344cab21a70ed
:10365000fb680133fb60154b5b6903f00103012b31
:1036600003d1ba68fb689a42ead80f4afb68136232
:103670000d4b1b6aba689a4211d80b4b002283f893
:103680002c200a4be122da60074b5b6a002b06d044
:10369000054b9b6a7b60044b5b6a7868984700bf68
:1036a0001037bd4680bd00bff8a14020000a0e4083
:020000040000fa
:020000040040ba
:1036b000184b194a5a601a46936813f0010ffbd051
:1036c000144bdb68154a1360c3f3c113834220d047
:1036d00000f00203002b14bf0b220c22104b1343eb
:1036e0000c4a5360936813f0010ffbd000f0010007
:1036f000002814bf0b220c220a4b1a600a4b1343fa
:10370000044a5360936813f0010ffbd0074b084a3b
:103710001a607047000c0e400d00005a08a34020ac
:103720000008005a0ca340200007005a00180e4061
:04373000010000a5ef
:020000040000fa
:020000040040ba
:1037340080b485b000af786039600023fb737b6888
:10374400bb60bb68002b28d0174b1b7ddbb283f01a
:103754000103dbb2002b20d0134abb681360124a6a
:103764003b685360104b00229a600f4b01221a757c
:103774000123fb730d4b5b6903f00203022b08d199
:10378400bb681a78094bda61074b9b680133064a18
:103794009360064b4ff400729a60fb7b1846143713
:1037a400bd465df8047b7047f8a14020000a0e4036
:020000040000fa
:020000040040ba
:1037b40080b582b000af00237b600ce07a681346ca
:1037c4009b0013449b00124a1344184601f056f818
:1037d4007b6801337b607b68042befd90d4801f0d3
:1037e4004df80d4801f04af80c4801f047f80c4830
:1037f40001f044f80b4801f041f80b4b054a1a60fc
:103804000a4b054a1a6000bf0837bd4680bd00bf99
:1038140000a040208ca24020a0a24020b4a24020be
:10382400c8a24020dca2402028a340202ca3402092
:020000040000fa
:020000040040ba
:1038340080b58ab002aff860b9601346fb7100230b
:10384400fb61fb68002b2dd00021ba68fb68a3fb49
:103854000223002b00d001210b46002b22d1fb6850
:10386400ba6802fb03f313f1490f1bd8fb68ba686b
:1038740002fb03f3bb61bb6948331846fff7c6fa82
:10388400f861fb69002b0dd0fb697b617b694833d0
:103894007b61fa79fb69009313467a69b968f86821
:0e38a40001f00cf8fb6918462037bd4680bdc8
:020000040000fa
:020000040040ba
:0238b20070475d
:020000040000fa
:020000040040ba
:1038b4002de9ff471d460c9b13f0010806460f46f1
:1038c400144601d195420bd822463946304601f0c0
:1038d400f9fba54204d82546284604b0bde8f08784
:1038e400a5eb04094a46102a28bf10222021684665
:1038f400ca4601f0a5fd00bfbaf10f0f0ed809f0ba
:103904000f026946304601f0ddfbb8f1000fe3d148
:1039140022463946304601f0d5fbdde710226946e0
:0c392400304601f0cffbaaf1100ae5e7e5
:020000040000fa
:020000040040ba
:1039300080b58ab004aff860b9603b601346fb8085
:10394000fb889b001846fff763fa38613b69002b40
:1039500013d05420fff75cfa78617b69002b08d004
:1039600054220021786901f06dfd7b693a691a6380
:1039700005e0386901f048fd01e000237b617b69c7
:10398000002b0dd0fa88002303937b6902937b6a96
:1039900001933b6a00933b68b968f868fef768ffdb
:0a39a0007b6918461837bd4680bd4c
:020000040000fa
:020000040040ba
:1039ac0080b584b000afb9607a603b600346fb81a0
:1039bc00174b1b7f5bb2002b01d0002323e0154b70
:1039cc001b6a03f04073b3f1407f04d0104b02220a
:1039dc005a77002317e00e4afb8913800c4a3b6888
:1039ec0093600b4abb691361094abb685360084a70
:1039fc007b68d360064b00225a77fb89002118465e
:103a0c00fef7a6fb034618461037bd4680bd00bf27
:083a1c0028a2402000800140b7
:020000040000fa
:020000040040ba
:103a240080b582b002af134b0193012300930023ae
:103a34004ff480621049114800f00efe104b0193c0
:103a44000123009300234ff480620e490e4800f0d6
:103a540003fe0e4b01930123009300234ff4806275
:103a64000b490c4800f0f8fd00f0e0fb00bfbd4638
:103a740080bd00bf10a34020344540008d54400059
:103a840014a340204c4540009b54400018a3402000
:083a940064454000a954400004
:020000040000fa
:020000040040ba
:103a9c0080b582b000af194b1b7883f00103dbb209
:103aac00002b0ed000210020fdf78cfd0246134b9d
:103abc005a60124b5b68b3f1ff3f02d00f4b0122ef
:103acc001a700e4b5b68f91d01221846fff7dcfbe0
:103adc000346002b0ed0094b01221a72fb791a46b1
:103aec00064bda60064b186800234ff0ff3205498d
:103afc00fdf77aff00bf0837bd4680bdf0a240201d
:083b0c0060a34020f8a2402054
:020000040000fa
:020000040040ba
:103b14002de9f84f0446dde90a9a6668d4f80c806a
:103b240024690c9f013c1946002e4ff00003d7f87e
:103b340000b008f804301046b8bf01264d460123f2
:103b4400002c03dcdbb12046bde8f88f50ea01020b
:103b540009d1a6eb09022a44002a04dc002df1dd78
:103b64001bf0020feed052464feaea7301f026f939
:103b7400013c1346303208f80420013de0e73b687d
:083b840023f010033b60dee7b3
:020000040000fa
:020000040040ba
:103b8c0080b584b000af0346b9607a60fb81174bf7
:103b9c001b7f5bb2002b01d0002323e0144b1b6a6c
:103bac0003f04073b3f1407f04d0104b02225a77dc
:103bbc00002317e00d4afb8913800c4abb68936005
:103bcc000a4a7b681361094b00225a60074b00229a
:103bdc00da60064b00225a77fb8901211846fef762
:103bec00b7fa034618461037bd4680bd28a24020c0
:043bfc000080014004
:020000040000fa
:020000040040ba
:103c000080b584b000af0346b9607a60fb81174b82
:103c10001b7f5bb2002b01d0002323e0144b1b6af7
:103c200003f04073b3f1407f04d0104b02225a7767
:103c3000002317e00d4afb8913800c4b00229a6089
:103c40000a4b00221a61094abb685360074a7b6825
:103c5000d360064b00225a77fb8900211846fef7f5
:103c60007dfa034618461037bd4680bd28a2402085
:043c7000008001408f
:020000040000fa
:020000040040ba
:103c740080b582b000af786001f0befa01f06efa50
:103c8400fdf786f900f0a0f8114b4ff400425a609a
:103c9400104b4ff400425a6000f09afa0e4900208b
:103ca400fef7f6fb02460d4b1a600d490020fdf7a6
:103cb4003ffd0246094b5a6001f05efb01f050fbe8
:103cc40001f0ecf900f048f800bf0837bd4680bdac
:103cd40000190e4050180e406c54400000a34020c0
:043ce40080514000cb
:020000040000fa
:020000040040ba
:103ce80080b485b000af786039603b681b68bb6002
:103cf800bb68b3f1ff3f03d17b681b69fb600ce035
:103d08007b680833fb6002e0fb685b68fb60fb686c
:103d18005b681b68ba689a42f6d2fb685a683b68c7
:103d28005a603b685b683a689a603b68fa689a60d0
:103d3800fb683a685a603b687a681a617b681b6856
:103d48005a1c7b681a6000bf1437bd465df8047bb7
:023d58007047b2
:020000040000fa
:020000040040ba
:103d5c0080b500af002000f033fcbff35f8f62b67c
:103d6c0007214ff0ff3000f063fb0721082000f023
:103d7c005ffb082000f018fe0721132000f058fb11
:103d8c00132000f011fe0d4b5b6a0c4a43f48023a8
:103d9c0053620a4b5b69094a43f010035361074baa
:103dac005b6a064a43f400335362044b5b6a034a72
:103dbc0043f48033536200bf80bd00bf00ed00e0d0
:020000040000fa
:020000040040ba
:103dcc0080b400af184b4ff486721a60164b502219
:103ddc001a60154b4ff400625a60134b51221a6251
:103dec00124b00229a61114b0022da610f4b002218
:103dfc001a620e4b002283f82c200c4b00225a62c4
:103e0c000a4b00221a60094b00225a60074b002211
:103e1c009a60064b00221a75044b0022da6000bf30
:103e2c00bd465df8047b7047000a0e40f8a14020a7
:020000040000fa
:020000040040ba
:103e3c00902910b50fdc7f2911dd803910290ed89f
:103e4c00dfe801f00f0f250d170d0d0d1e0d0d0ddb
:103e5c000d0d0d0d2500a02903d0c02901d0002087
:103e6c0006e019680c1d1c600b6803601a600120c9
:103e7c0010bd19680c1d1c600b6803601a80f6e7f6
:103e8c0019680c1d1c600b6803601a70efe7196849
:103e9c000c1d1c600b680360d117c3e90021e6e719
:020000040000fa
:020000040040ba
:103eac0080b582b000af174b5b6903f0e0037b6019
:103ebc007b68002b11d0134be122da60124b0022ed
:103ecc0083f82c20104b5b6a002b06d00e4b9b6aa0
:103edc003b600d4b5b6a386898470a4b5b6903f093
:103eec000103012b01d1fff795fb064b5b6903f036
:103efc000203022b01d1fff7f9fa00bf0837bd46c8
:0c3f0c0080bd00bf000a0e40f8a140205c
:020000040000fa
:020000040040ba
:103f180080b400af174b1b6b164a23f07003136372
:103f280000bf144b9b6e03f00803082bf9d1114b0b
:103f38001b6b23f440730f4a43f48073136300bf71
:103f48000c4b9b6e03f00803082bf9d1094b1b6b34
:103f580023f00303074a43f00203136300bf054b32
:103f68009b6e03f00803082bf9d100bfbd465df82e
:083f7800047b704700060e40b7
:020000040000fa
:020000040040ba
:103f800080b586b000af786039600023fb757b6830
:103f90003b613b69002b1dd000f06afef860104bbe
:103fa00093f82c30dbb283f00103dbb2002b11d08d
:103fb0000b4a3b6993610a4a3b68d361084b002274
:103fc0001a62074b012283f82c200123fb75054b55
:103fd000e1229a60fb7d18461837bd4680bd00bfc0
:083fe000f8a14020000a0e4088
:020000040000fa
:020000040040ba
:103fe80080b485b000aff860b9607a60fb68043bc4
:103ff800fb60fb684ff080721a60fb68043bfb6053
:10400800bb6823f00102fb681a60fb68043bfb6095
:104018000c4afb681a60fb68143bfb607a68fb6813
:104028001a60fb68043bfb60fb686ff002021a60d1
:10403800fb68203bfb60fb6818461437bd465df8fb
:08404800047b70473d4b400072
:020000040000fa
:020000040040ba
:10405000eff30980bff36f8f154b1a681ef0100f36
:1040600008bf20ed108a20e9f04f10602de909000b
:104070004ff0200072b680f31188bff34f8fbff36b
:104080006f8f62b6fef70afb4ff0000080f31188d5
:1040900009bc19680868b0e8f04f1ef0100f08bf9f
:1040a000b0ec108a80f30988bff36f8f704700006f
:0840b00024a3402000bf00bf63
:020000040000fa
:020000040040ba
:1040b80080b500af124b1b68114a43f47f031360ad
:1040c8000f4b1b680e4a43f07f4313600d4b0022d1
:1040d8001a6000f0c1fc0c4b00221a6001f01af9ba
:1040e8000a4b1b68094a43f04043136000f016ff6f
:1040f800fef7d0fa00f01efd0023184680bd00bf71
:1041080020ed00e01ced00e070a3402034ef00e05b
:020000040000fa
:020000040040ba
:1041180080b586b000af78607b687b617b69db69be
:104128003b617b691b695b6a9847f860fb68002bf9
:1041380007d13b6900229a607b69002283f8252019
:104148000ce07b699b6cf968184600f0effa0246b0
:104158003b699a607b69012283f825207b693833a3
:0e416800184600f005f800bf1837bd4680bdb0
:020000040000fa
:020000040040ba
:1041780080b584b000af78600023fb607b68002bbb
:1041880003d07b681b68002b01d1002318e07b68f3
:104198001b6807f10c0211461846fef77bfd034623
:1041a800002b0cd0fb68002b07d0074b4ff0805238
:1041b8001a60bff34f8fbff36f8f012300e0002316
:0c41c80018461037bd4680bd04ed00e035
:020000040000fa
:020000040040ba
:1041d40080b400af134b80221a60124b28221a605d
:1041e400104b1b6903f07c520e494bf2c01313436e
:1041f4000b610c4b4ff080721a600a4b07229a62d3
:10420400084b4ff440725a62064b04221a60064b64
:1042140000225a77044b00221a7700bfbd465df88e
:0c422400047b70470080014028a240206d
:020000040000fa
:020000040040ba
:1042300080b582b000affef743fe78607b68012b4b
:1042400016d14ff0200372b683f31188bff36f8f3e
:10425000bff34f8f62b63b60084b4ff0ff321a60de
:10426000074b01221a60074b00221a60fff724ff58
:10427000054b1b6800bf0837bd4680bd54a34020d6
:0c42800040a3402038a3402074a340203d
:020000040000fa
:020000040040ba
:10428c000e4a38b5002313600d4a0e4c13600e4acb
:10429c000e4d13600e4a13600e4a13600e4a5362a1
:1042ac00136101239360fff7fefafff7fcfaac42af
:1042bc0000d338bd54f8043b9847f8e768a3402076
:1042cc00c0a0402074014000bca0402078014000f8
:0c42dc00b4a04020b8a04020c4a04020a6
:020000040000fa
:020000040040ba
:1042e80080b582b000af19e000f09afb0f4bdb6895
:1042f800db687b607b680433184600f0c5f80c4b1c
:104308001b68013b0a4a13600a4b1b68013b094ab8
:10431800136000f029fc786800f03eff054b1b682d
:10432800002be1d100bf0837bd4680bdc8a24020a0
:0843380034a3402030a3402013
:020000040000fa
:020000040040ba
:1043400080b584b000af78607b68fb600023bb6001
:10435000fb685b6abb60fb681b691b699847034687
:104360001a46bb685a71bb685b79dbb2002b04d17b
:10437000fb68002283f8282003e0fb68012283f811
:104380002820fb6834331846fff7f6fe00bf1037cd
:04439000bd4680bde9
:020000040000fa
:020000040040ba
:1043940080b584b000af786039600023fb607b682f
:1043a400002b03d07b681b68002b01d1002315e090
:1043b4003b68b3f1ff3f03d14ff0ff33fb6001e0f3
:1043c4003b68fb607b681b68f9681846fcf780ff54
:1043d4000346012b01d1012300e0002318461037c6
:0443e400bd4680bd95
:020000040000fa
:020000040040ba
:1043e80080b584b000af786039600023fb607b68db
:1043f800002b03d07b681b68002b01d1002315e03c
:104408003b68b3f1ff3f03d14ff0ff33fb6001e09e
:104418003b68fb607b681b68f9681846fcf756ff29
:104428000346012b01d1012300e000231846103771
:04443800bd4680bd40
:020000040000fa
:020000040040ba
:10443c0080b483b000af03463960fb7197f9073045
:10444c00002b0adb3b68dab20c4997f907305201b2
:10445c00d2b20b4483f800230ae03b68dab2084975
:10446c00fb7903f00f03043b5201d2b20b441a76d2
:10447c0000bf0c37bd465df8047b704700e100e0df
:04448c0000ed00e05f
:020000040000fa
:020000040040ba
:1044900080b485b000af78607b681b69fb607b6887
:1044a0005b687a6892689a607b689b687a685268f1
:1044b0005a60fb685b687a689a4203d17b689a68a5
:1044c000fb685a607b6800221a61fb681b685a1ef1
:1044d000fb681a60fb681b6818461437bd465df818
:0444e000047b7047a2
:020000040000fa
:020000040040ba
:1044e40010b54ff0ff3c88b00c4611461a464ff405
:1044f4008173cde901c300b96846cde9030454b121
:10450400631e002c059308da084b4f221a604ff003
:10451400ff3008b010bd2346f3e70023cde90600c1
:10452400037001a800f0a0fef3e700bf6ca34020d5
:020000040000fa
:020000040040ba
:104534004150505f53454e534f525f54485245418a
:10454400445f5461736b73004150505f4545505252
:104554004f4d5f5448524541445f5461736b73003f
:104564004150505f555345525f494e5055545f5426
:0c45740048524541445f5461736b730072
:020000040000fa
:020000040040ba
:1045800080b582b000af786039607b681b6c002b0f
:1045900018d07b68da687b681b6c1a447b68da6029
:1045a0007b68da687b689b689a4203d37b681a68e9
:1045b0007b68da607b68d9687b681b6c1a46386850
:0c45c00000f0f4fe00bf0837bd4680bdcf
:020000040000fa
:020000040040ba
:1045cc0080b485b000af78607b6803f00703fb60b4
:1045dc000b4bdb68bb60ba684ff6ff031340bb6044
:1045ec00fb681a02bb681a43064b1343bb60044ab0
:1045fc00bb68d36000bf1437bd465df8047b7047c1
:08460c0000ed00e00000fa05da
:020000040000fa
:020000040040ba
:1046140080b400af0e4b02221a770e4b5b680d4a32
:1046240043f4805353600a4b1b69012b03d1094b9c
:1046340003221a6002e0074b01221a6062b6054b9e
:1046440003225a6200bfbd465df8047b704700bf79
:0846540028a240200080014073
:020000040000fa
:020000040040ba
:10465c0080b588b002aff860b9603b601346fb8050
:10466c00fa887b6a01933b6a00933b68b968f868e7
:10467c00fff758f938613b69002b05d03869fdf715
:10468c00d3fc01237b6102e04ff0ff337b617b693c
:08469c0018461837bd4680bd29
:020000040000fa
:020000040040ba
:1046a40080b584b000af78600023fb607b68002b8a
:1046b40008d000f0cbfd00217868fdf76bfffcf714
:1046c40095faf860fb68002b07d1064b4ff0805237
:1046d4001a60bff34f8fbff36f8f00bf1037bd4613
:0846e40080bd00bf04ed00e001
:020000040000fa
:020000040040ba
:1046ec000278202a034600f10100f9d0a2f1090159
:1046fc000429f5d92b2a06d02d2a13d101210133f7
:10470c00013b002006e00021f9e700bf00eb800030
:10471c00c2eb400013f8012f303a092af6d901b93f
:08472c00404270470021ebe759
:020000040000fa
:020000040040ba
:1047340080b485b000af786039600023bb6000238b
:10474400fb600ee0fb689b007a6813441b683a68c0
:104754009a4203d1fb680133bb6005e0fb68013377
:10476400fb60fb68022bedd9bb6818461437bd46c5
:064774005df8047b7047b4
:020000040000fa
:020000040040ba
:10477c0080b582b000af4ff0200372b683f311887e
:10478c00bff36f8fbff34f8f62b67b60fcf722f9dc
:10479c000346002b03d0064b4ff080521a600023c7
:1047ac003b603b6883f3118800bf0837bd4680bd72
:0447bc0004ed00e028
:020000040000fa
:020000040040ba
:1047c00010b5054c237833b9044b13b10448aff34b
:1047d00000800123237010bd70a240200000000063
:1047e0000000000008b5034b1bb103490348aff3b9
:1047f000008008bd0000000074a2402000000000fe
:020000040000fa
:020000040040ba
:1048000080b582b000af78607b68002b01d10023b7
:1048100012e07b681b68002b01d000230ce0012014
:1048200000f086fa02467b681a607b681b68002be2
:1048300001d1002300e0012318460837bd4680bda2
:020000040000fa
:020000040040ba
:1048400080b400af0c4b93f82c30dbb2002b0cd0b3
:104850000a4be122da60084b002283f82c20064b39
:104860000022da61044b00221a6201231846bd4679
:104870005df8047b704700bff8a14020000a0e409d
:020000040000fa
:020000040040ba
:1048800080b483b000af78607b6803f108027b6876
:104890005a607b684ff0ff329a607b6803f1080230
:1048a0007b68da607b6803f108027b681a617b68c9
:1048b00000221a6000bf0c37bd465df8047b7047cc
:020000040000fa
:020000040040ba
:1048c00080b584b000aff860b9607a60fb70bb68f7
:1048d000002b03d1bb69ba691a6002e0bb697a6830
:1048e0001a60bb69fa68da63bb69ba681a640121a5
:0e48f000b869fdf749ff00bf1037bd4680bd17
:020000040000fa
:020000040040ba
:1048fe0080b584b000af786039600023fb607b68c0
:10490e00002b0fd03a687b689a420bd80222002106
:10491e007868fef788fff860fb68002b02d0fb6812
:0e492e003a689a63fb6818461037bd4680bd94
:020000040000fa
:020000040040ba
:10493c0080b584b000af786039600023fb603b68c1
:10494c00002b01d100230de07868fef739fdf860eb
:10495c00fb68002b01d1002304e0fb683a68126865
:0c496c00da60012318461037bd4680bdfc
:020000040000fa
:020000040040ba
:1049780080b582b000af78607b68002b03d07b687d
:104988001b68002b01d100230ce07b68186800230a
:1049980000220021fdf72af80346012b01d101234b
:0c49a80000e0002318460837bd4680bd23
:020000040000fa
:020000040040ba
:1049b40080b483b000af0346fb7197f90730002b36
:1049c4000bdbfb7903f01f02074997f907305b09fa
:1049d400012000fa02f241f8232000bf0c37bd4643
:0c49e4005df8047b704700bf00e100e0bc
:020000040000fa
:020000040040ba
:1049f00080b483b000af0023fb710a4b4ff4807288
:104a00001a6002e0074b9b69fb71064b5b6903f080
:104a10000103012bf6d000bf0c37bd465df8047bc7
:084a2000704700bf000a0e40c0
:020000040000fa
:020000040040ba
:104a280080b483b000af4ff0200372b683f31188cf
:104a3800bff36f8fbff34f8f62b67b60054b1b6868
:104a48000133044a136000bf0c37bd465df8047b90
:084a5800704700bf70a340206d
:020000040000fa
:020000040040ba
:104a600080b400af084b00221a60084b00221a6085
:104a7000074b084a1a60044b07221a6000bfbd4664
:104a80005df8047b704700bf10e000e018e000e034
:084a900014e000e0df930400d4
:020000040000fa
:020000040040ba
:104a980080b400af0a4b1b681b68002b04d1094b7c
:104aa8004ff0ff321a6005e0054b1b68db681b6896
:104ab800044a136000bfbd465df8047b704700bf21
:084ac80028a3402054a3402064
:020000040000fa
:020000040040ba
:104ad00030b50c4a0146002012f810301bb902eb29
:104ae0004002507830bd0c6825789d4209bf02eb2a
:104af0004003431c5878013414bfd8b20c600a2814
:084b0000ead9efe7dc534000a5
:020000040000fa
:020000040040ba
:104b080080b400af094b00225a77084b00221a776d
:104b1800074b07229a62064b08221a60044b0422ac
:104b28001a6000bfbd465df8047b704728a240208c
:044b380000800140b8
:020000040000fa
:020000040040ba
:104b3c0080b483b000af00233b604ff0200372b60b
:104b4c0083f31188bff36f8fbff34f8f62b67b6017
:104b5c0000bf3b68002bfcd000bf0c37bd465df896
:044b6c00047b70470f
:020000040000fa
:020000040040ba
:104b700080b483b000af0a4b1b68013b084a136046
:104b8000074b1b68002b04d100237b607b6883f3f9
:104b9000118800bf0c37bd465df8047b704700bf2d
:044ba00070a340209e
:020000040000fa
:020000040040ba
:104ba40080b582b000af78607b68002b0ed07b6844
:104bb40000229a607b6800221a607b680022da6017
:104bc4000023002200217868fcf712ff00bf083799
:044bd400bd4680bd9d
:020000040000fa
:020000040040ba
:104bd80038b50a480a4d016821b9436813b9fef788
:104be800b6f838bd0389426855f8233000f10c0443
:104bf8002046984704eb8000ede700bf941840007a
:044c080030544000e4
:020000040000fa
:020000040040ba
:104c0c0080b588b004aff8607a603b600b467b815e
:104c1c0079890223029300230193002300933b68bc
:104c2c007a68f868fcf7d6f8034618461037bd4684
:024c3c0080bd39
:020000040000fa
:020000040040ba
:104c3e0080b588b004aff8607a603b600b467b812c
:104c4e00798904230293fb690193bb6900933b6846
:104c5e007a68f868fcf7bdf8034618461037bd466b
:024c6e0080bd07
:020000040000fa
:020000040040ba
:104c700080b582b000af00237b60084b5b693b606e
:104c80003b6803f0e0037b607b68002b01d0fff7fb
:104c9000affe7b6818460837bd4680bd000a0e404f
:020000040000fa
:020000040040ba
:104ca000bff34f8fbff36f8f084bd3f8902222f0e2
:104cb0000102c3f89022d3f8942222f00102c3f833
:104cc0009422bff34f8fbff36f8f704700ed00e06a
:020000040000fa
:020000040040ba
:104cd00080b582b000af7860fff706fb064b1b681b
:104ce000012bf9d9054b4ff080521a60bff34f8f5b
:104cf000bff36f8ff0e700bf00a0402004ed00e09d
:020000040000fa
:020000040040ba
:104d000080b483b000af094b1b687b607b68002bcd
:104d100004d07b689b6c5a1c7b689a647b6818463d
:104d20000c37bd465df8047b704700bf24a34020cc
:020000040000fa
:020000040040ba
:104d300080b586b000af0346fb7101237b61002381
:104d40003b61fb791a4639697869fef773fdf860b3
:104d5000f868fff727fffb6818461837bd4680bd87
:020000040000fa
:020000040040ba
:104d600080b485b000af78607b685b6a002b06d0aa
:104d70007b681b6b1b68c3f10503fb6001e000232c
:104d8000fb60fb6818461437bd465df8047b70472e
:020000040000fa
:020000040040ba
:104d900080b584b000af7860fff746fe7b689a6b01
:104da0007b68db6b9a4202d10123fb6001e00023a8
:104db000fb60fff7ddfefb6818461037bd4680bd7f
:020000040000fa
:020000040040ba
:104dc00053b94ab9002908bf00281cbf4ff0ff3172
:104dd0004ff0ff3000f0aabbadf1080c6de904ce36
:104de000fbf76efbddf804e0dde9022304b0704759
:020000040000fa
:020000040040ba
:104df00080b483b000af0346fb800b467b71134643
:104e00003b71fb881a047b791b021a433b791343dd
:0c4e100018460c37bd465df8047b704767
:020000040000fa
:020000040040ba
:104e1c0080b483b000af0346fb80fb880133fb807a
:104e2c00fb884ff6ff72934201d10123fb80fb8874
:0c4e3c0018460c37bd465df8047b70473b
:020000040000fa
:020000040040ba
:104e480080b483b000af0346fb800b467b711346ea
:104e58003b71fb881a047b791b021a433b79134385
:0c4e680018460c37bd465df8047b70470f
:020000040000fa
:020000040040ba
:104e740080b483b000af0346fb80fb880133fb8022
:104e8400fb884ff6ff72934201d10123fb80fb881c
:0c4e940018460c37bd465df8047b7047e3
:020000040000fa
:020000040040ba
:104ea00080b400af074b084a9a6200bf054b9b6e67
:104eb00003f00203022bf9d100bfbd465df8047b6d
:0c4ec000704700bf00060e40013f1820a4
:020000040000fa
:020000040040ba
:104ecc0080b483b000af786039607b68002b05d06c
:104edc00054a7b681362044a3b68536200bf0c3777
:0c4eec00bd465df8047b704728a2402002
:020000040000fa
:020000040040ba
:104ef80051504000813f400019524000ed5240009f
:104f0800414840002950400035374000bd5240001c
:0c4f1800d5524000714c40003133400085
:020000040000fa
:020000040040ba
:104f240008480068006880f308884ff0000080f3a8
:104f3400148862b661b6bff34f8fbff36f8f00df83
:0c4f440000bf000008ed00e000bf00bf4f
:020000040000fa
:020000040040ba
:104f500080b582b000af78603960074b1b681833aa
:104f600019467868fef7c0fe01213868fdf714fb8a
:0c4f700000bf0837bd4680bd24a34020d0
:020000040000fa
:020000040040ba
:104f7c0080b483b000af7860064b1a687b681a6007
:104f8c00054b1a687b685a6000bf0c37bd465df84c
:0c4f9c00047b70474ca3402038a3402049
:020000040000fa
:020000040040ba
:104fa80080b584b000af7860fff73afd7b689b6bf3
:104fb800002b02d10123fb6001e00023fb60fff717
:0c4fc800d3fdfb6818461037bd4680bdc5
:020000040000fa
:020000040040ba
:104fd400812903dc7f2903dc002070478329fbd16e
:104fe4001368073323f0070303f108011160d3e9c1
:0a4ff4000023c0e9002301207047ec
:020000040000fa
:020000040040ba
:1050000080b483b000af0023fb71064b5b7ffb7164
:10501000044b00225a77fb7918460c37bd465df8e1
:08502000047b704728a2402028
:020000040000fa
:020000040040ba
:1050280080b483b000af78603960064a7b68d3608b
:10503800044a3b68136100bf0c37bd465df8047b2a
:08504800704700bff8a14020f1
:020000040000fa
:020000040040ba
:1050500080b483b000af78603960064a7b685362e1
:10506000044a3b68936200bf0c37bd465df8047b81
:08507000704700bff8a14020c9
:020000040000fa
:020000040040ba
:10507800eff3108172b6074ad2f8883043f4700310
:10508800c2f88830bff34f8fbff36f8f01b962b694
:08509800704700bf00ed00e0cd
:020000040000fa
:020000040040ba
:1050a00080b500af064b00221a70002208210320b1
:1050b000fef7c0fb0246034b1a6000bf80bd00bf75
:0850c000f0a2402060a3402093
:020000040000fa
:020000040040ba
:1050c80038b503699a4228bf1a460446154652b1b4
:1050d800406900f067f9636922692b44521b226119
:0850e800002263611a7038bd5b
:020000040000fa
:020000040040ba
:1050f00080b584b000af78607b68fb60fb680022fd
:1051000083f82420fb6834331846fff735f800bfd6
:065110001037bd4680bd12
:020000040000fa
:020000040040ba
:10511800064b19680868b0e8f04f80f30988bff3b8
:105128006f8f4ff0000080f31188704724a3402050
:0451380000bf00bff5
:020000040000fa
:020000040040ba
:10513c0080b485b000af786039604ff0200372b650
:10514c0083f31188bff36f8fbff34f8f62b6fb6091
:02515c00fee76c
:020000040000fa
:020000040040ba
:1051600080b500affff79cfefef7d6fe024b034a68
:105170001a6100bf80bd00bf00060e40001d0b007d
:020000040000fa
:020000040040ba
:10518000f84e40000300000048a14020f4534000c6
:1051900004534000c4544000d054400003000000b9
:020000040000fa
:020000040040ba
:1051a00080b582b000af78607b681b6b184600f05a
:1051b0002bf9786800f028f900bf0837bd4680bd9c
:020000040000fa
:020000040040ba
:1051c00080b483b000af4ff0200372b683f3118830
:0e51d000bff36f8fbff34f8f62b67b60fee7b9
:020000040000fa
:020000040040ba
:1051de0010b50023934206d113f0030018bf01202f
:0e51ee0000eb930010bdc45ccc540133f2e71b
:020000040000fa
:020000040040ba
:1051fc0080b400af034b044a1a6000bfbd465df893
:0c520c00047b7047000c0e4000060004fc
:020000040000fa
:020000040040ba
:1052180080b400af044b93f82c30dbb21846bd467f
:0c5228005df8047b704700bff8a1402037
:020000040000fa
:020000040040ba
:105234008d3b4000013c4000ad394000094b40002b
:0c524400015040006d2f4000cd4e400096
:020000040000fa
:020000040040ba
:1052500080b400af044b1b680133034a136000bfe6
:0c526000bd465df8047b70475ca3402055
:020000040000fa
:020000040040ba
:10526c0013b50446019201aafaf78cff636813f098
:0c527c00100f18bf4ff0ff3002b010bd43
:020000040000fa
:020000040040ba
:1052880080b483b000af78607b6800221a6100bfe9
:0a5298000c37bd465df8047b70473b
:020000040000fa
:020000040040ba
