:020000040000fa
:020000040040ba
:10000000f0ff4720e92d4000ad624000b56240009e
:10001000c5624000cd624000d56240000000000093
:10002000000000000000000000000000bb274000ae
:10003000bd62400000000000bb274000bb2740001d
:10004000bb274000bb274000bb274000bb27400028
:10005000bb274000bb274000bb274000bb27400018
:10006000594a400000000000bb274000bb27400069
:10007000bb274000bb274000bb274000bb274000f8
:10008000bb274000bb274000bb274000e10e4000db
:10009000bb274000bb274000bb274000f154400075
:1000a000bb274000bb274000bb274000bb274000c8
:1000b000bb274000bb274000bb274000bb274000b8
:1000c000bb274000bb274000bb274000bb274000a8
:1000d000bb274000bb274000bb274000bb27400098
:1000e000bb274000bb274000bb274000bb27400088
:1000f000bb274000bb274000bb274000bb27400078
:10010000bb274000bb274000bb274000bb27400067
:10011000bb274000bb27400000000000000000009b
:10012000bb274000bb274000b12f4000bb27400049
:10013000bb274000bb27400000000000bb27400059
:10014000bb274000bb274000bb274000bb27400027
:10015000bb274000bb274000bb274000bb27400017
:08016000bb274000bb27400053
:020000040000fa
:020000040040ba
:10016800f8b500bff8bc08bc9e46704795544000df
:10017800f8b500bff8bc08bc9e46704771544000f3
:020000040000fa
:020000040040ba
:08018800b80a000001000000ac
:020000040000fa
:020000040040ba
:100190002de9f04f2ded0a8b92ed008b8db01e46b0
:1001a000b5eec08b0b69d1f808a0cc680590f1eed4
:1001b00010fad1e9009b069307d419f0040f30d14f
:1001c00019f008052fd0202302e02d23b1ee488b33
:1001d00023700af1ff32012518ee903a18ee100a4a
:1001e00023f00041bc4b4ff00008994208bf404546
:1001f0001bd1413e192e94bfb849b949601906f088
:100200004bf8b74805f09effcdf8009002465346e4
:100210000598214604f0c8f80db0bdec0a8bbde886
:10022000f08f2b23d4e75246d6e780458b41a6f1c9
:100230004103039308d2192b94bfaa49aa49601914
:1002400006f02af8a848dde730216155b5ee408b6d
:100250000399b7ee009b192905f101038cbf7821a2
:100260005821f1ee10fae15405f10205a2f1020263
:1002700040f0ec80b0ee49bbb0ee48cbbbf1000fd4
:100280009fed8fabacbf5b461823591c002700bf06
:100290008cee0b0bcde90731049203f021fabbf190
:1002a000000f00ee4bcbdde907312bee0abb049ac1
:1002b00007f1010704dab5ee40cbf1ee10fa02d0f7
:1002c0008f42e5d15f1cb2ee007b2bee077bb4eed4
:1002d000c7cbf1ee10fa00f1dc80b4ee47cbf1eec3
:1002e00010fa09d1bdeec00b9fed776b10ee103afe
:1002f00013f0010f06fe077b38ee078b18ee903add
:1003000018ee10ca744923f000400023884208bf49
:100310009c453ff46eaf06990539a942079140f21a
:100320001481794208912e46ae461f46049300bfc1
:1003300088ee090bcde90a23cdf824e003f0d0f9cb
:10034000fdeec07bdde909e2b0ee40bb17ee900a9e
:100350000b9b002840f0a080002b00f09d8001370f
:1003600008990bee498b013b8b4229ee0a9b03d087
:1003700007998e42b646dbd3049bcbb9002f40f3de
:10038000e580bbf1000f40f3e18019f0010f40f070
:10039000dd80a3192e211970b9192144302000bf26
:1003a00003f8010f8b42fbd13e44ff4301363a4430
:1003b000069b0021a019013b88450170b8bfc8f118
:1003c0000008e1544ff00107b8bf01214ff00a0bbc
:1003d00003f1ff3cb8f1000f40f0a580012f00f0c1
:1003e000a28000290cbf2b212d2104f80c100399a9
:1003f000023b192904eb03018cbf4ff0700c4ff046
:10040000500c9e4281f800c003da039205f044ffcd
:10041000039a09f00303022b11d11744033f002f65
:100420000ddd204605f08efee319a84280f289809a
:100430003a463021601905f0d1fe4ff0000a2046ff
:10044000e0e600bf08f10108b0ee479b39ee097bfa
:10045000b4eec78bf1ee10faf4d5b6ee007b9fed4b
:100460001c6b00bfb4eec98bf1ee10fa7ff502af42
:1004700029ee075bb5ee405bf1ee10fa08bf29eefe
:10048000069b08f1ff3808bf28ee068b29ee079b74
:10049000e8e79fed0d7b2fe7049941b93bb14ff0a1
:1004a0002e0c012104f80ec00136013a0491e11925
:1004b00004eb060c31444ff0300e19e0aff300802e
:1004c000000000000000b03f00000000000000003d
:1004d00000000000000050430000f07f3c5f40003f
:1004e000405f4000445f4000485f40000cf801eb73
:1004f0008c45fbd1f119d71b039a0928d4bf3030a2
:100500005730192a0ad840f02002613a192a05d832
:10051000cde9093105f0a7fedde909317a1e605405
:100520004e1c00271ce7634698fbfbfe0eeb8e0c6f
:10053000a8eb4c0c0cf1300c04f803c0f046013f62
:1005400046e7225c1a5401386fe72e4619f0100f67
:0c0550003ff42eaf2e23a355013629e7ff
:020000040000fa
:020000040040ba
:04055c0000207047c4
:020000040000fa
:020000040040ba
:100560002de9f04f2ded0a8b92ed009b8fb0b5ee8b
:10057000c09b05938b680493f1ee10fa0b69cd686c
:100580000690d1e900a78b46089308d41af0040f0f
:1005900034d11af00803039332d0202302e02d2334
:1005a000b1ee499b2b70049b03f1ff3901230393a8
:1005b00019ee903a19ee101a23f00042c04b0024b5
:1005c0009a4208bfa1421ed1059b0398413b192bbb
:1005d00094bfbc49bc49284405f05efe284605f09e
:1005e000b1fd049bcdf800a002462946069803f011
:1005f000dbfe0fb0bdec0a8bbde8f08f2b23d1e7fb
:10060000ddf81090d4e78c42934108d2059b039803
:10061000413b192b94bfad49ad492844dce7b5ee09
:10062000409bf1ee10fab2ee04cbb7ee00ab40f017
:10063000c080059805f010fe002fc0b2c0f26281a4
:10064000672840f0d580002f08bf0127231dc0f286
:10065000d180bc4280f2ce80002c4ff066080cdacc
:10066000b8f1660f07f1010707d1002c02dab7eee7
:1006700000ab0024672800d027440023b0ee4a8b4b
:10068000b0ee49bb8bee080b0993079003f028f8f6
:10069000099b90ee08bb01339f420798b1ee4bbb1c
:1006a00088ee0c8beed1b1ee047b28ee078bb4ee16
:1006b000cb8bf1ee10fa00f3a080b4ee4b8bf1ee91
:1006c00010fa09d1bdeec00b9fed796b10ee103a18
:1006d00013f0010f06fe088b39ee088b2aee0c9bf7
:1006e000b4eec89bf1ee10fa00f28a80b8f1660f02
:1006f00004f1010440f0868001372146cb1b002223
:10070000039f0a9316460a9b994240f0a580334600
:10071000002e00f0df80e8190022b8f1650f0270aa
:1007200029d1089b013b9442ea54bcbf6442012298
:100730004ff0020b4ff00a0e591e002c40f0d180f2
:10074000bbf1000f00f3cd80002a0cbf2b222d221d
:100750006a54059a023b413a192a05eb030198bff6
:100760004ff045089f4281f8008001da05f094fdc2
:10077000cb44abf104090af00303022b7ff42eaf44
:10078000b9f1000f7ff72aaf284605f0dbfc05eb37
:100790000903039a824240f3b18003984a4630210c
:1007a000284405f01bfd0023049317e70134b0ee45
:1007b00047ab2aee0c7bb4eec79bf1ee10faf5d5f1
:1007c0009fed3d7b00230be014f5967f05da23b9fe
:1007d00029ee079b2aee07ab0123013c8aee0cab06
:1007e000b4eeca9bf1ee10faeed422e706272de70d
:1007f000804635e74ff065083fe79fed2d8b6be7af
:10080000b0ee4a9bb8f1650f14bf2146002175e791
:100810004eb9002907da079e2e23ab550123013775
:1008200009f1ff391e46ab1805eb070c3b444ff0ae
:10083000300e01e00cf801eb9c45fbd1099b02eb6b
:10084000070c3033a9eb020202f1ff3905f80c3036
:100850000cf10107002223e0dbf810300797053b7d
:10086000bb427ff654af88ee090bcde90c200b910b
:1008700002f036fffdeec07bdde90b1217ee90cae9
:100880006346092ba8bf092309930af0100353ea12
:100890000c0c0d98bcd16728bad10029b8da013206
:1008a00099ee008b0139b1ee488b89ee0c9b2ae75b
:1008b00000000000000000000000000000005043a5
:1008c0000000f07f3c5f4000405f4000445f40001c
:1008d000485f40001af0100f1ebf2e23eb55013762
:1008e00019e70b4694fbfefc0ceb8c01a4eb4101d9
:1008f0003031e95464460bf1ff3b1de72a5c1a5482
:10090000013846e767283ff471af80460627a7e61f
:020000040000fa
:020000040040ba
:100910002de9f047aeb00746164605914ff00008a6
:10092000059d2b78002b00f0e08000244ff0ff3372
:10093000cde909430eab0c9380230b940d932b5df3
:100940000bb1252b30d134b12946224638462544f7
:1009500005f052fa0595059b1a78252a40f0bc80cf
:1009600003f10109cdf814904a46002113782b2b8e
:10097000104602f1010223d02ed8202b24d0232ba5
:1009800026d001b105902a2b2ed004f05dfc059aeb
:100990000b900020114601320b78303b092b79d99e
:1009a000002830d005912ee00134c8e7099b43f0c0
:1009b000010309930121d9e7099b43f00203f8e7fa
:1009c000099b43f00403f4e7099b43f00803f0e7b5
:1009d000099b43f01003ece72d2be7d0302bebd035
:1009e0000029d2d00590d0e733681a1d1b68326009
:1009f0000130002b05900b9305da099a5b4282f0d7
:100a0000010209920b93099bda0744bf23f002030a
:100a10000993059b1a782e2a0fd14ff0000acdf8c2
:100a200028a05a785d1c2a2a059535d102330593f2
:100a300033681a1d1b6832600a9305a804f0e2feb1
:100a4000059d0390287805f007fc2528039900f000
:100a5000da806138172800f2e080172800f2dd8084
:100a6000dfe810f02b00db00b6004700a700a7006e
:100a7000a700db004700db00db00db00db009e00a3
:100a800065008300db00db00c700db005600db00f5
:100a9000db00740001207de7284604f0d5fb5346b7
:100aa0000a90294601350a78303a092a03d9002be1
:100ab000c3d00591c1e70123f3e7324606a805f04c
:100ac000faf8002872d06b1c059306aa2b7809a9a6
:100ad0003846fff75dfb04444444a04540f3a7803b
:100ae000544b4f221a604ff0ff3840462eb0bde8fd
:100af000f0873346012206a802f0d0fc002855d02a
:100b0000013506aa09a93846059502f0f3fee2e789
:100b10003346002206a802f0c1fc002846d0013569
:100b200006aa09a93846059504f035fad3e73346f5
:100b3000002206a802f0b2fc002837d0013506aa30
:100b400009a93846059503f0cdfdc4e733460022d8
:100b500006a802f0a3fc48b36b1c05932b7806aae9
:100b600009a9384601f098fdb5e733460022f02187
:100b700006a802f093fcc8b1dde906320135134343
:100b800005950bd12c4805f0ddfa099b00932a4905
:100b90000b9b0246384603f007fc9ce77823dee710
:100ba000334608eb040206a803f046fe013505951e
:100bb00092e7324606a805f07ef80028f6d06b1cb6
:100bc000059306aa2b7809a93846fff7c9fc82e7e6
:100bd0008029ebd1336801351a1d1b6832608df80e
:100be00018300595012306aa09a9384604f07cf9b6
:100bf00071e78029dad13268131d3360013512683c
:100c000005950023f0e78029d0d1099b0093013599
:100c10000b9b059509490122bce700234ff0ff32e9
:100c2000cdf8149009930b930a920093f2e7a04633
:100c300076e600bf6c044020345f40003a5f40001d
:020000040000fa
:020000040040ba
:100c40002de9f04786468c460846089e15467446b0
:100c50001946002b40f0c2808242b2fa82f245d996
:100c60004ab1c2f1200300fa02fc2efa03f39540c8
:100c700043ea0c0c94404fea154ea8b2bcfbfef8b8
:100c8000230c0efb18cc08fb00f943ea0c439945f2
:100c900028d9eb1808f1ff3704d2994502d9a8f1f9
:100ca00002072b44a3eb0903a4b2b3fbfefc0efb2b
:100cb0001c330cfb00f044ea0344a04214d92c1965
:100cc0000cf1ff3304d2a04202d9acf102032c4450
:100cd000241a43ea07401eb1d440002334607360f5
:100ce000bde8f0874746dde76346f1e792bb431b6b
:100cf00001214fea154eafb2b3fbfefc200c0efbf8
:100d00001c330cfb07f840ea0343984562d9eb1803
:100d10000cf1ff3004d2984502d9acf102002b440b
:100d2000a3eb0803a4b2b3fbfefc0efb1c330cfbcd
:100d300007f744ea0344a7424ed92c190cf1ff33bc
:100d400004d2a74202d9acf102032c44e41b43eacb
:100d50000040c0e7c2f1200320fa03f19540904023
:100d60002efa03f303434fea154eafb2b1fbfefc7c
:100d70000efb1c10190c0cfb07f841ea00418845da
:100d800004fa02f422d969180cf1ff3004d2884524
:100d900002d9acf102002944a1eb08019bb2b1fbde
:100da000fefc0efb1c110cfb07f743ea01439f42bc
:100db0000ed9eb180cf1ff3104d29f4202d9acf1ed
:100dc00002012b44db1b41ea004192e76046e3e766
:100dd0006146f7e76046a3e76346b7e7834206d973
:100de00016b9002108467be7c6e900e0f9e7b3fa47
:100df00083f78fb9834201d3724508d8beeb020452
:100e000060eb030301209c461eb9002168e73846c9
:100e1000fae7c6e9004cf8e7c7f1200cbb4022fa1c
:100e20000cf41c432efa0cf120fa0cf3b8400143e9
:100e30004fea14490efa07f5b3fbf9f81ffa84fede
:100e400009fb18300b0c08fb0efa43ea00439a45e5
:100e500002fa07f240d9e31808f1ff3004d29a45ac
:100e600002d9a8f102002344a3eb0a0389b2b3fb21
:100e7000f9f809fb183308fb0efe41ea03418e45e1
:100e80002cd9611808f1ff3304d28e4502d9a8f19c
:100e90000203214443ea0040a0fb0298a1eb0e01ab
:100ea0004145ce46434602d306d14d4504d2b9eb67
:100eb000020e68eb04030138002ea6d0b5eb0e023b
:100ec00061eb030101fa0cfc22fa07f34cea03037d
:100ed000f940c6e9003198e74046c5e74346d9e7ff
:020000040000fa
:020000040040ba
:100ee00080b586b000af7d4b5b6a3b617c4b1b6a73
:100ef000fb60fb6803f48073002b05d0774bff2267
:100f00001a77764b01225a77fb6803f00103002b16
:100f100008d0734b08221a60714b04221a60704b80
:100f200007229a62fb6803f40073002b02d06b4b1c
:100f300001221a77694b5b7fdbb2002b40f0d38034
:100f4000664b1b7f5bb2013b032b00f2c18001a209
:100f500052f823f0650f4000511040008d0f400003
:100f6000bf1040005d4bdb68002b07d05b4b1b883c
:100f70009bb20021184601f0fdfab4e0574b1b88e4
:100f80009bb20121184601f0f5faace0fb6803f0d2
:100f90000403002b00f09e80504b5b697b614f4b3c
:100fa000db68013b7a699a420cbf01230023fb7284
:100fb0004a4b1b69002b14d0fb7a002b11d072b660
:100fc00000bf474b04229a62444b5a687b69134422
:100fd0001a78434b5a637b6901337b6104f0a4f8b0
:100fe0002fe03e4bdb68013b7a699a421fd13b4bb5
:100ff0005a687b6913441a78394b5a637b69013309
:101000007b61374b02221a60354b04229a62344bc3
:101010001b6afb60fb6803f00103002b03d02f4b1e
:1010200005221a770de02d4b04221a7709e02b4b8d
:101030005a687b6913441a78294b5a637b690133d8
:101040007b61264a7b695361254b1b6afb6041e04b
:10105000fb6803f00203002b3ed0204b9b697b60b2
:101060001e4b1b69023b7a689a4202d11c4b02223a
:101070001a601b4b196b194b9a687b681344cab2f0
:101080001a707b6801337b60144b1b697a689a4243
:1010900011d1134b02229a62114b1b6afb60fb6851
:1010a00003f00103002b03d00c4b05221a7702e05a
:1010b0000a4b04221a77094a7b6893610ce0fb68ab
:1010c00003f00103002b0dd0044b05221a7709e031
:1010d00000bf08e000bf06e000bf04e0d4034020ea
:1010e0000080014000bf1d4b1b7f5bb2b3f1ff3f8f
:1010f00013d11a4b00221a77194b07229a62184b08
:1011000008221a60164b04221a60144b1b6a002b2b
:1011100003d0124b1b6a38699847104b1b7f5bb298
:10112000052b17d10d4b00225a770c4b00221a7752
:101130000b4b07229a620a4b08221a60084b0422c2
:101140001a60064b1b6a002b04d0044b1b6a3869db
:10115000984700bf00bf1837bd4680bdd40340206c
:0411600000800140ca
:020000040000fa
:020000040040ba
:10116400b0b58ab002aff8607a603b600b467b8111
:101174000023bb6100237b6100233b610023fb77d9
:10118400bb6b002b00f00281bb6b4ff0ff321a6087
:10119400f86802f0fffbb861bb69002b00f0f8802f
:1011a40097f83c30012b07d17b6b002b00f0f280c9
:1011b4003b6b002b22d1ede097f83c30022b03d09f
:1011c40097f83c30082b07d13b68002b00f0e480f3
:1011d4007b68002b11d1dfe03b68002b00f0de8040
:1011e4007b68002b00f0da807b6b002b00f0d6804c
:1011f4003b6b002b00f0d28000e000bfbb691a6893
:1012040013461b019b1a9b00674a13447b61786950
:1012140001f06efc034683f00103dbb2002b40f0c7
:10122400bf80b86902f09af938613b69002b03d199
:10123400786901f049feb4e03b697a895a803b69d8
:101244003a6b5a603b697a6b9a603b697a68da60f8
:101254003b693a681a613b69fa689a613b69002202
:1012640083f824203b6901221a773b6900225a75ce
:101274003b6997f83c201a753b691a6abb6b1a6084
:101284003969786903f0a8fd0346002b7ad07b699d
:101294005a69bb695b699a420bd07b69db685b69fd
:1012a400ba691432002110469847bb695a697b69b0
:1012b4005a613b6902221a7797f83c30012b12d10c
:1012c4007b69db681b683a6950883a6951683a69f6
:1012d40092689847034683f00103dbb2002b31d0b8
:1012e4000123fb772ee097f83c30022b12d17b6967
:1012f400db685b683a6950883a69d1683a6912696f
:101304009847034683f00103dbb2002b1ad0012374
:10131400fb7717e07b69db689c683b6958883b690d
:10132400d9683b691a693b695d683b699b680093ae
:101334002b46a047034683f00103dbb2002b01d008
:101344000123fb77fb7f002b1cd0bb6b4ff0ff32dc
:101354001a607b69db681b69984703461a463b6938
:1013640083f824203b6993f82430dbb2002b03d1ab
:101374003b6901225a7502e03b69ff225a7578697c
:1013840003f0a7ff786901f09ffd0ae000bf08e0c1
:1013940000bf06e000bf04e000bf02e000bf00e0c1
:0c13a40000bf2037bd46b0bd380340201c
:020000040000fa
:020000040040ba
:1013b00080b58eb000af03460a46fb8013467b71b2
:1013c00000233b630023fb62fb88002b02d04ff01d
:1013d000ff33d1e0fa8813461b019b1a9b00684a31
:1013e00013443b633b6b34337b624ff0ff333b6210
:1013f0007b6a1b78012b04d17b6a00221a700123bf
:1014000000e00023002b02d14ff0ff33b4e03b6b30
:1014100093f90130022b06d13b6b1b7883f001035b
:10142000dbb2002b0dd03b6b3433fb61fb69002b2f
:1014300003d0fb6901221a7000e000bf4ff0ff33b8
:101440009ae03b6b9b78002b0dd03b6b3433bb6138
:10145000bb69002b03d0bb6901221a7000e000bffa
:101460004ff0ff3388e03b6b5b68002b12d07b7939
:1014700003f00803002b0dd03b6b34337b617b6999
:10148000002b03d07b6901221a7000e000bf4ff0ef
:10149000ff3371e000237b635ce07a6b13465b00f3
:1014a0001344db001a463b6bdb691344bb62bb6a27
:1014b0005b7983f00103dbb2002b48d0bb6a0122c9
:1014c0005a717b7903f00803002b02d03b6b012299
:1014d0009a703b6b5b685a1c3b6b5a603b6b9b8df5
:1014e000fa88d1b27a6bd2b2184604f009fb0246f0
:1014f000bb6a1a613b6b9b8d184604f017fb0346d1
:101500001a463b6b9a853b6b34333b613b69002b3e
:1015100003d03b6901221a7000e000bffa88bb6a61
:101520001a607b7943f00403dbb2fb62fb6adab238
:10153000bb6a1a713b6b1a69bb6a5a61bb6a0022ab
:101540009a60bb6a0022da60bb6a1b6914e07b6b9d
:1015500001337b633b6b9b687a6b9a429dd13b6bfb
:101560003433fb60fb68002b03d0fb6801221a7048
:1015700000e000bf4ff0ff3318463837bd4680bd4e
:0415800038034020cc
:020000040000fa
:020000040040ba
:1015840080b400af6b4b0022c3f81421694bd3f82d
:101594001431684a43f01003c2f81431664b002238
:1015a4001a67654b60225a67634b644a5a60624b00
:1015b400634a1a60604b4ff0ff325a655e4b4ff03e
:1015c400ff321a665c4b4ff0ff32c3f890205a4b3f
:1015d4004ff0ff32c3f8a020574b00221a61564b3c
:1015e4004ff0ff325a61544b00229a63524b00224f
:1015f400c3f81821534b10221a67524b10225a6712
:10160400504b10225a604f4b6ff010021a604d4b32
:101614004ff0ff325a654b4b4ff0ff321a66494b7d
:101624004ff0ff32c3f89020464b4ff0ff32c3f81f
:10163400a020444b00221a61424b4ff0ff325a6102
:10164400404b00229a633f4b0022c3f818213e4bc3
:101654004ff0ff321a603c4b4ff0ff325a653a4b61
:101664004ff0ff321a66384b4ff0ff32c3f8902028
:10167400354b4ff0ff32c3f8a020334b00221a61e0
:10168400314b4ff0ff325a612f4b00229a632e4b9d
:101694000022c3f818212d4b4ff0ff321a602b4b58
:1016a4004ff0ff325a65294b4ff0ff321a66274b31
:1016b4004ff0ff32c3f89020244b4ff0ff32c3f8b1
:1016c400a020224b4ff400021a61204b6ff4000259
:1016d4005a611e4b4ff400029a631c4b0022c3f85c
:1016e40018211b4b4ff0ff321a60194b4ff0ff3299
:1016f4005a65174b4ff0ff321a66154b4ff0ff3205
:10170400c3f89020124b4ff0ff32c3f8a020104bc7
:1017140000221a610e4b4ff0ff325a610c4b00222b
:101724009a630b4b0022c3f8182100bfbd465df835
:10173400047b704700800840000e0e4078002000b3
:1017440087ffdfff00100e4000120e4000140e4011
:0417540000160e402d
:020000040000fa
:020000040040ba
:1017580080b58cb000af03460a46fb8013467b7108
:101768000023bb6200237b62fb88002b02d04ff072
:10177800ff33bee0fa8813465b0013445b015f4aff
:101788001344bb62bb6a93f90230022b06d1bb6ad1
:101798001b7883f00103dbb2002b02d04ff0ff333c
:1017a800a7e0bb6a3c33fb614ff0ff33bb61fb69c9
:1017b8001b78012b04d1fb6900221a70012300e079
:1017c8000023002b02d14ff0ff3392e0bb6a5b7815
:1017d800002b0dd0bb6a3c337b617b69002b03d0a7
:1017e8007b6901221a7000e000bf4ff0ff3380e0f0
:1017f800bb6a9b68002b12d07b7903f00803002b8f
:101808000dd0bb6a3c333b613b69002b03d03b697d
:1018180001221a7000e000bf4ff0ff3369e0002397
:10182800fb6254e0fb6a1a01bb6a1b6913447b62c2
:101838007b6adb7883f00103dbb2002b44d07b6a40
:101848000122da707b7903f00803002b02d0bb6a0f
:1018580001225a70bb6a9b685a1cbb6a9a60bb6ab1
:101868009b8afa88d1b2fa6ad2b2184604f070f9a3
:1018780002467b6ada60bb6a9b8a184604f07ef9e6
:1018880003461a46bb6a9a82bb6a3c33fb60fb6814
:10189800002b03d0fb6801221a7000e000bf7b799f
:1018a80043f00403dbb23b623b6adab27b6a9a70ac
:1018b8007b6a00225a607b6a00229a607b6afa88f7
:1018c8001a807b6adb6814e0fb6a0133fb62bb6a3f
:1018d800db68fa6a9a42a5d1bb6a3c33bb60bb6835
:1018e800002b03d0bb6801221a7000e000bf4ff044
:1018f800ff3318463037bd4680bd00bf5401402035
:020000040000fa
:020000040040ba
:1019080080b586b000af03463960fb8000237b6159
:101918003b683b61fb88002b02d04ff0ff33b4e0fb
:10192800fa885c4913465b0013445b010b441b783f
:10193800002b02d04ff0ff33a7e0fa8813465b0074
:1019480013445b01534a13447b617b693d33fb605d
:10195800fb68002b01d1002303e0fb6801221a7009
:101968000123012b02d04ff0ff338ee07b693c331b
:10197800bb60bb68002b01d1002303e0bb680122d8
:101988001a700123012b02d04ff0ff337de07b69f1
:1019980001221a703b691a687b695a607b690022c8
:1019a8009a603b695a687b69da603b699a687b6927
:1019b8001a617b6901229a823b69da6a7b699a61ba
:1019c8003b691b6b1a467b69da617b6900221a62e4
:1019d8007b6900225a627b69002283f828203b69d0
:1019e8005a6b7b691a653b69da687b69da623b691d
:1019f8001a697b691a633b695a697b695a633b694f
:101a08009a697b699a633b69da697b691a643b69fd
:101a18001a6a7b695a643b695a6a7b699a643b69aa
:101a28009a6a7b69da643b699a6b7b69da657b69d8
:101a3800db6ab3f1ff3f08d07b69db6adbb27a6906
:101a48001549184603f02cfe06e07b695b685b6964
:101a58007a691146114898477b691b6bb3f1ff3fc0
:101a680008d07b691b6bdbb27a690d49184603f015
:101a780017fe06e07b695b681b687a6911460948ae
:101a880098477b6902229a70fb8818461837bd462a
:101a980080bd00bf540140201b5340006d5e4000d4
:081aa8005f534000b1544000ff
:020000040000fa
:020000040040ba
:101ab00080b584b004af5d4b1b78042b00f2ad8081
:101ac00001a252f823f000bfdd1a4000731b400052
:101ad0009b1b4000e31b40001b1c40000321002017
:101ae000fff766fc0346514a5360504b5b68b3f105
:101af000ff3f3ad04d4b4e4ada604c4b5b684d4944
:101b0000184603f094fd494b5b6800224a49184689
:101b100002f0cafe01234ff47a720021474803f015
:101b20008af9424b9b68b3f1ff3f1ad00221002093
:101b3000fff712fe03463d4a93633c4b9b6bb3f1a8
:101b4000ff3f0ad0394b9b6b00223d49184602f0fb
:101b500017ff364b03221a7064e0344b04221a70cc
:101b600060e0324b04221a705ce0304b04221a70a1
:101b700058e02e4b00221a752c4b5868314b0293bb
:101b800002230193304b00930123304a4f2103f08d
:101b9000a4fe264b03221a7044e0244b93f84430f1
:101ba000dbb2002b3bd0214b002283f84420264897
:101bb00001f036fd03461a461c4b83f837201b4bb9
:101bc00093f937301a462249224803f0f1fc174bab
:101bd00093f93730184604f043f8144b03221a7077
:101be0001de0124b93f83630dbb2002b07d00f4bc1
:101bf000002283f836200d4b01221a7011e00b4ba6
:101c000093f83530dbb2002b0bd0084b002283f861
:101c10003520064b02221a7003e000bf02e000bf2d
:101c200000e000bf00bfbd4680bd00bfb002402045
:101c3000a0860100bc02402045594000a15a400046
:101c4000e9534000c0024020c5024020c4024020a9
:081c500074614000c70240204e
:020000040000fa
:020000040040ba
:101c580080b584b004af594b1b78052b00f2a880df
:101c680001a252f823f000bf891c40000d1d40005e
:101c7800211d40005f1d4000831d4000b91d40002c
:101c880003210020fff790fb03464c4a93604b4b1f
:101c98009b68b3f1ff3f31d0484b494a5a60474be4
:101ca8009b684849184603f0befc444b9b680022d9
:101cb8004549184602f0f4fd03210020fff748fdce
:101cc80003463e4a53643d4b5b6cb3f1ff3f11d072
:101cd8003a4b5b6c00223d49184602f04dfe374beb
:101ce800586c3b4b01223b4904f0a9f8334b0422c2
:101cf8001a7060e0314b05221a705ce02f4b052208
:101d08001a7058e02d4b93f93f30184601f042fd08
:101d18002a4b04221a704ee0284b00221a75274bd2
:101d2800022283f84220254b98682b4b0293052307
:101d380001932a4b00930123294a572103f0c9fd37
:101d480000bf1e4b93f84230dbb2022bf9d01b4b7d
:101d580003221a702fe0194b93f8403019461f4898
:101d680001f0fef9154b586c194b0122194904f082
:101d780066f8124b04221a701de0104b93f841309c
:101d8800002b07d00d4b002283f841200b4b01227a
:101d98001a700fe0094b93f85130dbb2002b09d0d1
:101da800064b002283f85120044b02221a7001e0ee
:101db80000bf00e000bf00bfbd4680bd0c02402050
:101dc800801a0600100240202d544000254d400086
:101dd80058024020270240201802402022024020ba
:041de8002002402075
:020000040000fa
:020000040040ba
:101dec002de9b04f98b000af4ff000024ff0000358
:101dfc00c7e91623544bfb64fb6c5b6bbb64fb6c3d
:101e0c005a69fb6c1a61bb6c002b34d0bb6c9b68a1
:101e1c00b3f5004f11d3fb6c5b6900229a469346d5
:101e2c0047f6ff731aeb0303bb614bf10003fb6135
:101e3c00d7e90634c7e9163429e0bb6c9b687b6490
:101e4c00fb6c5b690022bb63fa637b6c00223b6317
:101e5c007a63d7e90e452346d7e90c0102469b1855
:101e6c003b610b462a4642eb03037b61d7e9043402
:101e7c00c7e916340be0fb6c5b690022184611466f
:101e8c0047f6ff73c41841f10005c7e91645fb6c12
:101e9c005b689b69984703469bb20022bb60fa6063
:101eac00d7e90234c7e91434fb6c1b690022bb620e
:101ebc00fa62d7e91423d7e90a4521468a42294612
:101ecc008b410cd2d7e914234ff6ff7151183960ae
:101edc0043f100037b60d7e90034c7e91434fb6c91
:101eec001b6a00223b627a62d7e91423d7e90845c2
:101efc00214611eb0208294641eb0309d7e91623c9
:101f0c00424573eb090306d23a6dfb6c1b6a1a440b
:101f1c00fb6cda6102e0ba6dfb6cda61fb6cdb69bd
:101f2c009bb2002b02d1fb6c0122da61fb6c5b686b
:101f3c005b69fa6cd26992b21046984700bf603761
:0c1f4c00bd46bde8b08f00bff802402089
:020000040000fa
:020000040040ba
:101f58002de9b04f8ab000aff8604d4b7b62fb684b
:101f68003b623b6a1a687b6a5a607b6a5b68db681b
:101f7800984702467b6ada607b6adb6800229a46e9
:101f8800934652465b464ff000004ff00001d900df
:101f980041ea5271d00002460b46b2eb0a0463ebe9
:101fa8000b054ff000024ff000036b0143ead463c6
:101fb800620114461d4614eb0a0845eb0b094ff065
:101fc80000024ff000034fea890343ea98734fea8f
:101fd800880290469946c7e90689d7e906012aa3e7
:101fe800d3e9002303f070fd02460b46911c3960cb
:101ff80043f100037b60d7e90034c7e904343a6948
:102008007b6a1a623b6a93f904207b6a1a727b6abc
:1020180000221a617b6a4ff6ff729a617b6a47f663
:10202800ff72da61796a4ff000024ff00003c1e9ec
:102038000a237b6a00225a637b6a002283f83020d5
:102048007b6a5b681b680021124898477b6a5b685b
:102058001b69002b07d07b6a5b681b697a6a9269e7
:1020680092b2104698477b6a5b685b697a6ad26964
:1020780092b2104698477b6a5b685b68984700bfd6
:102088002837bd46bde8b08f00a3e111000000006d
:08209800f8024020393a400033
:020000040000fa
:020000040040ba
:1020a00080b588b000aff8607b600b46fb721346ca
:1020b000bb720023fb610023bb61fb681b7883f0cc
:1020c0000103dbb2002b40f08280fb6893f9023001
:1020d000022b7cd1fb7a1946f86803f067fcb861e3
:1020e000bb69002b75d0bb691b68dbb21901bb69ea
:1020f0001b681b0adab2394813465b0013445b01c4
:10210000034410331b680b44fb61fb69da68bb694d
:102110001b689a424bd1bb69ba7a5a76bb695b7e1f
:102120005bb2b3f1ff3f19d1fb681b6bb3f1ff3f0b
:1021300003d0bb6900221a6114e0fb68db6c79688c
:10214000184603f0a5f80246bb69da61fb685b68d4
:10215000db6898470246bb691a6103e0bb69da682d
:10216000bb691a61bb691b6a7b61fb7a1946f86817
:1021700002f0e6fefb695b68002b1dd0fb6893f85c
:1021800028300133dab2fb6883f82820fb695b68ea
:10219000fa69926897f90a0079699847fb6893f899
:1021a0002830013bdab2fb6883f8282004e0fb7a90
:1021b0001946f86802f0c4fefb7a002b03d1f868d8
:1021c00001f03cf806e0f86801f0a0f802e000bf7a
:1021d00000e000bf2037bd4680bd00bf5401402055
:020000040000fa
:020000040040ba
:1021e00080b586b000af78607b681b6d7b617b68d3
:1021f0001b6d04333b6104f028f80346fb737b69d5
:102200001b78002b20d07b695b685bb2184603f01b
:10221000c8f803461a467b6883f85a207b68db6a55
:10222000b3f1ff3f04d17b681b6bb3f1ff3f6bd071
:102230007b695b685bb2184603f0b3f803461a4645
:102240007b6883f85b205fe03b691b68b3f1ff3f6d
:102250000ad03b691b685bb2184603f0a2f803463c
:102260001a467b6883f854203b695b68b3f1ff3ff3
:102270000ad03b695b685bb2184603f092f80346ec
:102280001a467b6883f855203b699b68b3f1ff3f92
:102290000ad03b699b685bb2184603f082f803469c
:1022a0001a467b6883f856203b69db68b3f1ff3f31
:1022b0000ad03b69db685bb2184603f072f803464c
:1022c0001a467b6883f857207b68db6ab3f1ff3fcf
:1022d0000ad03b691b695bb2184603f062f80346fb
:1022e0001a467b6883f858207b681b6bb3f1ff3f6d
:1022f0000ad03b695b695bb2184603f052f80346ab
:102300001a467b6883f85920fb7b184603f094fe3d
:0823100000bf1837bd4680bd77
:020000040000fa
:020000040040ba
:10231800b0b586b002af786039600023bb60012396
:10232800fb730123fb73786803f0c0fdb860bb68da
:10233800002b78d0bb681b7f012b74d1bb689b69cd
:10234800dab213465b001344db001846bb689b698e
:102358001b0adab23a4913461b019b1a9b000b442d
:102368001c331b6803443b607b685a693b685b69a4
:102378009a420bd07b68db685b693a6814320021ab
:10238800104698473b685a697b685a61bb681b7d51
:10239800042b26d0042b3adc012b02d0022b10d0c0
:1023a80035e0bb6802221a777b68db681b68ba686d
:1023b8005088ba685168ba68926898470346fb73b0
:1023c80026e0bb6802221a777b68db685b68ba681c
:1023d8005088ba68d168ba68126998470346fb738f
:1023e80016e0bb6802221a777b68db689c68bb68ca
:1023f8005888bb68d968bb681a69bb685d68bb68e0
:102408009b6800932b46a0470346fb7300e000bf80
:10241800fb7b83f00103dbb2002b04d0ba68396878
:10242800786801f07dfffb7b83f00103dbb2002bb2
:102438007ff477af00bf00bf1037bd46b0bd00bf07
:0424480038034020f5
:020000040000fa
:020000040040ba
:10244c0080b586b000af78607b681b6d7b617b6864
:10245c001b6d04333b6103f0f2fe0346fb737b6997
:10246c001b78002b1ed07b695b685ab27b6893f893
:10247c005a301946104603f003fc7b68db6ab3f153
:10248c00ff3f04d17b681b6bb3f1ff3f64d07b69ca
:10249c005b685ab27b6893f85b301946104603f0c0
:1024ac00effb59e03b691b68b3f1ff3f09d03b6977
:1024bc001b685ab27b6893f854301946104603f0e7
:1024cc00dffb3b695b68b3f1ff3f09d03b695b689d
:1024dc005ab27b6893f855301946104603f0d0fb7e
:1024ec003b699b68b3f1ff3f09d03b699b685ab2cb
:1024fc007b6893f856301946104603f0c1fb3b69d4
:10250c00db68b3f1ff3f09d03b69db685ab27b68eb
:10251c0093f857301946104603f0b2fb7b68db6a20
:10252c00b3f1ff3f09d03b691b695ab27b6893f842
:10253c0058301946104603f0a3fb7b681b6bb3f1b4
:10254c00ff3f09d03b695b695ab27b6893f85930fd
:10255c001946104603f094fbfb7b184603f066fd0e
:08256c0000bf1837bd4680bd19
:020000040000fa
:020000040040ba
:1025740080b584b000af03460a46fb8013467b71e6
:102584004ef66023fb60fb887f2b0dd9fb881b0a6a
:102594001b0403f4fe033d4a43f480735360fb8839
:1025a4003a4adbb2d36005e0fb881b04374a03f4e4
:1025b400fe035360364b00225a61354b00229a6168
:1025c4007b7983f00103dbb2002b55d0304bdb6801
:1025d400012b41d12e4b1b69002b13d12c4b042210
:1025e4001a772b4b5b681a78284b5a63284b5b6924
:1025f4000133274a5361254b02221a60234b0122df
:102604005a6239e072b600bf214b5b681a781f4bdf
:102614005a631f4b5b6901331d4a536100bf1b4b57
:102624001b6a03f00503002bf9d10ce0fb68002bb7
:1026340006d1174b02225a7762b600bf002321e06d
:10264400fb68013bfb60114b1b6a03f00403002b86
:10265400ecd001237b710fe00d4b03221a770c4b56
:102664005b681a78094b5a63094b5b690133084a62
:102674005361064b05225a627b79002b01d002f08c
:1026840051fd012318461037bd4680bd008001402e
:04269400d40340200b
:020000040000fa
:020000040040ba
:102698002de9f04f8bb00d460493d1e901132f6853
:1026a800d5f80c9003900029a8bf27f0020792469e
:1026b800b8bf012117f010020592dae9006232d0a2
:1026c80056ea02002fd0a3f1020b2c69029617f0ec
:1026d800080004f1ff3418bf0bf1ff3b90460022bd
:1026e80009f8042006905a46012c1edc059a002a97
:1026f80051d1069a1ab1013c202209f804202a690e
:1027080003980097013a121b09eb040101f048fef7
:10271800039b5b68db0503d56b689842b8bf184616
:102728000bb0bde8f08f9b46cfe7029850ea08004f
:1027380008d1a1eb0b001044002803dc002ad5ddea
:10274800b807d3d50298049e00f00f000928a6f117
:10275800410cd4bf30305730bcf1190f04f1ff34ad
:102768000ed840f0200cacf1610cbcf1190f07d861
:10277800cde90813079203f072fddde90813079a03
:1027880009f804000298060946ea0870013a02901e
:102798004fea1818a8e7dae900210a43a9d009eb9b
:1027a8000402049902f8011c023c302209f80420b2
:0227b8009fe799
:020000040000fa
:020000040040ba
:0227ba00fee738
:020000040000fa
:020000040040ba
:1027bc0080b586b000af03463960fb8000237b6197
:1027cc003b683b61fb88002b02d04ff0ff3374e079
:1027dc00fa883c4913461b019b1a9b000b441b783f
:1027ec00002b02d04ff0ff3367e0fa8813461b0131
:1027fc009b1a9b00334a13447b617b693433fb6027
:10280c00fb68002b01d1002303e0fb6801221a7046
:10281c000123012b02d04ff0ff334ee07b6935339f
:10282c00bb60bb68002b01d1002303e0bb68012215
:10283c001a700123012b02d04ff0ff333de07b696e
:10284c0001221a703b691a687b69da603b695a6924
:10285c007b699a613b695a687b69da613b699a6862
:10286c007b699a603b691b691a467b695a623b69b2
:10287c00da687b691a627b6900229a627b690022a2
:10288c005a607b6900229a707b6900221a637b690b
:10289c0001229a853b699a697b691a613b699a693d
:1028ac007b695a617b69db689b697a6911460648ca
:1028bc0098477b6902225a70fb8818461837bd4628
:0c28cc0080bd00bf380340203d3d4000af
:020000040000fa
:020000040040ba
:1028d8001c0440201c0000000000000038034020b9
:1028e8003c0000000000000054014020600000008f
:1028f8000000000054044020080000000000000010
:10290800d403402028000000000000007403402089
:1029180030000000000000003804402010000000d3
:1029280000000000f8024020400000000000000005
:10293800b4004020a0000000000000007004402007
:10294800020000000100000001000000a403402074
:102958003000000000000000b401402058000000d2
:1029680000000000fc0340202000000000000000e0
:1029780000004020b400000000000000480440208f
:102988000c000000000000005c044020080000006b
:1029980000000000b00240204800000000000000d5
:1029a8000c02402054000000000000006404402095
:1029b80004000000000000006002402050000000f9
:1029c800000000006804402008000000000000002b
:1029d80000000000000000006666666666666666bf
:020000040000fa
:020000040040ba
:1029e8002de9f00f8cb000aff8604ff000004ff009
:1029f8000001c7e90a013c49b961b969496b7962c3
:102a0800002139620021f977f968002901d1fb7f9b
:102a180063e0f96889687961796a002930d1fb68cf
:102a28007a699a60bb69fa685a630123fb7753e0b5
:102a3800796a896800200c460546d7e90a012218f8
:102a480045eb01037969002088468146904579eb7a
:102a5800030119d3796a896800208a468346d7e931
:102a68000a0110eb0a063e6041eb0b017960d7e9d9
:102a78000001c7e90a01796a3962796a8969796264
:102a8800796a0029d4d100e000bf3b6a002b08d145
:102a9800bb69fa685a63fb687a6a9a610123fb7713
:102aa80006e03b6a9a69fb689a613b6afa689a6130
:102ab800bb6a7a69d21afb689a60fb689b69002b2b
:102ac8000ad0fb689b687b61fb689b699968fb6817
:102ad8009b697a698a1a9a60fb7f18463037bd4627
:0c2ae800bde8f00f704700bff80240206e
:020000040000fa
:020000040040ba
:102af40080b588b000af78607b689b69fb617b68b8
:102b04009b690433bb617b681b6b002b13d17b680f
:102b140035333b614ff0ff33fb603b691b78012b7e
:102b240004d13b6900221a70012300e00023002b2a
:102b340001d1002358e0fb691b78002b0bd0fb6903
:102b44005b685bb2184602f02afc03461a467b68af
:102b540083f83a2047e003f076fb0346fb75bb6934
:102b64001b68b3f1ff3f0ad0bb691b685bb2184610
:102b740002f015fc03461a467b6883f83620bb69cd
:102b84005b68b3f1ff3f0ad0bb695b685bb2184670
:102b940002f005fc03461a467b6883f83720bb69bc
:102ba4009b68b3f1ff3f0ad0bb699b685bb21846d0
:102bb40002f0f5fb03461a467b6883f83820bb69ac
:102bc400db68b3f1ff3f0ad0bb69db685bb2184630
:102bd40002f0e5fb03461a467b6883f83920fb7d47
:102be400184603f027fa012318462037bd4680bd56
:020000040000fa
:020000040040ba
:102bf40080b588b000aff860b9607a603b600023ac
:102c0400fb610023bb6100237b613b68002b60d028
:102c14003b684ff0ff321a607b68002b5bd0bb68c7
:102c2400002b58d0f86800f0a3ffb861bb69002bf3
:102c340053d0bb691b881a4613465b0013445b01df
:102c4400294a1344fb61f86902f022fa034683f02f
:102c54000103dbb2002b42d1b86900f017fa7861a6
:102c64007b69002b03d1f86902f0e6fd38e07b694b
:102c7400ba689a607b697a68da607b6900221a61b3
:102c84007b69fa681a607b690022da617b69012238
:102c94001a767b6900225a767b691a6a3b681a6045
:102ca40097f828301a467969f86901f031fe03462d
:102cb400002b0ad097f82830012b03d1f86900f0d3
:102cc40023fb02e0f86900f0b7faf86902f0b4fdfa
:102cd40006e000bf04e000bf02e000bf00e000bf68
:0c2ce4002037bd4680bd00bf54014020d9
:020000040000fa
:020000040040ba
:102cf00080b588b000aff860b9607a603b604ff093
:102d0000ff33fb6100237b6101f07cff034683f00e
:102d10000103dbb2002b01d0fb6958e02e4b93f985
:102d20000030022b50d1bb68002b4dd0ba68fb6835
:102d30009a4249d3294bbb6142e0bb691b7883f0bf
:102d40000103dbb2002b35d0bb6901221a70bb69cd
:102d500000225a70bb6900221a75bb6900225a759d
:102d6000bb6997f828209a70bb69ba685a60bb693a
:102d70007a68da60bb693a681a61ba68fb68d21a85
:102d8000bb699a60164b1b887a6992b21146184645
:102d900003f07ef80246bb69da61114b1b881846c6
:102da00002f032ff03461a460d4b1a80bb69db69fd
:102db000fb6109e07b6901337b61bb692033bb6147
:102dc000bb69084a9342b8d302f0f6f9fb6918468a
:102dd0002037bd4680bd00bff8024020b40040202f
:082de000700440205401402062
:020000040000fa
:020000040040ba
:102de80008b5314b9847314b984702f0edff00206a
:102df80001f056fa02f038fe02f0bafd2c4c2d4bc9
:102e080023f07f03a3602c4b9847636913f4003fba
:102e180012d1bff34f8fbff36f8f0022c4f8502237
:102e2800bff34f8fbff36f8f626942f40032626164
:102e3800bff34f8fbff36f8f1d4b5b6913f4803f58
:102e48002bd11b4b0022c3f88420bff34f8fd3f83c
:102e58008030c3f3c90ec3f34e334fea431c43f625
:102e6800e07413480cea0401734641ea8372c0f81f
:102e78006022013bb3f1ff3ff7d1acf1200c1cf10c
:102e8800200fefd1bff34f8f094a536943f48033c2
:102e98005361bff34f8fbff36f8f084b9847084bb1
:102ea800984703f0c6f9fee7af2f4000af2f400068
:102eb80000ed00e000004000814d4000af2f4000d1
:042ec800af2f4000e8
:020000040000fa
:020000040040ba
:102ecc0080b586b000af78607b689b697b617b685e
:102edc009b6904333b617b691b78002b0ad07b69af
:102eec005b685ab27b6893f83a301946104602f088
:102efc00c7fe43e003f0a3f90346fb733b691b6871
:102f0c00b3f1ff3f09d03b691b685ab27b6893f859
:102f1c0036301946104602f0b3fe3b695b68b3f1dc
:102f2c00ff3f09d03b695b685ab27b6893f8373036
:102f3c001946104602f0a4fe3b699b68b3f1ff3fb3
:102f4c0009d03b699b685ab27b6893f838301946b4
:102f5c00104602f095fe3b69db68b3f1ff3f09d0e8
:102f6c003b69db685ab27b6893f8393019461046d6
:102f7c0002f086fefb7b184603f058f87b681b6b4f
:102f8c00002b0ad17b683533bb60bb68002b03d0a8
:102f9c00bb6801221a7000e000bf00bf1837bd46a5
:022fac0080bde6
:020000040000fa
:020000040040ba
:022fae0070476a
:020000040000fa
:020000040040ba
:102fb00080b584b000af0023fb605de0324afb685f
:102fc0001b0113441b78fb722f4afb681b0113443f
:102fd00008331b687b60fb7a002b4ad02b4b5a6965
:102fe000fb6822fa03f303f00103002b41d0274ac8
:102ff000fb689b0113445c331b683b603b6803f038
:103000007003002b18d0204afb681b0113440c33bb
:1030100000221a701c4afb681b01134404331b680e
:10302000002b26d0184afb681b01134404331b688d
:103030007968022098471ce03b6803f00103002bed
:1030400017d0114afb681b0113440c3300221a707d
:103050000d4afb681b01134404331b68002b08d086
:10306000094afb681b01134404331b68796801207b
:103070009847fb680133fb60fb68002b9ed000bfc4
:1030800000bf1037bd4680bd380440200080074097
:020000040000fa
:020000040040ba
:10309000b0b586b000af78607b681b881a461346cf
:1030a0005b0013445b012f4a13443b613b69db69be
:1030b000fb6000237b614be07a691346db0013441d
:1030c0009b001a46fb6813441b79dbb283f00103b3
:1030d000dbb2002b39d07a691346db0013449b0026
:1030e0001a46fb68134401221a717a691346db0001
:1030f00013449b001a46fb68134400225a613b6943
:10310000988a7b681b88d9b27b69ddb27a691346dd
:10311000db0013449b001a46fb689c182a4602f009
:103120001bfd034623623b699b8a184602f02afd79
:1031300003461a463b699a827a691346db001344b8
:103140009b001a46fb68134408e07b6901337b61ee
:103150003b699b697a699a42aed3002318461837b7
:08316000bd46b0bd5401402042
:020000040000fa
:020000040040ba
:1031680080b584b000af78600b46fb702b4bbb601a
:103178002b49b86802f069ff0346fb73fb78bb7301
:1031880013e0fb7bba68d018bb7b7a6813441b78c2
:103198005bb21a46234902f058ff0346dab2fb7bba
:1031a8001344fb73bb7b0133bb73bb7b042be8d994
:1031b800fb78002b1ad00023bb7313e0fb7bba68a3
:1031c800d018bb7b7a6813441b785bb21a46154942
:1031d80002f03bff0346dab2fb7b1344fb73bb7b75
:1031e8000133bb73ba7bfb789a42e7d3fb7bba689f
:1031f80013440d49184602f028ff0346dab2fb7b58
:103208001344fb73094b586cfa7b094b034902f0d2
:1032180003fe00bf1037bd4680bd00bf2802402016
:10322800046240000c624000146240000c0240201e
:0432380054024020dc
:020000040000fa
:020000040040ba
:10323c0080b584b000af78600021786802f0b0fbf4
:10324c00f860fb68002b55d0fb681b7e012b53d11b
:10325c00fb6802221a767b681b6bb3f1ff3f3fd0f1
:10326c007b685b685b6a9847b8607b68db6d032b97
:10327c001cd9fb689a68fb68db685b001946104632
:10328c0001f0b6f97b681b6b4ff40061184602f035
:10329c00a9f97b681b6bd8b27b68996bfb689a6841
:1032ac00fb68db685b0000f091f826e0fb689a682d
:1032bc00fb68db681946104601f09af97b681b6bba
:1032cc000021184602f08ef97b681b6bd8b27b6824
:1032dc00996bfb689a68fb68db6800f077f80ce088
:1032ec007b685b685b68fa689068fa68d26811461c
:1032fc00984702e000bf00e000bf1037bd4680bd1c
:020000040000fa
:020000040040ba
:10330c0080b584b000af78600121786802f048fb8a
:10331c00f860fb68002b52d0fb681b7e012b50d150
:10332c00fb6802221a767b68db6ab3f1ff3f3cd064
:10333c007b68db6d032b1ed9fb68db685b00bb6015
:10334c00fb689b68ba681146184601f08bf97b68dc
:10335c00db6a4ff40061184602f044f97b68db6ac3
:10336c00d8b2fb6899687b685a6bfb68db685b00ba
:10337c0000f02cf826e0fb689a68fb68db681946bd
:10338c00104601f06ff97b68db6a0021184602f0e9
:10339c0029f97b68db6ad8b2fb6899687b685a6b41
:1033ac00fb68db6800f012f80ce07b685b689b69db
:1033bc00fa689068fa68d2681146984702e000bf34
:0a33cc0000e000bf1037bd4680bdd1
:020000040000fa
:020000040040ba
:0233d60070473e
:020000040000fa
:020000040040ba
:1033d80080b489b000afb9607a603b600346fb7384
:1033e80000233b610023fb77bb68bb617b687b6183
:1033f800fb7b264a1b0113440c331b78dbb283f09a
:103408000103dbb2002b08d1214b5a6afb7b22fa5d
:1034180003f303f00103002b30d11d4afb7b9b0112
:1034280013445c331b683b613b69fb7b174a1b01f8
:1034380013440c3301221a701549fb7bba699b01ae
:103448000b4460331a601249fb7b7a699b010b4479
:1034580064331a600e49fb7b3a6822f07f429b0175
:103468000b4470331a60bff35f8f00bffb7b084ac1
:10347800012101fa03f3d3610123fb77fb7f18468f
:103488002437bd465df8047b704700bf38044020f0
:043498000080074069
:020000040000fa
:020000040040ba
:10349c00902910b50fdc7f2913dd8039102910d845
:1034ac00dfe801f02b2b360f110f0f0f200f0f0f32
:1034bc000f0f0f0f3600c02944d0f02942d0a0299d
:1034cc0021d000200de019682ab10a1d1a60b1f94b
:1034dc000030da1702e00c1d1c600b88c0e90032ca
:1034ec00012010bd196822b10a1d1a6091f9003033
:1034fc00efe70c1d1c600b78f0e71968f2b10a1da0
:10350c001a600b68e5e71a68111d19601368e0e78b
:10351c00196852b1073121f0070101f108021a6054
:10352c00d1e90023c0e90023dae7ca1d22f0070223
:10353c0002f108011960d2e90023f3e70c1d1c60ad
:10354c000b68cbe71a68111d196013680360002320
:04355c004360c5e71c
:020000040000fa
:020000040040ba
:10356000b0b586b000af78607b681a6813461b015f
:103570009b1a9b00294a13443b613b695b6afb60d1
:1035800000237b6140e07b692c2202fb03f3fa6895
:1035900013441b7883f00103dbb2002b31d07b692d
:1035a0002c2202fb03f3fa68134401221a707b6990
:1035b0002c2202fb03f3fa68134400229a623b694f
:1035c000988d7b681b68d9b27b69ddb27b692c2240
:1035d00002fb03f3fa68d4182a4602f091fa034674
:1035e00023623b699b8d184602f0a0fa03461a46f7
:1035f0003b699a857b692c2202fb03f3fa6813442a
:1036000008e07b6901337b613b691b6a7a699a42f6
:10361000b9d3002318461837bd46b0bd3803402043
:020000040000fa
:020000040040ba
:1036200080b485b000af78607b681b781bb21b024a
:103630001ab27b6801331b781bb21343fb81b7f9c5
:103640000e30002b11dbb7f90e30db111bb207ee89
:10365000903ab8eee77bb6ee006b27ee067bfdee08
:10366000c77b17ee903afb8116e0fb895b429bb269
:10367000fb81b7f90e30db11fb81b7f90e3007ee95
:10368000903ab8eee77bbeee006b27ee067bfdeed0
:10369000c77b17ee903afb81b7f90e3007ee903af0
:1036a000f8eee77ab2ee027a27ee877af1ee046a54
:1036b000c7ee267a9fed087a77ee877afdeee77af5
:1036c00017ee903afb81fb895bb218461437bd4672
:0c36d0005df8047b704700bf0000004262
:020000040000fa
:020000040040ba
:0436dc00704700bf74
:020000040000fa
:020000040040ba
:1036e00053ec102bc3f30a512de9f04140f2fd7069
:1036f0004c1e84429e4640d8a1f2ff30002833dba6
:1037000033282ddc244c4ff0ff3cc0f12006154639
:10371000a1f21f4104fa06f22cfa00fc4cea020c5a
:1037200024fa01f24cea020cc44003ea040805ea58
:103730000c0757ea080725ea0c0223ea04030fd016
:10374000002b0dda4ff4801404fa06f624fa01f186
:103750000e43b61824fa00f444eb03043246234621
:1037600043ec102bbde8f0819fed090bbfee007b11
:10377000002b20fe070bbde8f0810029f0d10a469e
:1037800003f0004343ec102bece700bfaff30080e5
:0c3790000000000000000000ffff0f0020
:020000040000fa
:020000040040ba
:10379c0080b586b002af0346fb710023fb73264b4a
:1037ac0093f84020244b1a75fa79234b5a75224b07
:1037bc00022283f84220204b9868204b009302236e
:1037cc001f4a572102f069f800bf1b4b93f8423097
:1037dc00dbb2022bf9d0184b022283f84220164b95
:1037ec00986807f10f02154b00930123572102f043
:1037fc003af800bf104b93f84230dbb2022bf9d0f1
:10380c000d4b93f84230dbb2012be4d00a4b93f80a
:10381c0040300133dab2084b83f84020064b93f862
:10382c004030042b03d9044b002283f8402000bf06
:10383c001037bd4680bd00bf0c024020180240204e
:04384c0020024020f6
:020000040000fa
:020000040040ba
:1038500080b487b000af786039600023fb747b6868
:10386000002b01d1002339e07b681b68fb60fb68fb
:103870001d4a934201d9002330e03b68002b01d15f
:103880001a4b3b60fb685b003a68b2fbf3f3033b07
:103890007b6105e0fb7c0133fb747b695b087b612a
:1038a0007b69ff2b02d9fb7c062bf3d97b69ff2bad
:1038b00001d9002312e00e4b1b6903f07c527b6997
:1038c000dbb21a437b691b029bb21a43fb7c1b04cd
:1038d00003f4e023064913430b61012318461c3708
:1038e000bd465df8047b704700093d0080d1f008bb
:0438f0000080014013
:020000040000fa
:020000040040ba
:1038f4002de9f041d2e900230c4686b005465fea83
:10390400d378d1e901060968e76805913fd05242ae
:1039140063eb4303002808db21f002010591b8f1b1
:10392400000f02d10599480722d5711e05a80290ff
:103934000a20cde90010204600f0aefdb8f1000fda
:103944001ad001382d233b542269059b0093013a78
:103954003346121a3918284600f024fd6b68db053b
:1039640003d563689842b8bf184606b0bde8f08135
:103974000807dad43146d9e7059b590702d501383f
:103984002b23e0e71a07dfd501382023dbe70028e3
:04399400c2dac7e7e5
:020000040000fa
:020000040040ba
:1039980080b485b000af78600023bb600023fb6073
:1039a8007b68b3f1ff3f3ad07b68002b37d07b6848
:1039b8001b0adbb2bb60bb68002b01d000232fe0e1
:1039c8007b68d9b21948ba6813461b019b1a9b0039
:1039d800034408331b68994201d3002320e07b6825
:1039e800dab213465b001344db0018460f49ba6885
:1039f80013461b019b1a9b000b441c331b68034492
:103a0800fb60fb681b697a689a4206d1fb685b79a0
:103a180083f00103dbb2002b01d0002300e0fb6838
:103a280018461437bd465df8047b704738034020bc
:020000040000fa
:020000040040ba
:103a38002de9b04386b000af78603960234b7b61d5
:103a48007b695b6b3b610023fb607b695b689b69ff
:103a5800984703461a467b695a617b695b69184631
:103a680001f0cafbf8607b69d3e90a23f9680020f2
:103a78000c46054612eb040843eb05097b69c3e9cc
:103a88000a893b69002b12d07b6993f830300133e7
:103a9800dab27b6983f83020f86800f0f9fa7b69bc
:103aa80093f83030013bdab27b6983f8302002f0ba
:103ab800c8fb0346fb72fef795f9fb7a184602f03d
:103ac800b7fa00bf1837bd46bde8b083f8024020fa
:020000040000fa
:020000040040ba
:103ad80080b487b000af786039600023fb7500239d
:103ae8003b611f4b93f82c30dbb2002b01d0002335
:103af8002fe01b4b1b7ddbb2002b01d0002328e0fd
:103b08007b68002b24d07b681b68fb603b68002b1c
:103b180001d1144b3b60fb681b013a68b2fbf3f31d
:103b28003b613b69b3f5803f12d20f4b5b68bb60ca
:103b3800bb6823f46063bb607b685a680a49bb684a
:103b480013434b60084a3b699bb213620123fb7520
:103b5800fb7d18461c37bd465df8047b704700bfe7
:0c3b68007403402080d1f008000a0e40d9
:020000040000fa
:020000040040ba
:103b740080b485b000af78600023bb600023fb6095
:103b84007b68b3f1ff3f36d07b68002b33d07b6872
:103b94001b0adbb2bb60bb68002b01d000232be007
:103ba4007b68d9b21748ba6813465b0013445b01bb
:103bb40003440c331b68994201d300231ce07b6847
:103bc400dbb219010f48ba6813465b0013445b016a
:103bd400034410331b680b44fb60fb68db687a68a2
:103be4009a4206d1fb68db7883f00103dbb2002b39
:103bf40001d0002300e0fb6818461437bd465df889
:083c0400047b704754014020cd
:020000040000fa
:020000040040ba
:103c0c0080b489b000af7860224b3b613b695b6b41
:103c1c00fb610023bb610023fb753b695b6bfb61a4
:103c2c0004e0fb69bb61fb699b69fb61fb69002bd1
:103c3c0003d0fa697b689a42f3d1fb69002b01d15e
:103c4c00fb7d21e07b689b69002b0ad07b689b681d
:103c5c00fb607b689b6999687b689b69fa680a447e
:103c6c009a60bb69002b07d13b695b6b9a693b6916
:103c7c005a630123fb7503e07b689a69bb699a61ff
:103c8c007b6800229a61fb7d18462437bd465df89f
:083c9c00047b7047f802402090
:020000040000fa
:020000040040ba
:103ca4002de9b04386b000af7860224b7b610023de
:103cb4003b610023fb737b695b689b699847034600
:103cc4001a467b695a617b695b69184601f096fa6a
:103cd4003861386900f076fd02f0b5fa0346bb732b
:103ce4007b69d3e90a23396900200c46054612eba7
:103cf400040843eb05097b69c3e90a89bb7b1846c1
:103d040002f098f97868fef76dfe0346fb73fb7bbf
:103d1400002b09d002f097fa0346bb73fef764f850
:103d2400bb7b184602f086f900bf1837bd46bde8d4
:083d3400b08300bff80240203b
:020000040000fa
:020000040040ba
:103d3c0080b586b000af78607b687b6100233b6107
:103d4c000023fb607b691b7883f00103dbb2002b43
:103d5c0032d17b6993f90130022b2dd1786902f0b5
:103d6c00a3f8f860fb689b69dab213465b00134456
:103d7c00db001846fb689b691b0adab21049134634
:103d8c001b019b1a9b000b441c331b6803443b61b7
:103d9c003b691a69fb689b699a4205d1fa683969d3
:103dac00786900f0bbfa02e0786901f08efa3969a3
:103dbc007869fef7abfa00e000bf1837bd4680bd4e
:043dcc003803402058
:020000040000fa
:020000040040ba
:103dd00080b584b000af214b1b7ddbb2002b38d007
:103de0001e4b5b68bb601d4b9b68fb600de01b4b73
:103df0001a68fb6813441a78194bdb691146184a94
:103e00000b43d361fb680133fb60154b5b6903f027
:103e10000203022b03d1ba68fb689a42e7d80f4a23
:103e2000fb6893600d4b9b68ba689a4211d80b4ba4
:103e300000221a750a4b4ff40072da60074bdb68f8
:103e4000002b06d0054b1b697b60044bdb68786850
:103e5000984700bf1037bd4680bd00bf74034020a7
:043e6000000a0e4006
:020000040000fa
:020000040040ba
:103e640080b584b000af204b93f82c30dbb2002b2c
:103e740035d01d4bdb69bb601b4b1b6afb600ae042
:103e84001a4b9969184b9a69fb681344cab21a70a1
:103e9400fb680133fb60154b5b6903f00103012be5
:103ea40003d1ba68fb689a42ead80f4afb681362e6
:103eb4000d4b1b6aba689a4211d80b4b002283f847
:103ec4002c200a4be122da60074b5b6a002b06d0f8
:103ed400054b9b6a7b60044b5b6a7868984700bf1c
:103ee4001037bd4680bd00bf74034020000a0e4059
:020000040000fa
:020000040040ba
:103ef40080b584b000af78600023bb600123fb73fe
:103f040000f07efe034683f00103dbb2002b01d0f8
:103f1400fb7b2fe0786800f0b9ffb860bb68002b2a
:103f240025d0bb685b7883f00103dbb2002b1cd087
:103f3400bb689b68002b03d1bb685a68bb689a6056
:103f44000e4b93f83030002b03d1b868fff7a8fe6e
:103f540002e0b868fef746fdbb6800221a75bb682c
:103f640000225a75bb6801225a700023fb7301f0ca
:103f740021f9fb7b18461037bd4680bdf80240206e
:020000040000fa
:020000040040ba
:103f840080b582b000af786001f0f2ff01f0a6fec8
:103f9400fdf7f6fa00f004f9164b4ff400425a60ac
:103fa400154b4ff400425a6001f0d6fb00f0d2fbef
:103fb40000f088fe11490020fef7fefb0346104a7c
:103fc400136010490020fdf79dfc03460c4a536022
:103fd4000d49002000f074fd0346094a936001f086
:103fe40097ff02f095f800f099f800bf0837bd4636
:103ff40080bd00bf00190e4050180e40c85f40003d
:0c4004004804402020574000a462400007
:020000040000fa
:020000040040ba
:1040100080b582b000af1f4b3b603b685b6b7b6041
:104020002ee07b689b68002b2ed17b6801221a75dd
:104030007b6801225a757b689b78002b09d17b68cd
:10404000db68002b05d07b68db69184600f070fd4b
:1040500009e07868fff7dafd7b689b78002b02d1d6
:104060007b6800225a707b68db68002b05d07b6878
:10407000db687a681269104698473b685b6b7b6027
:104080007b68002bcdd100e000bf00bf0837bd46e4
:0840900080bd00bff8024020d2
:020000040000fa
:020000040040ba
:1040980080b584b000af7860786800f091fbfff7d6
:1040a800b3ff0023fb732de0fb7b1a4a5b0113442b
:1040b80015331b78dbb2002b21d0fb7b154a5b0143
:1040c8001344153300221a70fb7b124a5b01134418
:1040d80002331b78012b12d1fa7bfb7b0d4952016d
:1040e8000a44043212680b495b010b4408331a6016
:1040f800fb7b5b01074a13441846fef771fcfb7b08
:104108000133fb73fb7b042bced900bf00bf1037f4
:08411800bd4680bdb40040204b
:020000040000fa
:020000040040ba
:1041200080b500af002000f0dbffbff35f8f00bf62
:1041300062b600bf0721082000f058ff082001f0f8
:1041400095fa0721132000f051ff132001f08efa99
:104150000721172000f04aff172001f087fa0721f6
:104160003a2000f043ff3a2001f080fa0c4b5b6ae2
:104170000b4a43f480235362094b5b69084a43f0be
:1041800010035361064b5b6a054a43f400335362e4
:10419000034b5b6a024a43f48033536200bf80bd25
:0441a00000ed00e04e
:020000040000fa
:020000040040ba
:1041a40080b483b000af0023fb710023fb711de0da
:1041b400fb79194a1b01134400221a70fb79164a31
:1041c4001b011344043300221a60fb79124a1b01b9
:1041d4001344083300221a60fb790f4a1b0113446d
:1041e4000c3300221a70fb790133fb71fb79002b2d
:1041f400ded00a4b0a4a9a67084b71221a65074bac
:104204000122da60044b01221a7000bf0c37bd464c
:104214005df8047b704700bf3804402000800740ed
:04422400114001162e
:020000040000fa
:020000040040ba
:1042280080b485b000af786039600023fb737b6889
:10423800bb60bb68002b28d0174b1b7ddbb283f01b
:104248000103dbb2002b20d0134abb681360124a6b
:104258003b685360104b00229a600f4b01221a757d
:104268000123fb730d4b5b6903f00203022b08d19a
:10427800bb681a78094bda61074b9b680133064a19
:104288009360064b4ff400729a60fb7b1846143714
:10429800bd465df8047b704774034020000a0e4059
:020000040000fa
:020000040040ba
:1042a800174b184a5a601a46936813f0010ffbd04f
:1042b800134bdb68144a1360c3f3c11383421dd048
:1042c80010f0020f0cbf0c220b22104b13430c4aa8
:1042d8005360936813f0010ffbd000f00100c0f1a8
:1042e8000c000b4b18600b4b0343054a5360936853
:1042f80013f0010ffbd0084b084a1a60704700bf43
:10430800000c0e400d00005a5c0440200008005ac2
:10431800600440200007005a00180e40010000a564
:020000040000fa
:020000040040ba
:1043280080b586b000aff860b9607a60fb68db687a
:104338001b69984703461a467b6883f824207b68e4
:1043480093f82430dbb2002b03d17b6801225a7525
:1043580002e07b68ff225a757b685b7dfb757b6892
:104368001b6a3b61f86800f0b2ffbb689b68002bd2
:1043780011d0fb681b6b5a1cfb681a63bb689b68ef
:10438800ba68d26897f9170039699847fb681b6bb8
:0e4398005a1efb681a6300bf1837bd4680bd71
:020000040000fa
:020000040040ba
:0243a60070475e
:020000040000fa
:020000040040ba
:1043a8002de9ff471d460c9b13f0010806460f46f2
:1043b800144601d195420bd822463946304601f0c1
:1043c80017fda54204d82546284604b0bde8f08765
:1043d800a5eb04094a46102a28bf10222021684666
:1043e800ca4601f0f7fe00bfbaf10f0f0ed809f068
:1043f8000f026946304601f0fbfcb8f1000fe3d12b
:1044080022463946304601f0f3fcdde710226946c2
:0c441800304601f0edfcaaf1100ae5e7c7
:020000040000fa
:020000040040ba
:1044240080b584b000afb9607a603b600346fb811d
:10443400174b1b7f5bb2002b01d0002323e0154bed
:104444001b6a03f04073b3f1407f04d0104b022287
:104454005a77002317e00e4afb8913800c4a3b6805
:1044640093600b4abb691361094abb685360084aed
:104474007b68d360064b00225a77fb8900211846db
:10448400fef776f8034618461037bd4680bd00bfd8
:08449400d40340200080014028
:020000040000fa
:020000040040ba
:10449c002de9f84f0446dde90a9a6668d4f80c80d9
:1044ac0024690c9f013c1946002e4ff00003d7f8ed
:1044bc0000b008f804301046b8bf01264d46012361
:1044cc00002c03dcdbb12046bde8f88f50ea01027a
:1044dc0009d1a6eb09022a44002a04dc002df1dde7
:1044ec001bf0020feed052464feaea7301f0eafae3
:1044fc00013c1346303208f80420013de0e73b68ec
:08450c0023f010033b60dee721
:020000040000fa
:020000040040ba
:1045140080b584b000af0346b9607a60fb81174b65
:104524001b7f5bb2002b01d0002323e0144b1b6ada
:1045340003f04073b3f1407f04d0104b02225a774a
:10454400002317e00d4afb8913800c4abb68936073
:104554000a4a7b681361094b00225a60074b002208
:10456400da60064b00225a77fb8901211846fdf7d1
:10457400ffff034618461037bd4680bdd4034020d4
:044584000080014072
:020000040000fa
:020000040040ba
:1045880080b584b000af0346b9607a60fb81174bf1
:104598001b7f5bb2002b01d0002323e0144b1b6a66
:1045a80003f04073b3f1407f04d0104b02225a77d6
:1045b800002317e00d4afb8913800c4b00229a60f8
:1045c8000a4b00221a61094abb685360074a7b6894
:1045d800d360064b00225a77fb8900211846fdf765
:1045e800c5ff034618461037bd4680bdd40340209a
:0445f80000800140fe
:020000040000fa
:020000040040ba
:1045fc0080b487b000af78603960194b5b6903f405
:10460c008033002b25d07b687b613b683b613b6929
:10461c00002b1ddd7b6903f01f023b691344fb601b
:10462c007b69bb60bff34f8f00bf0d4abb68c2f8fc
:10463c005c32bb682033bb60fb68203bfb60fb68d3
:10464c00002bf2dcbff34f8f00bfbff36f8f00bfa7
:10465c0000bf00bf1c37bd465df8047b704700bf30
:04466c0000ed00e07d
:020000040000fa
:020000040040ba
:1046700080b487b000af78603960194b5b6903f490
:104680008033002b25d07b687b613b683b613b69b5
:10469000002b1ddd7b6903f01f023b691344fb60a7
:1046a0007b69bb60bff34f8f00bf0d4abb68c2f888
:1046b0006832bb682033bb60fb68203bfb60fb6853
:1046c000002bf2dcbff34f8f00bfbff36f8f00bf33
:1046d00000bf00bf1c37bd465df8047b704700bfbc
:0446e00000ed00e009
:020000040000fa
:020000040040ba
:1046e400f0b50c46d1e9011787b02368059300297a
:1046f400a4bf23f00203059305abe66802930823e5
:10470400cde900730546d2e900232046fff7c4fe35
:10471400059bd90642bf00f1ff3030233354059b7b
:104724001a0742bf00f1ff30202333542269059b4e
:104734000093013a3b46121a31182846fff732fe1d
:104744006b68db0503d563689842b8bf184607b0a9
:02475400f0bdb6
:020000040000fa
:020000040040ba
:1047580080b400af184b4ff486721a60164b502283
:104768001a60154b4ff400625a60134b51221a62bb
:10477800124b00229a61114b0022da610f4b002282
:104788001a620e4b002283f82c200c4b00225a622e
:104798000a4b00221a60094b00225a60074b00227c
:1047a8009a60064b00221a75044b0022da6000bf9b
:1047b800bd465df8047b7047000a0e407403402034
:020000040000fa
:020000040040ba
:1047c80080b485b000af7860184bbb600023fb60f5
:1047d800bb685b6bfb6018e0fb689b687a689a4271
:1047e80008d8fb689a687b68d21afb689a6000232d
:1047f8007b6007e0fb689b687a68d31a7b60fb687c
:1048080000229a60fb689b69fb60fb68002b02d062
:104818007b68002be0d1bb685a69bb681a6100bf8e
:104828001437bd465df8047b704700bff80240208e
:020000040000fa
:020000040040ba
:10483800902910b50fdc7f2911dd803910290ed899
:10484800dfe801f00f0f250d170d0d0d1e0d0d0dd5
:104858000d0d0d0d2500a02903d0c02901d0002081
:1048680006e019680c1d1c600b6803601a600120c3
:1048780010bd19680c1d1c600b6803601a80f6e7f0
:1048880019680c1d1c600b6803601a70efe7196843
:104898000c1d1c600b680360d117c3e90021e6e713
:020000040000fa
:020000040040ba
:1048a80080b586b000aff860b9607a6000237b619c
:1048b80000233b61f868fff76bf878617b69002b90
:1048c8001bd07b691a6813461b019b1a9b000e4a72
:1048d80013443b613869fef709f9034683f0010385
:1048e800dbb2002b0bd17b69ba689a607b697a6866
:1048f800da603869fef7e6fa02e000bf00e000bfc0
:0c4908001837bd4680bd00bf38034020ba
:020000040000fa
:020000040040ba
:1049140080b487b000aff860b9601346fb71002320
:10492400fb74fb79012b03d1fb6820337b6102e02c
:10493400fb6824337b617b691b68002b13d17b6983
:10494400ba681a600123fb7411e07b691b685b6918
:10495400002b04d17b691b68ba685a6107e07b6944
:104964001b6814337b617b691b68002bedd1fb7cd6
:0c49740018461c37bd465df8047b7047f8
:020000040000fa
:020000040040ba
:1049800080b586b000aff860b9607a6000237b61c3
:1049900000233b61f868fff7edf838613b69002bb5
:1049a0001cd03b691b881a4613465b0013445b010d
:1049b0000d4a13447b61786900f06cfb034683f079
:1049c0000103dbb2002b0bd13b69ba685a603b692b
:1049d0007a689a60786900f031ff02e000bf00e079
:0c49e00000bf1837bd4680bd54014020c8
:020000040000fa
:020000040040ba
:1049ec0080b400af184b1b6b174a23f07003136392
:1049fc0000bf154b9b6e03f00803082bf9d1124b2b
:104a0c001b6b23f44073104a43f48073136300bf91
:104a1c000d4b9b6e03f00803082bf9d10a4b1b6b53
:104a2c0023f00303084a43f00203136300bf064b51
:104a3c009b6e03f00803082bf9d100bf00bfbd46e5
:0c4a4c005df8047b704700bf00060e40c0
:020000040000fa
:020000040040ba
:104a580080b582b000af174b5b6903f0e0037b6061
:104a68007b68002b11d0134be122da60124b002235
:104a780083f82c20104b5b6a002b06d00e4b9b6ae8
:104a88003b600d4b5b6a386898470a4b5b6903f0db
:104a98000103012b01d1fff7e1f9064b5b6903f034
:104aa8000203022b01d1fff78ff900bf0837bd467b
:0c4ab80080bd00bf000a0e4074034020c7
:020000040000fa
:020000040040ba
:104ac40080b584b000af03463960fb803b68002b9f
:104ad40002d0fb88002b02d04ff0ff331be0104bb9
:104ae400fb60fb68002b01d1002303e0fb6801227b
:104af4001a700123012b02d04ff0ff330be038680a
:104b0400fdf728faa0220021064801f065fb064bb8
:104b140002221a70044b18461037bd4680bd00bff0
:0c4b240030034020b4004020f802402084
:020000040000fa
:020000040040ba
:104b300080b584b000af78600023bb600123fb73b5
:104b400000f060f8034683f00103dbb2002b01d0d4
:104b5000fb7b1ee0786800f09bf9b860bb68002b17
:104b600014d0bb685b78002b05d0b868fff74ef80f
:104b7000bb6800225a70bb6800221a75bb6800220d
:104b80005a75bb6800221a700023fb7300f014fbf7
:0a4b9000fb7b18461037bd4680bdc0
:020000040000fa
:020000040040ba
:104b9c0080b586b000af786039600023fb757b6808
:104bac003b613b69002b1dd000f044fff860104bbb
:104bbc0093f82c30dbb283f00103dbb2002b11d065
:104bcc000b4a3b6993610a4a3b68d361084b00224c
:104bdc001a62074b012283f82c200123fb75054b2d
:104bec00e1229a60fb7d18461837bd4680bd00bf98
:084bfc0074034020000a0e4082
:020000040000fa
:020000040040ba
:104c040080b582b000af154b93f83030002b1fd124
:104c1400134b7b604ff0ff333b607b681b78012ba9
:104c240004d17b6800221a70012300e00023012bc9
:104c34000cd10a4b93f90830184600f0b0fb034638
:104c44001a46064b83f83120012302e0002300e0da
:104c5400012318460837bd4680bd00bff802402036
:044c640030034020b9
:020000040000fa
:020000040040ba
:104c6800f0b59bb004460d46164600214c2207a815
:104c78001f4601f0affa4ff0ff324ff48173cde9d0
:104c8800022304b901accde9044555b16b1e002dd2
:104c9800069308da094b4f221a604ff0ff301bb019
:104ca800f0bd2b46f3e71cbf002323703a4631467c
:104cb80002a8cde9074401f0adf9f0e76c04402003
:020000040000fa
:020000040040ba
:104cc80080b400af134b80221a60124b28221a605e
:104cd800104b1b6903f07c520e494bf2c01313436f
:104ce8000b610c4b4ff080721a600a4b07229a62d4
:104cf800084b4ff440725a62064b04221a60064b66
:104d080000225a77044b00221a7700bfbd465df88f
:0c4d1800047b704700800140d403402061
:020000040000fa
:020000040040ba
:104d240080b485b000af0346b9607a60fb7397f92d
:104d34000f30b3f1ff3f14d0012b14d10e4b9b6cf9
:104d4400ba689a4203d10c4b012283f850200a4bd3
:104d5400db6cba689a4208d1074b012283f85120d0
:104d640003e000bf02e000bf00e000bf00bf143753
:0c4d7400bd465df8047b70470c02402037
:020000040000fa
:020000040040ba
:104d80000e4a38b5002313600d4a0e4c13600e4acc
:104d90000e4d13600e4a13600e4a13600e4a5362a2
:104da000136101239360fff7fefafff7fcfaac42b0
:104db00000d338bd54f8043b9847f8e76804402016
:104dc0006c024020740140006802402078014000dd
:0c4dd0006002402064024020700240207d
:020000040000fa
:020000040040ba
:104ddc0080b485b000af786039600023fb727b68cb
:104dec002833fb60fb681b68002b13d1fb683a6807
:104dfc001a600123fb7211e0fb681b689b6a002b95
:104e0c0004d1fb681b683a689a6207e0fb681b6870
:104e1c002833fb60fb681b68002bedd1fb7a18462e
:0a4e2c001437bd465df8047b7047a3
:020000040000fa
:020000040040ba
:104e360080b588b002aff860b9607a60fb704ff059
:104e4600ff337b61fb78002b04d1fb68002b01d17b
:104e56007b6916e07b68002b12d0786800f0edf8cd
:104e66000146fb780093bb68fa680020fdf73dff1a
:104e760078617b69b3f1ff3f02d07869fff737f8b5
:0a4e86007b6918461837bd4680bd51
:020000040000fa
:020000040040ba
:104e900080b485b000af78600023fb607b68b3f11d
:104ea000ff3f17d07b68002b14d07b689bb2042b8c
:104eb00010d87b689bb25b010a4a1344fb60fb6815
:104ec000db697a689a4205d1fb681b78002b01d018
:104ed000fb6800e0002318461437bd465df8047bec
:084ee000704700bfb400402040
:020000040000fa
:020000040040ba
:104ee8002de9ff41134ed1f80080b788adf80c705a
:104ef80005463068029002acb0798df80e00002aa1
:104f080018bf1446d1e901671a461bb9204601f0bb
:104f180015f90246002e02dbb24228bf3246cdf810
:104f280000803b4621462846fff73afa04b0bde820
:084f3800f08100bf4c5f400056
:020000040000fa
:020000040040ba
:104f400080b485b000af78600b46fb70fb78012b16
:104f500003d17b682033fb6002e07b682433fb6075
:104f6000fb681b68002b10d0fb681b68bb60fb68ec
:104f70001b685a69fb681a60bb6800221a76bb6816
:104f800000225a61bb6800221a7100bf1437bd4667
:064f90005df8047b704790
:020000040000fa
:020000040040ba
:104f9600f0b50c46d1e9011687b0236805930029c0
:104fa600a4bf23f00203059305abe76802930a2327
:104fb600cde900630546d2e900232046fff76bfae8
:104fc6002269059b0093013a3346121a391828467e
:104fd600fff7e7f96b68db0503d563689842b8bf4e
:064fe600184607b0f0bd03
:020000040000fa
:020000040040ba
:104fec0080b483b000af03463960fb7197f907308a
:104ffc00002b0adb3b68dab20c4997f907305201f7
:10500c00d2b20b4483f800230ae03b68dab20849b9
:10501c00fb7903f00f03043b5201d2b20b441a7616
:10502c0000bf0c37bd465df8047b704700e100e023
:04503c0000ed00e0a3
:020000040000fa
:020000040040ba
:105040002de9b04382b000af7860796800208846cf
:1050500081460f49c96800200a46034602fb09f051
:1050600008fb03f10144a8fb02454b191d464ff410
:105070007a724ff000032046294600f029fd0246cf
:105080000b46134618460837bd46bde8b08300bf3f
:04509000f8024020c2
:020000040000fa
:020000040040ba
:1050940080b584b000af78607b6893f82830002b2b
:1050a40013d17b683d33fb604ff0ff33bb60fb687b
:1050b4001b78012b04d1fb6800221a70012300e045
:1050c4000023002b01d1002303e07868fdf786f864
:0a50d400012318461037bd4680bdc9
:020000040000fa
:020000040040ba
:1050e00080b485b000af78607b6803f00703fb6095
:1050f0000b4bdb68bb60ba684ff6ff031340bb6025
:10510000fb681a02bb681a43064b1343bb60044a90
:10511000bb68d36000bf1437bd465df8047b7047a1
:0851200000ed00e00000fa05bb
:020000040000fa
:020000040040ba
:1051280080b400af0e4b02221a770e4b5b680d4a13
:1051380043f4805353600a4b1b69012b03d1094b7d
:1051480003221a6002e0074b01221a6062b600bf10
:10515800044b03225a6200bfbd465df8047b7047ca
:08516800d40340200080014047
:020000040000fa
:020000040040ba
:1051700080b483b000af0346fb7197f90730002b72
:1051800012dbfb7903f01f020a4997f907305b092c
:10519000012000fa02f2203341f82320bff34f8fa1
:1051a00000bfbff36f8f00bf00bf0c37bd465df877
:0851b000047b704700e100e000
:020000040000fa
:020000040040ba
:1051b80080b582b000af0e4b93f908300c4a92f8d4
:1051c80031201146184600f05dfd094b93f8303048
:1051d800002b09d1074b7b607b68002b03d07b68d1
:1051e80001221a7000e000bf00bf0837bd4680bd2d
:0851f800f802402030034020c2
:020000040000fa
:020000040040ba
:1052000080b487b000af78600e4b3b6100237b61b8
:105210003b691b69fb607a68fb689a4204d97a682b
:10522000fb68d31a7b6105e07a68fb68d31a03f543
:1052300080337b617b6918461c37bd465df8047b73
:08524000704700bff802402096
:020000040000fa
:020000040040ba
:105248000278202a034600f10100f9d0a2f10901f1
:105258000429f5d92b2a06d02d2a13d1012101338f
:10526800013b002006e00021f9e700bf00eb8000c9
:10527800c2eb400013f8012f303a092af6d901b9d8
:08528800404270470021ebe7f2
:020000040000fa
:020000040040ba
:1052900080b485b000af786039600023bb60002324
:1052a000fb600ee0fb689b007a6813441b683a6859
:1052b0009a4203d1fb680133bb6005e0fb68013310
:1052c000fb60fb68022bedd9bb6818461437bd465e
:0652d0005df8047b70474d
:020000040000fa
:020000040040ba
:1052d60080b485b000af78607b682833fb60fb68dc
:1052e6001b68002b10d0fb681b68bb60fb681b6843
:1052f6009a6afb681a60bb6800221a77bb680022ac
:105306009a62bb6800221a7000bf1437bd465df86a
:04531600047b70475d
:020000040000fa
:020000040040ba
:10531a0080b584b000af03463960fb713b68fb601f
:10532a000023bb60fb79012b06d1bb680122012156
:10533a00f868fcf7b0fe09e0fb79022b06d1bb68de
:10534a004ff0ff320121f868fcf7a5fe00bf1037c5
:04535a00bd4680bd0f
:020000040000fa
:020000040040ba
:10535e0080b584b000af03463960fb713b68fb60db
:10536e000023bb60fb79012b06d1bb680122002113
:10537e00f868fcf78efe09e0fb79022b06d1bb68bc
:10538e004ff0ff320021f868fcf783fe00bf1037a4
:04539e00bd4680bdcb
:020000040000fa
:020000040040ba
:1053a20080b584b000af0346fb7100f04dff0346a9
:1053b200fb7397f90730184600f0d9f80346002b23
:1053c20014bf01230023bb7397f907301846fff778
:1053d200cefefb7b184600f02efebb7b1846103734
:0453e200bd4680bd87
:020000040000fa
:020000040040ba
:1053e80080b485b000af0346b9607a60fb7397f963
:1053f8000f30b3f1ff3f0ad0012b0ad1084bdb6b0a
:10540800ba689a4203d1064b012283f8442000bfb0
:1054180000e000bf00bf1437bd465df8047b70474d
:04542800b00240206e
:020000040000fa
:020000040040ba
:10542c0080b485b000af0346b9607a60fb7397f91e
:10543c000f30b3f1ff3f06d0012b09d1084b0022ee
:10544c0083f8422005e0064b012283f8422000e05d
:10545c0000bf00bf1437bd465df8047b704700bf2a
:04546c000c024020ce
:020000040000fa
:020000040040ba
:1054700010b5054c237833b9044b13b10448aff38e
:1054800000800123237010bd1c0440200000000098
:105490000000000008b5034b1bb103490348aff3fc
:1054a000008008bd00000000200440200000000033
:020000040000fa
:020000040040ba
:1054b00080b584b000af78607b68fb60fb685b6898
