:020000040000fa
:020000040040ba
:10000000f0ff4720692e4000116240001762400057
:1000100023624000296240002f624000000000007f
:100020000000000000000000000000002730400039
:100030001d624000000000002730400027304000d3
:100040002730400027304000273040002730400054
:100050002730400027304000273040002730400044
:100060001d484000000000002730400027304000bd
:100070002730400027304000273040002730400024
:10008000273040002730400027304000ed0e400070
:1000900027304000273040002730400049544000be
:1000a00027304000273040002730400027304000f4
:1000b00027304000273040002730400027304000e4
:1000c00027304000273040002730400027304000d4
:1000d00027304000273040002730400027304000c4
:1000e00027304000273040002730400027304000b4
:1000f00027304000273040002730400027304000a4
:100100002730400027304000273040002730400093
:1001100027304000273040000000000000000000b1
:100120002730400027304000892d40002730400014
:1001300027304000273040000000000027304000fa
:100140002730400027304000273040002730400053
:100150002730400027304000273040002730400043
:08016000273040002730400069
:020000040000fa
:020000040040ba
:10016800f8b500bff8bc08bc9e467047ed53400088
:10017800f8b500bff8bc08bc9e467047c95340009c
:020000040000fa
:020000040040ba
:08018800a80a000001000000bc
:020000040000fa
:020000040040ba
:100190002de9f04f2ded0a8b1d4692ed008bd1e934
:1001a0000073b5eec08b8bb0f1ee10fa02930b69c1
:1001b0000690d1f808800593cc6806d4790731d42d
:1001c00017f0080630d0202302e02d23b1ee488b33
:1001d000237008f1ff39012618ee903adff868b372
:1001e00018ee100a23f000414ff0000a594508bfed
:1001f00050451bd1413d192d04eb060094bfce495b
:10020000ce4905f0f3ffcd4805f042ff00970246c6
:1002100043462146069803f0bfff0bb0bdec0a8ba6
:10022000bde8f08f2b23d3e7c146d5e78b45a5f179
:10023000410308bf8245039309d2192b04eb060042
:1002400094bfbf49bf4905f0d1ffbe48dce730226b
:10025000a255b5ee408b039ab7ee009b1a2a06f121
:10026000010334bf58227822f1ee10fae25406f16d
:100270000206a9f102094ff0000a40f0e180b0ee59
:1002800049bbb0ee48cb029b9feda5ab002bb8bf9e
:1002900018234ff0000b00bf8cee0b0b079303f0fd
:1002a00067f80bf101030493029b00ee4bcb002b8c
:1002b0002bee0abb079b04dab5ee40cbf1ee10fa49
:1002c00004d05b4500f3e08001330493b2ee007b81
:1002d0002bee077bb4eec7cbf1ee10fa00f1d7801e
:1002e000b4ee47cbf1ee10fa09d1bdeec00b9fed95
:1002f0008e6b10ee103a13f0010f06fe077b38eefe
:10030000078b18ee903a23f000418f4b18ee100a3d
:100310000022994208bf90423ff46caf4ff0000baf
:10032000354659465b4605980538a8422a461fd9e6
:1003300088ee090bcde90831079203f019f8fdeebc
:10034000c07bb0ee40bb17ee900adde907230999a8
:10035000002840f09f80002b00f09c800bf1010be7
:10036000049a0bee498b01339a4229ee0a9bdad1ab
:10037000d9b9bbf1000f00f0e980029b002b40f3dc
:10038000e580fa0700f1e28063192e221a700beb68
:1003900005022244302100bf03f8011f9a42fbd11d
:1003a0005d446fea0b0b0135d944059b059900228a
:1003b0006019013b92450270c1f1020ee254bcbfcc
:1003c000caf1000a01220a21baf1000f40f095801b
:1003d0000eeb030cbcf1010f00f08f80002a03f13b
:1003e000ff3114bf2d222b226254039a023b1a2a9a
:1003f00004eb030134bf502270229d420a7001dadf
:1004000005f0f4fe07f00303022b12d1a9f1020953
:10041000b9f1000f0ddd204605f03afe04eb0903ab
:10042000b04277da4a463021a01905f07bfe4ff042
:1004300000082046e8e600bf0af1010ab0ee479b3b
:1004400039ee097bb4eec78bf1ee10faf4d5b6eeb7
:10045000007bb0ee475b9fed366b00bfb4eec98bff
:10046000f1ee10fa7ff50baf29ee074bb5ee404bde
:10047000f1ee10fa04bf29ee069b28ee068b29ee5a
:10048000059b0af1ff3ae9e7ddf810b004e79fedbc
:10049000267b34e731b92bb12e21a154013509f166
:1004a000ff39012104eb0b0204eb050c2a444ff049
:1004b000300e01e00cf801eb9445fbd105eb0b028b
:1004c000039d0928d4bf30305730192da9eb0b09f3
:1004d0000cd840f02005613d192d07d8cde9081250
:1004e000079305f06afedde90812079ba054551c2e
:1004f00009f1ff394ff0000b32e7bafbf1fc013b89
:1005000001fb1caa0af1300a04f803a009f1ff3923
:10051000e24659e7225c1a54013881e7aff30080c4
:10052000000000000000b03f0000000000000000dc
:1005300000000000000050437e61400082614000e6
:10054000866140008a6140000000f07ffb067ff575
:0c0550002caf2e236355013527e700bfb8
:020000040000fa
:020000040040ba
:04055c0000207047c4
:020000040000fa
:020000040040ba
:100560002de9f04f2ded0a8b92ed00ab8fb0b5ee7b
:10057000c0ab04938b680393f1ee10fa0b690690fd
:100580008a46d1e900750793cc6806d47a0732d43d
:1005900017f0080631d0202302e02d23b1ee4aab3c
:1005a0002370039b012603f1ff3b1aee903adff81c
:1005b00064931aee100a23f000414ff000084945f9
:1005c00008bf40451cd1049b413b192b94bfcc492b
:1005d000cc49a01905f00afe204605f059fd009708
:1005e0000246039b0698214603f0d6fd0fb0bdecf2
:1005f0000a8bbde8f08f2b23d2e7ddf80cb0d4e7ef
:10060000894508bf804508d2049b413b192b04eb68
:10061000060094bfbc49bd49dce7b5ee40abf1ee46
:1006200010fab2ee04cbb7ee009b4ff0000819d1e0
:10063000049805f0bbfd002dc0b2c0f26f816728a1
:100640002ed1002d08bf012518f1040f02dba845ab
:10065000c0f246814ff0650934e000bf08f101089f
:10066000b0ee479b29ee0c7bb4eeca7bf1ee10fa9c
:10067000f4dd0023a64a9fed9e7b0be0904505da52
:1006800023b92aee07ab29ee079b012308f1ff38b7
:1006900089ee0c9bb4eec9abf1ee10faeed4c7e7cd
:1006a0008146b9f1660f05f101050bd1b8f1000fd4
:1006b00003dab7ee009b4ff00008672818bf4544e7
:1006c0004ff066090023b0ee498bb0ee4abb00bf85
:1006d0008bee080b0893059002f04afe089b90ee03
:1006e00008bbfdeec07b01339d4217ee902ab1eeb0
:1006f0004bbb88ee0c8b0598ead1b1ee047b28ee5b
:10070000078bb4eec8bbf1ee10fa73d4b4ee48bb5d
:10071000f1ee10fa05d19fed786b12f0010f06fe95
:10072000088b3aee088b29ee0cabb4eec8abf1eeb9
:1007300010fa62d8b9f1660f08f101085fd10135ee
:1007400041464b1b00220a93354605920a9b99426b
:1007500040f08280059b002b00f0ab8060190022e6
:10076000b9f1650f02702dd1079b0799013b9045a8
:10077000e254c1f1030ebcbfc8f1000801220a21f6
:10078000b8f1000f40f09b800eeb030cbcf1000fa2
:1007900000f39580002a03f1ff3114bf2d222b2294
:1007a0006254049a023b413a192a04eb030198bfb0
:1007b0004ff045099d4281f80090abf1020b01da40
:1007c00005f014fd07f00303022b7ff405afbbf126
:1007d000000f7ff701af204605f05afc04eb0b0336
:1007e000864279dd5a463021a01905f09bfc002392
:1007f0000393f1e69fed408b93e7b0ee49abb9f17f
:10080000650f14bf414600219be7059b5bb900299a
:1008100009da089b4ff02e0c04f803c001230135c0
:100820000bf1ff3b059304eb020c6319ac444ff052
:10083000300e01e003f801eb9c45fbd1099b02eb74
:10084000050cabeb020b30330cf1010504f80c3056
:100850000bf1ff3b002224e0daf810300895053b4d
:10086000ab427ff677af88ee0a0bcde90c200b91f7
:1008700002f07efdfdeec07bdde90b1217ee903a33
:10088000092ba8bf092317ee90ca099307f010039c
:1008900053ea0c030d98b8d16728b6d10029c2da03
:1008a00001329aee008b0139b1ee488b8aee0cab27
:1008b0004ce7fb0642bf2e23635501354ee7b8fbdc
:1008c000f1fc013b01fb1c8808f1300804f80380af
:1008d0000bf1ff3be04653e7225c1a5401387fe7f7
:1008e000b8f1000fbff6ecae4ff06609d9e600bfd5
:1008f0000000000000005043000000000000000065
:100900008e61400092614000966140009a61400013
:10091000d4feffff0000f07f062595e66728fbd098
:0809200081460625bde600bf7b
:020000040000fa
:020000040040ba
:100928002de9f041aeb00646154605910027059918
:100938000b78002b00f0fa8000244ff0ff33cde94c
:1009480009430eab0c9380230b940d930b5d0bb1f5
:10095800252b26d134b12246304605f0f1f9059b06
:1009680023440593059b1a78252a40f0d78003f184
:100978000108cdf81480059803782b2b1ad025d8b8
:10098800202b1bd0232b1dd02a2b27d004f0e5fbce
:100998000b90059b1a78303a092a2ed80133059313
:1009a800f7e70134d2e7099b43f0010301300993cb
:1009b8000590e0e7099b43f00403f7e7099b43f040
:1009c8000803f3e7099b43f01003efe72d2bead068
:1009d800302bd9d1099b43f00203e7e72b681a1d96
:1009e8001b682a600130002b05900b9305da099ae1
:1009f8005b4282f0010209920b93099bda0744bf1c
:100a080023f002030993059b1a782e2a0dd10022a0
:100a1800581c0a9205905a782a2a25d10233059340
:100a28002b681a1d1b682a600a9305a804f03efe6d
:100a3800059b0390187805f0b5fb6928039979d0d0
:100a480032dc632800f0cb8019dc252800f0d9803f
:100a5800612853d000234ff0ff32cdf8148009935a
:100a68000b930a920093d4e004f077fb0a90059b5d
:100a78001a78303a092ad8d801330593f7e7642859
:100a880058d06728e6dc2a4606a805f0b7f80028fb
:100a980000f0a180059b5a1c05921b7806aa09a99b
:100aa8003046fff759fd38e0702873d015dc6e2802
:100ab80000f08c806f28cdd12b46002206a802f0ca
:100ac8002bfe002800f08780059b06aa013309a9a0
:100ad8003046059303f088fd1fe075283ad0782842
:100ae80048d07328b6d1802975d1059b2a6801336f
:100af8000593131d2b60126800237de02a4606a883
:100b080005f07cf8002866d0059b5a1c05921b78d6
:100b180006aa09a93046fff737fb04443c44a7421c
:100b28007add3e4b4f221a604ff0ff3738462eb021
:100b3800bde8f0812b46012206a802f0edfd002851
:100b480049d0059b06aa013309a93046059302f04e
:100b580039fee2e72b46002206a802f0ddfd002858
:100b680039d0059b06aa013309a93046059304f03c
:100b7800c6f9d2e72b46002206a802f0cdfd50b3f5
:100b8800059b5a1c05921b7806aa09a9304601f054
:100b9800c5fcc2e72b460022f02106a802f0bcfde6
:100ba800c8b1059b01330593dde9062313430bd137
:100bb8001b4805f069fa099b009319490b9b0246eb
:100bc800304603f0e5faa8e77823dde72b463a1923
:100bd80006a803f0defb059b013305939ee78029f9
:100be800f9d1059b013305932b681a1d1b682a60f0
:100bf8008df8183006aa012309a9304604f028f90f
:100c08008be78029e7d1059b01330593099b009366
:100c18000b9b04490122d3e7274688e66c04402051
:080c280000624000066240007a
:020000040000fa
:020000040040ba
:100c30002de9f04f099f154604468e461e46002baf
:100c400040f0cc808a42b2fa82fc4cd9bcf1000f51
:100c50000bd0ccf1200801fa0cfe20fa08f802fab9
:100c60000cf548ea0e0e00fa0cf44fea15491ffa8b
:100c700085f8befbf9fa210c09fb1ae30afb08fb15
:100c800041ea03439b452ad9eb180af1ff3004d20d
:100c90009b4502d9aaf102002b44a3eb0b03a4b29b
:100ca000b3fbf9f209fb123302fb08f844ea0344f0
:100cb000a04516d92c1902f1ff3303d2a04501d962
:100cc000931e2c44a4eb080443ea004027b124fa05
:100cd0000cf400233c607b603146bde8f08f504649
:100ce000dbe71346eee702b9ffdebcf1000f2ed1c1
:100cf0008b1a01264fea154eaab2b3fbfef8210c5f
:100d00000efb183308fb02f941ea0343994561d908
:100d1000eb1808f1ff3004d2994502d9a8f102007e
:100d20002b44a3eb0903a4b2b3fbfef10efb11337a
:100d30004a4344ea0344a2424ed92c1901f1ff333d
:100d400003d2a24201d98b1e2c44a41abce7ccf1d9
:100d5000200e02fa0cf521fa0ef901fa0cf320fa32
:100d60000efe4eea03034fea154800fa0cf4b9fbf5
:100d7000f8f11ffa85fe08fb1192180c01fb0ef624
:100d800040ea0242964221d9aa1801f1ff3003d26b
:100d9000964201d9881e2a44921b9bb2b2fbf8f9f5
:100da00008fb192209fb0efe43ea02439e450fd9b8
:100db000eb1809f1ff3604d29e4502d9a9f10206cb
:100dc0002b44a3eb0e0346ea004693e70846e3e70d
:100dd0004e46f6e74046a4e70b46b6e78b4206d9f7
:100de000002f7ed00026c7e90001304674e7b3fa31
:100df00083fcbcf1000f0fd18b4201d3824209d892
:100e0000841a61eb030e0120002f6dd0c7e9004e5c
:100e1000002661e76046f7e7ccf1200e03fa0cf3f9
:100e200022fa0ef521fa0ef41d4301fa0cf320fa12
:100e30000ef10b434fea154a00fa0cf6b4fbfaf92f
:100e40001ffa85f80afb19401c0c09fb08f144ea5b
:100e50000044a14202fa0cf23fd92c1909f1ff30eb
:100e600004d2a14202d9a9f102002c44641a9bb217
:100e7000b4fbfaf90afb194409fb08f843ea0441f8
:100e800088452cd9691809f1ff3304d2884502d965
:100e9000a9f10203294443ea0040a1eb0801a0fba9
:100ea00002894945c2464c4602d306d1464504d282
:100eb000b8eb020a69eb05040138afb1b6eb0a03df
:100ec00061eb040606fa0efe23fa0cf34eea030366
:100ed00026fa0cf6c7e900369ae74846c6e74b46bd
:0c0ee000d9e73e463846f7e63e46f5e608
:020000040000fa
:020000040040ba
:100eec0080b586b000af9c4b5b6a3b619b4b1b6a29
:100efc00fb60fb6803f48073002b05d0964bff223c
:100f0c001a77954b01225a77fb6803f00103002beb
:100f1c0008d0924b08221a60904b04221a608f4b17
:100f2c0007229a62fb6803f40073002b02d08a4bf1
:100f3c0001221a77884b5b7fdbb2002b40f0c78015
:100f4c00854b1b7f5bb2013b032b00f2c28001a2dd
:100f5c0052f823f0710f40005b104000990f4000d5
:100f6c00c91040007c4bdb68002b07d07a4b1b88e8
:100f7c009bb20021184601f061fbb1e0764b1b8857
:100f8c009bb20121184601f059fba9e0fb6803f064
:100f9c000403002b00f09f806f4b5b697b616e4bf1
:100fac00db68013b7a699a420cbf01230023fb7278
:100fbc00694b1b69002b13d0fb7a002b10d072b637
:100fcc00664b04229a62644b5a687b6913441a7804
:100fdc00624b5a637b6901337b6104f075f82fe037
:100fec005d4bdb68013b7a699a421fd15a4b5a68b8
:100ffc007b6913441a78594b5a637b6901337b61c3
:10100c00564b02221a60554b04229a62534b1b6ab0
:10101c00fb60fb6803f00103002b03d04e4b052251
:10102c001a770de04c4b04221a7709e04a4b5a68a8
:10103c007b6913441a78494b5a637b6901337b6192
:10104c00454a7b695361454b1b6afb6043e0fb6877
:10105c0003f00203002b40d03f4b9b697b603e4b5f
:10106c001b69023b7a689a4202d13c4b02221a60fd
:10107c003a4b196b384b9a687b681344cab21a7096
:10108c007b6801337b60344b1b697a689a4211d1bf
:10109c00324b02229a62314b1b6afb60fb6803f0f5
:1010ac000103002b03d02c4b05221a7702e02a4bac
:1010bc0004221a77284a7b6893610ee0fb6803f0e0
:1010cc000103002b0bd0244b05221a7707e000bf3d
:1010dc0006e000bf04e000bf02e000bf00e000bf7c
:1010ec001d4b1b7f5bb2b3f1ff3f13d11a4b002298
:1010fc001a771a4b07229a62184b08221a60174b60
:10110c0004221a60144b1b6a002b03d0124b1b6a6f
:10111c0038699847104b1b7f5bb2052b17d10e4bd0
:10112c0000225a770c4b00221a770c4b07229a623a
:10113c000a4b08221a60094b04221a60064b1b6ae0
:10114c00002b04d0044b1b6a3869984700bf00bfc2
:10115c001837bd4680bd00bfd4034020008001403d
:020000040000fa
:020000040040ba
:10116c00b0b58ab002aff8607a603b600b467b8109
:10117c000023bb6100237b6100233b610023fb77d1
:10118c00bb6b002b00f00281bb6b4ff0ff321a607f
:10119c00f86802f0bbfbb861bb69002b00f0f8806b
:1011ac0097f83c30012b07d17b6b002b00f0f280c1
:1011bc003b6b002b22d1ede097f83c30022b03d097
:1011cc0097f83c30082b07d13b68002b00f0e480eb
:1011dc007b68002b11d1dfe03b68002b00f0de8038
:1011ec007b68002b00f0da807b6b002b00f0d68044
:1011fc003b6b002b00f0d28000e000bfbb691a688b
:10120c0013461b019b1a9b00674a13447b61786948
:10121c0001f0bafb034683f00103dbb2002b40f074
:10122c00bf80b86902f060f938613b69002b03d1cb
:10123c00786901f083feb4e03b697a895a803b6996
:10124c003a6b5a603b697a6b9a603b697a68da60f0
:10125c003b693a681a613b69fa689a613b690022fa
:10126c0083f824203b6901221a773b6900225a75c6
:10127c003b6997f83c201a753b691a6abb6b1a607c
:10128c003969786903f05cfd0346002b7ad07b69e1
:10129c005a69bb695b699a420bd07b69db685b69f5
:1012ac00ba691432002110469847bb695a697b69a8
:1012bc005a613b6902221a7797f83c30012b12d104
:1012cc007b69db681b683a6950883a6951683a69ee
:1012dc0092689847034683f00103dbb2002b31d0b0
:1012ec000123fb772ee097f83c30022b12d17b695f
:1012fc00db685b683a6950883a69d1683a69126967
:10130c009847034683f00103dbb2002b1ad001236c
:10131c00fb7717e07b69db689c683b6958883b6905
:10132c00d9683b691a693b695d683b699b680093a6
:10133c002b46a047034683f00103dbb2002b01d000
:10134c000123fb77fb7f002b1cd0bb6b4ff0ff32d4
:10135c001a607b69db681b69984703461a463b6930
:10136c0083f824203b6993f82430dbb2002b03d1a3
:10137c003b6901225a7502e03b69ff225a75786974
:10138c0003f050ff786901f0d9fd0ae000bf08e0d6
:10139c0000bf06e000bf04e000bf02e000bf00e0b9
:0c13ac0000bf2037bd46b0bd3803402014
:020000040000fa
:020000040040ba
:1013b80080b400af6b4b0022c3f81421694bd3f8fb
:1013c8001431684a43f01003c2f81431664b002206
:1013d8001a67654b60225a67634b644a5a60624bce
:1013e800634a1a60604b4ff0ff325a655e4b4ff00c
:1013f800ff321a665c4b4ff0ff32c3f890205a4b0d
:101408004ff0ff32c3f8a020574b00221a61564b09
:101418004ff0ff325a61544b00229a63524b00221c
:10142800c3f81821534b10221a67524b10225a67df
:10143800504b10225a604f4b6ff010021a604d4b00
:101448004ff0ff325a654b4b4ff0ff321a66494b4b
:101458004ff0ff32c3f89020464b4ff0ff32c3f8ed
:10146800a020444b00221a61424b4ff0ff325a61d0
:10147800404b00229a633f4b0022c3f818213e4b91
:101488004ff0ff321a603c4b4ff0ff325a653a4b2f
:101498004ff0ff321a66384b4ff0ff32c3f89020f6
:1014a800354b4ff0ff32c3f8a020334b00221a61ae
:1014b800314b4ff0ff325a612f4b00229a632e4b6b
:1014c8000022c3f818212d4b4ff0ff321a602b4b26
:1014d8004ff0ff325a65294b4ff0ff321a66274bff
:1014e8004ff0ff32c3f89020244b4ff0ff32c3f87f
:1014f800a020224b4ff400021a61204b6ff4000227
:101508005a611e4b4ff400029a631c4b0022c3f829
:1015180018211b4b4ff0ff321a60194b4ff0ff3266
:101528005a65174b4ff0ff321a66154b4ff0ff32d2
:10153800c3f89020124b4ff0ff32c3f8a020104b95
:1015480000221a610e4b4ff0ff325a610c4b0022f9
:101558009a630b4b0022c3f8182100bfbd465df803
:10156800047b704700800840000e0e407800200081
:1015780087ffdfff00100e4000120e4000140e40df
:0415880000160e40fb
:020000040000fa
:020000040040ba
:10158c0080b58eb000af03460a46fb8013467b71d4
:10159c0000233b630023fb62fb88002b02d04ff03f
:1015ac00ff33c7e0fa8813461b019b1a9b00634a62
:1015bc0013443b633b6b34337b624ff0ff333b6232
:1015cc007b6a1b78012b04d17b6a00221a700123e1
:1015dc0000e00023002b02d14ff0ff33aae03b6b5d
:1015ec0093f90130022b06d13b6b1b7883f001037e
:1015fc00dbb2002b0bd03b6b3433fb61fb69002b54
:10160c0002d0fb6901221a704ff0ff3392e03b6b62
:10161c009b78002b0bd03b6b3433bb61bb69002b2d
:10162c0002d0bb6901221a704ff0ff3382e03b6b92
:10163c005b68002b10d07b7903f00803002b0bd0d8
:10164c003b6b34337b617b69002b02d07b690122bd
:10165c001a704ff0ff336de000237b635ae07a6b16
:10166c0013465b001344db001a463b6bdb691344e7
:10167c00bb62bb6a5b7983f00103dbb2002b46d003
:10168c00bb6a01225a717b7903f00803002b02d04c
:10169c003b6b01229a703b6b5b685a1c3b6b5a602c
:1016ac003b6b9b8dfa88d1b27a6bd2b2184604f0a0
:1016bc00f5f90246bb6a1a613b6b9b8d184604f028
:1016cc0003fa03461a463b6b9a853b6b34333b61fa
:1016dc003b69002b02d03b6901221a70fa88bb6a65
:1016ec001a607b7943f00403dbb2fb62fb6adab26b
:1016fc00bb6a1a713b6b1a69bb6a5a61bb6a0022de
:10170c009a60bb6a0022da60bb6a1b6912e07b6bd1
:10171c0001337b633b6b9b687a6b9a429fd13b6b2b
:10172c003433fb60fb68002b02d0fb6801221a707b
:10173c004ff0ff3318463837bd4680bd3803402084
:020000040000fa
:020000040040ba
:10174c0080b584b004af5d4b1b78042b00f2ad80e8
:10175c0001a252f823f000bf791740000f18400087
:10176c00371840007f184000b718400003210020b4
:10177c00fff706ff0246514b5a60504b5b68b3f1c2
:10178c00ff3f3ad04d4b4e4ada604c4b5b684d49ab
:10179c00184603f04dff494b5b6800224a49184636
:1017ac0002f0caff01234ff47a720021474803f07c
:1017bc00f4fa424b9b68b3f1ff3f1ad00221002090
:1017cc0000f066f902463d4b9a633c4b9b6bb3f1c0
:1017dc00ff3f0ad0394b9b6b00223d49184603f062
:1017ec0083f8364b03221a7064e0344b04221a70cf
:1017fc0060e0324b04221a705ce0304b04221a7009
:10180c0058e02e4b00221a752c4b5868314b029322
:10181c0002230193304b00930123304a4f2104f0f3
:10182c001ff8264b03221a7044e0244b93f84430e3
:10183c00dbb2002b3bd0214b002283f844202648fe
:10184c0001f0b2fe03461a461c4b83f837201b4ba3
:10185c0093f937301a462249224803f0cffd174b33
:10186c0093f93730184604f0c1f8144b03221a7060
:10187c001de0124b93f83630dbb2002b07d00f4b28
:10188c00002283f836200d4b01221a7011e00b4b0d
:10189c0093f83530dbb2002b0bd0084b002283f8c9
:1018ac003520064b02221a7003e000bf02e000bf95
:1018bc0000e000bf00bfbd4680bd00bfb0024020ad
:1018cc00a0860100bc024020d1574000395940008d
:1018dc00a9514000c0024020c5024020c402402053
:0818ec00b85f4000c702402074
:020000040000fa
:020000040040ba
:1018f40080b586b000af03463960fb8000237b616e
:101904003b683b61fb88002b02d04ff0ff33b4e00f
:10191400fa885c4913465b0013445b010b441b7853
:10192400002b02d04ff0ff33a7e0fa8813465b0088
:1019340013445b01534a13447b617b693d33fb6071
:10194400fb68002b01d1002303e0fb6801221a701d
:101954000123012b02d04ff0ff338ee07b693c332f
:10196400bb60bb68002b01d1002303e0bb680122ec
:101974001a700123012b02d04ff0ff337de07b6905
:1019840001221a703b691a687b695a607b690022dc
:101994009a603b695a687b69da603b699a687b693b
:1019a4001a617b6901229a823b69da6a7b699a61ce
:1019b4003b691b6b1a467b69da617b6900221a62f8
:1019c4007b6900225a627b69002283f828203b69e4
:1019d4005a6b7b691a653b69da687b69da623b6931
:1019e4001a697b691a633b695a697b695a633b6963
:1019f4009a697b699a633b69da697b691a643b6912
:101a04001a6a7b695a643b695a6a7b699a643b69be
:101a14009a6a7b69da643b699a6b7b69da657b69ec
:101a2400db6ab3f1ff3f08d07b69db6adbb27a691a
:101a34001549184603f0e2fd06e07b695b685b69c3
:101a44007a691146114898477b691b6bb3f1ff3fd4
:101a540008d07b691b6bdbb27a690d49184603f029
:101a6400cdfd06e07b695b681b687a69114609480d
:101a740098477b6902229a70fb8818461837bd463e
:101a840080bd00bf54014020b9524000e15d4000d8
:081a9400fd524000c95440005e
:020000040000fa
:020000040040ba
:101a9c0080b58cb000af03460a46fb8013467b71c1
:101aac000023bb6200237b62fb88002b02d04ff02b
:101abc00ff33b6e0fa8813465b0013445b015b4ac4
:101acc001344bb62bb6a93f90230022b06d1bb6a8a
:101adc001b7883f00103dbb2002b02d04ff0ff33f5
:101aec009fe0bb6a3c33fb614ff0ff33bb61fb698a
:101afc001b78012b04d1fb6900221a70012300e032
:101b0c000023002b02d14ff0ff338ae0bb6a5b78d5
:101b1c00002b0bd0bb6a3c337b617b69002b02d062
:101b2c007b6901221a704ff0ff337ae0bb6a9b6825
:101b3c00002b10d07b7903f00803002b0bd0bb6a71
:101b4c003c333b613b69002b02d03b6901221a708c
:101b5c004ff0ff3365e00023fb6252e0fb6a1a0191
:101b6c00bb6a1b6913447b627b6adb7883f00103dd
:101b7c00dbb2002b42d07b6a0122da707b7903f056
:101b8c000803002b02d0bb6a01225a70bb6a9b6807
:101b9c005a1cbb6a9a60bb6a9b8afa88d1b2fa6af1
:101bac00d2b2184603f0bcff02467b6ada60bb6a0d
:101bbc009b8a184603f0caff03461a46bb6a9a82f0
:101bcc00bb6a3c33fb60fb68002b02d0fb68012234
:101bdc001a707b7943f00403dbb23b623b6adab2e6
:101bec007b6a9a707b6a00225a607b6a00229a6038
:101bfc007b6afa881a807b6adb6812e0fb6a013325
:101c0c00fb62bb6adb68fa6a9a42a7d1bb6a3c33b7
:101c1c00bb60bb68002b02d0bb6801221a704ff06e
:101c2c00ff3318463037bd4680bd00bf54014020fd
:020000040000fa
:020000040040ba
:101c3c0080b584b004af594b1b78052b00f2a880fb
:101c4c0001a252f823f000bf6d1c4000f11c4000b3
:101c5c00051d4000431d4000671d40009d1d4000b8
:101c6c0003210020fff78cfc02464c4b9a604b4b37
:101c7c009b68b3f1ff3f31d0484b494a5a60474b00
:101c8c009b684849184603f0d3fc444b9b680022e0
:101c9c004549184602f050fd03210020fff7f8fedd
:101cac0002463e4b5a643d4b5b6cb3f1ff3f11d087
:101cbc003a4b5b6c00223d49184602f015fe374b3f
:101ccc00586c3b4b01223b4904f05ff8334b042228
:101cdc001a7060e0314b05221a705ce02f4b052224
:101cec001a7058e02d4b93f93f30184601f0b8fcb0
:101cfc002a4b04221a704ee0284b00221a75274bef
:101d0c00022283f84220254b98682b4b0293052323
:101d1c0001932a4b00930123294a572103f0a0fd7c
:101d2c0000bf1e4b93f84230dbb2022bf9d01b4b99
:101d3c0003221a702fe0194b93f8403019461f48b4
:101d4c0001f0d8f9154b586c194b0122194904f0c4
:101d5c001cf8124b04221a701de0104b93f8413002
:101d6c00002b07d00d4b002283f841200b4b012296
:101d7c001a700fe0094b93f85130dbb2002b09d0ed
:101d8c00064b002283f85120044b02221a7001e00a
:101d9c0000bf00e000bf00bfbd4680bd0c0240206c
:101dac00801a060010024020ed514000394c4000d2
:101dbc0058024020270240201802402022024020d6
:041dcc002002402091
:020000040000fa
:020000040040ba
:101dd0002de9f04f8db000af4ff000034ff000043d
:101de000c7e90a344a4bfb61fb695b6bbb61fb696a
:101df0005a69fb691a61bb69002b2bd0bb699b68d0
:101e0000b3f5004f11d3fb695b694ff0000447f64f
:101e1000ff714ff000025818b86044eb0203fb60fa
:101e2000d7e90234c7e90a3422e0bb699b687b61c9
:101e3000fb695b6919464ff000027b694ff00004b3
:101e4000c818386042eb04037b60d7e90034c7e967
:101e50000a340de0fb695b694ff0000447f6ff713f
:101e60004ff0000213eb010a44eb020bc7e90aab87
:101e7000fb695b689b69984703469bb24ff000047f
:101e8000c7e90834fb691b694ff00004d7e9081261
:101e9000a24208bf99420bd2d7e908344ff6ff712e
:101ea0004ff0000213eb010844eb0209c7e908896f
:101eb000fb691b6a19464ff00002d7e90834cd18b8
:101ec00042eb0406d7e90a34b44208bfab4206d25b
:101ed0003a6afb691b6a1a44fb69da6102e0ba6a72
:101ee000fb69da61fb69db699bb2002b02d1fb69fc
:101ef0000122da61fb695b685b69fa69d26992b2b7
:101f00001046984700bf3437bd46bde8f08f00bf8c
:041f1000f802402073
:020000040000fa
:020000040040ba
:041f1400704700bf53
:020000040000fa
:020000040040ba
:101f18002de9f04389b000af78604b4bfb617b68db
:101f2800bb61bb691a68fb695a60fb695b68db685f
:101f380098470246fb69da60fb69db6819464ff08f
:101f480000020b4614464ff000054ff00006e6006d
:101f580046ea5376dd002b4634465b1a64eb0204ee
:101f68004ff000054ff00006660146ead3665d01b2
:101f78002b4634465b1842eb04044ff000014ff047
:101f88000002a20042ea937299000b461446c7e980
:101f98000434d7e904012aa3d3e9002303f010fd90
:101fa80003460c4613f1020844f10009c7e9028907
:101fb800ba68fb691a62bb6993f90420fb691a7253
:101fc800fb6900221a61fb694ff6ff729a61fb698f
:101fd80047f6ff72da61fa694ff000034ff0000428
:101fe800c2e90a34fb6900225a63fb69002283f8bc
:101ff8003020fb695b681b68002114489847fb691f
:102008005b681b69002b07d0fb695b681b69fa6971
:10201800926992b210469847fb695b685b69fa69f6
:10202800d26992b210469847fb695b685b6898472b
:1020380000bf2437bd46bde8f08300bfaff3008082
:1020480000a3e11100000000f8024020ed3a400032
:020000040000fa
:020000040040ba
:1020580080b588b000aff8607b600b46fb72134612
:10206800bb720023fb610023bb61fb681b7883f014
:102078000103dbb2002b40f08280fb6893f9023049
:10208800022b7cd1fb7a1946f86803f038fcb8615a
:10209800bb69002b75d0bb691b68dbb21901bb6932
:1020a8001b681b0adab2394813465b0013445b010c
:1020b800034410331b680b44fb61fb69da68bb6996
:1020c8001b689a424bd1bb69ba7a5a76bb695b7e68
:1020d8005bb2b3f1ff3f19d1fb681b6bb3f1ff3f54
:1020e80003d0bb6900221a6114e0fb68db6c7968d5
:1020f800184603f00ff80246bb69da61fb685b68b3
:10210800db6898470246bb691a6103e0bb69da6875
:10211800bb691a61bb691b6a7b61fb7a1946f8685f
:1021280002f0c2fefb695b68002b1dd0fb6893f8c8
:1021380028300133dab2fb6883f82820fb695b6832
:10214800fa69926897f90a0079699847fb6893f8e1
:102158002830013bdab2fb6883f8282004e0fb7ad8
:102168001946f86802f0a0fefb7a002b03d1f86844
:1021780001f02cf806e0f86801f090f802e000bfe2
:1021880000e000bf2037bd4680bd00bf540140209d
:020000040000fa
:020000040040ba
:1021980080b586b000af78607b681b6d7b617b681b
:1021a8001b6d04333b6103f0f6ff0346fb737b6949
:1021b8001b78002b20d07b695b685bb2184603f064
:1021c800ddf803461a467b6883f85a207b68db6a89
:1021d800b3f1ff3f04d17b681b6bb3f1ff3f6bd0ba
:1021e8007b695b685bb2184603f0c8f803461a4679
:1021f8007b6883f85b205fe03b691b68b3f1ff3fb6
:102208000ad03b691b685bb2184603f0b7f803466f
:102218001a467b6883f854203b695b68b3f1ff3f3b
:102228000ad03b695b685bb2184603f0a7f803461f
:102238001a467b6883f855203b699b68b3f1ff3fda
:102248000ad03b699b685bb2184603f097f80346cf
:102258001a467b6883f856203b69db68b3f1ff3f79
:102268000ad03b69db685bb2184603f087f803467f
:102278001a467b6883f857207b68db6ab3f1ff3f17
:102288000ad03b691b695bb2184603f077f803462e
:102298001a467b6883f858207b681b6bb3f1ff3fb5
:1022a8000ad03b695b695bb2184603f067f80346de
:1022b8001a467b6883f85920fb7b184603f05efebc
:0822c80000bf1837bd4680bdc0
:020000040000fa
:020000040040ba
:1022d000b0b586b002af786039600023bb600123df
:1022e000fb730123fb73786803f0bcfdb860bb6827
:1022f000002b75d0bb681b7f012b71d1bb689b691c
:10230000dab213465b001344db001846bb689b69d6
:102310001b0adab2384913461b019b1a9b000b4477
:102320001c331b6803443b607b685a693b685b69ec
:102330009a420bd07b68db685b693a6814320021f3
:10234000104698473b685a697b685a61bb681b7d99
:10235000022b13d0042b21d0012b35d1bb680222d4
:102360001a777b68db681b68ba685088ba6851685e
:10237000ba68926898470346fb7326e0bb6802225e
:102380001a777b68db685b68ba685088ba68d1687e
:10239000ba68126998470346fb7316e0bb680222cd
:1023a0001a777b68db689c68bb685888bb68d9680b
:1023b000bb681a69bb685d68bb689b6800932b4665
:1023c000a0470346fb7300e000bffb7b83f00103e3
:1023d000dbb2002b04d0ba683968786801f09eff40
:1023e000fb7b83f00103dbb2002b7ff47aaf00bfed
:0c23f0001037bd46b0bd00bf38034020d0
:020000040000fa
:020000040040ba
:1023fc0080b586b000af78607b681b6d7b617b68b5
:10240c001b6d04333b6103f0c4fe0346fb737b6915
:10241c001b78002b1ed07b695b685ab27b6893f8e3
:10242c005a301946104603f0d2fb7b68db6ab3f1d5
:10243c00ff3f04d17b681b6bb3f1ff3f64d07b691a
:10244c005b685ab27b6893f85b301946104603f010
:10245c00befb59e03b691b68b3f1ff3f09d03b69f8
:10246c001b685ab27b6893f854301946104603f037
:10247c00aefb3b695b68b3f1ff3f09d03b695b681e
:10248c005ab27b6893f855301946104603f09ffbff
:10249c003b699b68b3f1ff3f09d03b699b685ab21b
:1024ac007b6893f856301946104603f090fb3b6955
:1024bc00db68b3f1ff3f09d03b69db685ab27b683c
:1024cc0093f857301946104603f081fb7b68db6aa2
:1024dc00b3f1ff3f09d03b691b695ab27b6893f893
:1024ec0058301946104603f072fb7b681b6bb3f136
:1024fc00ff3f09d03b695b695ab27b6893f859304e
:10250c001946104603f063fbfb7b184603f034fdc1
:08251c0000bf1837bd4680bd69
:020000040000fa
:020000040040ba
:102524002de9f04f0e4649683568d6f80890f768eb
:102534008bb0cde903230029acbf25f002050121ae
:1025440015f010030593039b8346d3e900232fd092
:1025540052ea03002cd0a9f10208346915f00800ee
:1025640004f1ff3408904ff00000385518bf08f10b
:10257400ff388a46012c1ddc059b002b54d1089b97
:1025840013b1013c20233b5532690095013a4b4677
:10259400121b3919584601f0fdfddbf80430db0548
:1025a40003d573689842b8bf18460bb0bde8f08fe6
:1025b400c846d2e752ea030009d1baf1000f06dc9b
:1025c400a8eb010050440028d6dda807d4d502f0ba
:1025d4000f000928d4bf00f1300e00f1570e049803
:1025e400a0f1410cbcf1190f04f1ff3410d84ef0e6
:1025f400200cacf1610cbcf1190f09d8704609919b
:10260400cde9062303f0d7fddde9062309998646c3
:10261400100940ea03704fea131c07f804e00af1ba
:10262400ff3a02466346a5e7039bd3e9000150ea5b
:102634000103a4d03a19049b02f8013c023c302364
:042644003b559ce77f
:020000040000fa
:020000040040ba
:1026480080b584b000af03460a46fb8013467b7111
:102658004ef66023fb60fb887f2b0dd9fb881b0a95
:102668001b0403f4fe033c4a43f480735360fb8865
:10267800394adbb2d36005e0fb881b04364a03f411
:10268800fe035360354b00225a61344b00229a6195
:102698007b7983f00103dbb2002b53d02f4bdb682f
:1026a800012b3fd12d4b1b69002b13d12b4b04223f
:1026b8001a772a4b5b681a78274b5a63274b5b6952
:1026c8000133264a5361244b02221a60224b01220d
:1026d8005a6237e072b6214b5b681a781e4b5a6310
:1026e8001e4b5b6901331d4a536100bf1a4b1b6abd
:1026f80003f00503002bf9d10be0fb68002b05d193
:10270800164b02225a7762b6002321e0fb68013b90
:10271800fb60114b1b6a03f00403002bedd001236f
:102728007b710fe00d4b03221a770c4b5b681a780c
:10273800094b5a63094b5b690133084a5361064bdd
:1027480005225a627b79002b01d002f0bffc0123dd
:1027580018461037bd4680bd00800140d403402094
:020000040000fa
:020000040040ba
:1027680080b586b000af03463960fb8000237b61eb
:102778003b683b61fb88002b02d04ff0ff3374e0cd
:10278800fa883c4913461b019b1a9b000b441b7893
:10279800002b02d04ff0ff3367e0fa8813461b0185
:1027a8009b1a9b00334a13447b617b693433fb607b
:1027b800fb68002b01d1002303e0fb6801221a709b
:1027c8000123012b02d04ff0ff334ee07b693533f4
:1027d800bb60bb68002b01d1002303e0bb6801226a
:1027e8001a700123012b02d04ff0ff333de07b69c3
:1027f80001221a703b691a687b69da603b695a6979
:102808007b699a613b695a687b69da613b699a68b6
:102818007b699a603b691b691a467b695a623b6906
:10282800da687b691a627b6900229a627b690022f6
:102838005a607b6900229a707b6900221a637b695f
:1028480001229a853b699a697b691a613b699a6991
:102858007b695a617b69db689b697a69114606481e
:1028680098477b6902225a70fb8818461837bd467c
:0c28780080bd00bf380340201d3c400024
:020000040000fa
:020000040040ba
:102884001c0440201c00000000000000b002402096
:1028940048000000000000000c024020540000002a
:1028a400000000007403402030000000000000001d
:1028b400b40140205800000000000000fc03402048
:1028c400200000000000000000004020b4000000d0
:1028d40000000000480440200c000000000000003c
:1028e4003804402010000000000000005c04402078
:1028f400080000000000000054044020080000000c
:1029040000000000380340203c00000000000000ec
:10291400f80240204000000000000000b400402005
:10292400a00000000000000070044020020000002d
:102934000100000001000000a4034020300000005a
:10294400000000005401402060000000000000006e
:10295400d40340202800000000000000640440204c
:10296400040000000000000060024020500000004d
:10297400000000006804402008000000000000007f
:102984000000000000000000666666666666666613
:020000040000fa
:020000040040ba
:1029940080b588b000af78607b689b69fb617b6819
:1029a4009b690433bb617b681b6b002b13d17b6871
:1029b40035333b614ff0ff33fb603b691b78012be0
:1029c40004d13b6900221a70012300e00023002b8c
:1029d40001d1002358e0fb691b78002b0bd0fb6965
:1029e4005b685bb2184602f0cbfc03461a467b6870
:1029f40083f83a2047e003f0d0fb0346fb75bb693c
:102a04001b68b3f1ff3f0ad0bb691b685bb2184671
:102a140002f0b6fc03461a467b6883f83620bb698d
:102a24005b68b3f1ff3f0ad0bb695b685bb21846d1
:102a340002f0a6fc03461a467b6883f83720bb697c
:102a44009b68b3f1ff3f0ad0bb699b685bb2184631
:102a540002f096fc03461a467b6883f83820bb696b
:102a6400db68b3f1ff3f0ad0bb69db685bb2184691
:102a740002f086fc03461a467b6883f83920fb7d06
:102a8400184603f07dfa012318462037bd4680bd61
:020000040000fa
:020000040040ba
:102a94002de9f0038ab000af78604ff000034ff0e7
:102aa4000004c7e90834394b3b613b695b6bfb614c
:102ab4000023bb610023fb757b68002b01d1fb7de8
:102ac4005de07b689b68fb60fb69002b2ad17b6817
:102ad400fa689a603b697a685a630123fb754de092
:102ae400fb699b6819464ff00002d7e90834cd18fa
:102af40042eb0406fb684ff00004b44208bfab424b
:102b040014d3fb699b684ff00004d7e9081211eb5a
:102b1400030842eb0409c7e90889fb69bb61fb6947
:102b24009b69fb61fb69002bdad100e000bfbb6944
:102b3400002b08d13b697a685a637b68fa699a6109
:102b44000123fb7506e0bb699a697b689a61bb69de
:102b54007a689a613b6afa68d21a7b689a607b68e1
:102b64009b69002b0ad07b689b68fb607b689b6930
:102b740099687b689b69fa688a1a9a60fb7d184693
:102b84002837bd46bde8f003704700bff802402077
:020000040000fa
:020000040040ba
:102b940080b588b000aff860b9607a603b6000230c
:102ba400fb610023bb6100237b613b68002b60d089
:102bb4003b684ff0ff321a607b68002b5bd0bb6828
:102bc400002b58d0f86800f0dbffb861bb69002b1c
:102bd40053d0bb691b881a4613465b0013445b0140
:102be400294a1344fb61f86902f0e0f9034683f0d3
:102bf4000103dbb2002b42d1b86900f013fa78610b
:102c04007b69002b03d1f86902f062fe38e07b692e
:102c1400ba689a607b697a68da607b6900221a6113
:102c24007b69fa681a607b690022da617b69012298
:102c34001a767b6900225a767b691a6a3b681a60a5
:102c440097f828301a467969f86901f01bfe0346a3
:102c5400002b0ad097f82830012b03d1f86900f033
:102c64001ffb02e0f86900f0b3faf86902f030fee5
:102c740006e000bf04e000bf02e000bf00e000bfc8
:0c2c84002037bd4680bd00bf5401402039
:020000040000fa
:020000040040ba
:102c900080b588b000aff860b9607a603b604ff0f3
:102ca000ff33fb6100237b6101f064ff034683f087
:102cb0000103dbb2002b01d0fb6958e02e4b93f9e6
:102cc0000030022b50d1bb68002b4dd0ba68fb6896
:102cd0009a4249d3294bbb6142e0bb691b7883f020
:102ce0000103dbb2002b35d0bb6901221a70bb692e
:102cf00000225a70bb6900221a75bb6900225a75fe
:102d0000bb6997f828209a70bb69ba685a60bb699a
:102d10007a68da60bb693a681a61ba68fb68d21ae5
:102d2000bb699a60164b1b887a6992b211461846a5
:102d300003f044f80246bb69da61114b1b88184660
:102d400002f0defe03461a460d4b1a80bb69db69b2
:102d5000fb6109e07b6901337b61bb692033bb61a7
:102d6000bb69084a9342b8d302f084fafb6918465b
:102d70002037bd4680bd00bff8024020b40040208f
:082d80007004402054014020c2
:020000040000fa
:020000040040ba
:102d880080b584b000af0023fb605de0324afb6889
:102d98001b0113441b78fb722f4afb681b01134469
:102da80008331b687b60fb7a002b4ad02b4b5a698f
:102db800fb6822fa03f303f00103002b41d0274af2
:102dc800fb689b0113445c331b683b603b6803f062
:102dd8007003002b18d0204afb681b0113440c33e6
:102de80000221a701c4afb681b01134404331b6839
:102df800002b26d0184afb681b01134404331b68b8
:102e08007968022098471ce03b6803f00103002b17
:102e180017d0114afb681b0113440c3300221a70a7
:102e28000d4afb681b01134404331b68002b08d0b0
:102e3800094afb681b01134404331b6879680120a5
:102e48009847fb680133fb60fb68002b9ed000bfee
:102e58001037bd4680bd00bf3804402000800740c1
:020000040000fa
:020000040040ba
:102e680008b5304b9847304b984702f005ff0020d3
:102e780001f04cf902f074fd02f08afc2b4c2c4b4b
:102e880023f07f03a3602b4b9847636913f4003f3b
:102e980012d1bff34f8fbff36f8f0022c4f85022b7
:102ea800bff34f8fbff36f8f626942f400326261e4
:102eb800bff34f8fbff36f8f1c4b5b6913f4803fd9
:102ec80029d11a4b0022c3f88420bff34f8fd3f8bf
:102ed8008030c3f3c905c3f34e335a0143f6e07695
:102ee800124802ea06042b4644ea8371c0f86012cd
:102ef800013bb3f1ff3ff7d1203a12f1200ff0d197
:102f0800bff34f8f094a536943f480335361bff3ca
:102f18004f8fbff36f8f084b9847084b984703f0c4
:102f28001af9fee76f3340006f33400000ed00e010
:102f380000004000f14c40006f3340006f33400008
:020000040000fa
:020000040040ba
:102f480080b586b000af78607b689b697b617b68e1
:102f58009b6904333b617b691b78002b0ad07b6932
:102f68005b685ab27b6893f83a301946104602f00b
:102f780030fe43e003f00ff90346fb733b691b681f
:102f8800b3f1ff3f09d03b691b685ab27b6893f8dd
:102f980036301946104602f01cfe3b695b68b3f1f7
:102fa800ff3f09d03b695b685ab27b6893f83730ba
:102fb8001946104602f00dfe3b699b68b3f1ff3fce
:102fc80009d03b699b685ab27b6893f83830194638
:102fd800104602f0fefd3b69db68b3f1ff3f09d004
:102fe8003b69db685ab27b6893f83930194610465a
:102ff80002f0effdfb7b184602f0c0ff7b681b6bfd
:10300800002b08d17b683533bb60bb68002b02d02e
:0e301800bb6801221a7000bf1837bd4680bd8c
:020000040000fa
:020000040040ba
:02302600fee7c3
:020000040000fa
:020000040040ba
:10302800b0b586b000af78607b681b881a46134637
:103038005b0013445b012f4a13443b613b69db6926
:10304800fb6000237b614be07a691346db00134485
:103058009b001a46fb6813441b79dbb283f001031b
:10306800dbb2002b39d07a691346db0013449b008e
:103078001a46fb68134401221a717a691346db0069
:1030880013449b001a46fb68134400225a613b69ab
:10309800988a7b681b88d9b27b69ddb27a69134646
:1030a800db0013449b001a46fb689c182a4602f072
:1030b80039fd034623623b699b8a184602f048fda6
:1030c80003461a463b699a827a691346db00134421
:1030d8009b001a46fb68134408e07b6901337b6157
:1030e8003b699b697a699a42aed300231846183720
:0830f800bd46b0bd54014020ab
:020000040000fa
:020000040040ba
:1031000080b584b000af78600b46fb702b4bbb6082
:103110002b49b86802f043ff0346fb73fb78bb738f
:1031200013e0fb7bba68d018bb7b7a6813441b782a
:103130005bb21a46234902f032ff0346dab2fb7b48
:103140001344fb73bb7b0133bb73bb7b042be8d9fc
:10315000fb78002b1ad00023bb7313e0fb7bba680b
:10316000d018bb7b7a6813441b785bb21a461549aa
:1031700002f015ff0346dab2fb7b1344fb73bb7b03
:103180000133bb73ba7bfb789a42e7d3fb7bba6807
:1031900013440d49184602f002ff0346dab2fb7be6
:1031a0001344fb73094b586cfa7b094b034902f03b
:1031b000dffd00bf1037bd4680bd00bf28024020a4
:1031c000c0604000c8604000d06040000c02402059
:0431d0005402402045
:020000040000fa
:020000040040ba
:1031d40080b584b000af78600021786802f091fb7c
:1031e400f860fb68002b55d0fb681b7e012b53d184
:1031f400fb6802221a767b681b6bb3f1ff3f3fd05a
:103204007b685b685b6a9847b8607b68db6d032bff
:103214001cd9fb689a68fb68db685b00194610469a
:1032240001f09cfb7b681b6b4ff40061184602f0b5
:1032340089f97b681b6bd8b27b68996bfb689a68c9
:10324400fb68db685b0000f0f3f826e0fb689a6833
:10325400fb68db681946104601f080fb7b681b6b3a
:103264000021184602f06ef97b681b6bd8b27b68ac
:10327400996bfb689a68fb68db6800f0d9f80ce08e
:103284007b685b685b68fa689068fa68d268114684
:10329400984702e000bf00e000bf1037bd4680bd84
:020000040000fa
:020000040040ba
:1032a40080b584b000af78600121786802f029fb12
:1032b400f860fb68002b52d0fb681b7e012b50d1b9
:1032c400fb6802221a767b68db6ab3f1ff3f3cd0cd
:1032d4007b68db6d032b1ed9fb68db685b00bb607e
:1032e400fb689b68ba681146184601f06dfb7b6861
:1032f400db6a4ff40061184602f024f97b68db6a4c
:10330400d8b2fb6899687b685a6bfb68db685b0022
:1033140000f08ef826e0fb689a68fb68db681946c3
:10332400104601f051fb7b68db6a0021184602f06d
:1033340009f97b68db6ad8b2fb6899687b685a6bc9
:10334400fb68db6800f074f80ce07b685b689b69e1
:10335400fa689068fa68d2681146984702e000bf9c
:0a33640000e000bf1037bd4680bd39
:020000040000fa
:020000040040ba
:02336e007047a6
:020000040000fa
:020000040040ba
:1033700053ec102bc3f30a512de9f04140f2fd70dc
:103380004e1e86421d4644d8a1f2ff30002835db90
:10339000332831dc264bc0f120084ff0ff3c03fa04
:1033a00008f2a1f21f412cfa00fc10ee104a4cea80
:1033b000020c23fa01f24cea020c23fa00fe04eaa2
:1033c0000c0605ea0e0724ea0c0256ea070425ea71
:1033d0000e030fd0002a73f100040bda4ff48015ae
:1033e00005fa08f425fa01f10c43121925fa00f048
:1033f00040eb030343ec102bbde8f0819fed0a7b0b
:10340000bfee000b002a73f1000327fe000bbde89e
:10341000f0810029f0d10a4603f0004343ec102b61
:10342000eae700bfaff300800000000000000000ea
:04343000ffff0f008b
:020000040000fa
:020000040040ba
:1034340080b489b000afb9607a603b600346fb7327
:1034440000233b610023fb77bb68bb617b687b6126
:10345400fb7b254a1b0113440c331b78dbb283f03e
:103464000103dbb2002b08d1204b5a6afb7b22fa02
:1034740003f303f00103002b2fd11c4afb7b9b01b8
:1034840013445c331b683b613b69fb7b164a1b019d
:1034940013440c3301221a701449fb7bba699b0153
:1034a4000b4460331a601149fb7b7a699b010b441e
:1034b40064331a600d49fb7b3a6822f07f429b011a
:1034c4000b4470331a60bff35f8ffb7b074a012103
:1034d40001fa03f3d3610123fb77fb7f18462437fa
:1034e400bd465df8047b70473804402000800740e7
:020000040000fa
:020000040040ba
:1034f400b0b586b000af78607b681a6813461b01cc
:103504009b1a9b00294a13443b613b695b6afb603d
:1035140000237b6140e07b692c2202fb03f3fa6801
:1035240013441b7883f00103dbb2002b31d07b6999
:103534002c2202fb03f3fa68134401221a707b69fc
:103544002c2202fb03f3fa68134400229a623b69bb
:10355400988d7b681b68d9b27b69ddb27b692c22ac
:1035640002fb03f3fa68d4182a4602f09bfa0346d6
:1035740023623b699b8d184602f0aafa03461a4659
:103584003b699a857b692c2202fb03f3fa68134496
:1035940008e07b6901337b613b691b6a7a699a4263
:1035a400b9d3002318461837bd46b0bd38034020b0
:020000040000fa
:020000040040ba
:1035b40080b485b000af78607b681b781b021ab2b8
:1035c4007b6801331b781bb21343fb81b7f90e30c0
:1035d400002b11dbb7f90e30db111bb207ee903a6a
:1035e400b8eee77bb6ee006b27ee067bfdeec77bfd
:1035f40017ee903afb8116e0fb895b429bb2fb819c
:10360400b7f90e30db11fb81b7f90e3007ee903ab3
:10361400b8eee77bbeee006b27ee067bfdeec77bc4
:1036240017ee903afb81b7f90e3007ee903af8eeb8
:10363400e77ab2ee027a27ee877af1ee046ac7eef1
:10364400267a9fed087a77ee877afdeee77a17ee11
:10365400903afb81fb895bb218461437bd465df88e
:08366400047b704700000042e6
:020000040000fa
:020000040040ba
:10366c0080b586b002af0346fb710023fb73264b7b
:10367c0093f84020244b1a75fa79234b5a75224b38
:10368c00022283f84220204b9868204b009302239f
:10369c001f4a572102f0caf800bf1b4b93f8423067
:1036ac00dbb2022bf9d0184b022283f84220164bc6
:1036bc00986807f10f02154b00930123572102f074
:1036cc009bf800bf104b93f84230dbb2022bf9d0c1
:1036dc000d4b93f84230dbb2012be4d00a4b93f83c
:1036ec0040300133dab2084b83f84020064b93f894
:1036fc004030042b03d9044b002283f8402000bf38
:10370c001037bd4680bd00bf0c024020180240207f
:04371c002002402027
:020000040000fa
:020000040040ba
:10372000882910b536d012dc812943d003dc8029ea
:1037300040d0002010bd82290ed08429f9d119680b
:1037400002b30a1d1a60b1f90020d3171ee0a029a8
:103750002bd00bdc9029ecd11968073121f007013f
:1037600001f108021a60d1e900230fe0c02901d05d
:10377000f029ded11a68111d196013680360002357
:10378000436005e00a1d1a600a880023c0e900238f
:103790000120cfe7196822b10a1d1a6091f90020b3
:1037a000d3e70a1d1a600a78efe71a68111d19603d
:1037b0001268cae719681ab10a1d1a600a68c4e7d4
:0c37c0000c1d1c600b68c0e90032e1e742
:020000040000fa
:020000040040ba
:1037cc002de9f041d2e900230c4686b007465feaaa
:1037dc00d37820684968a5680590e66841d05242c4
:1037ec0063eb4303002908db20f002000590b8f1dd
:1037fc00000f02d1059948072ad5691e05a8029029
:10380c000a20cde90010204600f03cfeb8f1000f74
:10381c0002d1059b59071fd5b8f1000f00f1ff30fd
:10382c0014bf2d232b2333542269059b0093013a9b
:10383c002b46121a3118384600f0a8fc7b68db05c1
:10384c0003d563689842b8bf184606b0bde8f0814e
:10385c000807d2d42946d1e71a07e5d50138202329
:08386c00e1e70029c0dac5e71d
:020000040000fa
:020000040040ba
:1038740080b487b000af786039600023fb747b6844
:10388400002b01d1002339e07b681b68fb60fb68d7
:103894001d4a934201d9002330e03b68002b01d13b
:1038a4001a4b3b60fb685b003a68b2fbf3f3033be3
:1038b4007b6105e0fb7c0133fb747b695b087b6106
:1038c4007b69ff2b02d9fb7c062bf3d97b69ff2b89
:1038d40001d9002312e00e4b1b6903f07c527b6973
:1038e400dbb21a437b691b029bb21a43fb7c1b04a9
:1038f40003f4e023064913430b61012318461c37e4
:10390400bd465df8047b704700093d0080d1f00896
:0439140000800140ee
:020000040000fa
:020000040040ba
:1039180080b485b000af78600023bb600023fb60f3
:103928007b68b3f1ff3f3ad07b68002b37d07b68c8
:103938001b0adbb2bb60bb68002b01d000232fe061
:103948007b68d9b21948ba6813461b019b1a9b00b9
:10395800034408331b68994201d3002320e07b68a5
:10396800dab213465b001344db0018460f49ba6805
:1039780013461b019b1a9b000b441c331b68034412
:10398800fb60fb681b697a689a4206d1fb685b7921
:1039980083f00103dbb2002b01d0002300e0fb68b9
:1039a80018461437bd465df8047b7047380340203d
:020000040000fa
:020000040040ba
:1039b80080b487b000af786039600023fb750023be
:1039c8003b611f4b93f82c30dbb2002b01d0002356
:1039d8002fe01b4b1b7ddbb2002b01d0002328e01e
:1039e8007b68002b24d07b681b68fb603b68002b3e
:1039f80001d1144b3b60fb681b013a68b2fbf3f33f
:103a08003b613b69b3f5803f12d20f4b5b68bb60eb
:103a1800bb6823f46063bb607b685a680a49bb686b
:103a280013434b60084a3b699bb213620123fb7541
:103a3800fb7d18461c37bd465df8047b704700bf08
:0c3a4800a403402080d1f008000a0e40ca
:020000040000fa
:020000040040ba
:103a540080b489b000af7860224b3b613b695b6bfb
:103a6400fb610023bb610023fb753b695b6bfb615e
:103a740004e0fb69bb61fb699b69fb61fb69002b8b
:103a840003d0fa697b689a42f3d1fb69002b01d118
:103a9400fb7d21e07b689b69002b0ad07b689b68d7
:103aa400fb607b689b6999687b689b69fa680a4438
:103ab4009a60bb69002b07d13b695b6b9a693b69d0
:103ac4005a630123fb7503e07b689a69bb699a61b9
:103ad4007b6800229a61fb7d18462437bd465df859
:083ae400047b7047f80240204a
:020000040000fa
:020000040040ba
:103aec00f0b587b000af78603960224b7b617b69a1
:103afc005b6b3b610023fb607b695b689b69984750
:103b0c0003461a467b695a617b695b69184601f06a
:103b1c0093faf8607b69d3e90a12fb684ff0000452
:103b2c00cd1842eb04067b69c3e90a563b69002bae
:103b3c0012d07b6993f830300133dab27b6983f8a9
:103b4c003020f86800f05afa7b6993f83030013b6a
:103b5c00dab27b6983f8302002f01bfb0346fb7260
:103b6c00fef730f9fb7a184602f006fa00bf1c3754
:083b7c00bd46f0bdf802402037
:020000040000fa
:020000040040ba
:103b840080b485b000af78600023bb600023fb6085
:103b94007b68b3f1ff3f36d07b68002b33d07b6862
:103ba4001b0adbb2bb60bb68002b01d000232be0f7
:103bb4007b68d9b21748ba6813465b0013445b01ab
:103bc40003440c331b68994201d300231ce07b6837
:103bd400dbb219010f48ba6813465b0013445b015a
:103be400034410331b680b44fb60fb68db687a6892
:103bf4009a4206d1fb68db7883f00103dbb2002b29
:103c040001d0002300e0fb6818461437bd465df878
:083c1400047b704754014020bd
:020000040000fa
:020000040040ba
:103c1c0080b586b000af78607b687b6100233b6128
:103c2c000023fb607b691b7883f00103dbb2002b64
:103c3c0032d17b6993f90130022b2dd1786902f0d6
:103c4c000bf9f860fb689b69dab213465b0013440e
:103c5c00db001846fb689b691b0adab21049134655
:103c6c001b019b1a9b000b441c331b6803443b61d8
:103c7c003b691a69fb689b699a4205d1fa683969f4
:103c8c00786900f045fb02e0786901f0cbfa3969fc
:103c9c007869fef717fb00e000bf1837bd4680bd02
:043cac003803402079
:020000040000fa
:020000040040ba
:103cb00080b584b000af214b1b7ddbb2002b38d028
:103cc0001e4b5b68bb601d4b9b68fb600de01b4b94
:103cd0001a68fb6813441a78194bdb691146184ab5
:103ce0000b43d361fb680133fb60154b5b6903f049
:103cf0000203022b03d1ba68fb689a42e7d80f4a45
:103d0000fb6893600d4b9b68ba689a4211d80b4bc5
:103d100000221a750a4b4ff40072da60074bdb6819
:103d2000002b06d0054b1b697b60044bdb68786871
:103d3000984700bf1037bd4680bd00bfa403402098
:043d4000000a0e4027
:020000040000fa
:020000040040ba
:103d4400f0b587b000af7860204b7b6100233b6106
:103d54000023fb737b695b689b69984703461a469b
:103d64007b695a617b695b69184601f069f93861be
:103d7400386900f075fc02f010fa0346bb737b69e6
:103d8400d3e90a123b694ff00004cd1842eb040654
:103d94007b69c3e90a56bb7b184602f0f1f87868e0
:103da400fef776fe0346fb73fb7b002b09d002f083
:103db400f4f90346bb73fef709f8bb7b184602f01f
:103dc400dff800bf1c37bd46f0bd00bff80240203d
:020000040000fa
:020000040040ba
:103dd40080b584b000af78600023bb600123fb731f
:103de40000f0c6fe034683f00103dbb2002b01d0d2
:103df400fb7b2fe0786801f001f8b860bb68002b0a
:103e040025d0bb685b7883f00103dbb2002b1cd0a8
:103e1400bb689b68002b03d1bb685a68bb689a6077
:103e24000e4b93f83030002b03d1b868fff788ffae
:103e340002e0b868fef72cfebb6800221a75bb6866
:103e440000225a75bb6801225a700023fb7301f0eb
:103e54000ffafb7b18461037bd4680bdf8024020a0
:020000040000fa
:020000040040ba
:103e640080b584b000af204b93f82c30dbb2002b2c
:103e740035d01d4bdb69bb601b4b1b6afb600ae042
:103e84001a4b9969184b9a69fb681344cab21a70a1
:103e9400fb680133fb60154b5b6903f00103012be5
:103ea40003d1ba68fb689a42ead80f4afb681362e6
:103eb4000d4b1b6aba689a4211d80b4b002283f847
:103ec4002c200a4be122da60074b5b6a002b06d0f8
:103ed400054b9b6a7b60044b5b6a7868984700bf1c
:103ee4001037bd4680bd00bfa4034020000a0e4029
:020000040000fa
:020000040040ba
:103ef40080b582b000af786002f00af801f096fe57
:103f0400fdf758fa00f0c2f8164b4ff400425a601d
:103f1400154b4ff400425a6001f004fc00f0d8fb4a
:103f240000f0b6fe11490020fef71cfc0246104bbf
:103f34001a6010490020fdf7dbfc02460c4b5a6066
:103f44000d49002000f032fc0246094b9a6001f052
:103f540057ff02f03bf800f05ff900bf0837bd4699
:103f640080bd00bf00190e4050180e40c05e4000d6
:0c3f74004804402088554000f8614000df
:020000040000fa
:020000040040ba
:103f800080b582b000af1f4b3b603b685b6b7b60d2
:103f90002ee07b689b68002b2ed17b6801221a756e
:103fa0007b6801225a757b689b78002b09d17b685e
:103fb000db68002b05d07b68db69184600f03cfd10
:103fc00009e07868fff746fd7b689b78002b02d1fb
:103fd0007b6800225a707b68db68002b05d07b6809
:103fe000db687a681269104698473b685b6b7b60b8
:103ff0007b68002bcdd100e000bf00bf0837bd4675
:0840000080bd00bff802402062
:020000040000fa
:020000040040ba
:1040080080b584b000af7860786800f027fbfff7d0
:10401800b3ff0023fb732de0fb7b1a4a5b011344bb
:1040280015331b78dbb2002b21d0fb7b154a5b01d3
:104038001344153300221a70fb7b124a5b011344a8
:1040480002331b78012b12d1fa7bfb7b0d495201fd
:104058000a44043212680b495b010b4408331a60a6
:10406800fb7b5b01074a13441846fef70ffdfb7bf9
:104078000133fb73fb7b042bced900bf1037bd4641
:0840880080bd00bfb400402020
:020000040000fa
:020000040040ba
:1040900080b483b000af0023fb710023fb711de0ef
:1040a000fb79194a1b01134400221a70fb79164a46
:1040b0001b011344043300221a60fb79124a1b01ce
:1040c0001344083300221a60fb790f4a1b01134482
:1040d0000c3300221a70fb790133fb71fb79002b42
:1040e000ded00a4b0a4a9a67084b71221a65074bc1
:1040f0000122da60044b01221a7000bf0c37bd4662
:104100005df8047b704700bf380440200080074002
:044110001140011643
:020000040000fa
:020000040040ba
:10411400184b194a5a601a46936813f0010ffbd0e2
:10412400144bdb68154a1360c3f3c113834220d0d8
:1041340000f00203002b14bf0b220c22104b13437c
:104144000c4a5360936813f0010ffbd000f0010098
:10415400002814bf0b220c220a4b1a600a4b13438b
:10416400044a5360936813f0010ffbd0074b084acd
:104174001a607047000c0e400d00005a5c04402089
:104184000008005a600440200007005a00180e403e
:04419400010000a581
:020000040000fa
:020000040040ba
:104198002de9ff471d460c9b13f0010906468a4688
:1041a800144601d195420bd822465146304601f0bb
:1041b800c7fda54204d82546284604b0bde8f087c7
:1041c8002f1b102f3a464ff0200128bf10226846b7
:1041d800b84601f0a3ff00bfb8f10f0f11d83b0993
:1041e8006ff00f0202fb03726946304601f0a8fd2a
:1041f800b9f1000fe0d122465146304601f0a0fd4a
:10420800dae710226946304601f09afda8f1100855
:04421800e2e700bf1a
:020000040000fa
:020000040040ba
:10421c0080b500af002000f0ebfebff35f8f62b6fd
:10422c000721082000f094fe082001f0c5f90721b1
:10423c00132000f08dfe132001f0bef9072117208a
:10424c0000f086fe172001f0b7f907213a2000f0a4
:10425c007ffe3a2001f0b0f90c4b5b6a0b4a43f439
:10426c0080235362094b5b69084a43f01003536186
:10427c00064b5b6a054a43f400335362034b5b6a9b
:10428c00024a43f48033536200bf80bd00ed00e06e
:020000040000fa
:020000040040ba
:10429c0080b485b000af786039600023fb737b6815
:1042ac00bb60bb68002b28d0174b1b7ddbb283f0a7
:1042bc000103dbb2002b20d0134abb681360124af7
:1042cc003b685360104b00229a600f4b01221a7509
:1042dc000123fb730d4b5b6903f00203022b08d126
:1042ec00bb681a78094bda61074b9b680133064aa5
:1042fc009360064b4ff400729a60fb7b18461437a0
:10430c00bd465df8047b7047a4034020000a0e40b4
:020000040000fa
:020000040040ba
:10431c0080b586b000aff860b9607a60fb68db6886
:10432c001b69984703461a467b6883f824207b68f0
:10433c0093f82430dbb2002b03d17b6801225a7531
:10434c0002e07b68ff225a757b685b7dfb757b689e
:10435c001b6a3b61f86800f065ffbb689b68002b2b
:10436c0011d0fb681b6b5a1cfb681a63bb689b68fb
:10437c00ba68d26897f9170039699847fb681b6bc4
:0e438c005a1efb681a6300bf1837bd4680bd7d
:020000040000fa
:020000040040ba
:10439a00842910b523d00cdc812903d0822913d0bb
:1043aa0080290bd119680c1d1c600b6803601a6008
:1043ba0013e0902921d003dc882917d0002010bdf2
:1043ca00a029efd0c029ece719680c1d1c600b6806
:1043da000360d1171046c3e900010120efe719680d
:1043ea000c1d1c600b6803601a80f6e719680c1d27
:1043fa001c600b6803601a70efe719680c1d1c60db
:0c440a0009680160d317c1e90023e6e750
:020000040000fa
:020000040040ba
:024416007047ed
:020000040000fa
:020000040040ba
:1044180080b584b000afb9607a603b600346fb8129
:10442800174b1b7f5bb2002b01d0002323e0154bf9
:104438001b6a03f04073b3f1407f04d0104b022293
:104448005a77002317e00e4afb8913800c4a3b6811
:1044580093600b4abb691361094abb685360084af9
:104468007b68d360064b00225a77fb8900211846e7
:10447800fef7e6f8034618461037bd4680bd00bf74
:08448800d40340200080014034
:020000040000fa
:020000040040ba
:104490002de9f84f04460c9f6668d4f80cb02469e7
:1044a00010463a68013c002502f0020a0b9a0bf80c
:1044b0000450002e1946b8bf0126012390464fea4a
:1044c000e279002c03dcd3b12046bde8f88f50ea36
:1044d000010209d1721b002a06dc0a9a521b002a2b
:1044e000f1ddbaf1000feed042464b4601f06cfa16
:1044f000013c134630320bf804200135e1e73b68fc
:0845000023f010033b60dfe72c
:020000040000fa
:020000040040ba
:1045080080b584b000af0346b9607a60fb81174b71
:104518001b7f5bb2002b01d0002323e0144b1b6ae6
:1045280003f04073b3f1407f04d0104b02225a7756
:10453800002317e00d4afb8913800c4abb6893607f
:104548000a4a7b681361094b00225a60074b002214
:10455800da60064b00225a77fb8901211846fef7dc
:104568006ff8034618461037bd4680bdd403402077
:04457800008001407e
:020000040000fa
:020000040040ba
:10457c0080b584b000af0346b9607a60fb81174bfd
:10458c001b7f5bb2002b01d0002323e0144b1b6a72
:10459c0003f04073b3f1407f04d0104b02225a77e2
:1045ac00002317e00d4afb8913800c4b00229a6004
:1045bc000a4b00221a61094abb685360074a7b68a0
:1045cc00d360064b00225a77fb8900211846fef770
:1045dc0035f8034618461037bd4680bdd40340203d
:0445ec00008001400a
:020000040000fa
:020000040040ba
:1045f000f0b50c4649682368a768e56887b00029cc
:104600000593a4bf23f00203059305ab029308238f
:10461000cde900730646d2e900232046fff738ffb4
:10462000059bd90642bf00f1ff3030232b54059b78
:104630001a0742bf00f1ff3020232b542269059b4b
:104640000093013a3b46121a29183046fff7a4fda1
:104650007368db0503d563689842b8bf184607b096
:02466000f0bdab
:020000040000fa
:020000040040ba
:0246620070479f
:020000040000fa
:020000040040ba
:1046640080b485b000af7860184bbb600023fb605a
:10467400bb685b6bfb6018e0fb689b687a689a42d6
:1046840008d8fb689a687b68d21afb689a60002392
:104694007b6007e0fb689b687a68d31a7b60fb68e1
:1046a40000229a60fb689b69fb60fb68002b02d0c8
:1046b4007b68002be0d1bb685a69bb681a6100bff4
:1046c4001437bd465df8047b704700bff8024020f4
:020000040000fa
:020000040040ba
:1046d40080b400af184b4ff486721a60164b502208
:1046e4001a60154b4ff400625a60134b51221a6240
:1046f400124b00229a61114b0022da610f4b002207
:104704001a620e4b002283f82c200c4b00225a62b2
:104714000a4b00221a60094b00225a60074b002200
:104724009a60064b00221a75044b0022da6000bf1f
:10473400bd465df8047b7047000a0e40a403402088
:020000040000fa
:020000040040ba
:1047440080b586b000aff860b9607a6000237b6101
:1047540000233b61f868fff7ddf878617b69002b83
:104764001bd07b691a6813461b019b1a9b000e4ad7
:1047740013443b613869fef70bf9034683f00103e8
:10478400dbb2002b0bd17b69ba689a607b697a68cb
:10479400da603869fef7d6fb02e000bf00e000bf34
:0c47a4001837bd4680bd00bf3803402020
:020000040000fa
:020000040040ba
:1047b00080b584b000af03463960fb803b68002bb6
:1047c00002d0fb88002b02d04ff0ff331be0104bd0
:1047d000fb60fb68002b01d1002303e0fb68012292
:1047e0001a700123012b02d04ff0ff330be0386821
:1047f000fdf792fba0220021064801f093fc064b36
:1048000002221a70044b18461037bd4680bd00bf07
:0c48100030034020b4004020f80240209b
:020000040000fa
:020000040040ba
:10481c0080b582b000af174b5b6903f0e0037b609f
:10482c007b68002b11d0134be122da60124b002273
:10483c0083f82c20104b5b6a002b06d00e4b9b6a26
:10484c003b600d4b5b6a386898470a4b5b6903f019
:10485c000103012b01d1fff7fffa064b5b6903f053
:10486c000203022b01d1fff71dfa00bf0837bd462a
:0c487c0080bd00bf000a0e40a4034020d5
:020000040000fa
:020000040040ba
:1048880080b487b000aff860b9601346fb710023ad
:10489800fb74fb79012b03d1fb6820337b6102e0b9
:1048a800fb6824337b617b691b68002b13d17b6910
:1048b800ba681a600123fb7411e07b691b685b69a5
:1048c800002b04d17b691b68ba685a6107e07b69d1
:1048d8001b6814337b617b691b68002bedd1fb7c63
:0c48e80018461c37bd465df8047b704785
:020000040000fa
:020000040040ba
:1048f40080b586b000aff860b9607a6000237b6150
:1049040000233b61f868fff73bf938613b69002bf2
:104914001cd03b691b881a4613465b0013445b0199
:104924000d4a13447b61786900f040fb034683f031
:104934000103dbb2002b0bd13b69ba685a603b69b7
:104944007a689a60786900f0c3ff02e000bf00e073
:0c49540000bf1837bd4680bd5401402054
:020000040000fa
:020000040040ba
:1049600080b487b000af78603960174b5b6903f49f
:104970008033002b21d07b687b613b683b613b69c6
:10498000002b1add7b6903f01f023b691344fb60b7
:104990007b69bb60bff34f8f0b4abb68c2f85c32c8
:1049a000bb682033bb60fb68203bfb60fb68002bcf
:1049b000f2dcbff34f8fbff36f8f00bf1c37bd46d4
:0c49c0005df8047b704700bf00ed00e0d4
:020000040000fa
:020000040040ba
:1049cc0080b487b000af78603960174b5b6903f433
:1049dc008033002b21d07b687b613b683b613b695a
:1049ec00002b1add7b6903f01f023b691344fb604b
:1049fc007b69bb60bff34f8f0b4abb68c2f8683250
:104a0c00bb682033bb60fb68203bfb60fb68002b62
:104a1c00f2dcbff34f8fbff36f8f00bf1c37bd4667
:0c4a2c005df8047b704700bf00ed00e067
:020000040000fa
:020000040040ba
:104a380080b584b000af78600023bb600123fb73ae
:104a480000f094f8034683f00103dbb2002b01d099
:104a5800fb7b1ee0786800f0cff9b860bb68002bdc
:104a680014d0bb685b78002b05d0b868fef7eeff62
:104a7800bb6800225a70bb6800221a75bb68002206
:104a88005a75bb6800221a700023fb7300f0eefb16
:0a4a9800fb7b18461037bd4680bdb9
:020000040000fa
:020000040040ba
:104aa40080b400af174b1b6b164a23f070031363db
:104ab40000bf144b9b6e03f00803082bf9d1114b74
:104ac4001b6b23f440730f4a43f48073136300bfda
:104ad4000c4b9b6e03f00803082bf9d1094b1b6b9d
:104ae40023f00303074a43f00203136300bf054b9b
:104af4009b6e03f00803082bf9d100bfbd465df897
:084b0400047b704700060e401f
:020000040000fa
:020000040040ba
:104b0c0080b586b000af786039600023fb757b6898
:104b1c003b613b69002b1dd000f038fff860104b57
:104b2c0093f82c30dbb283f00103dbb2002b11d0f5
:104b3c000b4a3b6993610a4a3b68d361084b0022dc
:104b4c001a62074b012283f82c200123fb75054bbd
:104b5c00e1229a60fb7d18461837bd4680bd00bf28
:084b6c00a4034020000a0e40e2
:020000040000fa
:020000040040ba
:104b740080b582b000af154b93f83030002b1fd1b5
:104b8400134b7b604ff0ff333b607b681b78012b3a
:104b940004d17b6800221a70012300e00023012b5a
:104ba4000cd10a4b93f90830184600f0e9fb034690
:104bb4001a46064b83f83120012302e0002300e06b
:104bc400012318460837bd4680bd00bff8024020c7
:044bd400300340204a
:020000040000fa
:020000040040ba
:104bd800f0b59bb004460d46164600214c2207a8a6
:104be8001f4601f09bfa4ff0ff33029303f20313c1
:104bf800039304b901accde9044555b16a1e002df3
:104c0800069208da094b4f221a604ff0ff301bb0aa
:104c1800f0bd2a46f3e71cbf002323703a4631460d
:104c280002a8cde9074401f09bf9f0e76c044020a5
:020000040000fa
:020000040040ba
:104c380080b485b000af0346b9607a60fb7397f91a
:104c48000f30b3f1ff3f14d0012b14d10e4b9b6ce6
:104c5800ba689a4203d10c4b012283f850200a4bc0
:104c6800db6cba689a4208d1074b012283f85120bd
:104c780003e000bf02e000bf00e000bf00bf143740
:0c4c8800bd465df8047b70470c02402024
:020000040000fa
:020000040040ba
:104c940080b400af134b80221a60124b28221a6092
:104ca400104b1b6903f07c520e494bf2c0131343a3
:104cb4000b610c4b4ff080721a600a4b07229a6208
:104cc400084b4ff440725a62064b04221a60064b9a
:104cd40000225a77044b00221a7700bfbd465df8c4
:0c4ce400047b704700800140d403402096
:020000040000fa
:020000040040ba
:104cf0000e4a38b5002313600d4a0e4c13600e4a5d
:104d00000e4d13600e4a13600e4a13600e4a536232
:104d1000136101239360fff7a4fcfff7a2fcac42f0
:104d200000d338bd54f8043b9847f8e768044020a6
:104d30006c0240207401400068024020780140006d
:0c4d40006002402064024020700240200d
:020000040000fa
:020000040040ba
:104d4c0080b485b000af786039600023fb727b685b
:104d5c002833fb60fb681b68002b13d1fb683a6897
:104d6c001a600123fb7211e0fb681b689b6a002b25
:104d7c0004d1fb681b683a689a6207e0fb681b6801
:104d8c002833fb60fb681b68002bedd1fb7a1846bf
:0a4d9c001437bd465df8047b704734
:020000040000fa
:020000040040ba
:104da60080b588b002aff860b9607a60fb704ff0ea
:104db600ff337b61fb78002b04d1fb68002b01d10c
:104dc6007b6916e07b68002b12d0786800f05bf9ef
:104dd6000146fb780093bb68fa680020fdf755ff93
:104de60078617b69b3f1ff3f02d07869fef7efff88
:0a4df6007b6918461837bd4680bde2
:020000040000fa
:020000040040ba
:104e000080b485b000af78600023fb607b68b3f1ad
:104e1000ff3f17d07b68002b14d07b689bb2042b1c
:104e200010d87b689bb25b010a4a1344fb60fb68a5
:104e3000db697a689a4205d1fb681b78002b01d0a8
:104e4000fb6800e0002318461437bd465df8047b7c
:084e5000704700bfb4004020d0
:020000040000fa
:020000040040ba
:104e58002de9ff41134dd1f80080af88adf80c70f3
:104e680006462868029002aca8798df80e00002a40
:104e780018bf1446d1e901571a461bb9204601f05c
:104e880003f90246002d02dbaa4228bf2a46cdf8c4
:104e980000803b4621463046fff77af904b0bde86a
:084ea800f08100bf0862400028
:020000040000fa
:020000040040ba
:104eb00080b485b000af78600b46fb70fb78012ba7
:104ec00003d17b682033fb6002e07b682433fb6006
:104ed000fb681b68002b10d0fb681b68bb60fb687d
:104ee0001b685a69fb681a60bb6800221a76bb68a7
:104ef00000225a61bb6800221a7100bf1437bd46f8
:064f00005df8047b704720
:020000040000fa
:020000040040ba
:104f0600f0b50c4649682368a668e76887b00029ab
:104f16000593a4bf23f00203059305ab02930a236e
:104f2600cde900630546d2e900232046fff7adfa36
:104f36002269059b0093013a3346121a391828460e
:104f4600fff727f96b68db0503d563689842b8bf9e
:064f5600184607b0f0bd93
:020000040000fa
:020000040040ba
:104f5c0080b483b000af03463960fb7197f907301a
:104f6c00002b0adb3b68dab20c4997f90730520187
:104f7c00d2b20b4483f800230ae03b68dab208494a
:104f8c00fb7903f00f03043b5201d2b20b441a76a7
:104f9c0000bf0c37bd465df8047b704700e100e0b4
:044fac0000ed00e034
:020000040000fa
:020000040040ba
:104fb00080b584b000af78607b6893f82830002b10
:104fc00013d17b683d33fb604ff0ff33bb60fb6860
:104fd0001b78012b04d1fb6800221a70012300e02a
:104fe0000023002b01d1002303e07868fdf7d4f8fb
:0a4ff000012318461037bd4680bdae
:020000040000fa
:020000040040ba
:104ffc0080b485b000af78607b6803f00703fb607a
:10500c000b4bdb68bb60ba684ff6ff031340bb6009
:10501c00fb681a02bb681a43064b1343bb60044a75
:10502c00bb68d36000bf1437bd465df8047b704786
:08503c0000ed00e00000fa05a0
:020000040000fa
:020000040040ba
:1050440080b487b000af78600e4b3b6100237b6176
:105054003b691b69fb607a68fb689a4204d97a68e9
:10506400fb68d31a7b6105e07a68fb68d31a03f501
:1050740080337b617b6918461c37bd465df8047b31
:08508400704700bff802402054
:020000040000fa
:020000040040ba
:10508c00b0b582b000af78607b6819464ff0000273
:10509c000c4bdb684ff0000403fb02f501fb04f042
:1050ac000544a1fb03016b1819464ff47a724ff0bb
:1050bc00000300f083fc03460c4618460837bd4637
:0850cc00b0bd00bff802402056
:020000040000fa
:020000040040ba
:1050d40080b400af0e4b02221a770e4b5b680d4a68
:1050e40043f4805353600a4b1b69012b03d1094bd2
:1050f40003221a6002e0074b01221a6062b6054bd4
:1051040003225a6200bfbd465df8047b704700bfae
:08511400d4034020008001409b
:020000040000fa
:020000040040ba
:10511c0080b485b000af786039600023bb60002399
:10512c00fb600ee0fb689b007a6813441b683a68ce
:10513c009a4203d1fb680133bb6005e0fb68013385
:10514c00fb60fb68022bedd9bb6818461437bd46d3
:06515c005df8047b7047c2
:020000040000fa
:020000040040ba
:1051620010b50278202a034600f10100f9d0a2f11d
:1051720009010429f5d92b2a07d02d2a11d10121a1
:105182000133013b00200a2403e00021f8e76043d9
:10519200801a13f8012f303a092af8d901b940428e
:0651a20010bd0021ede745
:020000040000fa
:020000040040ba
:1051a80080b485b000af0346b9607a60fb7397f9a5
:1051b8000f30b3f1ff3f0ad0012b0ad1084bdb6b4c
:1051c800ba689a4203d1064b012283f8442000bff3
:1051d80000e000bf00bf1437bd465df8047b704790
:0451e800b0024020b1
:020000040000fa
:020000040040ba
:1051ec0080b485b000af0346b9607a60fb7397f961
:1051fc000f30b3f1ff3f06d0012b09d1084b002231
:10520c0083f8422005e0064b012283f8422000e09f
:10521c0000bf00bf1437bd465df8047b704700bf6c
:04522c000c02402010
:020000040000fa
:020000040040ba
:1052300080b485b000af78607b682833fb60fb6882
:105240001b68002b10d0fb681b68bb60fb681b68e9
:105250009a6afb681a60bb6800221a77bb68002252
:105260009a62bb6800221a7000bf1437bd465df811
:04527000047b704704
:020000040000fa
:020000040040ba
:1052740080b582b000af0d4b93f908200b4b93f827
:1052840031301946104600f0a6fc084b93f8303034
:10529400002b07d1064b7b607b68002b02d07b6818
:1052a40001221a7000bf0837bd4680bdf8024020b5
:0452b4003003402063
:020000040000fa
:020000040040ba
:1052b80080b584b000af03463960fb713b68fb6082
:1052c8000023bb60fb79012b06d1bb6801220121b9
:1052d800f868fcf7bdfe09e0fb79022b06d1bb6834
:1052e8004ff0ff320121f868fcf7b2fe00bf10371b
:0452f800bd4680bd72
:020000040000fa
:020000040040ba
:1052fc0080b584b000af03463960fb713b68fb603e
:10530c000023bb60fb79012b06d1bb680122002175
:10531c00f868fcf79bfe09e0fb79022b06d1bb6811
:10532c004ff0ff320021f868fcf790fe00bf1037f9
:04533c00bd4680bd2d
:020000040000fa
:020000040040ba
:1053400080b483b000af0346fb7197f90730002ba0
:1053500010dbfb7903f01f02094997f907305b095d
:10536000012000fa02f2203341f82320bff34f8fcf
:10537000bff36f8f00bf0c37bd465df8047b7047ed
:0453800000e100e068
:020000040000fa
:020000040040ba
:1053840080b584b000af0346fb7100f006ff03460e
:10539400fb7397f90730184600f0b4f80346002b66
:1053a40014bf01230023bb7397f907301846fff796
:1053b400c5fffb7b184600f0e3fdbb7b18461037a6
:0453c400bd4680bda5
:020000040000fa
:020000040040ba
:1053c80010b5054c227832b9044b13b10448aff339
:1053d80000800123237010bd1c0440200000000041
:1053e8000000000008b5034b1bb103490348aff3a5
:1053f800008008bd000000002004402000000000dc
:020000040000fa
:020000040040ba
:1054080080b586b000aff860b9601346fb7197f9b4
:1054180007301a46b968f86800f0bdfd0346fb7509
:10542800054b986bfa7d054bf96800f09dfc00bfb1
:105438001837bd4680bd00bfb0024020ec024020b6
:020000040000fa
:020000040040ba
:1054480080b582b000af0c4b1b6a03f014037b607d
:105458000a4b5b683b60094b1b68002b07d07b68d5
:10546800002b04d0054b1b6839687868984700bf43
:105478000837bd4680bd00bf00c00040540440202e
:020000040000fa
:020000040040ba
:1054880080b400af0c4b93f82c30dbb2002b0cd05f
:105498000a4be122da60084b002283f82c20064be5
:1054a8000022da61044b00221a6201231846bd4625
