:10000000F07F00209D050000C1070000C30700002D
:1000100000000000000000000000000000000000E0
:10002000000000000000000000000000BF0700000A
:100030000000000000000000BF070000BF07000034
:10004000BF070000BF070000BF070000BF07000098
:10005000BF070000BF070000BF070000BF07000088
:10006000BF070000BF070000BF070000BF07000078
:10007000BF070000BF070000BF070000BF07000068
:10008000BF070000BF070000BF070000BF07000058
:10009000BF070000BF070000BF070000BF07000048
:1000A000BF070000BF070000BF070000BF07000038
:1000B000BF070000BF070000BF070000BF07000028
:1000C000BF070000BF070000BF070000BF07000018
:1000D000BF070000BF070000BF07000000000000CE
:1000E0000000000000000000000000000000000010
:1000F000000000000000000000000000BF0700003A
:10010000BF070000BF070000BF070000000000009D
:1001100000000000000000000000000000000000DF
:10012000BF070000BF070000BF070000BF070000B7
:10013000BF070000BF070000000000000000000033
:10014000BF070000BF070000BF070000BF07000097
:10015000BF070000BF070000BF070000F07F0020BE
:100160009D050000C1070000C3070000000000005B
:10017000000000000000000000000000000000007F
:100180000000000000000000BF07000000000000A9
:1001900000000000BF070000BF070000BF0700000D
:1001A000BF070000BF070000BF070000BF07000037
:1001B000BF070000BF070000BF070000BF07000027
:1001C000BF070000BF070000BF070000BF07000017
:1001D000BF070000BF070000BF070000BF07000007
:1001E000BF070000BF070000BF070000BF070000F7
:1001F000BF070000BF070000BF070000BF070000E7
:10020000BF070000BF070000BF070000BF070000D6
:10021000BF070000BF070000BF070000BF070000C6
:10022000BF070000BF070000BF070000BF070000B6
:10023000BF070000BF070000C5070000C50700009A
:10024000C5070000C5070000C5070000C50700007E
:10025000C5070000C5070000BF070000BF0700007A
:10026000BF070000BF070000C5070000C50700006A
:10027000C5070000C5070000C5070000BF07000054
:10028000BF070000BF070000BF070000BF07000056
:10029000BF070000C5070000C5070000BF0700003A
:1002A000BF070000BF070000BF070000BF07000036
:1002B000BF070000BF070000401801000200030054
:1002C00084468EF300887447F8B5C046F8BC08BC75
:1002D0009E46704715060000F8B5C046F8BC08BC3D
:1002E0009E467047F105000041F20003C4F200038E
:1002F0000220187641F20041C4F2000100220A7483
:1003000041F60001C4F2000108621A8641F20002BF
:10031000C4F200028021490413690B42FCD046F26A
:100320002003C0F280031B685B009B0E9B0240F21F
:1003300000221343D200C4F20002536341F20002D0
:10034000C4F200028021490413690B42FCD041F23F
:100350000003C4F2000302221A86D202C4F2000291
:100360008021490413690B42FCD041F60043C4F2DA
:10037000000340F20712C0F201021A6241F6004285
:10038000C4F20002042153681942FCD141F6004333
:10039000C4F20003CC224021995041F60042C4F23D
:1003A0000002CC2013581942FCD041F60043C4F29D
:1003B0000003D0224021995041F60042C4F20002CD
:1003C000D02013581942FCD041F60043C4F2000378
:1003D000D8224021995041F60042C4F20002D820B0
:1003E00013581942FCD041F60043C4F20003DC224A
:1003F0004021995041F60042C4F20002DC2013581B
:100400001942FCD041F60043C4F20003F02240211F
:10041000995041F60042C4F20002F02013581942EC
:10042000FCD0704710B543F20023C4F20003012151
:100430004622995410329954013299543320195458
:100440001C3A98540532C0F2C002DA6610228024A9
:100450001A5110341A51002234341A5510341955D7
:10046000013419550934195501341955B1315A540B
:100470000831BD3C5C5405315854AF39CCF23001E1
:10048000B93019500021C0F608011430195000216C
:10049000C1F618011030195043301A544E38FF3845
:1004A0003334FF34185507341A5501341855343095
:1004B000FF301A5401301A5403301A5401301A54C0
:1004C0006D32FF32995010BDBFF35F8F62B64EF2AE
:1004D0000013CEF2000340F2842299588020014399
:1004E00099509958995840000143995099589958F2
:1004F0004000014399509958995840000143995040
:10050000995898588021090301439950995898584F
:1005100080214903014399509958985880218903B3
:1005200001439950995898588021C9030143995023
:100530009958985880210904014399509B58704755
:1005400000230E4A10B513600D4A0E4C13600E4A7C
:1005500013600E4A13600E4A13600E4A5362136111
:100560000133936000F02FF900F02DF90A4B9C4203
:1005700000D310BD08CC9847F8E7C04670000020B3
:100580000C000020D4020000080000200000002021
:100590000400002010000020D802000010B540F236
:1005A000BD73C0F20003984740F2BD73C0F2000370
:1005B000984700F08FF840F20003C0F200037F225A
:1005C00093434EF60052CEF20002936040F2415344
:1005D000C0F20003984740F2BD73C0F20003984791
:1005E00040F2BD73C0F20003984700F03EF8FEE70A
:1005F00010B5054C227832B9044B13B1044800E021
:1006000000BF0123237010BD500000200000000037
:1006100000000000034B10B51BB10349034800E084
:1006200000BF10BD000000005400002000000000CA
:1006300040F20043C4F2000300221A819A7901219A
:100640000A439A719B7803221340022B0CD040F28C
:100650000043C4F20003013A9A705202C4F200024D
:10066000012193790B42FCD0704710B582B08023F2
:10067000DB021C68002000F05DF8631C0FD084F3DF
:1006800088880423C0F204031B680193019C64085A
:100690006400200021002200230000F001F8FEE7A2
:1006A000E0B545464E465746E0B45D4620B4254683
:1006B00026462746A046A146A246A346A44684F362
:1006C0000088A44720BCAB46E0BCBA46B146A84669
:1006D000E0BD704710B50948016811B9436803B916
:1006E00010BD04008368064A9BB20C349B009B58E3
:1006F00042682000984780002018EDE704070000BA
:1007000080070000500000202000000000000000D2
:1007100000000020500000000000000070000020D9
:1007200004000000000000000000000000000000C5
:100730006666666610B5FFF77BFF45F20003C4F2FC
:10074000001304225A60FFF76DFEFFF7CDFD00F0A5
:1007500021F800F014F8FFF7BCFFFFF7B5FE10BD5D
:10076000002310B5934206D103201840421E904149
:100770009B08C01810BDC45CCC540133F2E770472D
:10078000A707000061070000B9070000B9070000D3
:10079000B907000045F20003C4F2001306225A60B4
:1007A000053A1A7270478A18914201D100207047A9
:1007B00000230B700131F7E7002070477047FEE718
:0807C000FEE7FEE7FEE77047CB
:020000040003F7
:08C380007FE97FE9C3F798BFD4
:020000040004F6
:10000000F8FF0020BF360400F33304005338040027
:1000100000000000000000000000000000000000E0
:100020000000000000000000000000008B3A040007
:1000300000000000000000008B3A04008B3A04002E
:1000400000000000000000000000000000000000B0
:1000500000000000000000000000000000000000A0
:100060000000000000000000000000000000000090
:100070000000000000000000000000000000000080
:100080000000000000000000000000000000000070
:100090000000000000000000000000000000000060
:1000A0000000000000000000000000000000000050
:1000B0000000000000000000000000000000000040
:1000C0000000000000000000000000000000000030
:1000D0000000000000000000000000000F320400DB
:1000E0000F3204000F3204000F3204008B3A040078
:1000F0008B3A04008B3A04008B3A040000000000A5
:100100000000000000000000000000007711040063
:10011000771104007711040077110400893C040072
:1001200000000000000000000000000000000000CF
:1001300000000000000000008B3A04008B3A04002D
:1001400000000000000000000000000000000000AF
:10015000000000000000000000000000F8B5C046EC
:10016000F8BC08BC9E467047B13A0400F8B5C046DA
:10017000F8BC08BC9E4670478D3A0400E00C0000B5
:1001800001000000F0B5C64600B59EB048F6501319
:10019000C2F200031A78082A18D89300D04AD3581C
:1001A0009F4603F093FE41F23840C0F2040004F091
:1001B00021F848F2F460C2F20000502103F0F1FF90
:1001C00048F65013C2F2000301221A701EB004BC9C
:1001D0009046F0BD03F018FF48F60F13C2F200037B
:1001E00018701B78D3B903F0D6F80028EED041F28E
:1001F0007440C0F2040003F0FDFF44F2D824C0F2C2
:100200000404E568A847B0B16368984748F6451309
:10021000C2F20003187004F037FAF3E741F25840D5
:10022000C0F2040003F0E6FF48F60F13C2F2000329
:1002300000221A70D7E748F65013C2F200030222D8
:100240001A70C3E701A941F23063C0F204030A0047
:1002500013CB13C213CB13C203CB03C21B7813708F
:100260000AA941F25463C0F204030A0013CB13C27B
:1002700013CB13C213CB13C2198811809B789370D0
:1002800014A941F27C63C0F204030A0013CB13C229
:1002900013CB13C213CB13C2198811809B789370B0
:1002A00003F0B2FE48F60F13C2F2000318701B7879
:1002B000002B54D101A804F063F9C1B201A802F0E7
:1002C0006EFD48F60F13C2F2000318701B78002B66
:1002D00052D10AA804F054F9C1B20AA802F020FDD4
:1002E00048F60F13C2F2000318701B78002B50D190
:1002F00014A804F045F9C1B214A802F011FD48F6A3
:100300000F13C2F2000318701B78002B4ED148F671
:100310004824C2F20004200004F032F9C1B22000E7
:1003200002F032FE48F60F13C2F2000318701B7879
:10033000002B00D14AE748F60F13C2F20003002257
:100340001A70210041F21450C0F2040004F04EF87B
:1003500048F65013C2F2000303221A7036E741F246
:100360009440C0F2040003F045FF48F60F13C2F2B8
:10037000000300221A709DE741F2A840C0F2040079
:1003800003F038FF48F60F13C2F2000300221A7080
:100390009FE748F60F13C2F2000300221A7041F2E1
:1003A000BC40C0F2040003F025FFA1E748F60F139C
:1003B000C2F2000300221A7041F2E840C0F20400C9
:1003C00003F018FFA3E703F023F948F60F13C2F276
:1003D000000318701B782BB944F2D824C0F204042F
:1003E000E56815E048F60F13C2F2000300221A7008
:1003F00041F22C50C0F2040003F0FCFEECE763680D
:10040000984748F64513C2F20003187004F03CF90F
:10041000A8470028F3D148F65013C2F20003052282
:100420001A70D3E648F65013C2F2000304221A7081
:1004300041F24050C0F2040003F0DCFEC6E641F297
:100440004450C0F2040003F0D5FE44F2D824C0F2B8
:100450000404E56809E00120E369984748F62013A1
:10046000C2F200031A6801321A60A8470028F2D0CD
:1004700048F62013C2F2000300221A6048F6511613
:10048000C2F2000648F2F464C2F2000444F2D82832
:10049000C0F2040812E048F64612C2F200021178D7
:1004A00048F2A840C2F2000067464754013111707B
:1004B000013333700A204346DB699847A84788B167
:1004C00001F08AFA33781A00E15C8C460029E2D107
:1004D0000023195501339A42FBDA00233370E9E710
:1004E0002043040041F25851C0F2040148F2A840F0
:1004F000C2F2000003F04AFB48F62413C2F20003E4
:10050000186001000C3148F60814C2F200040422FD
:10051000200004F064F943F20003C4F2000340F247
:10052000141280210903995041F26450C0F2040072
:1005300003F060FE41F27450C0F20400210003F0A9
:1005400055FF48F64613C2F2000300221A7048F61F
:100550005113C2F200031A7048F65013C2F200039E
:1005600006321A7032E603F04FFD48F60F13C2F25E
:10057000000318701B78002B00D127E648F60E13F5
:10058000C2F2000301221A7048F60F13C2F20003F0
:1005900000221A7041F29440C0F2040003F02AFED7
:1005A00048F65013C2F2000309221A700EE614AD89
:1005B00041F2A463C0F204031A6814921B792B71F0
:1005C00048F64814C2F2000448F65913C2F2000378
:1005D0001878210002F04CFD280003F0D1FFC1B2D1
:1005E00002232200280002F051F948F64713C2F214
:1005F000000318701B7863B141F28C50C0F2040004
:1006000003F0F8FD48F65013C2F2000308221A70F6
:10061000DCE541F2AC50C0F2040003F0EBFDF1E781
:1006200041F2AC63C0F204031A6814921A7914AB55
:100630001A7144F2D823C0F20403DC68A0470028F2
:100640006DD044F2D823C0F20403DB69C820984778
:1006500044F2D826C0F2040648F64515C2F2000559
:1006600004E073689847287004F00EF8A04700284B
:10067000F7D114A803F084FF48F6EC06C2F2000696
:10068000C1B20123320014A802F083FA48F64714DD
:10069000C2F20004207048F65215C2F2000529008B
:1006A000300003F0DCFB297841F2CC50C0F20400AA
:1006B00003F09CFE237813B341F2EC50C0F2040027
:1006C00003F098FD48F65213C2F200031A7848F678
:1006D0002813C2F200031B689A4217DC48F659132C
:1006E000C2F200031B788BB182B143F20003C4F263
:1006F000000340F214128021090599500FE041F2E5
:100700001460C0F2040003F075FDDBE743F2000360
:10071000C4F2000340F2181280210905995048F6EE
:100720005013C2F2000309221A704FE5C48800205A
:100730001C00000000000000988800202C00000031
:10074000000000002C8500200001000000000000D7
:10075000948700204000000000000000F88800207E
:1007600008000000000000004B890020010000008C
:10077000000000002C860020640000000000000043
:10078000F68800200100000000000000D48700204F
:100790000400000000000000548900200100000057
:1007A00000000000F78800200100000000000000A9
:1007B000108900200400000000000000648A00206E
:1007C000080000000100000000010000303030305F
:1007D000D8870020400000000000000008840020AE
:1007E000A0000000000000005A8900200200000064
:1007F0000100000001000000148900200800000032
:1008000000000000428900200200000000000000FB
:100810001888002040000000000000004E890020E1
:1008200001000000000000001C89002004000000FE
:10083000000000004F8900200100000000000000BF
:100840009086002064000000000000000D89002058
:100850000100000000000000618A0020010000008B
:100860000100000025000000208900200400000095
:10087000000000005089002001000000000000007E
:100880000E890020020000000000000008890020FE
:100890000500000000000000458900200100000064
:1008A00000000000A884002082000000000000007A
:1008B000468900200200000000000000F4860020AD
:1008C00050000000000000005189002001000000DD
:1008D0000000000024890020040000000000000047
:1008E0004C89002002000000000000005289002016
:1008F0000100000000000000288900200400000022
:1009000000000000488900200300000000000000F3
:10091000EC8800200A00000000000000488A002047
:1009200019000000010000004E310000000000002E
:1009300000000000000000000000000000000000B7
:10094000000000002A8500200200000000000000D6
:100950004489002001000000000000002C890020D4
:100960000400000000000000538900200100000086
:10097000000000004089002002000000000000008C
:10098000558900200500000000000000628A002058
:100990000100000001000000010000005888002054
:1009A000400000000000000030890020040000002A
:1009B00000000000448700205000000000000000FC
:1009C0005C8900206C0000000100000068890020A4
:1009D00064890020688900200000000025000000D4
:1009E000088000200004000000000000000000005B
:1009F00000000000000000000000000000000000F7
:100A00000000000000000000734804000000000027
:100A1000000000000000000000000000D7320400C9
:100A200000000000000000000000000000000000C6
:100A3000000000000000000000800020080400000A
:100A400000000000288A00202000000001000000B3
:100A50000100000003000000000000000000000092
:100A600000000000000000000000000000890020DD
:100A700000890020080000000000000034890020E8
:100A80000800000000000000C8890020600000008D
:100A90000100000001000000030000000000000051
:100AA0000000000000000000000000000000000046
:100AB00007350400000000000000000000000000F6
:100AC000F5470400EB4304000000000000000000B4
:100AD0000000000000000000000000000000000016
:100AE0000000000000000000000000000000000006
:100AF000000000006C8A00200400000001000000DB
:100B0000010000003C8900200400000000000000FB
:100B1000E08800200C000000000000000000000041
:100B20000000000066666666666666660023F0B5CD
:100B300006001500B1B00791039307990B78002BBD
:100B400000D10AE101235B420C9310AB00240E9309
:100B500080230B940D940F930B5D0BB1252B29D1A2
:100B600034B12200300003F025F9079B1B190793CD
:100B7000079B1A78252A00D0E4E040F2020C0121FC
:100B80001027013304930793079803782B2B1AD06F
:100B900025D8202B1AD0232B1DD02A2B28D003F0A8
:100BA00054F80D90079B1A78303A092A31D801334E
:100BB0000793F7E70134CFE70B9B05930B43013015
:100BC0000B930790E0E704230B9A0FE00B9B059330
:100BD000059A08230AE00B9B05933B43EFE72D2B77
:100BE000EAD0302BD9D162460B9B05931343E6E73D
:100BF0002B6801301A1D1B6807902A600D93002B8B
:100C000007DA0B9A5B420592012205990D934A403F
:100C10000B920B9BDA0702D5022293430B93079B9F
:100C20001A782E2A0ED10022581C0C9207905A785E
:100C30002A2A27D1023307932B681A1D1B682A60C2
:100C400005930C9307A803F0ABF9079B07001878EE
:100C500003F0A5FD692800D182E034DC632800D1CF
:100C6000D7E01ADC252800D1E4E0612858D0049BA5
:100C700001220793002352420C920B930D93009391
:100C80000232E1E002F0E1FF0C90079B1A78303A63
:100C9000092AD7D801330793F7E7642860D067287B
:100CA000E5DC2A00390008A803F03CFA002800D14E
:100CB000ABE0079B0BA95A1C07921B7808AA3000CF
:100CC00003F0D5FD3DE0702800D17BE016DC6E28F6
:100CD00000D193E06F28CAD12B000022390008A868
:100CE00001F022FD002800D18FE0079B08AA013304
:100CF0000BA93000079303F0B8FD22E0752840D01F
:100D000078284ED07328B2D1802F00D07DE0079B89
:100D10002A6801330793131D2B601268002384E0B7
:100D20002A00390008A803F0FDF9002800D16CE082
:100D3000079B0BA95A1C07921B7808AA300003F0E6
:100D400096FD2418039B1C19A34200DC7EE04F2271
:100D50003F4B1A6001235B420393039831B0F0BD0F
:100D60002B000122390008A801F0DEFC00284CD03D
:100D7000079B08AA01330BA93000079301F02FFD50
:100D8000DFE72B000022390008A801F0CDFCE0B31A
:100D9000079B08AA01330BA93000079303F065FDF8
:100DA000CFE72B000022390008A801F0BDFC60B39A
:100DB000079B5A1C07921B7808AA0BA9300000F069
:100DC000B9FEBEE72B000022F02108A801F0ACFC20
:100DD000D8B1079B099A01330793089B13435BB96A
:100DE0001C4803F0CDFB02000B9B1A4900930D9B9E
:100DF000300002F051F8A4E77823DDE7039B3900C7
:100E00001A1908A82B0002F068F9079B0133079311
:100E100098E7802FF9D1079B013307932B681A1DA0
:100E20001B682A6008AA137001230BA9300002F086
:100E300011FD86E7802FE8D10122079B013307933C
:100E40000B9B049300930D9B0349D1E7039474E635
:100E5000388900204048040046480400F0B585B0B9
:100E600000930393009B02900C0016001500019064
:100E70000F00002B00D0C9E08A424AD9100002F0CE
:100E80007BFF48B12023019F1B1ADF40019B844058
:100E90008340854027430193AAB22B0CB7FBF3F1A3
:100EA000160094461A004A434E43BF1A019A3F0463
:100EB000140C27430A00BE4207D97F19013ABD42EC
:100EC00003D8BE4201D98A1E7F19BE1BB6FBF3F1BF
:100ED0004B436446F61A6B464C439B8836041E43CC
:100EE0000F00B44207D97619013FB54203D8B44286
:100EF00001D98F1E76191204341B3A430A9B23B181
:100F0000C4401C6000230A994B601000009905B092
:100F1000F0BD02B9FFDE100002F02EFFB8BB0123C6
:100F2000A41B00932B0CB4FBF3F21F0011005743DA
:100F3000AEB27143E41B019F24043F0C3C43944632
:100F4000A1420AD9012764197F42BC44A54204D8B2
:100F5000A14202D9023A94466419641AB4FBF3F729
:100F60007B43E41A6B467E439B8824041C43390070
:100F7000A64207D964190139A54203D8A64201D96E
:100F8000B91E641963461A04A41B0A43B6E720225B
:100F900023000199121AD3408440D140019A854020
:100FA000824021438C46290CB3FBF1F401920A00E4
:100FB000624326009B1A6246AFB27E43120C1B04AA
:100FC000134322009E4207D95B19013A9D4203D880
:100FD0009E4201D9A21E5B199B1BB3FBF1F6714324
:100FE0005B1A614677438CB21B041C433100A74255
:100FF00007D964190139A54203D8A74201D9B11E06
:10100000641912040A43E41B00928BE7009B8B4295
:101010000AD90A9B002B00D1ABE0029A59601A60F2
:10102000002300931A0070E7039802F0A5FED8B9D8
:10103000039BA34203D3029B02009E420AD8029B59
:1010400001229E1B039B0196E41A029BB342AD4111
:101050006D42671B0A9B0093002B00D155E7019955
:1010600082C30023009350E720231B1A019333000F
:10107000019A039FD34087401F4323000199D34027
:10108000029A8440CA4022439446029A390C824014
:10109000B3FBF1F402920A008640624300962600F8
:1010A0009B1A6246BDB26E43120C1B04134322000E
:1010B0009E4207D9DB19013A9F4203D89E4201D9CB
:1010C000A21EDB199E1BB6FBF1F463466143654328
:1010D000761A360499B20E432300B54207D9F619A1
:1010E000013BB74203D8B54201D9A31EF619120439
:1010F0001A436B461C88009B711B8C46190C2300FD
:1011000096B2150C6C4373434D4371431E0C091981
:1011100071188C4202D9802464022D190C0C9BB2E8
:1011200009046519C918AC4503D30BD1029B8B4246
:1011300008D2009B013ACE1AB14289414942CF19E7
:101140003100ED1B0A9B0093002B00D1DDE6029BD2
:10115000019C591A63465D1B029B8B429B415B427B
:10116000ED1A2B00C140A340C54019430A9B22C37E
:1011700077E70A9B55E710B541F60003C4F2002358
:101180009B7D43B348F69803C2F200039C6A41F684
:101190000003C4F200235B8B9B071DD548F6980320
:1011A000C2F200032022FF2199540132FD399954E3
:1011B00048F69803C2F2000320229B5C5BB2013325
:1011C00000D1E5E048F69803C2F2000320229B5CC0
:1011D000062B00D108E110BD41F60003C4F2002344
:1011E0005B8BDB070AD548F69803C2F20003202286
:1011F000FF2199540132FD399954D9E741F6000392
:10120000C4F200235B8B5B070AD548F69803C2F251
:1012100000032022FF2199540132FE399954C7E777
:1012200048F69803C2F2000320229B5C5BB2032BBA
:1012300078D0042B1BD0022BBAD148F69803C2F207
:1012400000031B694BB148F69803C2F2000398886B
:1012500080B2002101F05EFEAAE748F69803C2F2D0
:101260000003988880B2012101F054FEA0E748F6FF
:101270009803C2F200039A691B69934218D048F69A
:101280009803C2F200039B68995C41F60003C4F224
:1012900000239962511C41F60002C4F20022D36976
:1012A000002BFCD148F69803C2F2000399617FE756
:1012B00048F69803C2F200035B69DBB148F6980375
:1012C000C2F200039B885B000122134341F6000237
:1012D000C4F20022536241F60002C4F20022D36934
:1012E000002BFCD148F69803C2F200032022032110
:1012F00099545DE741F60003C4F200235968C02207
:1013000092020A435A6041F60002C4F20022D369F5
:10131000002BFCD148F69803C2F2000320220621DC
:10132000995445E748F69803C2F20003D9695B690E
:10133000013B8B4214D041F60002C4F20022D36973
:10134000002BFCD141F60003C4F20023986A48F652
:101350009803C2F20003DA6850540131D96127E7DB
:1013600041F60003C4F200235868E022D20202438F
:101370005A6041F60002C4F20022D369002BFCD16E
:1013800048F69803C2F20003202206209854D2E7C0
:1013900048F69803C2F200030021995441F6000375
:1013A000C4F200235968C02292020A435A6041F6EF
:1013B0000002C4F20022D369002BFCD141F60003E5
:1013C000C4F200239B221A7648F69803C2F2000367
:1013D0005B6A002B00D1FEE648F69803C2F20003D8
:1013E0005B6A20009847F6E648F69803C2F20003CD
:1013F000002220215A5401315A5441F60003C4F20C
:1014000000239B321A7641F60002C4F200220F310B
:10141000538B0B40102BFBD148F69803C2F200030C
:101420005B6A002B00D1D6E648F69803C2F20003AF
:101430005B6A20009847CEE60D0A0A524E424434B9
:10144000353120424C4520697320496E69746961C9
:101450006C697A65640D0000446576696365206592
:101460006E746572656420434D44204D6F64650D54
:10147000000000000D0A456E7465726564204661C7
:1014800063746F7279207265736574204D6F646543
:101490000D0000000D0A456E746572656420434DB1
:1014A00044204D6F64650D00536572766963652055
:1014B00055554944205365740D00000053657276FC
:1014C0006963652054582054656D70657261747548
:1014D00072652043686172616374657269737469CF
:1014E00063205365740D000053657276696365204F
:1014F00052582054656D7065726174757265204331
:10150000686172616374657269737469632053659D
:10151000740D0000446576696365206E616D652019
:10152000736574203A2025730D0A00005265626FBE
:101530006F7420436F6D706C657465640D000000FE
:101540000D0A00000D0A436F6E6E656374696E6765
:101550002E2E2E0D000000005048595F555044417A
:10156000544544000D0A436F6E6E656374656420D4
:1015700021210D000D0A436F6E6E656374696F6EF5
:101580002068616E646C653A257300000D0A54652D
:101590006D706572617475726520557064617465F3
:1015A00064206C6F63616C6C790D00000D0A4E6FE6
:1015B000206C6F63616C2074656D70657261747509
:1015C0007265207570646174650D00000D0A0A541F
:1015D000656D7065726174757265205468726573AB
:1015E000686F6C64203A2025642043000D0A54651E
:1015F0006D702E204C696D69742072656365697623
:1016000065642066726F6D2063656E7472616C0D27
:10161000000000000D0A54656D702E204C696D6944
:1016200074206E6F742072656365697665640D0061
:101630003439353335333433464537443441453511
:1016400038464139394641464432303545343535DE
:1016500000000000343935333533343331453444F8
:1016600034424439424136313233433634373234EE
:10167000393631362C30322C3035000034393533A0
:1016800035333433383834313433463441384434E4
:101690004543424533343732394242332C30452CAE
:1016A0003032000031303032000000003130303450
:1016B0000000C046F8B5040048F66423C2F20003F7
:1016C0001B680BB300200F2748F66826C2F20006FD
:1016D00006E0421CD2B231540F2B0BD910002B0064
:1016E0001D093A001A4011003731092AF1D8303269
:1016F0001100EEE748F61013C2F20003196048F635
:101700006423C2F200031D6043F60471C0F20401B9
:10171000200002F03BFA80B148F6F603C2F2000363
:1017200000221A7048F64B13C2F200031A7048F6F2
:10173000F703C2F200031A70F8BD43F61071C0F24D
:101740000401200002F022FA30B148F6F703C2F299
:10175000000301221A70EFE743F61C71C0F2040186
:10176000200002F013FA00284DD048F6F703C2F229
:10177000000300221A70002348F22C61C2F200011B
:10178000E25C5A540133312BFAD148F22C64C2F294
:10179000000404220821200002F07DFB08220D2114
:1017A000200002F078FB08221621200002F073FBD3
:1017B00008221F21200002F06EFB042228212000B5
:1017C00002F069FB04222D21200002F064FB4F206F
:1017D00002F010FF542002F00DFF412002F00AFF3A
:1017E000412002F007FF2C2002F004FF302002F01D
:1017F00001FF312002F0FEFE0D2002F0FBFE0A2068
:1018000002F0F8FE98E743F62471C0F204012000CC
:1018100002F0BCF960B148F64B13C2F2000301229A
:101820001A7048F6F703C2F2000300221A7083E729
:1018300043F63071C0F20401200002F0A7F900283D
:1018400000D179E748F6F603C2F2000301221A70CC
:1018500072E706D128B9F54203D800D30AB96D0D55
:1018600009D10020C143090DC904F0BDF9D11242CC
:10187000F7D1640DF5D00020C14349054908A6E021
:1018800000206146F0BDF0B50127FF070E005E4065
:101890003E40B446BE0A4C18DD18F442D9D2F54297
:1018A000E4D2640DECD06D0DEAD06419C90239435D
:1018B000460DC0023143DB023B43DB0A10B48E46C7
:1018C00085B297B26F43140C6C433E0CA419260CDE
:1018D0002404BFB227439CB26C43A419190C69437A
:1018E000250CA4B249190D04090C6419000C95B219
:1018F00045433E0C76193743BFB2360C150C4543B1
:10190000AD19A6B2240CAD192E0437432E0C36198E
:101910009DB24543AD19ACB22E0C89191D0C45433F
:101920006D182E04290C3443704680B295B245439D
:101930003E0C76193743BFB2360C150C4543AD1932
:10194000A6B2AD19240C2E0437432E0C36199DB2C5
:101950004543AD19ACB22E0C89191D0C45436D18C9
:101960002E043443290C75462D0C90B268433E0C6E
:1019700080190604BFB23E43070CA0B23F18120CF8
:101980006A43D019020C80B2240CA4189AB26A439C
:10199000121914042043120C89181B0C6B43C9182C
:1019A00010BC01273D05294203D1B61940414941E8
:1019B000013CFF077D0D013D641B0BDB6D00AC425C
:1019C00009DA240500254208BE41684161416646A6
:1019D0003143F0BD54E74EE770B548F64E13C2F2FE
:1019E0000003187830B944F2D823C0F20403DB684E
:1019F000984700B970BD44F2D823C0F204035B6875
:101A000098470400050048F64313C2F200031B7810
:101A1000C3B348F66123C2F200031B78834219D096
:101A200048F61C13C2F20003196848F61812C2F2F5
:101A3000000248F64213C2F20003187813681B181C
:101A400099425AD248F61C13C2F200034A1C1A608B
:101A50000C7052E048F64313C2F2000300221A70E1
:101A600048F61C13C2F200031B681A7048F61813DC
:101A7000C2F20003186844F2D823C0F204031B6AC0
:101A800098473AE048F66123C2F200031B7883428C
:101A900019D148F60D13C2F200031B78EBB902F01E
:101AA0008CFED0B948F64313C2F2000301221A702B
:101AB00048F61C13C2F2000348F61812C2F20002E4
:101AC00012681A6019E002F078FEE0B148F661236E
:101AD000C2F200031B78AB42DBD048F60D13C2F212
:101AE000000301221A7048F64E13C2F200031A7066
:101AF00048F64F13C2F200031C7048F64E13C2F2B0
:101B00000003187876E702F05EFE0028DED148F682
:101B10004313C2F2000301221A7048F61813C2F2EE
:101B200000031A6848F61C13C2F20003511C196026
:101B30001470E2E7F0B58FB00D934B680C900693EC
:101B40008B680D000793CB6816000393069B0F6804
:101B5000002B42DB02239F4310233B400A93079B49
:101B600004930A9B3BB1726833681343079A13B11D
:101B70001300023B049308233B400B935A1E9341EE
:101B8000049AD31A04933368039A089373680993E9
:101B90002B695C1E00231355069B0593012C1FDC4B
:101BA0000A9B002B50D10B9B1BB12023039A013CB5
:101BB00013552B6900975A1E039B121B19190C9879
:101BC000079B01F069F90C9B5B68DB0503D56B682B
:101BD000984200DA18000FB0F0BD01230693BBE76E
:101BE000089B099A13435BB9059B002B08DC069AF6
:101BF000049B9B1A059A9B18002BD1DDBB07CFD500
:101C00000F23089A013C134018005730092B01DCC0
:101C1000303318000D9B413B192B06D8202303437A
:101C2000613B192B01D802F0C1FD039B1855059BA0
:101C3000013B0593099B1A07089B1B091A43099B43
:101C400008921B090993A9E70CCE1343002BAAD0D5
:101C5000039B0D9A1B19013B1A703023039A023C17
:101C60001355A0E7F0B5DE4657464E464546E0B56B
:101C700083B084468B46002900D181E0002440F6E1
:101C80000047C4F20027072148F29473C2F2000310
:101C90000122624490460AE048F2AC55C2F20005C7
:101CA0004846A8559A60621C0134934556D97A6813
:101CB0000A40012A1DD09E68DA689146721C1D698F
:101CC000AA42AD412A40914549D065462D5DA946BD
:101CD0007D680D40012DDFD1760048F2AC55C2F28F
:101CE00000054846A855013640F200094846A85567
:101CF000D8E79E68DA689146721C1D69AA42AD4118
:101D00002A4091452BD06000814640464D46455DB6
:101D10002802824660464D46405D55460543019582
:101D200078680840012808D0E8B248F2AC55C2F201
:101D30000005A8559A60621CB6E7760068460079EF
:101D4000824648F2AC59C2F20009484655468555CC
:101D500001360198050A48468555EBE7140002F064
:101D600097FA28B140F60043C4F2002301229A7585
:101D7000200003B03CBC90469946A246AB46F0BD5D
:101D80000C00ECE7F0B5C64600B548F2D873C2F2D5
:101D900000035A6B59691961002A5FD0916847F6B0
:101DA000FF7399424DD948F2D873C2F200035B69C0
:101DB00000251C0047F6FF720023A4185D4148F27D
:101DC000D878C2F2000843465B689B6998470027B1
:101DD000060043461B69834204D94FF6FF72002375
:101DE000B6185F4148F2D873C2F20003196A0023A3
:101DF0000A0092197B41AB4202D83CD1A2423AD9A7
:101E00008E1948F2D873C2F20003DE6148F2D8732B
:101E1000C2F20003DB694FF6FF721A4205D148F2A5
:101E2000D873C2F200030122DA6148F2D873C2F219
:101E30000003D86980B25B685B69984704BC904630
:101E4000F0BD916848F2D873C2F200035B690025C7
:101E50001C0000230A00A4185D41B0E748F2D873C3
:101E6000C2F200035B6900251C0047F6FF720023E5
:101E7000A4185D41A3E748F2D873C2F20003DC6105
:101E8000C4E7F8B548F2D874C2F20004656B636821
:101E90009B6998476061606902F0E6FAA66AE76AA2
:101EA0000023020092197B41A262E362002D5BD005
:101EB00048F2D874C2F200043022A35C0133A35468
:101EC00001F0B1FF646B44B1A36833B90125002769
:101ED00048F2D876C2F2000613E048F20845C2F292
:101EE0000005002400261FE0E06901F0EBFEE36836
:101EF0000BB120699847746B002CEED0A368002BBF
:101F0000EBD125756575A37813B9E368002BEBD188
:101F1000200001F011FAA378002BE8D16770E6E702
:101F200001342035052C17D0630148F20841C2F274
:101F300000018C4663445B7D002BF1D06301634458
:101F40005E75AB78012BEBD1620162446B689360E4
:101F5000280000F012F8E3E748F2D873C2F2000359
:101F600030215A5C013A5A5402F059FC0400FFF740
:101F700009FF200002F057FCF8BDF0B5DE465746D9
:101F80004E464546E0B585B08146002856D048F219
:101F9000D873C2F20003596B83689A4661B18B68AB
:101FA0005246039240F200089A4549D3002200238A
:101FB0008B460092019308E0836048F2D873C2F226
:101FC00000035863012032E0E3465E46B668340001
:101FD0000025009A019B12196B41009201935E4605
:101FE000B669B44696B16646B66800210F00009AFD
:101FF000019BB6185F4147452BD8E5D1039B9E4214
:10200000E2D960465946009A019B01E030005946EA
:102010004C46A0618C61002051468A1A4B469A605A
:102020009B6923B14A4691689A68521A9A6005B032
:102030003CBC90469946A246AB46F0BD0020F6E770
:1020400048F2D873C2F20003586381610022012074
:10205000E2E760465946009A019BD9E7F0B5D646BB
:102060004F464646C0B54EF20013CEF2000340F292
:1020700024301A581202120AC02109060A431A50C3
:1020800080225A6040F22832985840F2FF0C644691
:10209000A043C0273843985040F200105860985829
:1020A000244E30404CF200052843985040F2002066
:1020B00058609858204CA14620408046C02000041B
:1020C0008246444604439C50D8325A6040F230382D
:1020D00042469A581202120A0A4344461A51802272
:1020E00012035A6040F234329C58604684432743BE
:1020F0009F5080277F035F609F583E4035439D502F
:102100008025AD035D609D584C462C4050462043D1
:1021100098508020C003586098580002000A01437C
:102120009950802212045A601CBC90469946A246DF
:10213000F0BDC046FF00FFFFFFFF00FFF0B583B01A
:1021400005000C001700019308AB1E7801F016FC87
:10215000002851D048F2D873C2F200031B785BB25A
:10216000022B06D00124644202F0C8F8200003B01C
:10217000F0BDDCB3AC423CD348F20843C2F20003EA
:102180001B7853B11E4B0122197859B1013220330B
:10219000052AF9D101246442E6E7002248F2084307
:1021A000C2F2000301211970002159701975597587
:1021B0009E705C60DF6001991961651B9D6048F647
:1021C0005A11C2F2000109884FF6FF7002400C0458
:1021D0001443DC61013189B2814205D048F65A12BC
:1021E000C2F200021180BFE70121F7E70124644237
:1021F000BAE701246442B7E701246442B6E7C04667
:1022000028840020F0B5C64600B582B040F60045EF
:10221000C4F20025012748F29474C2F20004072694
:1022200048F2AC51C2F2000112E05A009046885CBC
:102230008446684662468271424601328A5CC271B7
:10224000013314E06B4606331B78AB62237DE3B9A0
:102250002B7E3B4235D0A268E3689A422BD06A6855
:102260003240012AE1D0C85C6A469071013322698C
:10227000934292411340E3606B683340012BE1D1FC
:102280006B4606331B88AB62E0E702F09DF92368DA
:10229000002BC5D06168237F33B1A3699842BFD3B7
:1022A000236803209847BBE7A3699842B8D1236805
:1022B00003209847B4E740F60043C4F2002301220C
:1022C0001A7502B004BC9046F0BD70B50D0000292F
:1022D00054D0002855D148F2D874C2F200043823F3
:1022E0000122E2540B686360DB689847E0600026D7
:1022F000A0220023002101F085FB46F60042C0F237
:10230000DC22002301F062FC0222002380185941E4
:1023100020620423EB56237226614FF6FF73A361FC
:102320005B08E36100220023A262E362666330235C
:10233000E65441F68360C0F2040063681B68002124
:10234000984763681A690AB1208B904748F2D8749D
:10235000C2F20004E06980B263685B699847636811
:102360005B68984748F20840C2F20000A0220021B2
:1023700002F076F902232370200070BD0120404254
:10238000FBE701204042F8E70D0A0A2A2A2A2A2AF6
:102390002A2A2A2A2A2A2A2A2A2A2A2A2A2A2A2A9D
:1023A0002A2A2A2A2A2A2A2A2A2A2A2A2A2A2A2A8D
:1023B0002A2A2A2A2A2A2A2A2A2A2A2A2A2A2A2A7D
:1023C0002A2A2A2A2A2A2A2A2A2A2A2A2A2A2A2A6D
:1023D0002A2A2A2A0D0000000D0A0A202020202087
:1023E00020202020202020202020202020202020ED
:1023F000546865726D6F73746174204E6F646520EC
:1024000031202020202020202020202020202020BB
:1024100020202020202020202020202020202020BC
:1024200020202020202020202020202020202020AC
:10243000202020202020202020202020202020209C
:102440000000C046F8B540F60046C4F20026042756
:1024500048F29474C2F2000417E0226A12B3616A6F
:10246000236A01209847A36A0133226B9342924169
:10247000134017E0A16AEDB248F22C52C2F20002FA
:102480005554A3623423E35C0BBB337E3B4235D00F
:10249000B56AA36A0133226B934292411340E26A08
:1024A0009A42DAD0E26A9A42EFD0716807220A4073
:1024B000012ADFD1A26A5200E8B248F22C51C2F2DE
:1024C000000188540132ADB22D0A8D54D9E701F0D4
:1024D000F1FE236A002BD8D0616A3C23E35C33B160
:1024E000A36B9842D1D3236A00209847CDE7A36B12
:1024F0009842CAD1236A00209847C6E7F8BD7047C2
:1025000040F60043C4F2002340F20412C4F2100269
:102510001A60284A9A81C02292025A6040F600420C
:10252000C4F20022D369002BFCD140F60043C4F270
:1025300000231A6802210A431A6040F60042C4F2DE
:102540000022D369002BFCD148F29473C2F200033D
:1025500000221A629A62DA6234215A5408315A54BB
:102560009A630021DA871A609A60DA601975197720
:102570009A6140F60043C4F200235A6807231340CF
:10258000012B0FD048F29473C2F2000380221A6329
:102590001A6140F60043C4F2002380229A757C3A07
:1025A0009A75704748F29473C2F2000340221A638E
:1025B0001A61EEE72BF6FFFFF0B5D6464F464646CA
:1025C000C0B504000D009246984644F2D827C0F2E8
:1025D0000407FE6801E07B689847B0470028FAD1FD
:1025E0002900200001F08CFB002544F2D827C0F21E
:1025F000040703E00120FB6998470135B047040058
:102600000028F7D0412DF5D9002544F2D827C0F293
:10261000040748F29069C2F2000904E07B68984719
:102620004B46E8540135B0470028F7D1A84518D1EA
:10263000E5B148F29063C2F200031A7853461B7862
:102640009A420ED1002348F29066C2F2000601338E
:102650009D4205D0995D5246D25C9142F7D000E090
:1026600020001CBC90469946A246F0BD2000F8E729
:1026700000B583B048F64413C2F200031B781BB1C7
:10268000012B2BD003B000BD43F60500C0F20400BF
:10269000002102F05AF848F64013C2F2000348F64F
:1026A0005511C2F2000102220092013A4F2001F0BE
:1026B0002DFA44F63900C0F20400012340F6B83286
:1026C000002100F0D1FF01F03DFE01F0CFFD48F602
:1026D0004413C2F2000301221A70D3E748F60E1326
:1026E000C2F200031B78002BCCD048F65913C2F27B
:1026F00000031A7848F65713C2F200031B7893427E
:102700000BD048F65713C2F200031A7048F6501364
:10271000C2F2000307221A70B4E748F65013C2F25F
:10272000000308221A70ADE710B588293AD014DCEE
:1027300081294AD003DC802947D0002010BD82299E
:1027400010D08429F9D119682AB30A1D1A60002211
:102750008B5E0360DB17436010E0A0292ED00FDCF6
:102760009029EAD1196807246AB30919A1430A001C
:1027700008321A600B684C68036044600120DDE792
:10278000C02901D0F029D8D11A68111D1960136829
:1027900003600023DFE70C1D1C600B689BB2036025
:1027A0004260EBE7196822B10A1D1A600023CB567C
:1027B000CFE70C1D1C600B68DBB2F0E71A68111D37
:1027C00019601368C5E70731D0E719681AB10A1D07
:1027D0001A600B68BDE70C1D1C600B68DFE7F0B5E5
:1027E0004B6889B005930B6807009C460793CB683C
:1027F0000C008E6810685168CD0F0493002D41D0F5
:102800000B000200002150429941059B002B07DB81
:10281000022263469343079315B9079B5A0728D5AD
:10282000731E07AA02920A22009301920B00020073
:10283000200000F0E3FB15B9079B5A071DD50138AE
:102840002D2305B9023B049A135423695A1E049B95
:10285000121A1918079B38000093330000F01CFB74
:102860007B68DB0503D56368984200DA180009B07D
:10287000F0BD1B07DB0FF31AD3E71B07E5D50138C3
:102880002023E0E7059B002BC2DAC6E7F0B585B050
:1028900001AD43F63874C0F20404C0CCC0C524882E
:1028A0002C8048F65804C2F20004532525700B3DD5
:1028B00065700F35A5702B3DE57059B10024065D9C
:1028C00048F65805C2F2000565192E710134E5B2CB
:1028D000A942F4D80C1DE4B2A3B10531C8B248F640
:1028E0005801C2F200012C250D55002148F658046C
:1028F000C2F200040519545C6C540131CCB29C4204
:10290000F9D30400E418E1B248F65800C2F200001E
:102910000D2343540131C9B201F0F2F944F2D82336
:10292000C0F20403DB6940F2F41098470A2101A8C1
:1029300000F053F805B0F0BDF0B5D6464F46464618
:10294000C0B5844648F29472C2F20002D36A966A15
:1029500000293DD0B3423ED00400012040F6004A99
:10296000C4F2002A40F2070848F22C55C2F20005D2
:1029700015E0EA5C91466246013A4F46175401332E
:1029800048F29472C2F20002126B934292411340D9
:10299000884212D2421C0234B3420FD01000524679
:1029A000526847463A40012AE3D15A00AF5C27708B
:1029B0000132AA5C62700133E2E71E0048F29473B0
:1029C000C2F20003DE621CBC90469946A246F0BDEE
:1029D0001E000800F2E70020F0E7F0B5D6464F46AB
:1029E0004646C0B580468946002544F2D827C0F245
:1029F0000407FE6803E00120FB6998470135B047F2
:102A000004000028F7D0412DF5D9002544F2D82A3A
:102A1000C0F2040A48F29067C2F2000704E053468D
:102A20005B689847E8550135B0470028F7D1A945BC
:102A300018D1E5B148F29063C2F200031A78434618
:102A40001B789A420ED1002348F29066C2F200062B
:102A500001339D4205D0995D4246D25C9142F7D048
:102A600000E020001CBC90469946A246F0BD200024
:102A7000F8E741F60003C4F2002301221A6041F690
:102A80000002C4F20022D369002BFCD141F60003FE
:102A9000C4F2002340F200125A6041F60002C4F270
:102AA0000022D369002BFCD141F60003C4F20023BD
:102AB000E822DA60D23AC0F210021A6041F600024F
:102AC000C4F20022D369002BFCD141F60003C4F20A
:102AD000002310225A8341F60002C4F20022D36977
:102AE000002BFCD148F69803C2F2000300222121FA
:102AF0005A5401395A5441F60003C4F200239B3260
:102B00009A75704710B548F66223C2F200031B782D
:102B10003BB901F013FE48F22A53C2F200031880B9
:102B200010BD48F66223C2F2000300221A7048F674
:102B30005313C2F200034F321A7048F64014C2F227
:102B400000044D3A21004F2000F0C0FF23781B0203
:102B50006078184300B2C01101F0DCFC00220023B1
:102B6000C3F6E073FEF78FFE48F65914C2F2000474
:102B700001F0FCF900B2C3001B18052093FBF0F331
:102B80002033237048F65813C2F2000301221A7052
:102B9000BFE7F0B5C64600B5160048F65803C2F2C6
:102BA000000353221A700B3A5A700A329A70263A6E
:102BB000DA7059B10023C45C48F65802C2F2000230
:102BC0009A1814710133DAB29142F4D848F65800D9
:102BD000C2F200000B1DDBB20D22C2540531C9B296
:102BE00001F08EF844F2D823C0F20403DB6940F20E
:102BF0002C109847002444F2D827C0F20407FB6841
:102C0000984605E035197B68984728700134E4B28E
:102C1000C0470028F6D1013004BC9046F0BDF0B5A5
:102C20001600050002278369426987B00293D31A10
:102C300003939B1904910596019302AC3A0021007D
:102C4000286801F0FFFA019B984208D1AB68EA6856
:102C5000AB619A18AA626B61300007B0F0BD002822
:102C60000CDA102200236968AB620A43AB616B6126
:102C70006A60022F12D06368F61AEDE7019B1B1AF7
:102C800001936368984202D9C01A0834013F23684F
:102C90001B1823606368181A6060CFE71E00DBE72B
:102CA000F7B51E4C256801942B0065B10022290060
:102CB000160013000F68BC460F6984450AD132B173
:102CC00017610B0010331800FEBD3900F2E7019BBD
:102CD0001F60F6E7844503D9D3B11C68A44517D318
:102CE0000A00002FF1D1002BEDD01F001A681969DE
:102CF000121A1037102A05D918603818016101001E
:102D0000103A02609D4206D1019B19603B00DAE750
:102D100016000B00E4E73161F8E7C0463C8900206B
:102D200030B585B00D0001AA43F63873C0F2040334
:102D300012CB12C21B88138048F65803C2F200035C
:102D400050221A700D3A5A70173A9A705DB10023EA
:102D5000C45C48F65802C2F200029A18D4700133DB
:102D6000DAB29542F4D8291DC9B248F65800C2F229
:102D700000000335EDB20D234355033B435400F0EF
:102D8000BFFF44F2D823C0F20403DB6940F2E8300D
:102D900098470A2101A8FFF720FE05B030BD30B5E5
:102DA00085B00D0001AA43F63873C0F2040312CBBC
:102DB00012C21B88138048F65803C2F20003502247
:102DC0001A7003325A70273A9A705DB10023C45CBE
:102DD00048F65802C2F200029A18D4700133DAB2EF
:102DE0009542F4D8291DC9B248F65800C2F2000035
:102DF0000335EDB20D234355033B435400F080FFF0
:102E000044F2D823C0F20403DB6940F2E83098476B
:102E10000A2101A8FFF7E1FD05B030BDF8B5846ACD
:102E200005000F00160054B1AB6A6A699B1AB342E1
:102E30000CD2320039002800FFF7F1FE05E001F066
:102E4000B7FB03002000002BEED0F8BD002EF0D021
:102E50002B0034331B785BB2002B1BDB3400DBB25E
:102E6000621EB95C994212D1220039002800FFF796
:102E7000D6FEA042E9D33F19341B2200390068690D
:102E800001F00CFC6B6930001C196C61DDE714006B
:102E9000002AE5D13400F0E7F0B51D00012389B028
:102EA00014000E9A06001A40039102920AB9A54234
:102EB0000AD822000399300000F07CFFA54203D815
:102EC0002500280009B0F0BD2F1B01973A00102FF4
:102ED00000D91022202104A801F0C2FB019B0F2B76
:102EE0000ED80F2204A93A40300000F063FF029B85
:102EF000002BE6D122000399300000F05BFFE0E7F1
:102F0000102204A9300000F055FF019B103B0193F3
:102F1000E4E7704710B548F69803C2F200030022B8
:102F20009A61DA6141F60003C4F200239B321A76FB
:102F30005A68144C22405A6041F60002C4F2002242
:102F4000D369002BFCD1A9B148F69803C2F2000363
:102F5000202203249C544000084341F60003C4F29D
:102F60000023586241F60002C4F20022D369002B0C
:102F7000FCD110BD48F69803C2F2000320220424BD
:102F80009C54E8E7FFFFFBFF30B585B001AA43F68C
:102F9000C013C0F20403103330CB30C21B8813803F
:102FA00048F61803C2F2000353221A70053A5A7009
:102FB000223A9A7001B30023C45C48F61802C2F2A8
:102FC00000029A18D4700133DAB29142F4D80B009F
:102FD00048F61800C2F20000DA1CD2B20D24845464
:102FE0000433DBB20A22C2540531C9B20A2301AA52
:102FF000FFF7E2FA05B030BD0B00E9E7F7B50400D2
:1030000019000A9FE368666800933B68100001930B
:103010002369013B1C00002E00DA01260022009DDE
:10302000EA5435000123002C02DCE3B12000FEBD90
:1030300002000A434AB9002D07DC089A921B521974
:10304000002AF2DD019A9207EFD5099B099ADB1756
:1030500000F0BCFD8C460099013C130030320A554B
:10306000013D6146DFE710233A689A433A60DDE7A5
:1030700010B50C00632829D8203801F04BFA41F62E
:103080007242C7F2C7124CF21C73C3F6E173FEF72B
:10309000FAFB00F06BFF48F62812C2F20002106043
:1030A0000A2190FBF1F030302070136893FBF1F0AF
:1030B0008100091849005B1A30336370116844F2CB
:1030C000E410C0F2040001F091F910BD44F2CC10FC
:1030D000C0F2040001F08EF8F7E710B584291FD084
:1030E00007DC812915D0822922D0802911D0002027
:1030F00010BD90291CD008DC8829F8D119680C1D56
:103100001C600B6803601A7010E0A02901D0C02970
:10311000EDD119680C1D1C600B6803601A6005E096
:1031200019680C1D1C600B6803601A800120DFE722
:1031300019680C1D1C600B6803601A60D2175A6076
:10314000F4E743F60003C4F2002301221A7043F6A9
:103150000002C4F200220121138C0B42FCD146F282
:103160002003C0F280031B681A0240F200710A407B
:103170009B065B0F1A4343F60003C4F200239A85B3
:1031800002225A7001325A7300229A7004321A8154
:103190005A8107229A7143F60002C4F20022138C6E
:1031A0009BB2002BFBD1704710B540F60043C4F230
:1031B00000235B8B0722134003B910BD48F29472C1
:1031C000C2F20002D38740F60043C4F200238022FB
:1031D0001A76793A5A831B7E5B0708D540F600437E
:1031E000C4F2002304219A6A1A7E0A42FBD148F2F3
:1031F0009473C2F200031B6A002BDED048F2947372
:10320000C2F20003596A1B6A02209847D5E710B53D
:1032100040F60043C4F200239B7D1BB340F60042FE
:10322000C4F20022137EDBB2927D52B2002A1ADB76
:1032300040F60043C4F200231A7ED2B29B7DDB0726
:1032400003D5D30701D5FEF7DDFF40F60043C4F2F6
:1032500000231A7ED2B29B7D5B0703D5530701D5AD
:10326000FFF7F0F810BD5BB2002BE1DAFFF79CFF2F
:10327000DEE710B548F66013C2F200031B68186859
:10328000002101F027FA48F64423C2F200031B682C
:103290001868002101F01EFA00F064FAFFF730F917
:1032A000FFF7E7FBFFF74DFF01F05DF900F058F97C
:1032B00044F63001C0F204010020FFF706F848F69A
:1032C0001413C2F20003186001F05BFA01F060FA17
:1032D000FEF7C4FE10BD7FB51600C2680D001300D6
:1032E0000091591E8B41F31A0193836804000392E5
:1032F000694602220068029300F090FF002808DC73
:10330000182208230240534062681343636006009A
:103310000FE0019B8342FAD2A268C01AE36810183A
:10332000E26320642BB1531CE3631378AD19013DB4
:103330002B70300004B070BD10B5010048F2D87396
:10334000C2F200035A6B12B3824204D183699BB16B
:10335000002206E01A009369DBB19942FAD18B6929
:1033600023B18C689868001998603AB18B699361B1
:10337000002000238B6110BD1A00F6E748F2D873D5
:10338000C2F200035A6B92695A630120F1E70020F0
:10339000F1E70020EFE730B589B001AA43F63873B2
:1033A000C0F204030C33110031CB31C131CB31C138
:1033B0001B680B6048F65800C2F2000053230370EC
:1033C0000D3B43701A3B83700633C370253B03717A
:1033D000033B437112330621FFF7EEF8040044F279
:1033E000D823C0F20403DB69FA209847200009B013
:1033F00030BDFEE700230E4A10B513600D4A0E4C97
:1034000013600E4A13600E4A13600E4A13600E4A90
:10341000536213610133936001F088F900F00DFEEF
:103420000A4B9C4200D310BD08CC9847F8E7C04631
:103430003489002050870020680104004C87002058
:103440004487002048870020548700206C01040036
:1034500037B5144D04002B6873B100F0D7FF01900D
:1034600001A801F0DDF80F230F309843019901F016
:103470005FF858B100232B6004B901340F230F34D7
:103480009C4324B90C222000074B1A603EBD042C3B
:1034900000D204242000FFF703FC0028F6D0031F0D
:1034A0001C60F3E76C8A00203889002070B50400A6
:1034B00000F064FA28B3200000F03EFA0400F0B1F6
:1034C000437800259BB983680BB94368836048F251
:1034D000D873C2F2000330229B5C63B9200000F075
:1034E0006BF800232375637501336370002500F0CA
:1034F00005FF280070BD2000FEF73FFDF1E7012524
:10350000F5E70125F5E770B504000D0008B90020C6
:1035100070BD43689B0607D543698269934215D8FD
:103520000023A362A3616361E16B236C994204D21F
:10353000C91A0122206801F0A1F900232364E36382
:10354000002DE4D0206801F08BF9E1E70022C36A86
:10355000110098476369002BE2D101204042D7E770
:1035600041F60043C4F2002301221A6041F60042F2
:10357000C4F20022012113691942FCD141F6004333
:10358000C4F2002310221A600D3A1A73094A9A8372
:1035900033229A7248F6F802C2F20002002111604A
:1035A00020225A7241F60042C4F200221369002B15
:1035B000FCD170477FBBFFFFF0B583B0019048F2AC
:1035C000D874C2F2000463689B69984760616069BF
:1035D00000F04AFF050000F026FC01F020F9A66A81
:1035E000E76A00232A0092197B41A262E36201F09C
:1035F0001AF90198FEF7C1FC08B903B0F0BD01F05B
:103600000EF90400FEF7BEFB200001F00CF9F4E710
:1036100010B584B001AA43F63873C0F2040328330E
:10362000110011CB11C1188808809B788B7048F667
:103630005800C2F2000052230370263B437005334A
:103640008370243BC370033B037101330521FEF7F4
:10365000B3FF040044F2D823C0F20403DB69FA206C
:103660009847200004B010BD70B582B005000E0070
:103670001C0003B900B322B901246442200002B047
:1036800070BD48F2D873C2F20003D868002300214D
:1036900000F0B8F940F2E832002300F097FA010098
:1036A000009433002A000020FEF748FD0400431C6C
:1036B000E4D0FFF7FBFEE1E701246442DEE710B54A
:1036C00043F60373C0F20403984743F60373C0F252
:1036D0000403984700F0B2FC40F20003C0F2040378
:1036E0007F2293434EF60052CEF20002936043F2E3
:1036F000F533C0F20403984743F60373C0F20403A2
:10370000984743F60373C0F20403984700F0C6FCE1
:10371000FEE7F8B505000C00002015B300F067FBCC
:10372000D4B1002041F20002C4F200220421072695
:1037300005E0976A4300EF52013084420DD0137EBA
:103740000B42FCD0538B334207D153683340012BDB
:10375000EFD0936A2B54EFE72000201A44426041D7
:10376000C0B2F8BD41F20003C4F2002340F20412DB
:10377000C4F210021A600E4A9A81C02292025A6064
:1037800041F20002C4F20022D369002BFCD141F2C5
:103790000003C4F200231A6802210A431A6041F2AE
:1037A0000002C4F20022D369002BFCD17047C0464E
:1037B0002BF6FFFF70B512B34B1C0978561E441C44
:1037C000017071B182181900801906E00D78061B8E
:1037D000631C2570013135B11C00A242F6D12000D6
:1037E00070BD230004009A190021002EF7D0197033
:1037F00001339A42FBD1002CF1D11400EFE7040011
:10380000EDE7C04610B500F080FF48F62C13C2F279
:1038100000031860A0B948F65313C2F200031B78E6
:103820004F2B06D048F66223C2F2000301221A7021
:1038300010BD48F65613C2F2000301221A70F1E7D8
:1038400044F21C73C0F204030100180000F0CEFD26
:10385000EEE7FEE7F0B50F00150087B003900722F2
:103860000E4904A81C0000F019FFBB687E68029393
:103870003F6805B904AD1CB9280000F081FE0400C2
:10388000002E02DBB44200D934000097029B2200D4
:1038900029000398FFF700FB07B0F0BD584804006B
:1038A00070B5040016001D00022A1AD043689B065A
:1038B00017D439B90DB940F2004528000830FFF798
:1038C000C7FD010020236268A160134363602300E9
:1038D000E5603433FF22012E00D10A221A70024B18
:1038E000E362002070BDC0461D2E040037B56B4654
:1038F000DD1D836A0400297063B16369A26A934283
:103900000FD3E36A0122290020009847012805D13E
:10391000287805E000F04CFE0028EED0012040425F
:103920003EBD220034321278287852B29042E8D05C
:103930005A1C62611870F3E70200431E033319D862
:103940004FF6FF730340042B16D8590148F2084084
:10395000C2F2000084466144C969002091420AD144
:1039600048F20842C2F2000259018A5C1AB162466A
:10397000881800E0002070470020FCE710B548F2EE
:10398000D873C2F2000330229B5C012043B948F295
:10399000D873C2F2000308329B5C0020012B00D0D8
:1039A00010BD48F2D874C2F2000437330022E2544A
:1039B0000820205600F02AF93123E0540120EFE7D7
:1039C000434D443E20000000454E440D0A000000D7
:1039D000414F4B0D0A434D443E2000005265626F3B
:1039E0006F74696E670D0A005265626F6F742061B3
:1039F0006674657220466163746F727920526573D4
:103A000065740D0AF7B597B201933B00140C86B2AA
:103A1000050C73436F4366436543F6191C0CA419E8
:103A20009C46A74202D980235B02ED186346260C10
:103A3000751924049EB2019BA419434320005143ED
:103A40005B19591803B0F0BD70B5D0B1D9B10025DC
:103A500041F20002C4F200220124072605E06B00B7
:103A6000C35A93620135A94209D0137E2342FCD088
:103A700053683340012BF2D0435D9362F2E701209B
:103A800070BD0020FCE70120FAE7FEE710B5054C09
:103A9000227832B9044B13B1044800E000BF01237F
:103AA000237010BDC488002000000000000000004A
:103AB000034B10B51BB10349034800E000BF10BD24
:103AC00000000000C88800200000000010B50400BD
:103AD00048F69803C2F2000320201B5C002003B1CB
:103AE00010BD48F69803C2F200039C80D9605A6169
:103AF00000229A601A61012199701A7020315A547B
:103B000020392000FFF706FA0120E9E770B505002B
:103B100048F69804C2F200042020245C002004B17E
:103B200070BD48F69804C2F20004A580E360049BCF
:103B30006361A16022610023A37023702122A3543A
:103B400000212800FFF7E6F90120E9E741F60043EC
:103B5000C4F200235A7980210A435A7141F6004287
:103B6000C4F200227C3913691942FCD141F60042AB
:103B7000C4F200221F2153798B43002BFBD141F665
:103B80000043C4F20023988A80B27047F0B50F78E2
:103B9000D7B10678BEB104002000B74205D06678E0
:103BA0008EB101342000B742F9D14B7863B1667809
:103BB0009E42F5D101230133CA5C2AB1E55C9542EE
:103BC000F9D00134EEE70020F0BDC046002B11D142
:103BD000002A0FD1002900D1002802D00021C943BA
:103BE000081C07B4024802A14018029003BDC04659
:103BF000890C000003B4684601B50298FDF72EF960
:103C0000019B9E4602B00CBC7047C04670B50500D3
:103C100000F04EFD0024002D13DB6B094EF2001165
:103C2000CEF200019A0054581F221540EC401E3A73
:103C30001440AA4020339B005A50BFF34F8FBFF36C
:103C40006F8F00F03EFD200070BD030010B51A78A4
:103C5000202A0DD011000939042909D900212B2A65
:103C600002D02D2A01D10131013300200A2404E0C1
:103C70000133ECE760430133801A1A78303A092A9D
:103C8000F8D901B9404210BD10B541F60043C4F265
:103C900000235B7AABB141F60043C4F20023987A6B
:103CA000C0B233229A7248F6F803C2F200031B68CE
:103CB0003BB130B148F6F803C2F2000359681B6803
:103CC000984710BD10B50400FFF758FEB0B12000B2
:103CD000FFF732FE040078B1437843B9002323751F
:103CE00063752370002400F009FB200010BDFFF76E
:103CF00023FB00236370F1E70124F4E70124F4E7D8
:103D0000F0B5C64600B580460E00002444F2D82720
:103D1000C0F20407BD6801E0B44209D2A8470028F8
:103D2000FAD04346185D3B6898470134E4B2F3E7A4
:103D3000A8470028FCD004BC9046F0BD0B004968A1
:103D400010B50200890603D4190000F043F910BD34
:103D5000190034310978C0B249B2814207D059699B
:103D60009C6AA14203D24C1C5C610A70EFE711000F
:103D70001800FFF7BBFDEAE71C2101231B04984252
:103D800001D3000C10391B0A984201D3000A0839EC
:103D90001B09984201D30009043902A2105C4018A3
:103DA0007047C04604030202010101010000000047
:103DB00000000000436870B50400D80511D52569DE
:103DC000954200D915005DB12A00606900F066FCDB
:103DD000226963695B19551B0022636125611A70B2
:103DE00070BDDB06FCD4200000F07DFCF8E741F25A
:103DF0000003C4F200235B8B5B0713D041F2000386
:103E0000C4F2002380221A76793A5A831B7E5B071C
:103E100008D541F20003C4F2002304219A6A1A7EF5
:103E20000A42FBD1704748F2D873C2F200035B6BC1
:103E300073B168B1002105E09A68801A99609B69A6
:103E400033B128B19A688242F6D39A68101A986002
:103E500048F2D873C2F200035A691A61704710B56C
:103E60000378303B1B014278303A1343DBB248F60B
:103E70004C14C2F2000423708278303A1201C078E8
:103E800030380243D2B2627098001B185B00103ABF
:103E90009B180B7010BD30B592B148F2D473C2F2CA
:103EA00000031B684418801841181B0225782B4317
:103EB00001348C42F9D148F2D472C2F2000213608C
:103EC00048F2D473C2F20003186830BD70B544F2F2
:103ED000D824C0F2040465690120A847E4690120E0
:103EE000A0470020A847C820A04744F2D824C0F229
:103EF0000404E568A84710B163689847FAE7013001
:103F000070BD7047444953434F4E4E4543540000E3
:103F100053545245414D5F4F50454E004F54415F01
:103F2000524551004F54415F5354415254000000D8
:103F3000434F4E4E45435400414F4B0D0A434D44B1
:103F40003E2000005265626F6F7420616674657276
:103F500020466163746F72792052657365740D0A2F
:103F60005265626F6F74696E670D0A00F4464A18F5
:103F700005D200F0ACF801D5C01740086047012316
:103F80005B05D34206D200F0A2F801D50120C0079C
:103F90004042604701D10042F5D0D0174008704739
:103FA00070B5040000200A4B4200D55C15B9D21848
:103FB000507870BD216801300E78C0B2AE4204D195
:103FC000034B0131D218507821600A28EBD9F0E771
:103FD0000A46040013B50B006A46D41D5A68C1B2E4
:103FE0002170D20505D55A69C0B2541C5C611170AC
:103FF00016BD01222100180000F075FB08B12078E1
:10400000F6E701204042F3E700B583B043F6C01362
:10401000C0F204031A6800921B796A46137148F6CD
:104020001800C2F2000024230370437083701F3B0A
:104030000321FEF7C1FA03B000BD704710B509486F
:10404000016811B9436803B910BD04008368064ACA
:104050009BB20C349B009B5842682000984780001C
:104060002018EDE72C0704004C460400064B1A68A4
:104070000AB9064A1A60064A116809B90549116069
:104080001A68054B1A607047E8880020788A00207B
:10409000E4880020788C0020E088002010B5002003
:1040A000FFF7E7F842F28834C0F20404200000F081
:1040B000A1F842F2D830C0F2040000F097F92000D5
:1040C00000F098F800F085FBFCE74A0010D2520D92
:1040D00003231B02FF33D21A0AD452421F3209D4DF
:1040E000400DC90208430123DB071843D040704745
:1040F00000207047D017704770B5084C0500236842
:104100000BB9FFF7B3FF064A206812684519AA42A7
:1041100001D3256070BD01204042FBE7E08800200C
:10412000E4880020002380290FDB812901DD832919
:104130000BD10721136807338B4319000831116035
:104140001A685B6802604360012318007047020030
:1041500000234832D356591E0B4313700423426880
:1041600013402BB11023134343600120404270479A
:104170000364C3631800FAE770B5140016000A0060
:104180004E430D00511E8A4152421440010032003C
:10419000180000F0A8FA864201D0B0FBF5F4200028
:1041A00070BD030078B1002001290BD948F6181220
:1041B000C2F20002136048F64213C2F20003013952
:1041C0001970013070470020FCE770470D0A496EF6
:1041D00076616C69642054656D7065726174757286
:1041E000650D00000D0A54656D70203A256420436A
:1041F0000000C04610B5084C2368196800F0C4F8E8
:104200000123002805DB23680A20196800F01CFB45
:10421000C30F584210BDC046448A0020F7B50025A0
:1042200007000C002E000192019B9E4201DB28003A
:10423000FEBD62682168380000F0F8F801362D18DC
:104240000834F1E7F7B5002507000C002E000192B5
:10425000019B9E4201DB2800FEBD62682168380098
:1042600000F03CF901362D180834F1E743F600035D
:10427000C4F200231A7E02210A431A7643F6000292
:10428000C4F2002240F20041138C0B42FCD1704773
:1042900048F29472C2F200029068D368984201D347
:1042A000C01A704748F29472C2F2000212691018E4
:1042B000C01AF6E748F29472C2F20002D36A906A1A
:1042C000834201D8C01A704748F29472C2F20002C9
:1042D000126B1018C01AF6E70F48040007480400D4
:1042E0001748040067470400FF24040067430400E4
:1042F000132F040037460400B516040010B548F229
:10430000D874C2F200043123E15C0820205600F08A
:104310009CF83023E35C13B938220121A15410BD6D
:10432000A2010400D401040044020400C6030400F6
:104330003E0404002404040066050400AE050400E5
:104340002006040043F60003C4F200231A78022179
:104350000A431A7043F60002C4F20022138C9BB287
:10436000002BFBD1704738B143F20003C4F20003C5
:10437000942210219950704743F20003C4F20003C5
:10438000982210219950F6E770B50E00050000F054
:10439000F7F833000400020001212800FFF7ECFECB
:1043A000001B431E9841404270BD41F60043C4F2D9
:1043B00000231A6802210A431A6041F60042C4F23F
:1043C000002213691942FCD1704741F60043C4F240
:1043D00000231A6802218A431A6041F60042C4F29F
:1043E000002213691942FCD1704770470FB407B51A
:1043F000054B04AA1B6802CA1868019200F0CCF8A9
:1044000003B008BC04B01847448A002010B5054C1E
:1044100022680AB9FFF72AFE034B18682368C01AFE
:1044200010BDC046E0880020E488002010B50300DD
:104430000C00002043B9180032B101212000FFF721
:1044400068F90028F9D0012010BD61B100280ADB0D
:1044500043091F2210401E3A82404EF20011CEF254
:1044600000019B005A50704748F2D873C2F2000313
:104470001B69834201D2C01A7047C01A80235B02B5
:104480009C466044F8E7002310B5934206D1032010
:104490001840421E90419B08C01810BDC45CCC540B
:1044A0000133F2E741F60043C4F20023988341F65A
:1044B0000042C4F20022402113691942FCD1704726
:1044C00041F60043C4F20023D88341F60042C4F20F
:1044D0000022802113691942FCD1704770B50D008C
:1044E0001400012801D0200070BD21002800FFF732
:1044F000ABFA0028F9D0F6E759470400AB430400B3
:10450000CB430400EB470400A5440400C14404006D
:104510004D3B040044F24D53C0F20403004206D563
:10452000404200B5984708BC0122D2071143184702
:10453000054A10B5146800231CB9106003610160BE
:104540000133180010BDC0463C89002040F21D42D6
:10455000010007D002D4013A0018FCD51205C30AA5
:1045600040059918704743F20003C4F2000340F27B
:0E4570001812802109039950090299507047D2
:10458000037833B1030001331A78002AFBD1181ADB
:1045900070470020FCE7C04613B50400019201AA51
:1045A000FCF7C4FA6368DB0601D50120404216BD62
:1045B00010B50400FFF7CBFD28B9A368E268A3613A
:1045C00063619B18A36210BD10B548F29473C2F2E8
:1045D00000031C69FFF75CFE013C201A10BD10B5FA
:1045E00048F65414C2F2000401212000FEF7A4F999
:1045F000207810BD00B583B06B46D8710733012118
:104600001800FDF72FFB03B000BD68076C094C8351
:104610006A9074A07AC00080688800846C820081EF
:10462000006810B5002801DA002010BDFFF764FD16
:10463000431CFAD1F8E738B14BF68033584318B130
:0A4640000138C0460028FBD1704786
:10464C00F9460400874404006748040067480400E6
:10465C006748040032B10300C9B2821819700133E3
:10466C009342FBD17047C04610B500F0EBF8024BFB
:10467C001860586010BDC0460089002010B5034B6F
:10468C001B68196800F0DAF810BDC046448A002097
:10469C0010B52AB10023CC5CC45401339342FAD137
:1046AC0010BDC046EFF3108072B6BFF35F8F43426C
:1046BC005841C0B2704718B1BFF35F8F62B67047F4
:1046CC0072B6BFF35F8FFAE74A424A4110B5520007
:1046DC0040F20043FFF7DEF810BDC36A10B50BB112
:1046EC00984710BD0068FFF7F3FEFAE78A1891426D
:1046FC0001D10020704700230B700131F7E748F619
:0E470C009803C2F200032122985CC0B27047ED
:10471C000D0A4572726F72203A3078257800C046C7
:10472C0010B5FFF7A1FFFFF74AFDFFF748FD10BDDD
:10473C0043F60003C4F20023988C80B2704748F60D
:10474C009803C2F2000358629962704748F6F80366
:10475C00C2F2000318605960704710B5FFF7A4FD52
:10476C00431E9841C0B210BD10B500F042F8434250
:10477C005841C0B210BD48F65013C2F200030022DB
:10478C001A70704748F64413C2F2000300221A70E4
:10479C0070470300413B192B01D820231843704765
:1047AC000300613B192B01D85F231840704748F672
:1047BC004B13C2F200031878704748F6F703C2F2A5
:1047CC0000031878704710B5FBF7D6FCFDF74AFFCD
:1047DC0010BD10B50400FEF7E7FF200010BD46F633
:1047EC000040C0F2DC20704710B50068FFF770FE87
:1047FC0010BD10B5FFF746FD10BD10B5FFF7E9FE73
:10480C0010BD10B5FFF7F0FE10BD10B5FFF7ACFFF3
:10481C0010BD10B5FFF746FF10BD10B5FFF74BFFED
:02482C0010BDBD
:10483000F84404003700000010B5FEF763F910BD1E
:10484000286E696C2900250010B5FFF777FA10BDB6
:0F48500000487047C8890020286E756C6C2900DD
:104860000120404270470020704700207047002020
:06487000704700207047B4
:084878007047C04600207047A4
:0200000400807A
:1040000077438FB0BBF0FFFF0024FFE700FFFFFF07
:104010000000000002000000D84000000000000086
:04402000B67376E815
:0CC00000FFFF07F00000E8FFCC9A34C0FE
:10C01000FFFFFFFFFFFFFFFFFFFFFFFFFFFFFFFF30
:10C02000FFFFFFFFFFFFFFFFFFFFFFFFFFFFFFFF20
:10C03000FFFFFFFFFFFFFFFFFFFFFFFFFFFFFFFF10
:10C04000FFFFFFFFFFFFFFFFFFFFFFFFFFFFFFFF00
:10C05000FFFFFFFFFFFFFFFFFFFFFFFFFFFFFFFFF0
:10C06000FFFFFFFFFFFFFFFFFFFFFFFFFFFFFFFFE0
:10C07000FFFFFFFFFFFFFFFFFFFFFFFFFFFFFFFFD0
:10C08000FFFFFFFFFFFFFFFFFFFFFFFFFFFFFFFFC0
:10C09000FFFFFFFFFFFFFFFFFFFFFFFFFFFFFFFFB0
:10C0A000FFFFFFFFFFFFFFFFFFFFFFFFFFFFFFFFA0
:10C0E000FFFFFFFFFFFFFFFFFFFFFFFFFFFFFFFF60
:10C0F000FFFFFFFFFFFFFFFFFFFFFFFFFFFFFFFF50
:00000001FF
