:020000040000fa
:020000040800f2
:10000000f0ff11207923000ce737000c0739000cb2
:10001000bf42000c7f43000ca345000c0000000011
:100020000000000000000000000000000942000c79
:10003000833e000c00000000f131000c4d3d000c2f
:10004000fb2d000cfb2d000cfb2d000cfb2d000ce0
:10005000fb2d000cfb2d000cfb2d000cfb2d000cd0
:10006000fb2d000cfb2d000cfb2d000cfb2d000cc0
:10007000fb2d000cfb2d000cfb2d000cfb2d000cb0
:10008000fb2d000cfb2d000cfb2d000cfb2d000ca0
:10009000fb2d000cfb2d000cfb2d000cfb2d000c90
:1000a000fb2d000cfb2d000cfb2d000cfb2d000c80
:1000b000fb2d000cfb2d000cfb2d000cfb2d000c70
:1000c000fb2d000cfb2d000cfb2d000cfb2d000c60
:1000d000fb2d000cfb2d000cfb2d000cfd3e000c3d
:1000e000d53e000cad3e000c853e000cfb2d000cf7
:1000f000fb2d000cfb2d000cfb2d000cfb2d000c30
:10010000fb2d000cfb2d000cfb2d000cfb2d000c1f
:10011000fb2d000cfb2d000cfb2d000c350d000cf5
:10012000350d000c350d000c350d000c350d000c97
:10013000350d000c350d000c8934000c8934000c91
:100140008934000c8934000c8934000c8934000c8b
:100150008934000cfb2d000cfb2d000cfb2d000c3a
:10016000fb2d000cfb2d000cfb2d000cfb2d000cbf
:10017000fb2d000cfb2d000cfb2d000cfb2d000caf
:10018000fb2d000cfb2d000cfb2d000cfb2d000c9f
:10019000fb2d000cfb2d000cfb2d000cfb2d000c8f
:1001a000fb2d000cfb2d000cfb2d000cfb2d000c7f
:1001b000fb2d000cfb2d000cfb2d000cfb2d000c6f
:1001c000fb2d000cfb2d000cfb2d000cfb2d000c5f
:1001d000fb2d000cfb2d000cfb2d000cfb2d000c4f
:1001e000fb2d000cfb2d000cfb2d000cfb2d000c3f
:1001f000fb2d000cfb2d000cfb2d000cfb2d000c2f
:10020000fb2d000cfb2d000cfb2d000cfb2d000c1e
:10021000fb2d000cfb2d000cfb2d000cfb2d000c0e
:10022000fb2d000cfb2d000cfb2d000cfb2d000cfe
:10023000fb2d000c4d3f000cfb2d000cfb2d000c8a
:10024000fb2d000cfb2d000cfb2d000cfb2d000cde
:10025000fb2d000cfb2d000cfb2d000cfb2d000cce
:10026000fb2d000cfb2d000cfb2d000cfb2d000cbe
:10027000fb2d000cfb2d000cfb2d000cfb2d000cae
:10028000fb2d000cfb2d000cfb2d000cfb2d000c9e
:10029000fb2d000cfb2d000cfb2d000cfb2d000c8e
:1002a000fb2d000cfb2d000cfb2d000cfb2d000c7e
:1002b000fb2d000cfb2d000cfb2d000cfb2d000c6e
:1002c000fb2d000cfb2d000cfb2d000cfb2d000c5e
:1002d000fb2d000cfb2d000cfb2d000cfb2d000c4e
:1002e000fb2d000cfb2d000cfb2d000cfb2d000c3e
:1002f000fb2d000cfb2d000cfb2d000cfb2d000c2e
:10030000fb2d000cfb2d000cfb2d000cfb2d000c1d
:10031000fb2d000cfb2d000cfb2d000cfb2d000c0d
:10032000fb2d000cfb2d000cfb2d000cfb2d000cfd
:10033000fb2d000cfb2d000cfb2d000cfb2d000ced
:10034000fb2d000cfb2d000cfb2d000cfb2d000cdd
:10035000fb2d000cfb2d000cfb2d000cfb2d000ccd
:100360000000000000000000fb2d000cfb2d000c25
:10037000fb2d000cfb2d000cfb2d000cfb2d000cad
:10038000fb2d000cfb2d000cfb2d000cfb2d000c9d
:10039000fb2d000cfb2d000cfb2d000cfb2d000c8d
:1003a000fb2d000cfb2d000cfb2d000cfb2d000c7d
:0803b000fb2d000cfb2d000cdd
:020000040000fa
:020000040a00f0
:040000000100fefffe
:020000040000fa
:020000040a00f0
:04002000ffffffffe0
:020000040000fa
:020000040a00f0
:0400400000000000bc
:020000040000fa
:020000040a00f0
:04004400ffffffffbc
:020000040000fa
:020000040a00f0
:0400480001000000b3
:020000040000fa
:020000040a00f0
:04004c00410400006b
:020000040000fa
:020000040a00f0
:04005400ffff0000aa
:020000040000fa
:020000040a00f0
:040058007000000034
:020000040000fa
:020000040a00f0
:04005c00020000009e
:020000040000fa
:020000040a00f0
:04006000000000009c
:020000040000fa
:020000040a00f0
:040064000202000094
:020000040000fa
:020000040a00f0
:04008000ffffffff80
:020000040000fa
:020000040a00f0
:0400a000ffffffff60
:020000040000fa
:020000040a00f0
:04200000000000c01c
:020000040000fa
:020000040a00f0
:042004000100feffda
:020000040000fa
:020000040a00f0
:04200800ffffffffd8
:020000040000fa
:020000040a00f0
:04208000ffffffff60
:020000040000fa
:020000040a00f0
:04208400ffffffff5c
:020000040000fa
:020000040a00f0
:04208800ffffffff58
:020000040000fa
:020000040a00f0
:04208c00ffffffff54
:020000040000fa
:020000040a00f0
:04209000ffffffff50
:020000040000fa
:020000040a00f0
:04209400ffffffff4c
:020000040000fa
:020000040a00f0
:04209800ffffffff48
:020000040000fa
:020000040a00f0
:04209c00ffffffff44
:020000040000fa
:020000040a00f0
:0420a000ffffffff40
:020000040000fa
:020000040a00f0
:0420a400ffffffff3c
:020000040000fa
:020000040a00f0
:0420a800ffffffff38
:020000040000fa
:020000040a00f0
:0420ac00ffffffff34
:020000040000fa
:020000040a00f0
:0420b000ffffffff30
:020000040000fa
:020000040a00f0
:0420b400ffffffff2c
:020000040000fa
:020000040a00f0
:0420b800ffffffff28
:020000040000fa
:020000040a00f0
:0420bc00ffffffff24
:020000040000fa
:020000040a00f0
:0420c000ffffffff20
:020000040000fa
:020000040a00f0
:0420c400ffffffff1c
:020000040000fa
:020000040a00f0
:0420c800ffffffff18
:020000040000fa
:020000040a00f0
:0420cc00ffffffff14
:020000040000fa
:020000040a00f0
:0420d000ffffffff10
:020000040000fa
:020000040a00f0
:0420d400ffffffff0c
:020000040000fa
:020000040a00f0
:0420d800ffffffff08
:020000040000fa
:020000040a00f0
:0420dc00ffffffff04
:020000040000fa
:020000040a00f0
:0420e00006070000ef
:020000040000fa
:020000040a00f0
:0420e40004cf0f0016
:020000040000fa
:020000040a00f0
:0420e80006f70401f2
:020000040000fa
:020000040a00f0
:0420ec00863a000030
:020000040000fa
:020000040a00f0
:0420f000ff030000ea
:020000040000fa
:020000040a00f0
:0420f4003f000000a9
:020000040000fa
:020000040a00f0
:0420f800bf00000025
:020000040000fa
:020000040a00f0
:0420fc00ffffffffe4
:020000040000fa
:020000040a00f0
:04210000ffffffffdf
:020000040000fa
:020000040a00f0
:04211000ffffffffcf
:020000040000fa
:020000040a00f0
:04211400ffffffffcb
:020000040000fa
:020000040a00f0
:04211800ffffffffc7
:020000040000fa
:020000040a00f0
:04211c00ffffffffc3
:020000040000fa
:020000040a00f0
:04212000ffffffffbf
:020000040000fa
:020000040a00f0
:048000000000ffff7e
:020000040000fa
:020000040a00f0
:04802000ffffffff60
:020000040000fa
:020000040a00f0
:0480400044000000f8
:020000040000fa
:020000040a00f0
:04804400ffffffff3c
:020000040000fa
:020000040a00f0
:048048000100000033
:020000040000fa
:020000040a00f0
:04804c0041040000eb
:020000040000fa
:020000040a00f0
:04805400ffff00002a
:020000040000fa
:020000040a00f0
:0480580070000000b4
:020000040000fa
:020000040a00f0
:04805c00020000001e
:020000040000fa
:020000040a00f0
:04806000000000001c
:020000040000fa
:020000040a00f0
:048064000202000014
:020000040000fa
:020000040a00f0
:04808000ffffffff00
:020000040000fa
:020000040a00f0
:0480a000ffffffffe0
:020000040000fa
:020000040a00f0
:04a00000000000c09c
:020000040000fa
:020000040a00f0
:04a004000000ffff5a
:020000040000fa
:020000040a00f0
:04a00800ffffffff58
:020000040000fa
:020000040a00f0
:04a08000ffffffffe0
:020000040000fa
:020000040a00f0
:04a08400ffffffffdc
:020000040000fa
:020000040a00f0
:04a08800ffffffffd8
:020000040000fa
:020000040a00f0
:04a08c00ffffffffd4
:020000040000fa
:020000040a00f0
:04a09000ffffffffd0
:020000040000fa
:020000040a00f0
:04a09400ffffffffcc
:020000040000fa
:020000040a00f0
:04a09800ffffffffc8
:020000040000fa
:020000040a00f0
:04a09c00ffffffffc4
:020000040000fa
:020000040a00f0
:04a0a000ffffffffc0
:020000040000fa
:020000040a00f0
:04a0a400ffffffffbc
:020000040000fa
:020000040a00f0
:04a0a800ffffffffb8
:020000040000fa
:020000040a00f0
:04a0ac00ffffffffb4
:020000040000fa
:020000040a00f0
:04a0b000ffffffffb0
:020000040000fa
:020000040a00f0
:04a0b400ffffffffac
:020000040000fa
:020000040a00f0
:04a0b800ffffffffa8
:020000040000fa
:020000040a00f0
:04a0bc00ffffffffa4
:020000040000fa
:020000040a00f0
:04a0c000ffffffffa0
:020000040000fa
:020000040a00f0
:04a0c400ffffffff9c
:020000040000fa
:020000040a00f0
:04a0c800ffffffff98
:020000040000fa
:020000040a00f0
:04a0cc00ffffffff94
:020000040000fa
:020000040a00f0
:04a0d000ffffffff90
:020000040000fa
:020000040a00f0
:04a0d400ffffffff8c
:020000040000fa
:020000040a00f0
:04a0d800ffffffff88
:020000040000fa
:020000040a00f0
:04a0dc00ffffffff84
:020000040000fa
:020000040a00f0
:04a0e000060700006f
:020000040000fa
:020000040a00f0
:04a0e40004cf0f0096
:020000040000fa
:020000040a00f0
:04a0e80006f7040172
:020000040000fa
:020000040a00f0
:04a0ec00863a0000b0
:020000040000fa
:020000040a00f0
:04a0f000ff0300006a
:020000040000fa
:020000040a00f0
:04a0f4003f00000029
:020000040000fa
:020000040a00f0
:04a0f800bf000000a5
:020000040000fa
:020000040a00f0
:04a0fc00ffffffff64
:020000040000fa
:020000040a00f0
:04a10000ffffffff5f
:020000040000fa
:020000040a00f0
:04a11000ffffffff4f
:020000040000fa
:020000040a00f0
:04a11400ffffffff4b
:020000040000fa
:020000040a00f0
:04a11800ffffffff47
:020000040000fa
:020000040a00f0
:04a11c00ffffffff43
:020000040000fa
:020000040a00f0
:04a12000ffffffff3f
:020000040000fa
:020000040c00ee
:10000000f8b500bff8bc08bc9e467047f939000c33
:10001000f8b500bff8bc08bc9e467047d539000c47
:020000040000fa
:020000040c00ee
:0800200070080000010000005f
:020000040000fa
:020000040c00ee
:1000280054a302201c0000000000000070a202205f
:10003800380000000000000004a102206000000059
:1000480000000000e4a302200c00000000000000f3
:1000580008a302202c00000000000000a8a2022033
:100068003000000000000000fca30220080000008f
:1000780000000000d8a202203000000000000000ac
:1000880000a00220a00000000000000004a402203c
:100098000c0000000000000034a302202000000033
:1000a80000000000f8a102203c0000000000000051
:1000b800f0a302200c0000000000000064a402204d
:1000c8000400000001000000aaaaaaaa10a40220a5
:1000d80004000000000000000000022000a0000052
:1000e8000000000014a4022010000000000000001e
:1000f800a0a00220640000000000000024a4022048
:10010800140000000000000070a302202800000076
:100118000000000038a402201000000000000000c9
:1001280098a30220140000000000000048a4022048
:100138000400000000000000aca30220280000001a
:10014800000000004ca4022008000000000000008d
:1001580068a4022004000000010000000400000060
:10016800b4a10220440000000000000034a20220d4
:100178003c00000000000000d4a302201000000092
:100188000000000054a40220080000000000000045
:1001980064a1022050000000000000005ca40220be
:1001a800080000000000000000000000b803000084
:1001b80001000000f0ff11207923000ce737000c44
:1001c8000739000cbf42000c7f43000ca345000c0c
:1001d8000000000000000000000000000000000017
:1001e8000942000c833e000c00000000f131000cb5
:1001f8004d3d000cfb2d000cfb2d000cfb2d000cc5
:10020800fb2d000cfb2d000cfb2d000cfb2d000c16
:10021800fb2d000cfb2d000cfb2d000cfb2d000c06
:10022800fb2d000cfb2d000cfb2d000cfb2d000cf6
:10023800fb2d000cfb2d000cfb2d000cfb2d000ce6
:10024800fb2d000cfb2d000cfb2d000cfb2d000cd6
:10025800fb2d000cfb2d000cfb2d000cfb2d000cc6
:10026800fb2d000cfb2d000cfb2d000cfb2d000cb6
:10027800fb2d000cfb2d000cfb2d000cfb2d000ca6
:10028800fb2d000cfb2d000cfb2d000cfb2d000c96
:10029800fd3e000cd53e000cad3e000c853e000c2a
:1002a800fb2d000cfb2d000cfb2d000cfb2d000c76
:1002b800fb2d000cfb2d000cfb2d000cfb2d000c66
:1002c800fb2d000cfb2d000cfb2d000cfb2d000c56
:1002d800350d000c350d000c350d000c350d000cde
:1002e800350d000c350d000c350d000c8934000c53
:1002f8008934000c8934000c8934000c8934000cd2
:100308008934000c8934000cfb2d000cfb2d000ceb
:10031800fb2d000cfb2d000cfb2d000cfb2d000c05
:10032800fb2d000cfb2d000cfb2d000cfb2d000cf5
:10033800fb2d000cfb2d000cfb2d000cfb2d000ce5
:10034800fb2d000cfb2d000cfb2d000cfb2d000cd5
:10035800fb2d000cfb2d000cfb2d000cfb2d000cc5
:10036800fb2d000cfb2d000cfb2d000cfb2d000cb5
:10037800fb2d000cfb2d000cfb2d000cfb2d000ca5
:10038800fb2d000cfb2d000cfb2d000cfb2d000c95
:10039800fb2d000cfb2d000cfb2d000cfb2d000c85
:1003a800fb2d000cfb2d000cfb2d000cfb2d000c75
:1003b800fb2d000cfb2d000cfb2d000cfb2d000c65
:1003c800fb2d000cfb2d000cfb2d000cfb2d000c55
:1003d800fb2d000cfb2d000cfb2d000cfb2d000c45
:1003e800fb2d000cfb2d000c4d3f000cfb2d000cd1
:1003f800fb2d000cfb2d000cfb2d000cfb2d000c25
:10040800fb2d000cfb2d000cfb2d000cfb2d000c14
:10041800fb2d000cfb2d000cfb2d000cfb2d000c04
:10042800fb2d000cfb2d000cfb2d000cfb2d000cf4
:10043800fb2d000cfb2d000cfb2d000cfb2d000ce4
:10044800fb2d000cfb2d000cfb2d000cfb2d000cd4
:10045800fb2d000cfb2d000cfb2d000cfb2d000cc4
:10046800fb2d000cfb2d000cfb2d000cfb2d000cb4
:10047800fb2d000cfb2d000cfb2d000cfb2d000ca4
:10048800fb2d000cfb2d000cfb2d000cfb2d000c94
:10049800fb2d000cfb2d000cfb2d000cfb2d000c84
:1004a800fb2d000cfb2d000cfb2d000cfb2d000c74
:1004b800fb2d000cfb2d000cfb2d000cfb2d000c64
:1004c800fb2d000cfb2d000cfb2d000cfb2d000c54
:1004d800fb2d000cfb2d000cfb2d000cfb2d000c44
:1004e800fb2d000cfb2d000cfb2d000cfb2d000c34
:1004f800fb2d000cfb2d000cfb2d000cfb2d000c24
:10050800fb2d000cfb2d000cfb2d000cfb2d000c13
:10051800fb2d000c0000000000000000fb2d000c6b
:10052800fb2d000cfb2d000cfb2d000cfb2d000cf3
:10053800fb2d000cfb2d000cfb2d000cfb2d000ce3
:10054800fb2d000cfb2d000cfb2d000cfb2d000cd3
:10055800fb2d000cfb2d000cfb2d000cfb2d000cc3
:10056800fb2d000cfb2d000cfb2d000c00000000e7
:1005780000000000666666666666666666666666ab
:020000040000fa
:020000040c00ee
:100588002de9f041aeb006461546059100270599bc
:100598000b78002b00f0fa8000244ff0ff33cde9f0
:1005a80009430eab0c9380230b940d930b5d0bb199
:1005b800252b26d134b12246304603f03bfd059b5e
:1005c80023440593059b1a78252a40f0d78003f128
:1005d8000108cdf81480059803782b2b1ad025d85c
:1005e800202b1bd0232b1dd02a2b27d003f064f9f6
:1005f8000b90059b1a78303a092a2ed801330593b7
:10060800f7e70134d2e7099b43f00103013009936e
:100618000590e0e7099b43f00403f7e7099b43f0e3
:100628000803f3e7099b43f01003efe72d2bead00b
:10063800302bd9d1099b43f00203e7e72b681a1d39
:100648001b682a600130002b05900b9305da099a84
:100658005b4282f0010209920b93099bda0744bfbf
:1006680023f002030993059b1a782e2a0dd1002244
:10067800581c0a9205905a782a2a25d102330593e4
:100688002b681a1d1b682a600a9305a803f038fa1c
:10069800059b0390187803f0a0ff6928039979d087
:1006a80032dc632800f0cb8019dc252800f0d980e3
:1006b800612853d000234ff0ff32cdf814800993fe
:1006c8000b930a920093d4e003f0f6f80a90059b86
:1006d8001a78303a092ad8d801330593f7e76428fd
:1006e80058d06728e6dc2a4606a803f09dfb0028b8
:1006f80000f0a180059b5a1c05921b7806aa09a93f
:10070800304603f0f0ff38e0702873d015dc6e280f
:1007180000f08c806f28cdd12b46002206a801f06e
:1007280081ff002800f08780059b06aa013309a9ec
:100738003046059303f0d5ff1fe075283ad0782896
:1007480048d07328b6d1802975d1059b2a68013312
:100758000593131d2b60126800237de02a4606a826
:1007680003f062fb002866d0059b5a1c05921b7893
:1007780006aa09a9304603f0b6ff04443c44a74240
:100788007add3e4b4f221a604ff0ff3738462eb0c5
:10079800bde8f0812b46012206a801f043ff00289e
:1007a80049d0059b06aa013309a93046059301f0f3
:1007b8008fffe2e72b46002206a801f033ff00284e
:1007c80039d0059b06aa013309a93046059303f0e1
:1007d80088ffd2e72b46002206a801f023ff50b37a
:1007e800059b5a1c05921b7806aa09a9304603f0f6
:1007f8007affc2e72b460022f02106a801f012ff7b
:10080800c8b1059b01330593dde9062313430bd1da
:100818001b4803f0edfd099b009319490b9b024609
:10082800304602f0e7f9a8e77823dde72b463a19c6
:1008380006a802f0a0fa059b013305939ee78029dc
:10084800f9d1059b013305932b681a1d1b682a6093
:100858008df8183006aa012309a9304603f045ff90
:100868008be78029e7d1059b01330593099b00930a
:100878000b9b04490122d3e7274688e660a402209f
:08088800d846000cde46000c0e
:020000040000fa
:020000040c00ee
:100890002de9f04f099f154604468e461e46002b53
:1008a00040f0cc808a42b2fa82fc4cd9bcf1000ff5
:1008b0000bd0ccf1200801fa0cfe20fa08f802fa5d
:1008c0000cf548ea0e0e00fa0cf44fea15491ffa2f
:1008d00085f8befbf9fa210c09fb1ae30afb08fbb9
:1008e00041ea03439b452ad9eb180af1ff3004d2b1
:1008f0009b4502d9aaf102002b44a3eb0b03a4b23f
:10090000b3fbf9f209fb123302fb08f844ea034493
:10091000a04516d92c1902f1ff3303d2a04501d905
:10092000931e2c44a4eb080443ea004027b124faa8
:100930000cf400233c607b603146bde8f08f5046ec
:10094000dbe71346eee702b9ffdebcf1000f2ed164
:100950008b1a01264fea154eaab2b3fbfef8210c02
:100960000efb183308fb02f941ea0343994561d9ac
:10097000eb1808f1ff3004d2994502d9a8f1020022
:100980002b44a3eb0903a4b2b3fbfef10efb11331e
:100990004a4344ea0344a2424ed92c1901f1ff33e1
:1009a00003d2a24201d98b1e2c44a41abce7ccf17d
:1009b000200e02fa0cf521fa0ef901fa0cf320fad6
:1009c0000efe4eea03034fea154800fa0cf4b9fb99
:1009d000f8f11ffa85fe08fb1192180c01fb0ef6c8
:1009e00040ea0242964221d9aa1801f1ff3003d20f
:1009f000964201d9881e2a44921b9bb2b2fbf8f999
:100a000008fb192209fb0efe43ea02439e450fd95b
:100a1000eb1809f1ff3604d29e4502d9a9f102066e
:100a20002b44a3eb0e0346ea004693e70846e3e7b0
:100a30004e46f6e74046a4e70b46b6e78b4206d99a
:100a4000002f7ed00026c7e90001304674e7b3fad4
:100a500083fcbcf1000f0fd18b4201d3824209d835
:100a6000841a61eb030e0120002f6dd0c7e9004e00
:100a7000002661e76046f7e7ccf1200e03fa0cf39d
:100a800022fa0ef521fa0ef41d4301fa0cf320fab6
:100a90000ef10b434fea154a00fa0cf6b4fbfaf9d3
:100aa0001ffa85f80afb19401c0c09fb08f144eaff
:100ab0000044a14202fa0cf23fd92c1909f1ff308f
:100ac00004d2a14202d9a9f102002c44641a9bb2bb
:100ad000b4fbfaf90afb194409fb08f843ea04419c
:100ae00088452cd9691809f1ff3304d2884502d909
:100af000a9f10203294443ea0040a1eb0801a0fb4d
:100b000002894945c2464c4602d306d1464504d225
:100b1000b8eb020a69eb05040138afb1b6eb0a0382
:100b200061eb040606fa0efe23fa0cf34eea030309
:100b300026fa0cf6c7e900369ae74846c6e74b4660
:0c0b4000d9e73e463846f7e63e46f5e6ab
:020000040000fa
:020000040c00ee
:100b4c002de9f84381460e4698469500284601f05b
:100b5c0041ff00285dd00746542001f03bff0446be
:100b6c00002853d05422002103f0e8fc27632a46c6
:100b7c00a521384603f0e2fc043d236b1d4425f00f
:100b8c0007058eb1337884f8343053b1334604f111
:100b9c0034010f3613f8012f01f8012f0ab1b342bb
:100bac00f8d1002384f84330089b042b28bf04237e
:100bbc001f46e3626364261d304603f08bfd04f18f
:100bcc00180003f087fd2461c7f10503a36164627b
:100bdc0042464946284603f00ff92060099b03b1b1
:100bec001c6003f081fa424a136801331360414bd5
:100bfc001b6893b1404b1b68abb93e4b1b68da6a60
:100c0c00e36a9a420fd83b4b1c600ce0384603f069
:100c1c006cfd4ff0ff30bde8f883364b1c60344b55
:100c2c001b68012b36d0354a136801331360e36a15
:100c3c003349086801229a4002430a60314a03eba7
:100c4c00830302eb83035b68a3609968e1604e60e9
:100c5c009e60e06a81000b189b00d5186561014409
:100c6c0052f821100131d15003f040fc224b1b688b
:100c7c00002b39d01f4b1b68da6ae36a9a4235d2d3
:100c8c00214b4ff080521a60bff34f8fbff36f8f21
:100c9c000120c0e71b4d284603f0d5fb05f11400dd
:100cac0003f0d1fb05f1280003f0cdfb05f13c006e
:100cbc0003f0c9fb05f1500003f0c5fb134f384698
:100ccc0003f0c1fb124d284603f0bdfb114803f0a5
:100cdc00bafb114803f0b7fb104803f0b4fb104b00
:100cec001f60104b1d609ee7012094e7012092e7e6
:100cfc0024a4022018a4022048a4022030a402201c
:100d0c0034a40220a0a0022004ed00e070a3022075
:100d1c0084a3022098a30220c0a30220aca302202b
:080d2c001ca4022020a40220f7
:020000040000fa
:020000040c00ee
:100d34004ff08c439b7d002b00f0df8010b56f4b90
:100d44009c6a4ff08c435b8b13f0020f16d06b4bf5
:100d5400ff2283f82020022283f82120674b93f896
:100d640020305bb2b3f1ff3f00f09280634b93f805
:100d740020305bb2062b00f0a68010bd4ff08c43f0
:100d84005b8b13f0010f07d05c4bff2283f820200c
:100d9400022283f82120e1e74ff08c435b8b13f0b0
:100da400040f07d0554bff2283f82020012283f83b
:100db4002120d3e7514b93f820305bb2032b45d06d
:100dc400042b10d0022bc9d14c4b1b692bb14b4bbc
:100dd4009888002102f022fcc0e7484b9888012142
:100de40002f01cfcbae7454a936912699a420cd096
:100df400424a9268d15c4ff08c429162591cd3698b
:100e0400002bfcd13d4b9961a8e73c4b5b697bb15e
:100e14003a4b9b885b0043f001034ff08c425362d2
:100e2400d369002bfcd1354b032283f8202095e7ae
:100e34004ff08c42536843f440335360d369002b22
:100e4400fcd12e4b062283f8202087e72b4bd9694f
:100e54005b69013b8b420dd04ff08c42d369002b70
:100e6400fcd14ff08c43986a244bda68505401311a
:100e7400d96173e74ff08c42536843f4e023536025
:100e8400d369002bfcd11d4b062283f82020e3e715
:100e94001a4b002283f820204ff08c42536843f40d
:100ea40040335360d369002bfcd14ff08c439b2219
:100eb4001a76124b5b6a002b3ff45faf0f4b5b6af1
:100ec4002046984759e70d4b002283f8202083f8e9
:100ed40021204ff08c439b221a761a46538b03f041
:100ee4003003102bfad1054b5b6a002b3ff445af5e
:100ef400024b5b6a204698473fe7704708a30220ed
:020000040000fa
:020000040c00ee
:100f04002de9f84f584b1b68002b40f0a680574b37
:100f14001c6801341c60b4b1554b1b68a3421fd933
:100f24000020544b1b68db6a03eb8303524a52f8dc
:100f34002330022b28bf0120504b1b68002b18bf05
:100f44000120bde8f88f4e4a11684e4b18681060b6
:100f540019604d4a13680133136003f045f8dbe769
:100f64000020474d8346494e4ff0010c424adff8ba
:100f7400048143e03e4b4ff0ff321a60d1e73c4b13
:100f84001960cee7d968c9f804104ee0196ac9f8a7
:100f94000410c3f828b0d9f800100139c9f80010ba
:100fa400d96ad6f800a00cfa01f949ea0a09c6f888
:100fb400009001eb810102eb810149689960d1f84d
:100fc4000890c3f80c90c9f804e0c1f808e0d3f81d
:100fd4002c904fea890101eb090e02eb8e0ac3f84b
:100fe40014a052f82e10013142f82e10d8f800e067
:100ff400d96adef82c30994288bf01202b681b681f
:10100400002bb7d02b68db68db6859688c42b6d3f9
:10101400d3f81490d9689f68b9609f684f6003f152
:10102400040ed9f804107145acd0c3f814b0d9f843
:1010340000100139c9f80010d3f82890b9f1000f55
:10104400aed0196adf69b960df694f6003f1180a2d
:10105400d9f8041051459cd198e70d4a136801331f
:10106400136000206de700bf2ca402204ca40220d2
:101074003ca4022018a40220a0a0022050a4022014
:101084001ca4022020a4022040a4022034a4022094
:0410940044a402204e
:020000040000fa
:020000040c00ee
:101098002de9f04703f02af8514b1a68013a1a6013
:1010a8001b68002b40f095804e4b1b684bb9002401
:1010b80090e0196acef8041020e0d968cef8041040
:1010c8002fe0002348481d46484c0126484adff8cf
:1010d8002ca1dff824c10168002957d0c368db6858
:1010e800d3f828e0d9691f6a8f60196adf694f60f1
:1010f80003f11808def804104145dad09d62def8e5
:1011080000100139cef80010d3f814e0d9689f68b0
:10111800b9609f684f6003f10408def80410414588
:10112800cbd05d61def800100139cef80010d96a25
:10113800d4f8009006fa01fe4eea090ec4f800e061
:1011480001eb810102eb810149689960d1f808e05f
:10115800c3f80ce0cef80480c1f80880d3f82ce07e
:101168004fea8e0101eb0e0802eb8809c3f81490d0
:1011780052f82810013142f82810daf80010c96a2c
:10118800df6a8f42a7d9ccf80060a4e70bb102f060
:1011980029ff184b1c686cb1174e012501e0013c72
:1011a80005d0fff7abfe0028f9d03560f7e7114b03
:1011b80000221a60104b1c6864b1104b1b68104b5e
:1011c8004ff080521a60bff34f8fbff36f8f012427
:1011d80000e0002403f08cf92046bde8f08700bf4a
:1011e8002ca4022024a4022098a3022034a40220c4
:1011f800a0a0022044a4022050a4022018a4022087
:0412080004ed00e011
:020000040000fa
:020000040c00ee
:10120c002de9f04184b0044601914ff000084646a8
:10121c004546504f49e0013ba36323684bb123691a
:10122c005bb903f063f94ff00108404604b0bde828
:10123c00f08103f065f9a060f1e704f1100000f013
:10124c00cffd0028edd0434b4ff080521a60bff316
:10125c004f8fbff36f8fe4e703f048f94ff00008ae
:10126c00e3e702a803f0aaf829e084f8445032e03e
:10127c0084f8455035e002f037ffa06800f058ffc5
:10128c00804603f033f93ce0204601f033fdfff7d4
:10129c00fdfe09e0204601f02dfdfff7f7fe20468c
:1012ac0003f0dcf8002840d1012602f01dffa36bef
:1012bc00002bb0d1019b002bced0002ed1d003f04f
:1012cc0015f903f079f902f00fff94f844305bb292
:1012dc00b3f1ff3fc9d094f845305bb2b3f1ff3f97
:1012ec00c6d003f003f901a902a802f00df80028fa
:1012fc00d0d1204603f0b2f80028c5d02368002bcb
:10130c00b9d0019904f1240002f0f0ff204601f05d
:10131c00f1fcfff7bbfe0028c6d14ff080533b60b9
:10132c00bff34f8fbff36f8fbee7b8f1000f3ff4e1
:10133c007caf02f0d9fe616a19b1236b1968c1f157
:10134c000501a06801f066fa03f0d0f84ff0000830
:08135c006be700bf04ed00e0a7
:020000040000fa
:020000040c00ee
:101364002de9f04f83b08a46914698469df838405f
:1013740002f038fa002800f08c800646012c0ed0ca
:10138400082c18bf022c0cbf012500251cd1b8f174
:10139400000f02d0b9f1000f07d1002510e00d9b1a
:1013a400002b78d00c9b002b75d0376807f12c0be1
:1013b4004ff0ff31584602f054ff012814d00025a5
:1013c400284603b0bde8f08fb9fa89f35b09b8f198
:1013d400000f08bf0123002bf2d10d9a12b10c9a11
:1013e400002ae2d11d46ebe7002373717e62ba69dd
:1013f400f3689a4207d03b695b69002106f10c004f
:101404009847f368bb61022c23d0042c2ad0012c0a
:101414000dd03b691b69984770717379002b33d1e8
:10142400002587f82850584602f03efec8e73b697d
:101434001b680d9a0c99504698470028e9d04ff044
:10144400ff3107f1340002f0fdfe012816d000251b
:10145400e9e73b695b68424649465046984700289d
:10146400edd1d6e73b690d9a00929c680c9b4246ed
:1014740049465046a0470028cbd0e0e797f82850cb
:10148400b5fa85f56d09cee7012387f828300025e4
:0a149400c9e7002594e7002592e760
:020000040000fa
:020000040c00ee
:02149e00704795
:020000040000fa
:020000040c00ee
:1014a000002869d108b53f4b1b78002b67d13d4818
:1014b000012202700b6803618b6843614b68836093
:1014c00000234360c362036343700285cb6883617a
:1014d0000b69c3614b6903628b694362cb69c36467
:1014e0000b6a03654b6a43658b6a8365cb6ac36588
:1014f000383002f047fe002844d02b4802f042fe6c
:10150000002842d0294802f03dfe002840d00023a8
:101510001a461946264801f08bff00283bd00023cd
:101520001a461946234801f083ff002836d01d4b88
:101530009869b0f1ff3f13d11a490b695b691e48e6
:101540009847184bd869b0f1ff3f0fd115490b6987
:101550001b681a489847134b02221a73002010e0a8
:101560001a461749c0b202f0abfeeae71a4615491f
:10157000c0b202f0a5feeee74ff0ff3070474ff02b
:10158000ff3008bd4ff0ff30fbe74ff0ff30f8e7ca
:101590004ff0ff30f5e74ff0ff30f2e74ff0ff304c
:1015a000efe700bf04a1022040a1022044a10220d5
:1015b00048a102204ca102209345000c8535000c67
:0815c0008940000c6540000c9d
:020000040000fa
:020000040c00ee
:1015c8002de9f04385b00446884601921d46002760
:1015d800434e3ae02a464146204601f0bffc636a82
:1015e80073b938b13e4b4ff080521a60bff34f8f3a
:1015f800bff36f8f02f07cff012005b0bde8f083d8
:1016080004f1240000f0eefb0028f3d0344b4ff037
:1016180080521a60bff34f8fbff36f8feae702f073
:1016280067ff0020e9e702a802f0cafe1ae00023db
:1016380084f8443022e0002384f8453024e0204632
:1016480001f05afbfff724fd012702f04ffda26bc2
:10165800e36b9a42bed3022dbcd0019b002bded097
:10166800002fe0d002f044ff02f0a8ff02f03efd98
:1016780094f844305bb2b3f1ff3fd8d094f84530ca
:101688005bb2b3f1ff3fd6d002f032ff01a902a846
:1016980001f03cfee0b902f029fdd4f83890e76b80
:1016a80002f026ffb945cad1019904f1100002f0f1
:1016b8001ffe204601f020fbfff7eafc0028c3d1fb
:1016c8004ff080533360bff34f8fbff36f8fbbe78b
:1016d800204601f011fbfff7dbfc00208de700bf7f
:0416e80004ed00e02d
:020000040000fa
:020000040c00ee
:1016ec002de9f8433f4b1a7d93f82c40144384f0ba
:1016fc00010400280cbf002404f0010414b9204696
:10170c00bde8f88305460368002b68d0364a0029eb
:10171c0008bf1146b1eb031f0ad2b1ebc30f46d27f
:10172c0003eb43028a4246d84ff00308042602e03a
:10173c004ff010080026a8fb03894fea09470a4618
:10174c0000234fea084047ea184102f011fbc0f5ac
:10175c008030264a136823f002031360d369002bf0
:10176c00fcd180b2214b98816b68022b27d01f4a89
:10177c0011681f4b0b4043ea463646f080761660e4
:10178c005068ab68e9680b431a4901400b43696820
:10179c000b435360154ad369002bfcd1134a1368d1
:1017ac0043f002031360d369002bfcd1a7e74ff081
:1017bc0008080226bfe74ff000084646bbe70b4a75
:1017cc0011680b4b0b4043ea463616605168ab6808
:1017dc00e868034321f047010b435360dae7002428
:1017ec008de700bfa8a2022080d1f008002000469f
:0817fc00ff1ffff0b8dfffff43
:020000040000fa
:020000040c00ee
:101804002de9f04385b0044688460192002635460a
:10181400dff8fc903be04146204602f08dfc7b1e45
:10182400a36323692bb902f065fe012005b0bde86e
:10183400f08304f1100000f0d7fa0028f3d0344b01
:101844004ff080521a60bff34f8fbff36f8feae7f8
:1018540002f050fe0020e9e702a802f0b3fd20e008
:1018640084f8445029e084f845502ce0204601f0e7
:1018740045fafff70ffc09e0204601f03ffafff7b5
:1018840009fc204602f0eefd00283ed1012602f0bc
:101894002ffca76b002fbed1019b002bd8d0002eac
:1018a400dad002f027fe02f08bfe02f021fc94f85d
:1018b40044305bb2b3f1ff3fd2d094f845305bb211
:1018c400b3f1ff3fcfd002f015fe01a902a801f049
:1018d4001ffd0028d0d1204602f0c4fd0028c5d049
:1018e400019904f1240002f005fd204601f006faf6
:1018f400fff7d0fb0028c9d14ff08053c9f800305e
:10190400bff34f8fbff36f8fc0e700208ee700bf98
:0419140004ed00e0fe
:020000040000fa
:020000040c00ee
:10191800002841d003683b4a002908bf11465800f7
:10192800394a934298bf884294bf0120002000d9c9
:10193800704710b407ee901af8ee677a07ee103a7f
:10194800f8ee476a87eea67adfed306a67eea67a88
:10195800f2ee046a77eea67a77ee677afceee77a1b
:1019680017ee902a2a498b4206d8b2f5ff7f15d880
:10197800012a3ed9540812e0b2f5bf7f3bd2032ab0
:101988003cd954002349a1fb04c46408a1fb0212fa
:10199800520842ea042402e000207047ff241c4a4f
:1019a800934294bf002201224ff08c410b6823f030
:1019b80002030b60cb69002bfcd14ff08c41cc604b
:1019c8000b6823f0407343ea02630b600b6843f033
:1019d80002030b600a46d369002bfcd14ff08c43fd
:1019e80010225a831a46d369002bfcd15df8044ba8
:1019f80070470124d3e74ff67f74d0e740f2012403
:101a0800cde700bf80d1f00840420f0095bfd63324
:081a1800801a0600abaaaaaa7d
:020000040000fa
:020000040c00ee
:101a200010b43c49ca6822f4e0621204120c3a4b2a
:101a30001343cb60bff35f8f62b6e02281f82320af
:101a4000364b83f827238020586083f828234ff4ef
:101a50008070586083f829234ff40070586083f831
:101a60002a234ff48060586083f837234ff4000036
:101a7000586083f838234ff08070586083f839231a
:101a80004ff00070586083f83a234ff08060586040
:101a900083f83b234ff00060586083f83c234ff0fd
:101aa0008050586083f83d234ff00050586083f811
:101ab0003e234ff080445c6083f83f234ff00044a6
:101ac0005c6083f8402301249c6083f84123022456
:101ad0009c6083f8422304249c6083f843230824f9
:101ae0009c6083f8442310249c6083f87d23d86095
:101af0004b6a43f480234b624b6923434b614b6a2f
:101b000043f400334b624b6a43f480334b625df81d
:101b1000044b704700ed00e00000fa0500e100e032
:020000040000fa
:020000040c00ee
:101b2000002861d1394b93f90d30022b5fd1374b2f
:101b30001b7b002b5ed070b50e464ff0ff31344852
:101b400002f091fb002858d0304b1b78002b3cd181
:101b50002e4b5b68002b3ed12c4b9d68002d4fd047
:101b6000da69144693794bb1103200230133ab424a
:101b700046d014461032a0790028f7d10122a27174
:101b8000224a22602671002161715269e26016f0da
:101b9000080f02d01d4a012111701c4a5168013101
:101ba0005160118cdbb243ea0143a360138c013313
:101bb0009bb24ff6ff72934208bf01231348038480
:101bc000303002f073faa06870bd114802f06efa6e
:101bd0004ff0ff30f8e716f0080fbdd00c4802f0c8
:101be00065fa4ff0ff30efe74ff0ff3070474ff0ee
:101bf000ff3070474ff0ff3070474ff0ff30e3e7a2
:101c0000034802f053fa4ff0ff30dde770a20220e4
:041c1000a0a202206c
:020000040000fa
:020000040c00ee
:101c140070b584b0384b1b7883b1374c4ff0ff322a
:101c240004f11001354b1868fff7eafd237c0bb370
:101c3400314b1b7c012b46d004b070bd0321002026
:101c4400fff76cff2c4b5860b0f1ff3f0bd1002124
:101c5400084600f057f8284bd860b0f1ff3fdcd0bd
:101c640001221a70d9e71946254b41f8083f02f0c2
:101c740016fbece794f8423063776369a377022399
:101c840004f11d025321606802f0c0fb58b12646de
:101c9400012553242b460df10f022146706802f0f2
:101ca400b5fb0028f6d0144b93f842300133dbb275
:101cb400042b03d8104a82f84230b9e70e4b0022b5
:101cc40083f84220b4e70c480246002302f81d3f83
:101cd4000523019300f11803009301235321406865
:101ce40002f03ffb0028a7d0034890f842101830b8
:101cf40000f044fca0e700bfb4a1022054a40220d9
:041d0400801a06003b
:020000040000fa
:020000040c00ee
:101d080000285ed1354b93f90c30022b02d04ff0ee
:101d1800ff30704770b50e464ff0ff31304802f083
:101d28009efa002850d02d4b5b78002b3ad12b4bd4
:101d38005b68002b3cd1294b9d68002d47d05a6920
:101d48001446137c4bb1143200230133ab423ed00e
:101d580014461432207c0028f7d1012222741f4a2d
:101d6800226026710022a26016f0080f02d01b4ada
:101d780001215170194a516801315160118ddbb24e
:101d880043ea0143e360138d01339bb24ff6ff72c0
:101d9800934208bf012311480385383002f082f9c5
:101da800e06870bd0e4802f07df94ff0ff30f8e7ab
:101db80016f0080fbfd00a4802f074f94ff0ff3050
:101dc800efe74ff0ff3070474ff0ff30e9e7044886
:101dd80002f068f94ff0ff30e3e700bf04a10220ea
:041de8003ca10220f8
:020000040000fa
:020000040c00ee
:101dec0030b4c368db689a6ad869196a8160d869ab
:101dfc00486003f11800516881423ed0002199627d
:101e0c00116801391160274a1268002a3bd15a69be
:101e1c009868d968816098684860181d516881423b
:101e2c002ed000215961116801391160da6a1e4cfb
:101e3c00256801219140294321601c4902eb820253
:101e4c0001eb820252689a609468dc60606090607a
:101e5c00dc6aa000021992008d185d61204451f8d3
:101e6c00200001308850124a1168da6acb6a9a4213
:101e7c0015d901200f4b186012e0196a5160bde7ab
:101e8c00d9685160cde70c4a5168d9618c681c62e5
:101e9c00606088609a62116801311160e3e700208c
:101eac0030bc70472ca4022034a40220a0a0022035
:0c1ebc0018a4022050a4022098a30220c9
:020000040000fa
:020000040c00ee
:101ec8002d4b01221a612d4ad36943f48023d36133
:101ed800d36813f4806ffbd0294b0c229a64e1225b
:101ee8005a640022da661a46936f13f0400ffbd14a
:101ef800234b8322da64196c40f602220a431a64df
:101f08001a46136913f0807ffbd01e4b02221a6118
:101f18001a46936813f0010ffbd01b4b1b4a1a6239
:101f28001a46536813f0040ffbd1174b184a5a622c
:101f38001a46536813f0080ffbd1134b4122c3f81c
:101f4800d4201a46d2f8d43013f0400ffad00e4bf2
:101f58004122c3f8d8201a46d2f8d83013f0400fdf
:101f6800fad0094b4122c3f8fc201a46d2f8fc30bb
:101f780013f0400ffad070470020044400000244d8
:101f88000000044400200544000005440601010047
:041f9800060102003c
:020000040000fa
:020000040c00ee
:101f9c0010b582b000230193009300eb8002120174
:101fac002b4b13445a6e01921b6e019a43f4c023bf
:101fbc0013400093009b03f001039b00009a12f066
:101fcc00020f18bf43f00803009a12f0040f18bf59
:101fdc0043f01003009a12f0080f18bf43f00103ee
:101fec00009a12f0100f18bf43f02003009a12f061
:101ffc00200f18bf43f04003009a12f4c02f18bff3
:10200c0043f002030199134a0a4032b100eb40023b
:10201c00114901eb820200211172019c00eb80013d
:10202c0009010e4a545000eb400292000a498a58aa
:10203c005bb152b10c464200111804eb81014968a6
:10204c001044800022581846904702b010bd00bfc3
:10205c00000085442a000600e4a3022064008544a5
:020000040000fa
:020000040c00ee
:10206c0030b585b000238df80f302c4b1b78c3b1e5
:10207c004ff47a7001f000fe294b4ff40012c3f8b4
:10208c009c2026480223019300f11803009301239e
:10209c000df10f024b21406802f05ff9e8b905b071
:1020ac0030bd03210020fff735fd1c4b5860b0f10b
:1020bc00ff3f0bd100210846fff720fe174bd860dd
:1020cc00b0f1ff3fd4d001221a70d1e71946154b5d
:1020dc0041f8083f02f0dff8ece7104c04f118006f
:1020ec0000f0c8fd84f838000023237460614ff0c1
:1020fc00ff3204f110010c480068fff75ffa04f19d
:10210c001a0594f938200949284602f019f90246b3
:10211c002946e06800f082f9c1e700bf34a2022032
:10212c0000008444a086010054a40220e043000c6b
:020000040000fa
:020000040c00ee
:10213c00002856d070b50446c26a2b490968c96a92
:10214c008a4245d28169002905db27490968c96a99
:10215c00c1f10501816102eb8202244901eb82028b
:10216c006169914205d0204a1268d26ae26201206c
:10217c0036e0251d284601f0c9ff38b91c490b680b
:10218c00e06a0122824023ea02030b60164b1b68b3
:10219c00db6ae36216490e68012000fa03f232434f
:1021ac000a60124a03eb830302eb83035b68a360b0
:1021bc009968e1604d609d60e56aa9004b199b0030
:1021cc00d6186661294452f821100144d15007e019
:1021dc00054a1268406cd36a98422cbf002001203b
:1021ec0070bd0020704700bf18a40220a0a00220e0
:0421fc0034a40220e5
:020000040000fa
:020000040c00ee
:10220000f8b52d494c6ad1e90623561c43f1000765
:10221000c1e90667002c4dd091f82030013381f8d8
:102220002030a36823b1a368013ba3604c6afcb1d2
:10223000a368ebb9012500271f4e0ae0e06901f011
:1022400045fce3680bb120699847746a84b1a368c0
:1022500073b925756575a37813b9e368002bedd1c3
:10226000204601f003faa378002bead16770e8e773
:10227000124d00242e4603e001342035052c13d0e6
:1022800006eb44135b7d002bf6d006eb44130022d3
:102290005a75ab78012befd16b6806eb44118b605c
:1022a000284600f069fce7e7034a92f82030013b3a
:1022b00082f82030f8bd00bfd8a2022000a0022082
:020000040000fa
:020000040c00ee
:1022c0002de9f04104460e46244b1d68244b1f683f
:1022d000244bd3f80080244b1868043001f01cff15
:1022e00048b9214b1a6821490b68d06a0122824003
:1022f00023ea02030b60b4f1ff3f15d1a6b11c4adb
:102300005168194b1868816018688c68c460186837
:10231000043060601868043088601b685a61136874
:1023200001331360bde8f0812c440f4b1b685c60e7
:10233000a54206d90c4b19680431404601f088fccf
:10234000f0e7094b19680431384601f081fc094b6c
:102350001b68a342e6d9074b1c60e3e74ca40220ac
:102360001ca4022020a4022018a4022034a40220cd
:08237000aca302203ca40220f2
:020000040000fa
:020000040c00ee
:1023780008b5244b9847244b9847eff3108172b661
:10238800224ad2f8883043f47003c2f88830bff389
:102398004f8fbff36f8f01b962b6bff34f8fbff393
:1023a8006f8f1a4c0723c4f89032c4f89432bff3e5
:1023b8004f8fbff36f8f01f07bfc154b23f07f032a
:1023c800a360144b9847636913f4003f12d1bff31d
:1023d8004f8fbff36f8f0022c4f85022bff34f8f87
:1023e800bff36f8f626942f400326261bff34f8faf
:1023f800bff36f8f084b9847084b984702f0e6f8f1
:10240800fee700bfd335000cd335000c00ed00e02b
:1024180000000000d533000cd335000cd335000c78
:020000040000fa
:020000040c00ee
:102428002de9f0410d46164601f0d0f82c1c18bfd6
:102438000124002e08bf0024002808bf002414b976
:102448002046bde8f0810746046804f13c084ff0d7
:10245800ff31404601f003ff012801d00024efe7d7
:102468000023bb602763a069b0f1ff3f16d0e36d7e
:10247800032b09d9012101f0cdfb7300226a2946fb
:10248800207e00f0e3fe0ee0002101f0c3fb33469e
:10249800226a2946207e00f0d9fe04e023699b6960
:1024a8003146284698474ff0ff3104f1440001f0c7
:1024b800c7fe012804d00024404601f0f3fdbfe721
:0c24c80094f83440b4fa84f46409f5e799
:020000040000fa
:020000040c00ee
:1024d4002de9f0410d46164601f07af82c1c18bf80
:1024e4000124002e08bf0024002808bf002414b9ca
:1024f4002046bde8f0810746046804f140084ff027
:10250400ff31404601f0adfe012801d00024efe781
:102514000023bb60e762e069b0f1ff3f16d0e36dd2
:10252400032b09d9012101f077fb73002a46616a64
:10253400207f00f08dfe0ee0002101f06dfb33469c
:102544002a46616a207f00f083fe04e023695b6809
:102554003146284698474ff0ff3104f1480001f016
:1025640071fe012804d00024404601f09dfdbfe720
:0c25740094f83540b4fa84f46409f5e7eb
:020000040000fa
:020000040c00ee
:102580002de9f04780460e46234a244b03cbc2f880
:102590001f00c2f82310042e3cd808eb060508f1f2
:1025a0000107bb19c6f1040753fa87f7072402f1a4
:1025b0001f0adff86c9015f9012b49460aeb04005d
:1025c00001f0c4fe0444e4b2bd42f4d196b108f176
:1025d000ff35013e58fa86f6dff84c80104f15f9aa
:1025e000012f394608eb040001f0b0fe0444e4b2c8
:1025f000b542f4d1084b03f11f010819094a1588a7
:1026000092780d538270a21cd2b2d868fff70cffeb
:10261000bde8f0870724d9e7b4a102202045000ccb
:0c2620002845000c3045000cd3a102201e
:020000040000fa
:020000040c00ee
:10262c00882910b536d012dc812943d003dc8029ef
:10263c0040d0002010bd82290ed08429f9d1196810
:10264c0002b30a1d1a60b1f90020d3171ee0a029ad
:10265c002bd00bdc9029ecd11968073121f0070144
:10266c0001f108021a60d1e900230fe0c02901d062
:10267c00f029ded11a68111d19601368036000235c
:10268c00436005e00a1d1a600a880023c0e9002394
:10269c000120cfe7196822b10a1d1a6091f90020b8
:1026ac00d3e70a1d1a600a78efe71a68111d196042
:1026bc001268cae719681ab10a1d1a600a68c4e7d9
:0c26cc000c1d1c600b68c0e90032e1e747
:020000040000fa
:020000040c00ee
:1026d8002de9f041d2e900230c4686b007465feaaf
:1026e800d37820684968a5680590e66841d05242c9
:1026f80063eb4303002908db20f002000590b8f1e2
:10270800000f02d1059948072ad5691e05a802902d
:102718000a20cde90010204600f0e4fbb8f1000fd4
:1027280002d1059b59071fd5b8f1000f00f1ff3002
:1027380014bf2d232b2333542269059b0093013aa0
:102748002b46121a3118384600f054fa7b68db051c
:1027580003d563689842b8bf184606b0bde8f08153
:102768000807d2d42946d1e71a07e5d5013820232e
:08277800e1e70029c0dac5e722
:020000040000fa
:020000040c00ee
:10278000224b1b681bb1224b01221a60704710b507
:102790001f4b00221a601f4b1b681b6b1a68b2f19b
:1027a000a53f03d15a68b2f1a53f23d0194b196850
:1027b0001868343101f037fe174b1b68b3fa83f306
:1027c000dbb2c3f11f03154a9900c81802eb800061
:1027d00044686468446002460832944213d003ebb4
:1027e00083030e4a02eb83035b68da68094b1a60c5
:1027f0001b6810bd9a68b2f1a53fd7d1db68b3f171
:10280000a53fd3d1d8e7c1684160e8e72ca40220f6
:1028100050a4022018a4022034a40220a0a0022068
:020000040000fa
:020000040c00ee
:10282000002846d038b50446426c914238bf114664
:10283000c26a8a4202d0806c012800d038bde162b1
:10284000a069002802dbc1f10501a16102eb82024f
:10285000184901eb820261699142efd1251d28469a
:1028600001f05afc38b914490b68e06a0122824031
:1028700023ea02030b60e36a0f49086801229a40c9
:1028800002430a600b4a03eb830302eb83035b689a
:10289000a3609968e1604d609d60e06a81000b185b
:1028a0009b00d5186561014452f821100131d150c7
:0c28b000c4e77047a0a0022034a402205e
:020000040000fa
:020000040c00ee
:1028bc00002830d11f4b93f90d30022b2ed010b5c0
:1028cc001c48012202730b6803614b68c3618b685f
:1028dc00836000234360436202840370cb684361ce
:1028ec00cb688361303001f047fcd0b1124801f065
:1028fc0043fcc8b100231a461946104800f092fd5b
:10290c00a8b10c4c23699b6921460d4898470223ba
:10291c006373002007e04ff0ff3070474ff0ff303b
:10292c0070474ff0ff3010bd4ff0ff30fbe74ff01a
:10293c00ff30f8e770a202209ca20220a4a2022081
:04294c005b3e000ce2
:020000040000fa
:020000040c00ee
:1029500000283ed038b50446c36b002b3bd0006c3a
:10296000a0fb03230bb1002036e00d4601f0c2fbb3
:102970002268216ce36b03fb01f3d018a0600020f8
:10298000a06362605b1a1344e360ff2384f8443061
:1029900084f84530a5b923691bb901f0adfd0120cc
:1029a0001ae004f11000fff721fa0028f5d00b4bd4
:1029b0004ff080521a60bff34f8fbff36f8fece779
:1029c00004f1100001f045fd04f1240001f041fd87
:1029d000e3e700207047002038bd00bf04ed00e0b1
:020000040000fa
:020000040c00ee
:1029e00038b5044610f0070305d0c3f10803da43f5
:1029f000824226d31c4401f0e5fd184b1b6873b1dd
:102a00002cb3174b1b68e2439a420ed31c4449f681
:102a1000f77294420cd9fef73ffb1ae000240f4aec
:102a2000104b23f007031360eae7fef735fb10e0d5
:102a30000a4a15681d440a4b1c60fef72dfb5db960
:102a400007e001f0bffd054b1b68002be6d0fef749
:102a500023fb01f0f3fc0025284638bd10a402201a
:082a600014a40220070002206b
:020000040000fa
:020000040c00ee
:102a680000b587b049238df8083044238df8093024
:102a78004c238df80a3045238df80b3000238df850
:102a88000c30134a019200934ff4807202a9114846
:102a9800fef758f8012815d14ff0200372b683f3da
:102aa8001188bff36f8fbff34f8f62b60a4b4ff099
:102ab800ff321a60094b01221a60094b00221a6082
:102ac80000f01cfe074b1b6807b05df804fb00bf55
:102ad80038a402201540000c3ca4022048a402207f
:082ae8004ca4022068a40220a6
:020000040000fa
:020000040c00ee
:102af00000283bd070b50446826c013a8264c06afb
:102b0000616c884200d00ab1002070bd251d2846a6
:102b100001f002fb38b916490b68e06a01228240d5
:102b200023ea02030b60636ce362c3f10502a26156
:102b30000f490e68012000fa03f232430a600d4a81
:102b400003eb830302eb83035b68a3609968e16096
:102b50004d609d60e56aa9004b199b00d61866611f
:102b6000294452f821100144d150cee7002070478b
:082b700034a40220a0a0022001
:020000040000fa
:020000040c00ee
:102b780000283cd02de9f04186461d4b5a6ad0f812
:102b88000880c2b1936844460025984518d30020b0
:102b980000219368c01841f100019369abb1d3f8e3
:102ba80008c010eb0c0641f10007bd4208bfb44253
:102bb8000bd31a46ede7c0f808800d4b586214e0b5
:102bc8000b4b58628261002003e0cef81830c2f83f
:102bd80018e0a8eb0000cef80800def8183023b1a2
:102be800def808109a68521a9a60bde8f0817047ba
:042bf800d8a202203d
:020000040000fa
:020000040c00ee
:102bfc002de9ff471d460c9b13f0010906468a463a
:102c0c00144601d195420bd822465146304601f06c
:102c1c000ffaa54204d82546284604b0bde8f08733
:102c2c002f1b102f3a464ff0200128bf1022684668
:102c3c00b84601f083fc00bfb8f10f0f11d83b0967
:102c4c006ff00f0202fb03726946304601f0f0f997
:102c5c00b9f1000fe0d122465146304601f0e8f9b7
:102c6c00dae710226946304601f0e2f9a8f11008c3
:042c7c00e2e700bfcc
:020000040000fa
:020000040c00ee
:102c800082b00278437843ea02231bb2002b21db97
:102c9000db1107ee103abaeeef7bbdeec77b17ee05
:102ca000103a1bb207ee103ab8eec77af2ee027a8b
:102cb00027ee277af1ee046ac7ee267a9fed0f7aa7
:102cc00077ee877afdeee77acded017a9df9040083
:102cd00002b070475b4243f3c8131bb207ee103ad1
:102ce000b8eec77bbeee006b27ee067bbdeec77b62
:102cf00017ee103a1bb207ee103ad5e7000000427b
:020000040000fa
:020000040c00ee
:102d000070b5054601f0f6f995f8454064b2002c1f
:102d100011dd6b6a7bb105f1240606e001f0b0fc21
:102d2000013c64b23cb16b6a2bb13046fff75ef8f0
:102d30000028f5d0f2e7ff2385f8453001f0dcfbf1
:102d400001f0d8f995f8444064b2002c11dd2b69ec
:102d50007bb105f1100606e001f092fc013c64b283
:102d60003cb12b692bb13046fff740f80028f5d075
:0e2d7000f2e7ff2385f8443001f0befb70bd92
:020000040000fa
:020000040c00ee
:102d7e00842910b523d00cdc812903d0822913d0ed
:102d8e0080290bd119680c1d1c600b6803601a603a
:102d9e0013e0902921d003dc882917d0002010bd24
:102dae00a029efd0c029ece719680c1d1c600b6838
:102dbe000360d1171046c3e900010120efe719683f
:102dce000c1d1c600b6803601a80f6e719680c1d59
:102dde001c600b6803601a70efe719680c1d1c600d
:0c2dee0009680160d317c1e90023e6e783
:020000040000fa
:020000040c00ee
:022dfa00fee7f2
:020000040000fa
:020000040c00ee
:102dfc001b4b1b7d002b31d010b5194a93685168c1
:102e0c00184a127e12f0010f15d0994213d91549a8
:102e1c0013484a6802f00702012a026814bfd25c08
:102e2c0032f813208a62013344680a7e12f0010fd3
:102e3c0001d09c42edd80a4a936052689a420cd851
:102e4c00074b00221a755a60064a01211175db687e
:102e5c001bb1034b1869db68984710bd704700bf66
:082e6c00a8a20220002000468c
:020000040000fa
:020000040c00ee
:102e740071b338b50d4640bb174801f081f90128fc
:102e840002d04ff0ff3038bd2b68144c63604ff410
:102e94007a72e260b5f90420228100200021c4e99d
:102ea40006010025656284f820501b6829460c48f9
:102eb400984763685b689847a0222946094801f04f
:102ec40041fb022323702046dde74ff0ff30dae7b1
:102ed4004ff0ff30704700bf00a30220d8a20220a9
:082ee4000122000c00a00220f5
:020000040000fa
:020000040c00ee
:102eec002de9f84f04460c9f6668d4f80cb02469a1
:102efc0010463a68013c002502f0020a0b9a0bf8c6
:102f0c000450002e1946b8bf0126012390464fea03
:102f1c00e279002c03dcd3b12046bde8f88f50eaef
:102f2c00010209d1721b002a06dc0a9a521b002ae4
:102f3c00f1ddbaf1000feed042464b4600f018ff1f
:102f4c00013c134630320bf804200135e1e73b68b5
:082f5c0023f010033b60dfe7e6
:020000040000fa
:020000040c00ee
:102f640070b504461646856b026c5ab903681bb1ea
:102f740000200135a56370bd8068fff7b7fd00230d
:102f8400a360f6e76eb9406801f0c2f96368226c89
:102f940013446360a268934219d323686360304684
:102fa400e7e7c06801f0b4f9226c5242e3681344c5
:102fb400e36021688b4202d2a3681a44e2600db137
:102fc400022e01d00020d4e7013d0020d1e7304695
:022fd400cfe745
:020000040000fa
:020000040c00ee
:102fd600f8b5eff311864ff0200372b683f311882c
:102fe600bff36f8fbff34f8f62b6836bc26b9a428c
:102ff6001fd90f46044690f845506db201338363de
:10300600b5f1ff3f0bd1436a0bb9012012e0243022
:10301600fef7e9fe8fb180b1012038600ae001f0c9
:1030260026fb85420bd201356db284f8455001204e
:1030360000e0002086f31188f8bd0120fae70120a0
:02304600f8e7a9
:020000040000fa
:020000040c00ee
:1030480010b582b0114b01930124009400234ff472
:1030580080620f490f48fdf775fd0f4b01930094ef
:1030680000234ff480620d490d48fdf76bfd0d4bb1
:103078000193009400234ff480620b490b48fdf73d
:1030880061fdfff7edfc02b010bd00bf08a40220ef
:10309800b836000cc946000c04a40220d036000c37
:1030a800c146000c0ca40220e836000cb946000cfe
:020000040000fa
:020000040c00ee
:1030b80060b310b40446174b1b7d4bbb154b18600f
:1030c800596001221a755868134b1b7e13f0010fc3
:1030d8001ad0c8b1002310494a6802f00702012a31
:1030e80014bfe25c34f813208a6201330a7e12f0be
:1030f800010f01d09842efd8064a93600120064b91
:1031080098755df8044b70470023f5e70020704779
:0c3118000020f6e7a8a2022000200046dc
:020000040000fa
:020000040c00ee
:1031240008b5174b93f82c30cbb1154bda691b6af1
:10313400934214d2124b986a124a916a1b6a5268db
:1031440002f00702012a0e4a926914bfd15422f8f0
:10315400131001330a4a1362d2699a4200d008bd9f
:10316400074b002283f82c20da61064a842111756a
:103174005b6a002bf3d0024b5b6a9847efe700bf12
:08318400a8a202200020004671
:020000040000fa
:020000040c00ee
:10318c004ff08c4301221a601a46d369002bfcd1f4
:10319c004ff08c434ff480725a601a46d369002b5f
:1031ac00fcd14ff08c43af22da600c4a1a601a46fd
:1031bc00d369002bfcd14ff08c4310225a831a4652
:1031cc00d369002bfcd1064b002283f8212083f815
:1031dc0020204ff08c439b229a75704716041000e8
:0431ec0008a3022012
:020000040000fa
:020000040c00ee
:1031f000eff30980bff36f8f154b1a681ef0100fa5
:1032000008bf20ed108a20e9f04f10602de9090079
:103210004ff0200072b680f31188bff34f8fbff3d9
:103220006f8f62b6fff7acfa4ff0000080f31188a1
:1032300009bc19680868b0e8f04f1ef0100f08bf0d
:10324000b0ec108a80f30988bff36f8f70470000dd
:0432500018a402209c
:020000040000fa
:020000040c00ee
:1032540070b400eb4005144c04eb8504247af4b9f3
:10326400114c04eb850401252572104c85002e18a1
:1032740004eb0616b166f266b26f92b242ea0342fa
:10328400b267336d43f001033365736d13f47f0f3d
:1032940008d1336d43f480333365012000e000200e
:1032a40070bc70470120fbe7e4a3022000008544c2
:020000040000fa
:020000040c00ee
:1032b40010b500f027fbfef705fe00f00ff9fff74d
:1032c40063fffef7eaf800f06ffd00f03dfb0c49e8
:1032d4000020fff7f1fa0b4c20600b490020fef7a9
:1032e400ddf8606009490020fff7c2fda06001f02d
:1032f400d1f901f0c9f900f095fffef78ffb10bd7d
:10330400b445000cf0a302201c3d000cd046000c78
:020000040000fa
:020000040c00ee
:1033140070b505460c4600f0ebfe134b1a682368a3
:10332400b3f1ff3f1ad06968104800682e688642de
:1033340001d0914206d9501a834207d80023236052
:1033440001240ce000232360012408e09b1a0b44b1
:103354002360284601f036f8002400e0002401f040
:10336400c9f8204670bd00bf4ca4022040a402202e
:020000040000fa
:020000040c00ee
:1033740000b583b0144b1b7853b101220df1070142
:10338400114b5868fff7a4f870b903b05df804fb5b
:1033940000210846fef7b6fc0b4b5860b0f1ff3f26
:1033a400ebd001221a70e8e7074901230b729df85c
:1033b4000730cb6000234ff0ff3208310348006828
:1033c400fef700f9e1e700bfd4a3022054a40220d1
:020000040000fa
:020000040c00ee
:1033d4000e4a38b5002313600d4a0e4c13600e4a92
:1033e4000e4d13600e4a13600e4a13600e4a536268
:1033f40013610123936001f07ff901f07df9ac4280
:1034040000d338bd54f8043b9847f8e75ca4022085
:1034140070a102200c00000c6ca102201000000c12
:0c34240064a1022068a1022074a1022013
:020000040000fa
:020000040c00ee
:1034300038b504461d4631b101291bd00023036075
:103440004ff0ff301fe0012b01d900201be00322c9
:103450000021012000f0a2f92060012d0fd170b1f0
:1034600000231a461946fef7aff8012814bf0020c2
:10347000012008e01946104600f095fe2060206803
:08348000003018bf012038bd27
:020000040000fa
:020000040c00ee
:1034880008b5144b9b7ddbb1124b1a7e9b7ddbb2da
:10349800d20901d0db0914d10e4b1a7e9b7ddbb219
:1034a80012f0010f02d013f0010f0dd1094b1a7e53
:1034b8009b7ddbb212f0040f02d013f0040f06d18b
:1034c80008bd00f057fbe7e7fff794fceee7fff7ce
:0834d80025fef5e70020004687
:020000040000fa
:020000040c00ee
:1034e000114b124a1a604ff6da429a814ff4403279
:1034f0005a601a46d369002bfcd10b4a136843f07b
:1035000002031360d369002bfcd1094b00229a619e
:10351000da611a6283f82c205a621a605a609a6043
:103520001a75da60da8570470020004604013040e1
:04353000a8a202202b
:020000040000fa
:020000040c00ee
:1035340030b589b015464ff0ff32019202f2031202
:10354400029200b96846cde9030151b14c1e00292d
:10355400059408da094b4f221a604ff0ff3009b086
:1035640030bd0c46f3e700220270cde906001a468e
:10357400294601a800f0dafef1e700bf60a40220aa
:020000040000fa
:020000040c00ee
:1035840038b50446c56a03695b6a984740b90023a5
:10359400ab6084f8353004f1480000f047f938bdd9
:1035a400a26d116888420fd0516888420ad092688f
:1035b400904205d00023ab60012384f83530eae75c
:0e35c400022302e0012300e000230133f3e7bd
:020000040000fa
:020000040c00ee
:0235d200704740
:020000040000fa
:020000040c00ee
:1035d400431e13f1030f16d810f47f4f15d1c3b255
:1035e4000d4a9268934212d203eb83020a4b5b6941
:1035f40003eb8203da6882420bd11a7c002a08bfeb
:103604000023184670470023fbe70023f9e7002353
:0c361400f7e70023f5e700bf04a1022047
:020000040000fa
:020000040c00ee
:10362000114b00229a61da614ff08c439b221a768b
:103630005a6822f480225a601a46d369002bfcd1c2
:1036400069b1094b032283f8202041ea40014ff081
:103650008c4359621a46d369002bfcd17047024b48
:0c366000042283f82020f0e708a30220d9
:020000040000fa
:020000040c00ee
:10366c00114b5a6a0ab1824203d11346002205e07b
:10367c001a469369002b18bf9842f9d19bb110b42c
:10368c0083691bb1846899682144996032b183695c
:10369c009361002383615df8044b7047024b5a6ab7
:0c36ac0092695a62f5e77047d8a202202c
:020000040000fa
:020000040c00ee
:1036b8004150505f53454e534f525f544852454115
:1036c800445f5461736b73004150505f45455052dd
:1036d8004f4d5f5448524541445f5461736b7300ca
:1036e8004150505f555345525f494e5055545f54b1
:0c36f80048524541445f5461736b7300fd
:020000040000fa
:020000040c00ee
:1037040010b50f4b1a6842f47f021a601a6842f02f
:103714007f421a600024043b1c6000f051fc094bfa
:103724001c6000f0ddfe084a136843f04043136058
:1037340000f032fcfff722f800f0c8fc204610bd70
:0c37440020ed00e064a4022034ef00e05f
:020000040000fa
:020000040c00ee
:10375000f8b50f4b1b68d3b10e4f0f4e0c4d00f058
:10376000c9fcfb68dc68201d00f0d6fc3368013b17
:1037700033602b68013b2b6000f0befe206b00f035
:10378000baff204600f0b7ff2b68002be7d1f8bd49
:0c37900028a40220c0a3022024a40220d0
:020000040000fa
:020000040c00ee
:10379c0070b5d8b10546a0fb0132d2b901fb00f0df
:1037ac0010f1490f17d80c464830fff713f90646ad
:1037bc0068b114b100f1480300e003463360f563cf
:1037cc00346401213046fff7bdf800e00026304696
:0a37dc0070bd0026fbe70026f9e7a8
:020000040000fa
:020000040c00ee
:0237e600fee7fc
:020000040000fa
:020000040c00ee
:1037e800431e13f1030f14d810f47f4f13d1c2b244
:1037f8000c4b9b689a4210d20a4bdb6903eb02130d
:103808009a6882420bd19a79002a08bf0023184689
:1038180070470023fbe70023f9e70023f7e70023bd
:08382800f5e700bf70a20220c9
:020000040000fa
:020000040c00ee
:1038300000b583b000230193a8b10068a8b101a925
:10384000fff7c9fb18b9002003b05df804fb019b2a
:103850006bb1084b4ff080521a60bff34f8fbff32c
:103860006f8f0120f0e70020eee70020ece7012059
:08387000eae700bf04ed00e0ef
:020000040000fa
:020000040c00ee
:10387800104b002283f8212083f820204ff08c423f
:10388800136823f002031360d369002bfcd14ff0b7
:103898008c42136843f002031360d369002bfcd1f8
:1038a8004ff08c4310225a831a46d369002bfcd15f
:0838b800704700bf08a30220c5
:020000040000fa
:020000040c00ee
:1038c00010b50278202a034600f10100f9d0a2f1d8
:1038d00009010429f5d92b2a07d02d2a11d101215c
:1038e0000133013b00200a2403e00021f8e7604394
:1038f000801a13f8012f303a092af8d901b9404249
:0639000010bd0021ede7ff
:020000040000fa
:020000040c00ee
:02390600fee7da
:020000040000fa
:020000040c00ee
:103908000f4b4ff40012c3f88020c3f89020002218
:1039180083f8d52083f8ba20012283f8402183f860
:10392800412183f8442183f84721332283f8302149
:10393800032283f83221302283f83321704700bff5
:0439480000008444b3
:020000040000fa
:020000040c00ee
:10394c000c4b01221a601a46936813f0010ffbd13d
:10395c00084b00221a60da63074919640749d962d7
:10396c0007490a6001229a621a469368002bfcd11f
:10397c00704700bf00000145ef4902000ffcff003b
:04398c00fca3022076
:020000040000fa
:020000040c00ee
:1039900038b5044600f0e2fd002c16db63090c4943
:1039a00051f8235004f01f04e54005f00105012201
:1039b00002fa04f4203341f82340bff34f8fbff3e2
:1039c0006f8f00f0d4fd284638bd0025f9e700bf11
:0439d00000e100e032
:020000040000fa
:020000040c00ee
:1039d40010b5054c227832b9044b13b10448aff347
:1039e40000800123237010bd54a3022000000000b6
:1039f4000000000008b5034b1bb103490348aff3b3
:103a0400008008bd0000000058a302200000000050
:020000040000fa
:020000040c00ee
:103a1400b8b138b505460c4a92f82c200ab10020fa
:103a240038bd0c4600f060f9074b9d61dc61002253
:103a34001a62012083f82c00da85044b84229a75db
:103a4400eee70020704700bfa8a202200020004635
:020000040000fa
:020000040c00ee
:103a5400431e13f1030f0fd883b2042b0ed80a4a66
:103a640002eb4312d26982420ad15a0106498a5ca6
:103a740042b101eb431070470020704700207047ab
:0c3a8400002070470020704700a00220c6
:020000040000fa
:020000040c00ee
:103a90000c4b93f820300bb10120704710b54ff05c
:103aa000ff31094800f0dffb012801d0002010bde4
:103ab000044cb4f90800fff76bff84f821000120e3
:0c3ac000f5e700bfd8a2022000a30220fe
:020000040000fa
:020000040c00ee
:103acc0010b50446fff7deffb0b12046fff7bcff90
:103adc00044678b1437843b9002020756075207096
:103aec00044600f041fa204610bdfff7b9fd002353
:0c3afc006370f1e70124f4e70124f4e713
:020000040000fa
:020000040c00ee
:103b080030b50d4a002300bf12f8134024b902eb68
:103b180043035b78184630bd01680d78a54209bf9c
:103b280002eb430301335b78013114bfdbb2016060
:0c3b38000a2be9d9eee700bf7e44000c28
:020000040000fa
:020000040c00ee
:103b44000c4b93f820305bb20bb10020704710b5da
:103b5400084b9880d9605a6100229a601a61012446
:103b64009c701a7083f821202146fff757fd2046e8
:083b740010bd00bf08a30220f0
:020000040000fa
:020000040c00ee
:103b7c000b4b5b8b13f0070300d1704710b5094c4e
:103b8c00e38500f0adf8064b84221a75002384f807
:103b9c002c30636a13b1a06a636a984710bd00bfea
:083bac0000200046a8a202203f
:020000040000fa
:020000040c00ee
:103bb4000b4b93f820305bb20bb10020704710b56b
:103bc4000c46074b98800021d96059619c601a61aa
:103bd4009970197083f82110fff720fd012010bda2
:043be40008a3022010
:020000040000fa
:020000040c00ee
:103be80010b50b4c94f8204064b20cb1002010bd05
:103bf800074ca080e360029b6361a1602261002101
:103c0800a170217084f82110fff706fd0120eee76e
:043c180008a30220db
:020000040000fa
:020000040c00ee
:103c1c0038b50c46c5b2284600f036fc00f0070358
:103c2c00c0f30212022a94bf2146e11c022b88bf6a
:103c3c00033420f0770040ea01112143284600f0bc
:043c4c00bdfa38bdc8
:020000040000fa
:020000040c00ee
:103c500030b40d68b5f1ff3f02d000f1080202e078
:103c6000026904e01a4653681c68ac42fad95368ea
:103c70004b6099608a60516008610368013303609a
:043c800030bc70479d
:020000040000fa
:020000040c00ee
:103c840010b540b90a4b4ff080521a60bff34f8f02
:103c9400bff36f8f10bd044600f092fc0021204654
:103ca400fef70cfbfdf7f6f90028f3d1eae700bfb5
:043cb40004ed00e03b
:020000040000fa
:020000040c00ee
:103cb80070b50a480a4d4ff6ff76016811b9436896
:103cc80003b970bd83684268334000f10c0455f8ad
:103cd80023302046984704eb8000eee72800000ccc
:043ce8003445000c53
:020000040000fa
:020000040c00ee
:103cec000a4b5b8b13f0070f0ed0084b80221a7611
:103cfc0007225a831b7e13f0040f05d0034b9a6adc
:103d0c001a7e12f0040ffad1704700bf0020004653
:020000040000fa
:020000040c00ee
:103d1c00d83d000c03000000f8a1022000000000b8
:103d2c00ffffffff2820004600000000bc44000cf1
:103d3c00b043000c6846000c5c46000c030000000d
:020000040000fa
:020000040c00ee
:103d4c0008b54ff0200372b683f31188bff36f8f61
:103d5c00bff34f8f62b6fdf7cff818b1034b4ff09e
:103d6c0080521a60002383f3118808bd04ed00e033
:020000040000fa
:020000040c00ee
:103d7c0053b94ab9002908bf00281cbf4ff0ff31c6
:103d8c004ff0ff3000f0b2bcadf1080c6de904ce81
:103d9c00fcf778fdddf804e0dde9022304b07047a0
:020000040000fa
:020000040c00ee
:103dac00074b00221a605a601a72064b064a5a6573
:103dbc0001229a6708221a6602221a60704700bf15
:0c3dcc00e4a3022000008544030008006e
:020000040000fa
:020000040c00ee
:103dd8004546000c153a000c2d46000c3946000cdf
:103de800253f000c2146000cb930000c0946000c98
:0c3df8001546000ca545000ced16000c53
:020000040000fa
:020000040c00ee
:103e04004ff0807340f8043c21f0010140f8081c95
:103e1400054b40f80c3c40f8202c6ff0020340f8ae
:0c3e2400243c4438704700bfd140000c23
:020000040000fa
:020000040c00ee
:103e3000802910db812901dd83290cd11368073328
:103e400023f0070303f108011160d3e90023c0e95f
:0a3e50000023012070470020704796
:020000040000fa
:020000040c00ee
:103e5a0038b50446456a03691b69984768716b79e6
:103e6a0033b984f8283004f13400fff7dcfc38bd9c
:083e7a00012384f82830f6e76b
:020000040000fa
:020000040c00ee
:023e8200fee759
:020000040000fa
:020000040c00ee
:103e840000b583b000230193064b1b6a0193019b89
:103e940013f0010f02d103b05df804fb0020fef71c
:083ea4007bf8f8e700008544fb
:020000040000fa
:020000040c00ee
:103eac0000b583b000230193064bdb690193019ba2
:103ebc0013f0010f02d103b05df804fb0020fef7f4
:083ecc0067f8f8e700008544e7
:020000040000fa
:020000040c00ee
:103ed40000b583b000230193064b9b690193019bba
:103ee40013f0010f02d103b05df804fb0020fef7cc
:083ef40053f8f8e700008544d3
:020000040000fa
:020000040c00ee
:103efc0000b583b000230193064b5b690193019bd2
:103f0c0013f0010f02d103b05df804fb0020fef7a3
:083f1c003ff8f8e700008544be
:020000040000fa
:020000040c00ee
:103f2400074b93f82c3043b1064b84221a75044b8b
:103f3400002283f82c20da611a620120704700bf46
:083f4400a8a2022000200046a3
:020000040000fa
:020000040c00ee
:103f4c0010b5074a5168074bd86a4ff6ff74dc620c
:103f5c00db6a136813b1136880b2984710bd00bfb9
:083f6c00fca302200000014546
:020000040000fa
:020000040c00ee
:103f740010b5084c94f82110b4f9080000f032f997
:103f840094f8203003b110bd04f1280000f08cf83f
:083f9400f9e700bfd8a20220ea
:020000040000fa
:020000040c00ee
:103f9c0008480068006880f308884ff0000080f340
:103fac00148862b661b6bff34f8fbff36f8f00df1b
:083fbc0000bf000008ed00e069
:020000040000fa
:020000040c00ee
:103fc400054b00221a6005490a60054a054911603b
:103fd40007221a60704700bf10e000e018e000e01c
:083fe40014e000e0df9304008b
:020000040000fa
:020000040c00ee
:103fec00074b1b681b6823b9064b4ff0ff321a6056
:103ffc007047034b1b68db681a68024b1a607047ea
:08400c001ca402203ca40220c8
:020000040000fa
:020000040c00ee
:1040140008b5074c074e4ff08055fff797fb236810
:10402400012bfad93560bff34f8fbff36f8ff4e7dd
:08403400a0a0022004ed00e051
:020000040000fa
:020000040c00ee
:10403c0038b50569954228bf154604465db12a4638
:10404c00406900f061f9636922692b44551b002219
:08405c00636125611a7038bd93
:020000040000fa
:020000040c00ee
:1040640008b5012806d0022808d001f14800fff75e
:10407400ddfb08bd002381f83530f6e7012381f824
:044084003530f2e7fa
:020000040000fa
:020000040c00ee
:1040880008b5012806d0022808d001f14400fff73e
:10409800cbfb08bd002381f83430f6e7012381f813
:0440a8003430f2e7d7
:020000040000fa
:020000040c00ee
:1040ac0008b558b1006858b100231a461946fdf7f7
:1040bc0085fa012814bf0020012008bd0020fce770
:0440cc000020fae7ef
:020000040000fa
:020000040c00ee
:1040d00082b0002301934ff0200372b683f311885e
:1040e000bff36f8fbff34f8f62b6019b002bfcd0e5
:0440f00002b0704763
:020000040000fa
:020000040c00ee
:1040f4004ff0200372b683f31188bff36f8fbff3c1
:104104004f8f62b6024a136801331360704700bfd1
:0441140064a402207d
:020000040000fa
:020000040c00ee
:104118000369416882688a60416851605a688242ce
:1041280005d000220261186801381860704782685b
:044138005a60f6e7ec
:020000040000fa
:020000040c00ee
:10413c00026c72b110b5c3681344c3608468a342a7
:10414c0001d30368c3600c46c168204600f0dcf85c
:04415c0010bd7047db
:020000040000fa
:020000040c00ee
:1041600010b5024600210120fff718fb044638b1c4
:10417000002181600160c1600b460a46fdf724fa08
:04418000204610bd08
:020000040000fa
:020000040c00ee
:1041840068b110b5044602680ab1002010bd0120d0
:10419400fff7e4ff2060003018bf0120f6e700209d
:0241a400704762
:020000040000fa
:020000040c00ee
:1041a60060b188420ad310b50c4602220021fff7ff
:1041b600f2fa034600b18463184610bd0023184680
:0241c600704740
:020000040000fa
:020000040c00ee
:1041c80000eb8000054b03eb0010036d13f0010fab
:1041d80002d14165012070470020704700008544e6
:020000040000fa
:020000040c00ee
:1041e800002800db01b97047420900f01f000123d5
:1041f80003fa00f0014b43f82200f4e700e100e085
:020000040000fa
:020000040c00ee
:10420800064b19680868b0e8f04f80f30988bff3d7
:104218006f8f4ff0000080f31188704718a40220b8
:020000040000fa
:020000040c00ee
:1042280008b50022044b1a7008210320fff7b2fae0
:10423800024b186008bd00bfd4a3022054a402207a
:020000040000fa
:020000040c00ee
:1042480008b540b1006840b1fcf7dcff012814bf95
:0e4258000020012008bd0020fce70020fae74e
:020000040000fa
:020000040c00ee
:1042660008b540b1006840b1fcf7cdff012814bf86
:0e4276000020012008bd0020fce70020fae730
:020000040000fa
:020000040c00ee
:1042840010b50023934206d113f0030018bf012098
:0e42940000eb930010bdc45ccc540133f2e784
:020000040000fa
:020000040c00ee
:1042a20041b110b50c46fff79efa28b12268c260f0
:0c42b200012010bd002070470020fae73a
:020000040000fa
:020000040c00ee
:0242be00fee719
:020000040000fa
:020000040c00ee
:1042c00030b4054b44002518ad005951044403ebac
:0c42d00084035a6030bc7047e4a3022055
:020000040000fa
:020000040c00ee
:1042dc00453b000cb53b000ce93b000c7938000c5d
:0c42ec00fd45000c1919000cf145000cf8
:020000040000fa
:020000040c00ee
:1042f80010b50c46044b19681831fff7a5fc0121cd
:0c4308002046fdf7d9ff10bd18a40220cc
:020000040000fa
:020000040c00ee
:104314005ab110b40a44431e11f8014b03f8014f7b
:0c4324009142f9d15df8044b70477047de
:020000040000fa
:020000040c00ee
:1043300013b50446019201aafcf726f9636813f04d
:0c434000100f18bf4ff0ff3002b010bd8e
:020000040000fa
:020000040c00ee
:10434c000eb403b503aa52f8041b019200f0a4f9b1
:0a435c0002b05df804eb03b07047f7
:020000040000fa
:020000040c00ee
:1043660010b584b004240294079c0194069c009422
:08437600fcf7f5ff04b010bdd7
:020000040000fa
:020000040c00ee
:02437e00fee758
:020000040000fa
:020000040c00ee
:10438000044a136843f002031360936813f0020faa
:08439000fbd17047000001455c
:020000040000fa
:020000040c00ee
:10439800044a136823f002031360936813f0020fb2
:0843a800fbd170470000014544
:020000040000fa
:020000040c00ee
:1043b000020000000000000000000800fffffffff7
:0843c000fffffffffffffffffd
:020000040000fa
:020000040c00ee
:1043c800034b1b680360034b1b684360704700bfc7
:0843d80040a402204ca40220c5
:020000040000fa
:020000040c00ee
:1043e00054656d7065726174757265203d20256439
:0843f00020460d0a000000bf89
:020000040000fa
:020000040c00ee
:1043f80003783bb1034600bf13f8012f002afbd115
:08440800181a704718467047ae
:020000040000fa
:020000040c00ee
:1044100010b584b002240294002401940094fcf7a7
:06442000a1ff04b010bd75
:020000040000fa
:020000040c00ee
:104426004ff0200372b683f31188bff36f8fbff38b
:064436004f8f62b6fee7a5
:020000040000fa
:020000040c00ee
:10443c004ff0200372b683f31188bff36f8fbff375
:06444c004f8f62b6fee78f
:020000040000fa
:020000040c00ee
:1044520000f1080343604ff0ff328260c3600361e2
:0644620000230360704717
:020000040000fa
:020000040c00ee
:1044680010b50446fff742fea46b00f041f8b4fa19
:0644780084f0400910bdb4
:020000040000fa
:020000040c00ee
:10447e0068076c094c836a9074a07ac000806888c3
:06448e0000846c82008135
:020000040000fa
:020000040c00ee
:10449400013000eb80000001014b1858704700bf49
:0444a4000400854447
:020000040000fa
:020000040c00ee
:1044a800034b18641a46936813f0800ffbd17047ca
:0444b80000000145ba
:020000040000fa
:020000040c00ee
:1044bc0005000000060000000700000000000000de
:0444cc0001000000eb
:020000040000fa
:020000040c00ee
:1044d0005146000c8143000c9943000cb146000c7e
:0444e000a944000cdf
:020000040000fa
:020000040c00ee
:1044e400dff80c00016841f47001016070470000be
:0444f40088ed00e06f
:020000040000fa
:020000040c00ee
:1044f800034a1368013b13600bb983f311887047b3
:0445080064a4022085
:020000040000fa
:020000040c00ee
:10450c00034b186810b1836c01338364704700bf90
:04451c0018a40220bd
:020000040000fa
:020000040c00ee
:10452000454550524f4d3a002564467c000000003e
:044530000d0a000070
:020000040000fa
:020000040c00ee
:104534008145000c8542000ce746000ce746000c60
:04454400e746000c3a
:020000040000fa
:020000040c00ee
:1045480032b1c9b20244034603f8011b9342fbd1be
:04455800704700bfe9
:020000040000fa
:020000040c00ee
:10455c00eff3108072b6bff35f8fb0fa80f04009b2
:02456c00704796
:020000040000fa
:020000040c00ee
:10456e0018b1bff35f8f62b6704772b6bff35f8f3d
:02457e00704784
:020000040000fa
:020000040c00ee
:104580000a440023914201d10020704701f8013b09
:02459000f8e74a
:020000040000fa
:020000040c00ee
:1045920008b5002380f834304430fff748f908bded
:020000040000fa
:020000040c00ee
:0245a200fee732
:020000040000fa
:020000040c00ee
:1045a400024bd88d0022da85704700bfa8a20220f2
:020000040000fa
:020000040c00ee
:1045b400dc42000c34a30220020000009001000041
